:10000000B3C70000C3C70000C1C70000BFC70000DE
:10001000BDC700000C943D27B9C700000C94AC0E7E
:10002000B5C70000B3C700000C945C1F0C942F27C9
:100030000C9421270C94361FA9C70000A7C7000005
:100040000C94FB26A3C70000A1C700009FC70000B7
:100050009DC700000C94AD0E99C7000097C7000023
:1000600095C7000093C70000BC09BE09C209CC09AE
:10007000CA09C609C609C809BE00B700B000100801
:10008000407E01013E01013E01013E01017E4040F2
:1000900018000720080808F80000002060A03FA012
:1000A0006020020202FF0202021010101F00000076
:1000B000050842818989760508C2A19189860508CB
:1000C000000402FF0010100508F87838588809105D
:1000D00003081C3E7F0D080710FF818181F1E1C1FB
:1000E000FF4040404743410D080110FFFF11080346
:1000F00010F1E1C14743410E000820212112206088
:10010000E0E0E0FEFE0402010001037F7F21C2C4A3
:10011000C4C04094840007030102040E080210FECC
:10012000FE7F7F00000000110005202060E0E0E07D
:100130000201000103C2C4C4C0400703010204520B
:1001400045465F523D005245465F433D00203E31EB
:1001500030306E4600706E056D006B4D0104100965
:100160000A0C00111111131D101000000E11110ABC
:100170001B00041F111111111F04001E0203021E97
:100180000000000F0818080F00001113171F1713A5
:10019000110011191D1F1D1911001B1B1B1B1B1BFF
:1001A0001B005244533D005B435D0031080308339C
:1001B00020005B524C5D003108070608090A08332D
:1001C0002000432B455352405450313A330066408F
:1001D00054503200203530487A00433020005269B4
:1001E0005F4C6F3D0052695F48693D0052303D00F1
:1001F00052482F524C002B52482D2031322031339F
:10020000203233002B524C2D20313220313320321A
:10021000330052482B0052482D005248663D005290
:1002200065663D00494345733D00494345303D0007
:1002300056657273696F6E20312E31326B0008097A
:100240000A080008070608002A0120200008020802
:1002500000080108004E6F742063616C696272616E
:100260007465642120466F72FF63616C696272611C
:1002700074696F6E20636C616D70207468652033E3
:10028000FF70696E7320746F6765746865722061B2
:100290006E64207374617274207769746820746866
:1002A00065FF6B65792E2041636B6E6F776C6564BB
:1002B0006765207468652073656C662D746573745A
:1002C000207769746820746865206B657920776988
:1002D0007468696EFF32732E20446973636F6E6EAB
:1002E0006563742070696E73206166746572207432
:1002F0006865FF6D657373616765202269736F6C54
:10030000617465FF50726F626521222069732073EA
:10031000686F776E2E20536F667477617265206107
:100320006E6420646F63756D656E746174696F6E61
:100330002069732061742073766E3A2F2F206D69C7
:100340006B726F636F6E74726F6C6C65722E206E61
:1003500065742F7472616E736973746F7220746543
:1003600073746572200049723D004C3D0020566C4C
:100370006F73733D00204553523D005643433D008B
:1003800043656C6C2100080308004056673D00205F
:1003900056743D0055663D005562653D0020313282
:1003A000333D0050696E2000424A542D504E50009B
:1003B000424A542D4E504E00433D0043673D006875
:1003C00046453D002D49474254004A464554002DBC
:1003D0004D4F5300444320507772204D6F646500A9
:1003E0004F4B004261742E2000436F6E7472617334
:1003F000740073686F72742050726F6265732100AD
:1004000053656C6674657374007475726E21007246
:100410006F7461727920656E636F6465720031304C
:100420002D6269742050574D00662D47656E6572C8
:1004300061746F7200537769746368206F66660039
:1004400053686F77206461746100566F6C746167E4
:1004500065004672657175656E6379005472616EF0
:10046000736973746F720053656C656374696F6E42
:100470003A005465737420456E640069736F6C6153
:1004800074652050726F626573210053656C6674E9
:10049000657374206D6F64652E2E0054696D656FF1
:1004A000757421006F722064616D6167656420005E
:1004B0004E6F2C20756E6B6E6F776E2C206F7200F6
:1004C00020756E6B6E6F776E005468797269737405
:1004D0002E00547269616300706172740064616D12
:1004E000616765642000656D7074792100776561CE
:1004F0006B0054657374696E672E2E2E00BA0387E5
:100500000358032E030703E402C302A40288020077
:1005100000140029003E005300690080009700AEDF
:1005200000C600DF00F80012012D014901650182BB
:1005300001A001BE01DE01FF012102440268028E1A
:1005400002B502DE020903350364039403C803FE07
:100550000337047304B404F90443059305EA054919
:1005600006B3062907AE074808FF08DE09AF57B9EA
:1005700050C24A97451141133D87395A367E33E8B8
:10058000308E2E692C712AA128F5266925F923A21F
:1005900022622137201E1F161E1E1D341C571B856C
:1005A0001ABF1903195018A61704176A16D6154949
:1005B00015C2144114C5134E13DC126E1205129F9E
:1005C000113D11DF10841000000000000000000049
:1005D000000000000000001E2121211200807F0089
:1005E00000007E4A4A4A34000000000000FC40201F
:1005F00010080402010000000101010101010101D4
:1006000001010101017F0488D0E0F0F80000000042
:100610000000000000000000000000000000FC944A
:10062000948400000102FC000000000000000000B3
:100630000000001E21212112E0C0804020100F0088
:100640000000C020202040000000FC00009E9E040E
:100650000303030302000000202023242525232078
:1006600020203F00007B7B2142840480C0000000EA
:100670000000000000000000000000FC94948400D2
:10068000040607070708F000000000000000000053
:1006900000000000803F2121120C00000000FF003C
:1006A0000000F0084848C80000FE0000E781818192
:1006B000C1E1F18181810100202020212121202020
:1006C000203F0000F340404041434740407FC0008E
:1006D00000000000000000000000000000489494AA
:1006E000946400000000FF00000000000000000013
:1006F000000000000000003F2121120C0000FF005C
:100700000000F0084848D0000000000000FEFE0491
:100710000404040404040700080808090909080877
:100720007F3E1C08087F7F20202020202020E00022
:100730000000000000000000000000000000004871
:10074000949494640000FF0000000000000000008A
:100750000000FF003C0A090A3C002231292926003A
:100760000082868E9EBEFEFEBEDEEFF6FAFEFEFA2A
:10077000F2E2C28200000008080804027984A4A4FE
:100780006800FF0000000000000000000000000002
:1007900000000000000000000000FF0000F028241E
:1007A00028F0001008FC000000000000000000001D
:1007B00000003C0A090A3C00FF00000000000000A5
:1007C0000000000000000000000000040C1C3C7C45
:1007D000FF7C3C1C0C040000000000009EA1A9A9A5
:1007E0009A804323130B0703FF0303030303030050
:1007F00000000000000000000000788484844800AD
:10080000FF000000000000000000F00804E21109F1
:1008100009090909090909091121C2040810E000A0
:1008200000000102040407000000000080402010C6
:1008300088442310080403000000000000000000AA
:100840000000FE0100FC02010000000000000000AA
:100850000000000000000000000079494979000014
:100860000000000000000040F0101010F0400001F7
:10087000010101010040F8F0E040F84000030100F0
:1008800000030040F840E0F0F840000300000103DE
:100890000040FCFC00FCFC4000070700070700E0EC
:1008A000101010E000000407000704000000F8002A
:1008B00000F000000E010201030200080808080809
:1008C000F8400202020202030040F8080808080883
:1008D000000302020202024040404040404000004B
:1008E00000000000004040C0000080000000010245
:1008F00002010200800000C040400201020201002B
:1009000000000000000000000000000000000000E7
:1009100000000000000000000000000000000000D7
:1009200000000000000000000000000000000000C7
:1009300000000000000000000000000000000000B7
:100940000000000000000000F80402FE02000C0796
:100950000404070C00FE000000FE0000070404046D
:10096000070C00FE00FE00FE000007040704070C51
:100970000000E01008F808000C070404070C00E071
:1009800014FC14E00000010A0F0A010000F8000046
:1009900000F8000007040404070C00F800F800F851
:1009A000000007040704070C00000000000000001E
:1009B0000000000000000000000000000000000037
:1009C0000000000000000000000000000000000027
:1009D0000000000000000000000000000000000017
:1009E0000000000000000000000000000000000007
:1009F00000000000000000000000000000000000F7
:100A000000000000000000000000000000000000E6
:100A100000000000000000000000000000000000D6
:100A200000000000000000000000000000000000C6
:100A3000000000000000003CFE3C00000000001B25
:100A400000000000160E00160E000000000000005E
:100A50000008FE0808FE0800010701010701003830
:100A6000FE4484FE0800041F08081F07001C149C95
:100A7000402018000601000E0A0E008854225488F7
:100A8000C000030404020106000000160E0000006E
:100A900000000000000000F008040202000003044F
:100AA00008101000000002020408F00000101008F6
:100AB0000403004850E0E050480002010000010239
:100AC00000004040F0404000000000010000000035
:100AD0000000000000000000160E00000040404032
:100AE0004040400000000000000000000000000046
:100AF00000000000060600000000008040201000FA
:100B000002010000000000F804020204F8000102E3
:100B10000404020100000804FE02000000000407B3
:100B20000400000804824224180006050404040698
:100B300000060212122AC60001020404020100E0AB
:100B4000988680F88000000000040704003E22120E
:100B50001222C60001020404020100F8241212222B
:100B6000C000010204040201000602C262321E003B
:100B7000000007000000008854222254880001026F
:100B800004040201003844828244F8000004040492
:100B900002010000003030000000000006060000E6
:100BA000000000303000000000000A0600000000D5
:100BB00040A01008040000000001020400202020D2
:100BC000202020000101010101010000040810A003
:100BD00040000004020100000018048242241800B2
:100BE00000000D00000000F804629294F800010279
:100BF000040404020000F8848284F8000007000066
:100C000000070002FE222222DC0004070404040381
:100C100000F8040202040E000102040404030002AE
:100C2000FE020204F8000407040402010002FE228E
:100C3000720206000407040404060002FE22720287
:100C4000060004070400000000F8040282848E00FD
:100C50000102040402070000FE202020FE0000071D
:100C60000000000700000002FE0200000000040770
:100C700004000000000002FE020000020404030061
:100C80000002FE22F09C0600040704000704000294
:100C9000FE02000000000407040404060000FE1C1D
:100CA000701CFE0000070000000700FE1C70C0FE64
:100CB000000007000001070000F804020204F80029
:100CC0000102040402010002FE4242423C00040709
:100CD0000400000000F804020204F8000102040508
:100CE00002050002FE42C2423C0004070000070465
:100CF000000C122222448E000102040402010000B2
:100D00000E02FE020E000000040704000000FE00B8
:100D10000000FE0000030404040300007EC000C0C5
:100D20007E000000010701000000FE80F880FE0048
:100D3000000107010701008ED87070D88E000700EF
:100D400000000007003E60C0603E00000004070491
:100D500000000006824222120E000704040404066A
:100D60000000FE0202020000000F08080800000850
:100D7000102040800000000000000001020002027C
:100D800002FE0000000808080F000000080402042A
:100D9000080000000000000000000000000000004B
:100DA0000808080808080800000E160000000000E7
:100DB0000000000000C0282848F0000003040404DC
:100DC00003040002FE120808F000040704040403F0
:100DD00000E010080810380001020404040200F0CA
:100DE000080810FE020003040404070400E09088D1
:100DF0008890E000010204040400000010FC1212BC
:100E0000040000040704000000F0080808F00800CF
:100E1000010A0A0907000002FE100808F000040792
:100E20000400000700000016F600000000000407A0
:100E300004000000000016F6000000040808070087
:100E40000002FE40F09808000407040007040000B8
:100E50000002FE0000000000040704000008F8087B
:100E6000F008F0000407000700070008F810080861
:100E7000F00004070000000700E010080810E00080
:100E80000102040402010008F0080808F000080F3D
:100E90000902020100F0080808F008000102020936
:100EA0000F080008F82010083000040704000000B4
:100EB000003048484890380002040404040300004D
:100EC00010FE1010000000000304040200F80000EF
:100ED00000F808000304040207040078C000C0788A
:100EE000000000010701000000F880F080F8000019
:100EF0000107010701000018B0C0C0B018000603C8
:100F0000000003060008F80000F8080000090A0ABB
:100F1000070000180888482818000605040404067D
:100F2000000040A01C0202000000000708080000AA
:100F300000003E0000000000001F00000000020250
:100F40001CA0400000080807000000040602060478
:100F5000060000000000000000000000000000008B
:100F6000000000000000000011241FBECFEFD8E0F9
:100F7000DEBFCDBF11E0A0E0B1E001C01D92AA3BF1
:100F8000B107E1F70E9467300C94AA3839C85D9820
:100F9000559A80FD599A80FF5998519A539A5A98B8
:100FA00067FD5B9A67FF5B985A9A5A9866FD5B9A51
:100FB00066FF5B985A9A5A9865FD5B9A65FF5B9845
:100FC0005A9A5A9864FD5B9A64FF5B985A9A5A98A9
:100FD00063FD5B9A63FF5B985A9A5A9862FD5B9A2D
:100FE00062FF5B985A9A5A9861FD5B9A61FF5B9821
:100FF0005A9A5A9860FD5B9A60FF5B985A9A5D9A7C
:101000005A9808951092110110920401109205014E
:1010100010921001089581E0809311011092040153
:1010200082E08093050110921001089582E0809380
:1010300011011092040184E08093050110921001C7
:10104000089583E0809311011092040186E080935B
:101050000501109210010895609304018093050129
:1010600087E0689F602D112460931001089590918E
:1010700011019F5F90931101943038F093E09093A9
:10108000110191E090934B0102C010924B0190919D
:101090001101682F892F880FDFCFE9DFC3C5809149
:1010A000040180930101809111018093030108954F
:1010B0008091030160910101880FCECF8DE0A9D40A
:1010C0008AE0A7C4CF93C82F682F80E060DFCF7B72
:1010D000C03809F4F3DFCF9108958EEAF3DF85EA93
:1010E000F1CFCF93DF93C0E080E1ECDF80E0EADF77
:1010F0008C2F806BE7DFD4E860E081E048DFD150DF
:10110000D9F7CF5FC83081F7D9DF7CDF10921101AA
:10111000DF91CF91089558985A985B985D98509AAE
:10112000529A539A559AA6D45D9A559A5998519ABB
:1011300084E1A7D4589A86E0A4D48EEAC3DF82EE75
:10114000C1DF82EABFDF80EABDDF80ECBBDF8FE278
:10115000B9DF84E2B7DF81E8B5DF80E090E00E948C
:101160006C388F73AFDF80E4ADDF84EAABDF86EAF3
:10117000A9DFB7DF8FEAA6DF109204011092050104
:101180001092100108950895582F28E030E090E85B
:1011900041E080E0642F652309F0892B440F969588
:1011A0002150310921153105A9F70895A0E0B0E0DB
:1011B000ECEDF8E00C94D737EC016A3708F06BC01F
:1011C000483308F068C0342E369436943694F12CA7
:1011D000E40EF11C81E0E81AF10843E0F594E7948D
:1011E0004A95E1F7122F127021FF0BC0C701992712
:1011F00083199109089FA001099F500D1124C40F64
:10120000D51F97E09E1510F437E0E32E80E8801B91
:10121000861BF82EF2949FE0F9229F2D9061F92E03
:101220008F70582E2170422EA02EB12C450181E0E6
:10123000881A9108E31450F1832D806B43DF8F2DC2
:1012400041DF852D3FDFC12CD12C3E01680C791C7C
:10125000C01698F4411004C0F301EC19FD0903C055
:10126000FE01EC0DFD1D849111118EDF682F81E0D0
:101270008EDE9FEFC91AD90AEBCF112319F0CA19D4
:10128000DB0902C0CA0DDB1D3394D4CF8091050168
:101290008F70806B17DFCDB7DEB7E1E10C94F337C9
:1012A000EF920F93282F8F7030E6839FC001112497
:1012B00089539A4F322F307324FF02C028E001C0B7
:1012C00028E420931201303218F01092000108C077
:1012D00020E220930001209112012D5E2093120143
:1012E00050E2E52E08E120E04091000160911201FA
:1012F0005DDF0F91EF900895EF920F93262FFC0181
:10130000649131964491FC0132960491FC0133962C
:10131000E49050910001450F50911201650F049621
:1013200045DF0F91EF90089560E0E6CFEF920F93C5
:10133000CF93C82F40910501440F440F440F2EE076
:10134000829FC001112460E1E62E07E020E0609159
:1013500010018959974F2ADF80911001895F80938E
:1013600010014C2F50E0FA013197E830F105D0F42C
:10137000EC5CFF4F0C940D388EE305C08CE749D32D
:101380008CE311C08CE745D38CE70DC082E50BC020
:101390008DE209C085E707C08FE43BD388E639D3E7
:1013A0008DE601C08C2F35D3CF910F91EF9008952A
:1013B0008F5CBCCF80E2BACFA1E0B0E0E2EEF9E012
:1013C0000C94E637882329F08983F4DF89818150E2
:1013D000F9CF2196E2E00C94023884E1EDCF12DEE1
:1013E000FCDF10CE18DEF9DF16CE8DE39FCFCF9352
:1013F000DF93EC018991882311F098DFFBCFDF9117
:10140000CF910895CF93DF93EC01FE018491982F43
:101410009F7719F08BDF2196F8CFDF91CF91089558
:10142000EF920F93FC0104913196E4900296BEDE98
:101430000F91EF9008950F938BEB93E0E3DF4091D2
:1014400092014D3F64F4609180017091810180911F
:1014500082019091830103E026E4E3D002C08FE390
:1014600065DF0F91089597FF09C08F939F938DE2D9
:101470005DDF9F918F91909581959F4F65E271E01F
:101480004AE050E00E945838B2CFEF92FF920F939B
:101490001F93182F062FF42E8DE993E0B3DFEE246F
:1014A000E0914901F0914A018685E81611F4812FF7
:1014B00009C08485E81611F4802F04C08585E816DC
:1014C00011F48F2D33DFE3948E2D833049F71F9174
:1014D0000F91FF90EF900895EF92FF920F931F935B
:1014E000182F062FF42E80E0D8DD83EA93E08ADF00
:1014F000EE248E2D5DDF79DFE0914901F0914A0104
:101500008685E81611F4812F09C08485E81611F448
:10151000802F04C08585E81611F48F2D07DF4ADF80
:10152000E3948E2D833029F71F910F91FF90EF9058
:101530000895682F80E092E0662309F491E062301C
:1015400009F481E008950F93082FEEEAF1E0880F87
:10155000880FE80FF11D608171818281938164366B
:1015600071058105910578F420910201222359F437
:10157000802FDFDF692F0E94AB22BC0180E090E06A
:101580004EEF03E002C04FEF04E024E04AD012DF48
:101590000F910895863058F4E2EAF1E0E80FF11D6A
:1015A000E80FF11D8081918163E0FAD003CF0895A7
:1015B0001F93182F80917C01882319F0FBDE80E0B7
:1015C000B5DE29DD84E993E01DDF812F82958F70E0
:1015D000E1DF812F8F70DEDF1F910895CF93DF93BE
:1015E0008091130182958F70C6E9D1E0C80FD11D9B
:1015F0008881DEDE81E592E005DF8E81D9DE81E53E
:1016000092E000DFC6E9D1E0809113018370C80F3A
:10161000D11D8E81CDDE80911301CADFDF91CF9184
:101620000895A0E0B0E0E7E1FBE00C94DC37142F74
:10163000C22F033009F4A1C0043009F4A5C005305D
:1016400051F0063081F00730B1F0B4E6CB2ED12C4A
:10165000E12CF12C17C0A0EACA2EA6E8DA2EEE245F
:10166000E394F12C0FC0F0E4CF2EF2E4DF2EFFE084
:10167000EF2EF12C07C0E0E8CE2EE6E9DE2EE8E9F9
:10168000EE2EF12C5AE0852E912CA12CB12C6C154C
:101690007D058E059F0560F06B5F7F4F8F4F9F4FDD
:1016A000A50194010E943A37CA01B9011F5FEFCF2B
:1016B0000CE0010F07FD04C0033118F002E101C086
:1016C00000E01BEA019F112D11241695212F220FF6
:1016D000210F021B21F01F5F23E0201B022F2AE0B5
:1016E00030E04AE351E00E943538AAE3B1E00D90C2
:1016F0000020E9F71197AA53B140BA2E9D01332774
:10170000802F90E004968217930714F41F5F0D5FFB
:10171000E12FF0E0EB5AFE4FA490DA2FD01B1D16FC
:1017200034F08EE203DEDD2311F080E3FFDD0111F2
:1017300001C0DFEF4AE3E42E41E0F42E8701CD2E15
:10174000DD24C7FCD094802F8E198B1568F4F80126
:1017500081918F01EBDD98012A5331402C153D0515
:1017600091F78EE2E3DDEFCFAA2011F08A2DDEDDC6
:10177000CC2389F08C2FDADD0EC038EEC32E33E097
:10178000D32EE12CF12C7ECF20E1C22E27E2D22EE7
:10179000E12CF12C77CFCDB7DEB7ECE00C94F83725
:1017A0000F93062FBC0180E090E026E54DEF39DF76
:1017B0000F910895E82FF0E0EE0FFF1FE858FF4F5C
:1017C0008591949120910001420F20911201620FA6
:1017D00020E026CECF93DF93C82FD62FE09149018A
:1017E000F0914A0148E16EE18685E4DFE09149012C
:1017F000F0914A014D2F6C2F8485DCDFE091490187
:10180000F0914A0140E06EE18585D4DFDF91CF9110
:101810000895CF9366DC80E343DD62E080E990E0E9
:101820006BDD80E23DDD85EC90E07EDD60E085E013
:1018300013DC80EB93E0E6DD69E085E00DDC88EA0F
:1018400093E0E0DD88E99AE3B0D14BDC83E128DD69
:1018500083E026DD8EEC90E067DD61E082E0FCDB7A
:101860008EE464DD8DE262DD8AEC93E0CBDD6AE03C
:1018700082E0F2DB80E55ADD8DE258DD8AEC93E010
:10188000C1DD88E99AE391D12CDC81E309DD81E2B5
:1018900007DD87E291E048DD60E085E0DDDB8EE496
:1018A00045DD8DE243DD85E441DD84EC93E0AADD96
:1018B00069E086E0D1DB80E539DD8DE237DD85E466
:1018C00035DD84EC93E09EDD88E99AE36ED109DC96
:1018D00081E1E6DC8BE191E027DD81E0E1DC87EF6F
:1018E00090E022DD60E081E0B7DB8EE41FDD8DE279
:1018F0001DDD84E41BDD84EC93E084DD69E082E09F
:10190000ABDB80E513DD8DE211DD84E40FDD84ECDB
:1019100093E078DD88E99AE348D1E3DB82E3C0DC39
:1019200082E2BEDC8DEE90E0FFDC60E085E094DBDF
:101930008EE4FCDC8DE2FADC85E4F8DC8FEC93E0ED
:1019400061DD69E086E088DB80E5F0DC8DE2EEDCDD
:1019500085E4ECDC8FEC93E055DD88E99AE325D152
:10196000C0DB82E19DDC87EE90E0DEDC82E098DC8B
:1019700085ED90E0D9DC61E081E06EDB8EE4D6DCC1
:101980008DE2D4DC84E4D2DC8FEC93E03BDD6AE0D2
:1019900082E062DB80E5CADC8DE2C8DC84E4C6DC80
:1019A0008FEC93E02FDD88E99AE3FFD09ADB2ADB06
:1019B00083E492E027DD2FDB8EE392E023DD36DB4C
:1019C00086E893E01FDD3DDB81E592E01BDDF2DC84
:1019D0008DE492E017DDC0E08C2F8F7071F48C2FB6
:1019E0008F7321F488E99AE3E0D07BDB60E08C2FF1
:1019F00086958695869586702FDB80E28C0F96DC27
:101A0000CF5FCF3549F788E99AE3CFD06ADBCF9132
:101A100008958F932F932AE080953B9A089410F4B1
:101A2000439802C0439A000020D027D086952A957B
:101A3000B1F72F918F91089503D002D001D000D03B
:101A400000D003D002D001D000D0A89500D003D0A0
:101A500002D001D000D000D003D002D001D000D0FD
:101A600000D003D002D001D000D000D003D002D0EB
:101A700001D000D000D003D002D001D000D00000AF
:101A8000089590E0893C28F0885C48EC849FC00170
:101A90001124009709F4089520918100277019F00E
:101AA000DBDF019716C08130910519F002973EE304
:101AB00003C037E180E090E02091B200230F209333
:101AC000B30042E04093700027E023BF889526E0F2
:101AD00023BFA895DECF8F9384E0D3DF07C08F9319
:101AE00082E0CFDF03C08F9381E0CBDF8F911F9324
:101AF000182F106410937C00E12FE0788091300162
:101B0000E81759F0E0933001B0DF8EE980937A0056
:101B100083E083BF889582E083BF20E030E0A901A5
:101B2000E0E01FC08EE980937A0083E083BF889550
:101B300082E083BF6091780070917900260F371F93
:101B4000411D511DE43061F480913201803041F03B
:101B500084E02030380720F417FD02C01068CACF97
:101B6000EF5F80912F01E817E8F2609133017091E7
:101B7000340117FF04C0609131017091320180E09F
:101B800090E00E9404372FEF33E040E050E00E94E5
:101B90003A37B901CA0120912F0130E040E050E00E
:101BA0000E943A37C9011F910895EF92FF920F9357
:101BB0001F93CF93DF93F82EE92EC5E64F9B05C008
:101BC000CF2DDE2D05E510E019C081E05ADFC150B0
:101BD000A9F7F6CF82E055DF000F4F9B0F5F0F7321
:101BE0000F3379F4111103C0CF2DDE2D14E01F5FE8
:101BF000163990F4A8951C161D0644F0D7FFEACFBD
:101C00000BC00111F7CF1123A9F306C02A97209723
:101C1000A9F7CFEFDFEFF2CF812FCDB7DEB7E6E048
:101C20000C94FE37CF933BDAC82F80914B01882369
:101C3000D1F0813051F4C33041F461E186E00CDA37
:101C40008BE274DB61E186E007DA80E49FE1ADDFDF
:101C5000C33041F480914B01813021F460E086E093
:101C6000FBD9BBDB25DACF9108958CE090E00E9490
:101C70006C38382F8DE090E00E946C38209137014D
:101C8000230F30913801381F20931C0130931D0120
:101C900083E0283E380720F0C901885E934002C0E7
:101CA00080E090E062E370E00E941337683008F053
:101CB00067E0EDEFF4E0E60FF11DE60FF11D459151
:101CC00055912591359162E3681B421B530B649F2C
:101CD000C001659F900D1124499662E370E00E9457
:101CE0001337620F731F70937F0160937E018EE044
:101CF00090E00E946C38992787FD9095609137019C
:101D000070913801860F971F9093320180933101B3
:101D100090937B0180937A010895CF93DF9324E120
:101D200030E0B9010E941337DC01EFE0F5E0E60F87
:101D3000F71FE60FF71FC591D591459155914C1BA3
:101D40004A9FC0011124B9010E9413376C0F7D1FF7
:101D5000CB01DF91CF91089518951895109220012D
:101D600010921E011092750110925B0110921F01DA
:101D70001092480110927C01109260011092610152
:101D80001092620110929001109291011092020142
:101D900010928401109285011092860110928701A1
:101DA00084EF809393010895A1E0B0E0EAEDFEE0B6
:101DB0000C94E43798E097B998B9E82FF0E0E45A2A
:101DC000FE4F949195B9262F281BE20FF11D27FD98
:101DD000FA95E491E92BE4B9698389DE8C01698184
:101DE000862F85DE20913301309134013695279579
:101DF000A90143505109B801625E7F4F461757074A
:101E000078F4255E3F4F0217130750F4BC01625E61
:101E10007F4F4617570720F441E08217930708F0D9
:101E200040E014B8842F2196E4E00C940038CF935E
:101E300061E080E0B9DFC82F62E080E0B5DFC80F65
:101E400062E081E0B1DF8C0FCF910895A3E1B0E0B3
:101E5000ECE2FFE00C94D637182F10922001807F1F
:101E6000A9F4E5DF833009F0C7C33BD98BE894E0E0
:101E7000C9DAD1D88FE35ADA80ED97E096DE8B305D
:101E8000C8F42FD980E392E0BDDAB6C3A6E9FA2EF2
:101E900000E027D982EF93E0B5DAC9DF833021F47F
:101EA0000F5F043010F006C000E088E2EADDFA942B
:101EB00081F76CC0B0D88CEE91E0A4DA60E083E0EA
:101EC00090E00E94793860E084E090E00E947938E8
:101ED00060E082E090E00E94793860E082E00E9459
:101EE000AB225C019A83898361E082E00E94AB228D
:101EF0006C019C838B8360E081E00E94AB227C01BB
:101F00009E838D83B501882777FD8095982F03E008
:101F100020E24EEF86DBB601882777FD8095982F6B
:101F200020E24EEF7EDBB701882777FD8095982F62
:101F300024E04EEF76DB2AE5A216B10424F084E11A
:101F400090E09A838983698183E090E00E947938E8
:101F50008AE5C816D10424F084E190E09C838B8349
:101F60006B8184E090E00E9479389AE5E916F104EB
:101F700024F084E190E09E838D836D8182E090E087
:101F80000E94793882E080934B014CDE1F701F87DE
:101F9000113009F04FC001E010E058EB252E52ED52
:101FA000352E57E4452E512C62E0962E78E0A72E70
:101FB000ECE06E2EF4ECCF2EF6E3DF2EE12CF12CCC
:101FC0003BC0839423E0281568F10CDA08DA84E535
:101FD000ADD9C80153DAEED9E1E0BE1232C00E9499
:101FE000AD1F8FE192E00EDA64E0809137019091AD
:101FF0003801D6DB10D88AE192E004DA80917E01C4
:1020000090917F013BDA8EEB80932F01A7B8A8B89F
:1020100014B815B888EE93E0C8DDF4E0BF1689F275
:102020008B3078F288EE93E0C0DD0F5F1F4F0830F1
:10203000110511F418E71CC1812CB02EB0E27B2EE3
:10204000C4CFF2E0BF1241C020913301309134017E
:10205000A8E5BBE10E94E536A70196010E945C3726
:1020600081E085B985E084B980E0288B398B4A8B83
:102070005B8B31DD288939894A895B89821B930B07
:102080009A83898381E184B980E0288B398B4A8BDC
:102090005B8B21DD288939894A895B89821B930BF7
:1020A0009C838B8384E085B984E184B981E0288BAB
:1020B000398B4A8B5B8B0FDD28893989821B930B07
:1020C0009E838D8384E092E0B7C093E0B91229C06B
:1020D00095B8EAE0E4B980E0FEDC2091330130916C
:1020E00034013695279538872F83821B930B9A836B
:1020F0008983F2E2F4B980E0EEDC2F813885821B1F
:10210000930B9C838B83A5B828E224B981E0E3DCA0
:102110002F813885821B930B9E838D8386EF91E000
:102120008BC084E0B81207C08BE794E06BD97FDEE8
:1021300081115FC287C095E0B91213C015B894B879
:1021400080E0C9DC9A838983A4B881E0C4DC9C83E5
:102150008B8374B882E0BFDC9E838D8386E192E03E
:102160006BC0E6E0BE1227C094B895B880E0B3DC3F
:102170002091330130913401821B930B9A83898320
:10218000A4B8A5B881E0A7DC2091330130913401D7
:10219000821B930B9C838B8374B875B882E09BDCA5
:1021A0002091330130913401821B930B9E838D83E8
:1021B00082E192E041C0F7E0BF1240C020913301BC
:1021C00030913401A8E5BBE10E94E536A2019101FE
:1021D0000E943A3795B883E084B980E0288B398B28
:1021E0004A8B5B8B78DC288939894A895B89821B19
:1021F000930B9A838983A5B864B881E0288B398BC7
:102200004A8B5B8B68DC288939894A895B89821B08
:10221000930B9C838B8375B890E394B982E0288BF1
:10222000398B4A8B5B8B57DC28893989821B930B4E
:102230009E838D8380EF91E0E5D804C0E1E0BE1677
:1022400009F4E4CE0E940B0889819A810CD9B2D896
:102250008B819C8108D9AED88D819E8104D9D6CE40
:10226000C1D88BE794E0CED884E60BDC115019F08E
:10227000DEDD8111F5CF0E94710885EE91E0C2D8B4
:10228000609135017091360180E090E003E024E038
:102290004FEFC7D90E940B088EED91E0B3D8609143
:1022A00046017091470180E090E024E04FEFB9D9FA
:1022B00082E080934B01B6DC109220010E947108ED
:1022C0008AED91E09FD860E082E00E94841C00913A
:1022D0008801109189011C870B8761E082E00E94D0
:1022E000841CC0908801D0908901DE86CD8660E094
:1022F00081E00E94841CE0908801F0908901FE82B8
:10230000ED8262E080E00E94841C809188019091BF
:1023100089019C838B8362E081E00E94841C809110
:102320008801909189019A87898761E080E00E9405
:10233000841C80918801909189019A838983EF851B
:10234000E13021F020914501223021F40296988756
:102350008F8304C098878F8310924501B801882726
:1023600077FD8095982F03E020E240E05AD9B6012E
:10237000882777FD8095982F20E240E052D9B70159
:10238000882777FD8095982F26E444EF4AD96E017F
:10239000FFE0CF0ED11CFE013196819191910A97F9
:1023A000853B9105E8F4EC15FD05B9F7A5E0EA2EAB
:1023B000A0E0FA2E8E010F5F1F4FF80160810E5FC3
:1023C0001F4F6E5EC7010E947938FFEFEF1AFF0AB8
:1023D0000C151D0591F70E940B0880EE93E012D8B2
:1023E00082E080934B011EDC2F85213029F0809103
:1023F0004501823009F0E7C0E0E4BE2E10E0FAE0CB
:10240000CF2ED12CE12CF12C0E94710880E00E948B
:10241000D80986E893E00E94020A82E00E94D80967
:102420008DE491E00E94020A1092200160E082E0B7
:102430000E94841C00919201609180017091810141
:102440008091820190918301073F44F4A701960196
:102450000E943A370F5FB901CA01F6CF009392018B
:102460006093800170938101809382019093830136
:10247000073F09F093C0DC01CB0180569109A10907
:10248000B10980399545A105B10508F087C0609173
:10249000940170919501CB018B569F4F8B329140E7
:1024A00008F07CC01F5F153008F479C08CE090E024
:1024B0000E9487380E94710886E491E00E94020A17
:1024C00080919401909195010E94330ACEDB88E0BF
:1024D00088B989E087B980E284B982E008DB853D6C
:1024E0009340DCF714B8109232011092310182E06F
:1024F000FEDA8C0180917A0190917B0190933201F8
:102500008093310182E0F3DA7C01EE0CFF1C109223
:1025100032011092310182E0EADAC0907A01D09063
:102520007B01D0923201C0923101080F191F0E19A0
:102530001F090E940B088FE391E00E94020A8EE0BF
:1025400090E00E946C3873E0B72EB80E9601D80167
:102550000E94F4369701442737FD4095542F0E947E
:102560005C37B20E6B2D8EE090E00E9479388B2D97
:10257000992787FD90950E94330A77DB82E080934C
:102580004B0150DB1092450185E090E00E946C38D1
:10259000682F88E090E00E94793815C010E00E9412
:1025A0000B0860918001709181018091820190916E
:1025B000830104E026E44091920133D888E261DA95
:1025C000BA9409F021CF89E180932F010E9471080C
:1025D00080E392E00E94020A0E940B0882E794E0E6
:1025E0000E94020A1092200182E080934B011ADBC4
:1025F00003C052E0852E26CE6396E2E10C94F237BA
:102600008091450181110DC085E090E00E946C38F9
:1026100061E0680F88E090E00E94793881E0809363
:1026200045010895CF92DF92FF920F931F93CF93AE
:10263000DF931F92CDB7DEB7E82FF0E0E15AFE4FEF
:10264000E491E8B9E860E7B915B8E62FF0E0E45A9C
:10265000FE4FE491E4B908E813E1FE2EFF0C862F4B
:10266000698339DA6C01F4B869818017910710F435
:102670008C01F5CF009701F10E94210886E693E0D6
:102680000E94020AD60120EA36E841E050E00E94AA
:10269000FA3628E937EB40E050E00E943A37CA01A9
:1026A000B9018827992702E021E447EF0E94110B26
:1026B00088E087B988B914B80F90DF91CF911F9146
:1026C0000F91FF90DF90CF9008950F931F93CF93BA
:1026D000DF9385E00CDA85E006DAEC019C01A2E4E8
:1026E000B0E00E94E53621E230E040E050E00E9498
:1026F0003A3789010A561F4F10923901043883E096
:10270000180740F484ED93E00E94020A81E0809370
:10271000390121C083EE93E00E94020A62E0C80101
:102720003FD80E94DA09C0318EE0D80780F4C03863
:10273000DC4050F486EE94E00E94020A8DECA1D9B0
:102740001BB88AEC9ED907C08DEE94E002C080EEE3
:1027500093E00E94020ADF91CF911F910F9108959B
:10276000AAE1B0E0E6EBF3E10C94D637B82EA62E42
:10277000842EA895E62FF0E0E45AFE4F549033964D
:1027800024912E87E42FF0E0E45AFE4F7490E82F56
:10279000F0E0E45AFE4F949033964490342D386024
:1027A0003D872860622E75B8472D45294B8344B973
:1027B00037B948B8862F97D998878F8354B88A2D10
:1027C00092D91C0114B848D915B85B8154B98A2D27
:1027D0008AD9AF81B8858A179B0728F5805E9E4FFE
:1027E000A817B90708F4E0C467B888E088B995B8B5
:1027F000892D872984B9E0913301F0913401F8875C
:10280000EF838B2D70D92F813885281B390B3887A2
:102810002F8394B820903301309034018B2D63D9ED
:10282000281A390A08C02F813885205E3E4F82174A
:10283000930708F4B9C420915B018091750190E081
:10284000820F911D02974CF0213009F0ADC4909198
:102850005801809172019813A7C4172D110F4F8151
:1028600058854437510508F4A4C0CA01880F991F40
:1028700044962816390608F09CC05D8557B948B8BB
:10288000812F852984B98A2D2AD97C01882D2FD9B9
:102890006C0115B98A2D23D99701295A3D4F192961
:1028A00028173907D0F588E088B967B814B915B981
:1028B000882D15D988349F4028F084E0809320012A
:1028C00082E204C084E08093200184E280931F01AF
:1028D000F0925101E0925001CE14DF0440F4C701A0
:1028E0008C199D09909357018093560104C0109252
:1028F0005701109256019701A0E1B7E20E94E53618
:1029000020911A0130911B0140E050E00E943A37BB
:1029100030935301209352013EC488E088B967B8D0
:1029200014B915B98B2DDBD88C01882DE0D87C012A
:1029300095B88B2DD4D8895A9D4F8017910708F0F0
:1029400033C448B8BD85B7B9882DC9D8813D9340F7
:1029500028F484E08093200182E304C084E0809323
:10296000200184E380931F010E151F0538F4E01A3F
:10297000F10AF0927101E092700104C010927101AD
:10298000109270012091330130913401201B310BE2
:10299000A0E1B7E20E94E5362091210130912201A9
:1029A00040E050E00E943A3730936D0120936C0173
:1029B000B7C188E088B967B895B8092D072904B967
:1029C0008B2D91D89A878987E0903301F09034015C
:1029D000882D8DD89E838D830A9788F514B881E061
:1029E00050D8812F892984B98B2D7DD89A878987E2
:1029F0002091330130913401281B390B3A8329830C
:102A0000882D75D89E838D8380912101909122011C
:102A10009C0140E050E060E677EB87E490E00E94A4
:102A20003A37A981BA810E94FA36AD81BE819D01F3
:102A300040E050E00E943A3769017A0112C0F70184
:102A400029853A85E21BF30BFA83E983CF014D8197
:102A50005E81841B950BBA010E9413376B01E12C38
:102A6000F12C14B815B848B85D8557B981E009D87C
:102A700089EB281687E0380608F096C39B8194B945
:102A80008A2D31D88F359D4008F450C114B881E0AB
:102A90000E94410DBB81B4B981E00E94410DE12F3C
:102AA000E529EA8BE4B98A2D1ED89A8F898F882D63
:102AB0001ED8998B888B8B2D1AD89C878B87288959
:102AC0003989213D374008F4B3C083E08093200169
:102AD0008DE080931F01898D9A8D2816390620F488
:102AE0008C010219130902C0098D1A8D40901A0138
:102AF00050901B01612C712C60E677EB87E490E02D
:102B0000A30192010E943A37D8010E94FA36A8899F
:102B1000B9898D0120E030E0A90198010E943A377F
:102B200080917501882369F0809166019091670119
:102B3000A0916801B091690182179307A407B507B6
:102B400010F520936601309367014093680150931C
:102B50006901298D3A8DA0E1B7E20E94E536A30113
:102B600092010E943A3730936D0120936C018B855E
:102B70009C85E889F9898E1B9F0B90936B0180934C
:102B80006A0121E001C020E0809166019091670117
:102B9000A0916801B09169018C159D05AE05BF0536
:102BA00038F5C0926601D0926701E0926801F09218
:102BB000690189859A852D813E81821B930B9093B3
:102BC0006B0180936A0129813A81A0E1B7E20E94FA
:102BD000E536209121013091220140E050E00E9431
:102BE0003A37205F384D30936D0120936C0103C05C
:102BF000222309F49BC39101A0E1B7E20E94E536CC
:102C0000A30192010E943A3730936F0120936E0125
:102C10002F813885A0E1B7E20E94E536A301920139
:102C20000E943A37309371012093700121E07EC3F6
:102C300031E62316310408F079C0498D5A8D413DA3
:102C400087E0580708F472C084E08093200182E195
:102C500080931F01CA0186509F4FAB85BC858A17A0
:102C60009B0720F483E180931F0120C0EB85FC8546
:102C7000298D3A8D2E173F07A8F4A0911A01B09123
:102C80001B019F01498D5A8D241B350B0E94E5368F
:102C90009A0140E050E00E943A3730936B01209354
:102CA0006A0104C010926B0110926A015E85577030
:102CB000D52E882D806480937C00FBE0CF2E01E030
:102CC00010E0EE24EA94A3E0FA2EA89561E0872DA7
:102CD00036D58A8984B986B18D21E9F354B88091BB
:102CE0007A00806480937A0080917A0086FDFCCF20
:102CF0008091780090917900D701A81BB90B0A0F39
:102D00001B1FCA9411F7C801880F991F880F991FBC
:102D100069E070E00E941337709371016093700155
:102D2000809175018F5F8093750180CFBB81B4B9AD
:102D300075B88A2D0E94730D9A838983882D0E940D
:102D4000770D9E838D836091330170913401681BF0
:102D5000790B6A30710590F514B881E00E94410D3D
:102D6000812F852984B915B98A2D0E94730D9A8304
:102D70008983882D0E94770D9E838D8380911A010F
:102D800090911B019C0140E050E060E677EB87E406
:102D900090E00E943A37A981BA810E94FA362091C8
:102DA000330130913401ED81FE812E1B3F0B40E059
:102DB00050E00E943A3769017A0109C089819A81FD
:102DC000861B970B0E9413376B01E12CF12C67B81F
:102DD00088E088B904B905B98B2D0E94730D9A87D4
:102DE0008987882D0E94770D9C838B838A2D0E9472
:102DF000770DAC0129853A852034364008F0D1C1E1
:102E000095B88B2D4E8B5F8B0E94730DBC0194B8CF
:102E10008B2D6C8B7D8B0E94730D9C0115B881E00E
:102E2000288F3B8B0E94410D95B88B2D0E94730D0E
:102E3000288D3B894E895F896C897D892034364095
:102E400008F05AC08133914108F456C089859A85AB
:102E50008A569F4F6817790708F04EC085E0809327
:102E6000200180915B018F5F80935B018B819C814E
:102E7000841B950B909351018093500129853A85CD
:102E8000241B350B309357012093560114B815B805
:102E9000EE85E8B981E00E94410D94B88B2D0E9427
:102EA000730D853F910508F04FC204B9882D0E942B
:102EB000730D813D934008F447C28B2D0E94770D1E
:102EC0008D3D924008F440C294B88B2D0E94730D42
:102ED0008D3D924008F438C295B881E00E94410DC2
:102EE00015B88B2D0E94730D853F910508F02CC2FB
:102EF00086E08093200128C204B905B981E00E94D0
:102F0000410D19291B8314B94B8145B98B2D0E94A2
:102F1000730D8C018091330190913401801B910BD2
:102F2000998B888B882D0E94770D9F878E87A09123
:102F30003301B0913401A81BB90BBA87A9878A2D38
:102F40000E94770D9C878B87E985FA85EE3FF940D3
:102F500008F4B2C083E0809320018CE080931F01CD
:102F6000488959892416350620F48A010219130963
:102F700002C0088919894090210150902201612CDA
:102F8000712C60E677EB87E490E0A30192010E9448
:102F90003A37D8010E94FA36A985BA859D0140E0EA
:102FA00050E00E943A3780915B01882369F080915C
:102FB0004C0190914D01A0914E01B0914F018217AB
:102FC0009307A407B50710F520934C0130934D01EA
:102FD00040934E0150934F018E859F85EB85FC8574
:102FE0008E1B9F0B90935101809350012889398942
:102FF000A0E1B7E20E94E536A30192010E943A37B0
:10300000309353012093520121E001C020E08091D0
:103010004C0190914D01A0914E01B0914F018C1542
:103020009D05AE05BF0528F5C0924C01D0924D011B
:10303000E0924E01F0924F018D819E8129813A816B
:10304000821B930B9093510180935001A0E1B7E252
:103050000E94E53620911A0130911B0140E050E0BA
:103060000E943A37205F384D30935301209352012C
:1030700003C0222309F469C19101A0E1B7E20E94D3
:10308000E53620911A0130911B0140E050E00E948A
:103090003A3730935501209354012F813885A0E1B0
:1030A000B7E20E94E536A30192010E943A373093BD
:1030B00057012093560148C131E62316310408F028
:1030C00070C04889598949345D4008F46AC084E079
:1030D0008093200182E080931F018B859C85865020
:1030E0009F4F8017910720F483E080931F0120C039
:1030F000AB85BC85A017B107B8F4A0912101B091B0
:1031000022019801EB85FC852E1B3F0B0E94E536C2
:10311000A889B9899D0140E050E00E943A37309378
:1031200051012093500104C010925101109250019E
:10313000042D0770882D806480937C001BE0EE24B2
:10314000E394F12CA89560E0872DF9D2BB81B4B946
:10315000B5B986B18023E9F794B880917A0080648C
:1031600080937A0080917A0086FDFCCF8091780070
:1031700090917900E80EF91E115021F7C701880FD0
:10318000991F880F991F69E070E00E9413377093B0
:1031900057016093560180915B018F5F80935B01C3
:1031A000D3C088E087B988B914B815B888E087B962
:1031B000E7EC2E16E1E03E0608F4ACC088B918EC46
:1031C0000D85062907B981E00E94410D67B88B2D56
:1031D0000E94770D429710F01150A1F7352C330C57
:1031E000292D220F24B925B961E0872D288FA7D278
:1031F0008B2D0E94730D9A83898334B815B8FD8591
:10320000F7B948B860E0872D9AD2E0903301F0908A
:1032100034018A2D0E94730D8C0154B88B2D0E94AD
:10322000730D6C018A2D0E94770DC81AD90A88E0A7
:1032300088B967B894B895B861E0872D80D28B2D96
:103240000E94730D4C018A2D0E94770D881A990AED
:10325000288DC814D90438F424B925B98B2D0E94BF
:10326000730D640118C09701201B310B3A83298329
:1032700034B815B83D8537B948B860E0872D5FD2BE
:1032800000913301109134018A2D0E94730DA80121
:10329000481B590BCA019601275931092938314178
:1032A000C8F58C159D05B0F589819A8153E09695F6
:1032B00087955A95E1F7893C910510F088EC90E0EC
:1032C00029813A81820F931F8C159D0518F5C6013F
:1032D00044E0969587954A95E1F782179307D0F4D5
:1032E00080912001823018F482E080932001809147
:1032F0001E01E82FF0E0DF01AA56BE4FBC921696E1
:10330000AC92EE0FFF1FEE55FE4FD182C0828F5F51
:1033100080931E016A2D8B2D26D088E087B988B94D
:1033200014B815B86A96E2E10C94F23780917501F1
:103330008F5F80937501222381F380927201A092A6
:103340007301B0927401E9CF21E080915B018F5F3E
:1033500080935B01222309F380925801B0925901B6
:10336000A0925A01DACFA0E0B0E0E9EBF9E10C94C9
:10337000D837982E862EA895E62FF0E0E45AFE4F17
:10338000B49033962491E82FF0E0E45AFE4FE49095
:103390003396F4903091750180915B0190E0830F3A
:1033A000911D892B09F0C6C1A89580913301909198
:1033B0003401880F991F880F991F909334018093CF
:1033C00033018091310190913201880F991F880F4C
:1033D000991F90933201809331018EEB80932F01DE
:1033E00088E088B9286027B9E4B8E5B858E1D52E57
:1033F000C0E0D0E0882D0E94730D582E492E892DF3
:103400000E94770D8C018C1B9D0B97FF03C091953B
:103410008195910903972CF0A895DA94D1F1E801F0
:10342000E9CFEE0C15B8E4B8892D0E94730D8135F3
:10343000910578F5E5B8892D0E94730DEC018F2D6B
:10344000886087B9F8B815B8B4B888E1A82EC12C3F
:10345000D12C892D0E94730D782E692E882D0E9403
:10346000770D7C018C199D0997FF03C0919581957B
:103470009109039734F5BB0CB4B8882D0E94730DE5
:103480005C01003C94E4190708F5C53881E0D807D1
:1034900008F1809133019091340196958795969526
:1034A0008795909334018093330180917A019091B4
:1034B0007B01909332018093310189E180932F0148
:1034C00039C1A895AA9429F36701C3CFC03B9DE4F5
:1034D000D907F8F6C0903301D090340184EAE81699
:1034E00082E0F80608F05FC098E9A916B10488F2F6
:1034F0009E01A8E9B7EB0E94E53696012C1B3D0B17
:1035000040E050E00E943A3729013A0196012A1919
:103510003B09A8E9B7EB0E94E536850120E030E0E1
:10352000A90198010E943A37C837DF4070F4C301FF
:10353000B201B2E0660F771F881F991FBA95D1F7C5
:10354000620F731F841F951F12C098E7A9169FE092
:10355000B906A0F4CA01B901A2E0660F771F881F5F
:10356000991FAA95D1F7640D751D861D971D25E03D
:1035700030E040E050E00E943A3708C0240D351D8D
:10358000461D571D5695479537952795A4E6B0E0FB
:103590000E94FA366B017C018CEAC80E8DE0D81EC1
:1035A000E11CF11C70C0252D342D0217130708F4FF
:1035B0009801C72DD62DCE15DF0508F4E701590176
:1035C0002017310708F45801A0912101B091220180
:1035D000C501821B930B9C010E94E53696012A19B6
:1035E0003B0940E050E00E943A3729013A018E0140
:1035F000EC16FD0608F48701A0911A01B0911B0199
:103600009E01201B310B0E94E5366801E12CF12C54
:10361000A70196010E943A3798E7A9169FE0B906DC
:1036200070F4C301B201E2E0660F771F881F991F93
:10363000EA95D1F7620F731F841F951F11C00837D9
:103640008FE01807B0F4CA01B90152E0660F771F86
:10365000881F991F5A95D1F7640D751D861D971DFA
:1036600025E030E040E050E00E943A3769017A01FD
:103670000AC069017A01C40CD51CE61CF71CF6943B
:10368000E794D794C79410912001133008F001CF2C
:103690009A94980C892D90E0EC01C05ADE4F288155
:1036A000880F991F880F991FFC01E255FE4F2223B6
:1036B000D1F14080518062807380A7019601241966
:1036C00035094609570957FF07C050954095309571
:1036D00021953F4F4F4F5F4FAAE0B0E00E94FA366E
:1036E000A30192012C593F4F4F4F5F4F2C0D3D1DB1
:1036F0004E1D5F1D0E943A37232B242B252B09F0EA
:10370000C8CE123019F081E08093200182E08883D6
:1037100080917C01E82FF0E0ED59FE4F90828F5FA1
:1037200080937C01B6CEC082D182E282F38281E0B6
:103730008883AFCECDB7DEB7E0E10C94F437CF93FA
:10374000C82FC09595B160FF02C0982B01C09C2383
:1037500095B994B1982B94B982E00E94410D84B13F
:103760008C2384B985B18C2385B9CF910895A0E0CD
:10377000B0E0EDEBFBE10C94DF378AE0C82E98E077
:10378000D92E2FE3B22ED7B8D8B815B8B4B880E088
:103790000E94730D8C0181E00E94770DEC0182E0A4
:1037A0000E94770D20912001283081F428E027B96C
:1037B00014B81093070100930601D0930901C09338
:1037C000080190930B0180930A0159C031E0C43085
:1037D000D10508F030E021E00430110508F020E0C8
:1037E000232319F08430910508F3083E134010F0AC
:1037F00028E001C029E0C83ED34008F42260883E9A
:10380000934008F4246027B9C0E0D0E0A89580E098
:103810000E946B0D7C0181E00E94770D8C0182E09B
:103820000E94770D24E1E21625E0F20608F4389AAA
:10383000043135E0130708F4399A843125E0920702
:1038400008F43A9A36E0E316F10428F4063011053C
:1038500010F4069738F02196C43F81E0D807B1F6FE
:10386000D092200100E010E00C171D0729F00E9403
:10387000300D0F5F1F4FF8CFCA9409F084CFCDB73A
:10388000DEB7E9E00C94FB37CF92DF92EF92FF9224
:10389000CF9320918001309181014091820150911C
:1038A0008301C09192018AE0C82ED12CE12CF12C29
:1038B0008C2FCF5F213A96E8390791E049075105EF
:1038C00038F0CA01B901A70196010E943A37F0CF3A
:1038D00080939201A0913301B09134010E94FA3695
:1038E00028E833E140E050E00E943A37209380011D
:1038F000309381014093820150938301CF91FF90D7
:10390000EF90DF90CF900895A0E0B0E0EAE8FCE10E
:103910000C94DE37C82FD62F8FEF860F9C2F990F70
:103920009C0F890F80935D01EC2FF0E0E45AFE4F6D
:103930001491862F90E0FC01E45AFE4FF490FC01B4
:10394000E15AFE4F049180912001813009F489C22F
:1039500080911E012CE931E062EA71E0D9019A2FD1
:10396000921B9817A0F49D919D130EC0AD01475076
:103970005109FA0190819C1307C0FB0140815181DC
:103980004C3D554008F46DC26E5F7F4FE8CF086034
:1039900010928D0110928C01109280011092810181
:1039A000109282011092830110929201E0DE88E071
:1039B00088B907B9F4B8F5B88C2F0E94770D6C015F
:1039C0008D2F0E94770DC81AD90A14B810925F0182
:1039D00010925E01E12CF12C20915E0130915F018B
:1039E000243F314050F515B914B90E942B0D14B87D
:1039F00015B80E94310DA8958C2F0E94770D7C017F
:103A0000EC18FD0820915E0130915F012E373105E1
:103A100028F02BE4E216F1040CF41EC28DE2E81645
:103A200081E0F80684F480915E0190915F01019637
:103A300090935F0180935E01CFCFEDE2EE16E1E05F
:103A4000FE060CF409C220915E0130915F01232B28
:103A500021F0C70100E010E006C0F5E1EF16F5E047
:103A6000FF06BCF375C020915E0130915F01201705
:103A7000310758F00E942C0D8C2F0E94770D8C1965
:103A80009D09A8950F5F1F4FEECF8701081B190BEB
:103A90001016110694F4093C11050CF0DDC128EE56
:103AA00033E0D8010E94F4369701442737FD409552
:103AB000542F0E943A37690102C0C12CD12CA0902A
:103AC0005E01B0905F012FEFA21AB20AC501A0E01B
:103AD000B0E08093880190938901A0938A01B0930C
:103AE0008B01C701800F911F09D29C01D5010E9453
:103AF000E536609388017093890180938A019093E1
:103B00008B01609380017093810180938201909377
:103B1000830187EF80939201B7DE2091800130917D
:103B200081014091820150918301A8EEB3E00E948F
:103B3000FA3624E630E040E050E00E943A37209325
:103B4000800130938101409382015093830142C1EF
:103B50000EDE15B88FE087B988E088B9F12EFF0C2A
:103B6000F4B880E480937B0084E580BF8C2F806470
:103B700080937C0086E180937A000E94340D10923D
:103B80005F0110925E0110928000109285001092E9
:103B9000840087E286BB81E280936F0091E090937E
:103BA0007D01F5B88091200190938100843059F413
:103BB00081E090E00C2E01C0880F0A94EAF780950E
:103BC0008F7087B901C007B9F89483B7817F83BF2D
:103BD00080917D01882389F083B7816083BF7894C9
:103BE000889583B78E7F83BFF894A89580915E01F6
:103BF00090915F018034964059F77894109281003B
:103C0000E0908600F090870010926F0086E9809324
:103C10007A0014B815B88C2F0E94770D20913701C7
:103C200030913801821B930B0C96909395018093F1
:103C3000940180915E0190915F018032934008F081
:103C40000BC180915E0190915F0190938B018093F5
:103C50008A01F0928901E092880184EF80939201B9
:103C600080915E0190915F0182349105C8F060916E
:103C700088017091890180918A0190918B0124E6DD
:103C800030E040E050E00E943A37209388013093C2
:103C9000890140938A0150938B0186EF80939201B2
:103CA000A0917E01B0917F0120918801309189011E
:103CB00040918A0150918B010E94FA3620E233E054
:103CC00040E050E00E943A37209388013093890108
:103CD00040938A0150938B0120938001309381019E
:103CE0004093820150938301CFDD80919201843F04
:103CF00009F060C0C0908001D0908101E090820105
:103D0000F090830120EAC2162FE0D206E104F1040C
:103D1000C0F4A70196012C543F4F4F4F5F4F60EA0C
:103D20007FE080E090E00E943A372C0D3D1D4E1D53
:103D30005F1D209380013093810140938201509355
:103D4000830180915D0190E08B5F9F4F0E946C38F2
:103D5000C0908001D0908101E0908201F0908301B9
:103D6000482F50E060E070E04C155D056E057F0562
:103D700068F4C41AD50AE60AF70AC0928001D09204
:103D80008101E0928201F092830114C084E1C80EA7
:103D9000D11CE11CF11CC416D506E606F70610F48A
:103DA0000E940013109280011092810110928201F2
:103DB0001092830114B98091800190918101A091AA
:103DC0008201B09183014997A105B10508F444C06F
:103DD000C12CD12C80911E01882321F080912001DB
:103DE0008430D1F587E08093200120919201809169
:103DF00093018217BCF028132FC04091800150918D
:103E00008101609182017091830180918401909180
:103E10008501A0918601B091870184179507A607B7
:103E2000B707D0F48091800190918101A091820127
:103E3000B09183018093840190938501A0938601C2
:103E4000B093870120939301D0928F01C0928E018D
:103E5000D0939001C093910188E087B988B914B8D4
:103E600015B8CDB7DEB7EAE00C94FA371F920F927F
:103E70000FB60F9211248F939F93B59904C0809130
:103E80007D01811109C0B59B10C080918600909181
:103E900087008A3F910548F480915E0190915F010F
:103EA000019690935F0180935E019F918F910F9097
:103EB0000FBE0F901F9018951F920F920FB60F9282
:103EC00011248F939F9310927D01B09B10C080911D
:103ED0008600909187008A3F910548F480915E01A9
:103EE00090915F01019690935F0180935E019F9195
:103EF0008F910F900FBE0F901F9018950F9221E099
:103F00008C32920710F48CE291E08C52914069E17E
:103F100070E00E94133799E16B3210F0982F6BE23A
:103F2000981BEDE6F5E0E60FF11DE60FF11D45915A
:103F3000559125913591692F421B530B649FC00108
:103F4000659F900D11240C9669E170E00E94133773
:103F5000620F731FCB010F900895A0E0B0E0E3EB78
:103F6000FFE10C94DC3788E893E19093340180936F
:103F700033018EEB80932F01C8E0C8B988E187B97F
:103F80000E94390DC7B984E00E94730DAC018B5CAF
:103F90009840833F9140A0F481E0809348012091B4
:103FA000330130913401AFEBB9E00E94E5369A015C
:103FB00040E050E00E943A373093340120933301BF
:103FC0008EE00E94770D8EE00E94730D9093380171
:103FD000809337010E94350ED9E0D7B9C1E0C5B949
:103FE000C4B980E00E94730D7C010AE007B914E0B7
:103FF00015B914B981E00E94730DE80EF91E8CE02A
:10400000882E87B890E1992E95B894B882E00E94E6
:10401000730DE80EF91E15B8D8B9D7B9C4B9C09157
:104020003301D091340180E00E94730D5C0108B926
:1040300007B914B9009133011091340181E00E9455
:10404000730D6C0188B887B894B880903301909054
:10405000340182E00E94730DC00FD11FC80DD91D1D
:10406000CA19DB09CC19DD09C81BD90B80913301B2
:10407000909134014C01880C991C880E991E8E1861
:104080009F088C1A9D0AA12CB12C9701A0E9BAE1D6
:104090000E94E536A50194010E943A3769017A0130
:1040A00030934701209346019E01A0E9BAE10E94A6
:1040B000E536A50194010E943A37309336012093EA
:1040C00035012057354E309322012093210180E79E
:1040D000C81A85EED80AD0921B01C0921A0189E154
:1040E00080932F01CDB7DEB7ECE00C94F837A3E155
:1040F000B0E0EDE7F0E20C94D63710920201809127
:104100002001813009F023C280917C01813009F0C7
:104110001EC22090630124E0229EF0011124E2558A
:10412000FE4F80819181A281B381893032E593076E
:10413000A105B10508F00BC29B8B8A8B312C61E085
:10414000822D631528F00E94990AB82EA92E03C06B
:104150000E94990A5C01EA2DF0E0E15AFE4F74904A
:104160008B2D90E0FC01E45AFE4FE49115B828E055
:1041700028B92A893B89203F3105A8F430FC13C0B7
:1041800000911A0110911B0100591A4121E030E001
:104190000B2C02C0220F331F0A94E2F7C90188607A
:1041A000872987B908C0E4B9872D886087B900914D
:1041B0001A0110911B0144E1642E8B2D0E946F0D9A
:1041C0004C018A2D0E94770D34E08316910410F47F
:1041D000049710F06A9489F760E460937B0084E5AB
:1041E00080BF8B2D806480937C0086E180937A0071
:1041F000E12CF12C10928000109285001092840026
:1042000087E286BB0E94340D932D9170998B30FC10
:1042100005C081E88093810078B808C078B80E9412
:104220003D0D80E286BB81E88093810046B345FF67
:1042300013C028E028B91092810080E286BB8091EB
:104240008600909187006C01209184003091850058
:104250008217930768F013C040FFE8CF31E036BB08
:10426000A895C70101967C0180359105F9F6E1CF4B
:1042700040FF05C061E066BB8FEFE81AF80A86E9E7
:1042800080937A0034E1732E8B2D0E946F0D4C01C8
:104290008A2D0E94770D24E08216910410F4049771
:1042A00010F07A9489F780904601909047018A89AE
:1042B0009B89880E991E800E911E20911C013091C1
:1042C0001D0100399AE11907B0F461EEC616D10458
:1042D000E104F10438F4C60165E070E00E94133790
:1042E000645101C069E128523109261B310967FD7B
:1042F000339586E009C0C40160EB76E30E94133772
:1043000087E0860F285D3F4F90E0A0E0B0E08C157D
:104310009D05AE05BF0528F4C81AD90AEA0AFB0AAA
:1043200003C0C12CD12C76018989882329F092E21F
:10433000C90ED11CE11CF11C60E5E616F10418F071
:10434000C12CD12C76018BE0C816D104E104F10414
:1043500028F091E0C91AD108E108F1084091330131
:1043600050913401A12CB12CA8EEB3E00E94E536A7
:104370002B013C019801DA010E94E536A501940168
:104380000E943A3744275527C301B2010E943A37A9
:10439000C9010E948D0EFC01A5019401C701B6015F
:1043A0000E9404374B015C01BF0180E090E023E0F4
:1043B000660F771F881F991F2A95D1F76B5F7F4F74
:1043C0008F4F9F4F2AE030E040E050E00E943A37A4
:1043D000C501B4010E943A37832D90E0E1E0F0E09E
:1043E000EC0FFD1F64E0369EE00DF11D11242083CB
:1043F0003183428353836989611117C06CE0C6160B
:10440000D104E104F10488F0FC013196EE0FFF1FA6
:10441000EE0FFF1F81E090E08C0F9D1FE80FF91F4A
:1044200020833183428353833394A895339493E05C
:10443000931508F084CE88E088B984E00E94410D8D
:1044400021E04D815E816F81788589819A81AB8180
:10445000BC8184179507A607B70708F020E04D85B3
:104460005E856F85788989859A85AB85BC8584173B
:104470009507A607B70710F032E001C033E0E22F3E
:10448000F0E0EE0FFF1FEE0FFF1F81E090E08C0FBA
:104490009D1FE80FF91FDC0194E0399FA00DB11DAD
:1044A00011244D915D916D917C9180819181A281CA
:1044B000B381481759076A077B0708F0322FE1E0FC
:1044C000F0E0EC0FFD1F24E0329FE00DF11D112400
:1044D00080819181A281B38180930C0190930D0121
:1044E000A0930E01B0930F0130FD09C02A893B89CA
:1044F000203F310520F48BEF8093020117C02CEF91
:1045000020930201BC01CD016B5F7F4F8F4F9F4F06
:104510002AE030E040E050E00E943A3720930C015E
:1045200030930D0140930E0150930F0180910C01C7
:1045300090910D01A0910E01B0910F01892B8A2B52
:104540008B2B11F41092020188E087B914B863969E
:10455000E2E10C94F2372F923F924F925F926F926A
:104560007F928F929F92AF92BF92CF92DF92EF9203
:10457000FF920F931F93DF93CF93CDB7DEB76E9764
:104580000FB6F894DEBF0FBECDBF662EB82E860FD5
:10459000898320912001273041F5209184013091B9
:1045A000850140918601509187011091930109C0C6
:1045B000CA01B9012AE0312D412D512D0E943A370F
:1045C0001F5F173FACF32A3560E036074105510500
:1045D00018F48FEF9FEF81C1173F39F480E028175F
:1045E0008DE738074105410510F020E03DE72C8BB1
:1045F0003D8B26EDA22E02C094EDA92EEFE5F1E051
:10460000E60DF11D859188608E87EFE5F1E0EB0DF9
:10461000F11D859188608F87ECE5F1E0E60DF11DD5
:104620007590ECE5F1E0EB0DF11DC59090EC692A79
:10463000B92A81E0E82EF12C012D112D8E831F82E5
:10464000188619861A861B861C861D86188E198E5A
:104650001B8E1A8E8CD888E088B960927C000E94EC
:10466000350D3F8537B975B874B80E943C0D14B844
:1046700015B8DD24B4ED9B2EA6ED8A2E3E8537B904
:1046800075B874B860927C00A895A0927A00809169
:104690007A0086FDFCCFA0927A0080917A0086FD98
:1046A000FCCF2090780030907900B0927C00A092EE
:1046B0007A0080917A0086FDFCCF80927A000E9479
:1046C0003A0D0E943C0DC5B8C4B80E943B0D0E9433
:1046D0003D0DA895A895A895A89514B815B88091F2
:1046E0007A0086FDFCCF2091780030917900288BEC
:1046F000398B3F8537B9C5B8C4B8A895B0927C004E
:10470000A0927A0080917A0086FDFCCFA0927A0078
:1047100080917A0086FDFCCF6091780070917900DD
:1047200060927C00A0927A0080917A0086FDFCCF96
:1047300080927A000E943A0D0E943C0D75B874B8C0
:104740000E943B0D0E943D0DA895A895A895A8959F
:1047500014B815B880917A0086FDFCCF409178009E
:104760005091790014B8CB01820D931DE80EF91E0B
:10477000011D111DEA82FB820C831D8388899989A2
:10478000840F951F2E813F8168857985280F391FF9
:10479000611D711D2E833F836887798722E324176B
:1047A000150650F075B874B80E943F0D14B815B8CE
:1047B000888D8395888F07C0483E73E0570718F0AF
:1047C0008A8D83958A8F888999892817190660F0C0
:1047D0003E8537B9C5B8C4B80E943F0D14B815B8A6
:1047E000898D8395898F07C0883E73E0970718F0FD
:1047F0008B8D83958B8FD3945D2D5F3F09F03ECFDA
:104800004090460150904701440C551C9201E4E051
:10481000240D351DEA95E1F72901570168016E80E5
:104820007F8088849984209120012730C1F46C898D
:104830007D89812D912D6C537040804090409B016B
:10484000AC010E9404379B01AC016FEF71EC8EE369
:1048500090E00E943A37621A730A840A950AA614F5
:10486000B704C804D90428F46A187B088C089D088A
:1048700003C0662477244301B20180E090E09301F5
:10488000A4010E9404379501A6010E943A3781E0F5
:1048900090E07981870F911D0E946C3890E0682E1E
:1048A000C90160E170E00E941337260F371FC9016C
:1048B0006816190618F4861991090FC08C5E9F4F6F
:1048C0008615910540F48C899D89843981E198078A
:1048D00010F00E940013812D912D6E960FB6F89462
:1048E000DEBF0FBECDBFCF91DF911F910F91FF9023
:1048F000EF90DF90CF90BF90AF909F908F907F9080
:104900006F905F904F903F902F900895A0E0B0E09F
:10491000ECE8F4E20C94DC3780918E0190918F01E9
:10492000892B09F09DC0E0919001F0E0E15AFE4F23
:10493000C491C860E0919101F0E0E45AFE4F1491F7
:104940000E94B71B88E088B915B8C7B914B980911F
:1049500091010E94770DEC0100919301083F0CF04A
:104960007FC0045FC0908401D0908501E0908601F3
:10497000F09087018AE0882E912CA12CB12C043074
:1049800070F4C701B6016B5F7F4F8F4F9F4FA5013A
:1049900094010E943A370F5F69017A01F0CFD70185
:1049A000C6010197A109B10988389341A105B10554
:1049B00008F056C015B914B9A12CB12CAC14BD0423
:1049C00030F40E943B0D82E0A80EB11CF7CF14B862
:1049D00015B8A89585E080932F01809191010E94E0
:1049E000770DC817D90720F45C01AC1ABD0A02C0C4
:1049F000A12CB12C812C912C8C149D0430F40E949C
:104A00003B0D2FEF821A920AF7CF809191010E94FD
:104A1000770D29E120932F01A895C817D90718F41D
:104A20008C1B9D0B02C080E090E08A159B0588F4EA
:104A30009501281B390B69F0A4EFB1E00E94E5361F
:104A4000950140E050E00E943A3730938F01209367
:104A50008E010E94B71B88E087B988B914B815B8D1
:104A6000CDB7DEB7ECE00C94F837A5E0B0E0EBE3AF
:104A7000F5E20C94D63782E594E01BD620EF2A832A
:104A800054980E94300D14BC16BC10921401109260
:104A90001501109216011092170131E035BB3093C9
:104AA0006E001092800083E19AE7909389008093D2
:104AB0008800E1E0F0E0F0938B00E0938A00109230
:104AC00085001092840083B5816083BDF6E0F6BB5B
:104AD000F0936F00789424E02093810012E3198210
:104AE0000E942A0DA8954F9902C031E0398385B5FF
:104AF00081112CC015BC86B5809314010E94160844
:104B00000E94ED090E9421080E94ED090E94F2090D
:104B100086E60E9496090E94F50960911401709141
:104B20001501809116019091170107E028E440E0FB
:104B30000E94110B8AE70E94960954988091810087
:104B4000882339F08FE30E94960903C0115041F683
:104B5000D1CF1092810010926F00209114013091FA
:104B600015014091160150911701DA01C901019711
:104B7000A109B109893D9146A105B10508F029C1F6
:104B8000AAE0B0E00E94FA36685F7F4F8F4F9F4FD8
:104B900023E096958795779567952A95D1F7660FC7
:104BA000771F709377016093760154980E94300DBF
:104BB00016BC109214011092150110921601109259
:104BC000170181E085BB80936E00109279011092ED
:104BD000780194E09BBB80916800846080936800BA
:104BE000789480916D00806180936D001D820E9499
:104BF0002A0DA8954F9902C0E1E0E98380916D00EC
:104C000084FF05C0FD81FF5FFD83FA3F81F715BC7E
:104C100080916D008F7E80936D00809168008B7F06
:104C20008093680086B5809314010E94160884E57D
:104C30000E9496090E94F509809114019091150136
:104C4000A0911601B0911701209176013091770162
:104C50003C832B831C012D019C01A20160E070E0CC
:104C600080E090E003E00E94133851016201E12CE2
:104C7000F12C00E010E00E942C3859016A017B0100
:104C8000E82F192F03E00E9413380E2F0E942C38B2
:104C900003E00E94133851016201E12CF12C00E085
:104CA00010E00E942C3802E00E94133800E00E94BD
:104CB0002C3801E00E94133800E00E942C3803E0F9
:104CC0000E941338EB81FC815F01C12CD12C00E0E4
:104CD0000E94723739014A011B012C012B813C8152
:104CE0002038310530F007E023E745EFB301C40178
:104CF00016C084E6A82EB12CC12CD12CE12CF12CAD
:104D000000E010E09301C2010E947237E22FF42FFD
:104D100007E023E747EF6E2F732F8F2F952F0E9409
:104D2000110B3D813A3F21F48FE30E94960951C057
:104D30009301A401B101C2012C393E4C43405105FD
:104D4000610571058105910509F008F442C00E94D2
:104D5000210886E60E9496090E94F5099301A401A4
:104D6000B101C201530164017101820121153A4C64
:104D70004A495B43610571058105910589F080F021
:104D800020E030E04AE85DE568E775E483E691E01D
:104D90000E947237E22FF42F07E028E44AEF0FC099
:104DA00020E030E846EC54EA6EE77DE883E090E0EE
:104DB0000E947237E22FF42F07E028E44CEF6E2FA9
:104DC000732F8F2F952F0E94110B8AE70E9496094F
:104DD000549810926E0080ED97E00E94D50D2981C5
:104DE000820F29F43A8131503A83311149CE259608
:104DF000E2E10C94F2371F920F920FB60F9211243A
:104E00008F939F93AF93BF93789480911401909167
:104E10001501A0911601B09117019F5FAF4FBF4FD1
:104E20008093140190931501A0931601B09317017C
:104E3000BF91AF919F918F910F900FBE0F901F90D8
:104E400018951F920F920FB60F9211248F9386E040
:104E500085BD8F910F900FBE0F901F9018951F92D8
:104E60000F920FB60F921124A8951092810015BCD5
:104E70000F900FBE0F901F9018951F920F920FB6B4
:104E80000F9211242F933F938F939F9380917801DA
:104E900090917901892B11F481E085BD20917801F1
:104EA0003091790180917601909177012817390727
:104EB00030F015BC80916D008F7E80936D008091E5
:104EC000780190917901019690937901809378010E
:104ED0009F918F913F912F910F900FBE0F901F9038
:104EE00018958C3008F08C50811103C08CE594E04B
:104EF00036C0813019F482E594E031C0823019F473
:104F000089E294E02CC0833019F48EE194E027C04C
:104F1000843019F482EC91E022C0853019F487EBDB
:104F200091E01DC0863019F48BEA91E018C08730FB
:104F300019F48FE094E013C0883019F480E094E015
:104F40000EC0893019F489EE93E009C08A3019F453
:104F500080E494E004C08B3021F485E394E00C9469
:104F6000020A08950F93CF9382EC91E0A2D3C0E0A0
:104F70001092200160E082E0B8D380912001873058
:104F8000C1F50E94EF0983E40E9496090E94F50989
:104F900060918401709185018091860190918701D3
:104FA00003E026E4409193010E94110B609190016F
:104FB00080919101D0DA90938D0180938C010E94B1
:104FC000F20986E793E00E94020A60918C017091D9
:104FD0008D016A3F8FEF780740F480E090E002E0B7
:104FE00024E04EEF0E94110B0CC08FE30E94960943
:104FF00008C00E94EF0982EC91E00E94020A0E9420
:10500000F2098C2FCAD688EE93E00E94D50D81114B
:1050100009C080913901813009F4C0E0CF5FCA3FF7
:1050200008F4A6CFCF910F91089508950F9384317E
:1050300008F08451833189F489E08093810081E014
:1050400090E0909389008093880007E028E44DEF7A
:1050500060E074E985E397E748C1823189F489E02B
:105060008093810083E090E0909389008093880092
:1050700007E028E44DEF60E07AEC8AE99BE335C174
:10508000813169F489E08093810087E090E090931A
:1050900089008093880007E028E44DEF6CC08031E0
:1050A00069F489E0809381008FE090E0909389001B
:1050B0008093880007E028E44DEF6FC08F3089F4BB
:1050C00089E08093810089E190E09093890080934A
:1050D000880007E028E44DEF6AE871E88BE299E088
:1050E00004C18E3069F489E08093810087E290E00A
:1050F000909389008093880007E028E44DEF60C01A
:105100008D3069F489E0809381008FE490E0909382
:1051100089008093880007E028E44CEF2CC08C3095
:1051200069F489E0809381008FE990E09093890091
:105130008093880007E028E44CEF2FC08B3069F49F
:1051400089E0809381008FE891E0909389008093BB
:10515000880007E028E44CEF33C08A3089F489E006
:10516000809381008FE193E0909389008093880081
:1051700007E028E44BEF60E075E68DEC9DE1B5C0FB
:10518000893081F4809381008FE396E090938900C9
:105190008093880007E028E44BEF60E872EB86EE2E
:1051A0009EE0A3C0883089F489E0809381008FE974
:1051B0009FE0909389008093880007E028E44BEFFC
:1051C00060E071EE85EF95E090C0873089F489E06A
:1051D0008093810084E493E2909389008093880017
:1051E00007E028E44BEF6FE77DEF83EA92E07DC0B4
:1051F000863089F489E08093810089E593E2909379
:1052000089008093880007E028E44BEF6FEE7BE68F
:1052100082EA92E06AC0853089F489E08093810057
:1052200082E893E2909389008093880007E028E465
:105230004BEF68E471E68FE992E057C0843089F45F
:1052400089E0809381008FE79EE3909389008093AB
:10525000880007E028E44BEF60E478E78DE791E011
:1052600044C0833069F48BE08093810080E792E052
:10527000909389008093880007E028E44AEFA0CF4C
:10528000823071F481EE94E09093890080938800DD
:1052900007E028E44AEF60E870EF8AEF92E025C06B
:1052A000813089F48BE08093810089E698E19093C6
:1052B00089008093880007E028E44AEF60E876E9F7
:1052C00088E990E012C0811112C08CE080938100C7
:1052D00088E09DE3909389008093880007E028E4AC
:1052E0004AEF60E472E48FE090E00E94110B8AE7DD
:1052F0000E9496090F910895A0E0B0E0E2E8F9E27B
:105300000C94E13789E294E0D4D180E1809380006D
:1053100010926F0081E090E0909389008093880064
:1053200010928B0010928A0083E086BB109282005C
:1053300088E08093810015B891E194B988B989E03B
:1053400087B9229A8093810000E020E0D12C12E1FD
:10535000CEE1D0E0802F90E00A96BE010E94273770
:10536000F62E621771F00E94EF0989E294E00E9424
:10537000020AE12CEF1430F48EE20E949609E394C5
:10538000F9CFF22ED11609F1143108F014510E9410
:10539000F2090E94DA0983E1810F48DE0E942108A8
:1053A0000E94ED090E9421080E94DA0981E0810F24
:1053B0003DDE0E9416080E94ED090E9416088EE349
:1053C0000E949609812F32DED12E88EE93E00E9452
:1053D000D50D882331F0853118F01F5F803558F4E2
:1053E00000E080913901813009F400E00F5F003F57
:1053F00010F42F2DAFCF109281001092800088E022
:1054000087B914B82298CDB7DEB7E7E00C94FD3722
:10541000A4E0B0E0EEE0FAE20C94DA378EE194E03A
:1054200048D183E28093800010926F0081E090E089
:1054300090938900809388008FEF90E090938B0089
:1054400080938A0083E086BB1092820015B881E1C8
:1054500084B988E088B989E087B9229A809381006D
:10546000612C00E08AE0782E10E094E6C92ED12C61
:10547000E12CF12C88248A9423E0922EA12CB12CCB
:105480007016D1F183E6871510F4ECE97E0E272D16
:1054900030E0AFEFB3E00E94E5366E5C7F4F8F4F98
:1054A0009F4FA70196010E943A3730938B002093BB
:1054B0008A0029833A834B835C830E94F209A8EE19
:1054C000B3E029813A814B815C810E94FA366150B8
:1054D0007E4F8F4F9F4FA50194010E943A37CA011A
:1054E000B90105E025E24FEF0E94110B193218F0C7
:1054F0008CE30E94410D072D80E496E00E94D50DBB
:10550000182F833898F4833318F0FAE07F0E03C025
:10551000882311F07394612C80913901813009F452
:10552000612C63948FEE861508F0AACF88E087B9C6
:10553000109281001092800014B822982496EEE018
:105540000C94F6370F93CF93DF9389EE93E0B1D0AD
:1055500080E090E00E946C38C82FD0E081E80E9483
:1055600062088C2F0E9462080E94F2098C2F90E042
:10557000A0E0B0E004E020E240E0BC01CD010E94E8
:10558000110B80E496E00E94D50D882331F082381B
:1055900068F48932A0F0CF5FD0E0CF7380913901F9
:1055A000813009F4D0E0DF5FD03FC0F26C2F80E0A3
:1055B00090E00E947938DF91CF910F910895C15CFE
:1055C000EBCF1F93CF93DF93D0E0C0E087E694E06A
:1055D00070D00E94F2090E94DA098BE08C0F81DC06
:1055E0000E9416080E94ED090E9416088EE30E9490
:1055F00096098C2F76DC0E9421080E94ED090E94FA
:1056000021080E94DA0911E01C0F812F6ADC80E476
:105610009FE10E94D50D8111D0E090913901913028
:1056200009F4D0E0823308F436C0CC2309F43DC03D
:10563000C13019F480E019DA30C0C23011F45CDEF8
:105640002CC0C33011F4E4DE28C0C43011F48ADC6D
:1056500024C0C53011F4A8D320C0C63011F411D431
:105660001CC0C73011F478D118C0C83021F481E1D2
:105670000E94260F12C0C93011F464DF0EC0CA3078
:1056800011F4BFD20AC0CB3041F45E9880E090E0C4
:105690000E94D50D02C08111C12FDF5FD83728F4D9
:1056A000CC3008F493CFCC5091CFDF91CF911F91A4
:1056B0000895A2E0B0E0EFE5FBE20C94E5378983C2
:1056C0009A830E94710889819A810E94020A14E6D5
:1056D00082E00E94410D4F9902C01150C9F70E940B
:1056E0000B082296E3E00C940138A0E0B0E0EBE771
:1056F000FBE20C94DD37C82FD62F8FEF860F9C2F3F
:10570000990F9C0F890F80935D01862F90E0FC011B
:10571000E15AFE4F14911860EC2FF0E0E45AFE4F6E
:10572000B490FC01E45AFE4F049110928D01109246
:105730008C011092800110928101109282011092CE
:10574000830187EF809392010E94B71B88E088B99C
:1057500017B904B905B98C2F0E94770D8C018D2FD4
:105760000E94770D081B190B14B810925F0110925C
:105770005E0120E030E09CE2E92EFF24F3944AE051
:10578000A42E54E6952E80915E0190915F01843D98
:10579000904308F069C0B5B880915E0190915F01B7
:1057A000892B89F06701C21AD30A60915E0170915A
:1057B0005F01A29EC001A39E900D11240E94133789
:1057C000C616D70650F4B4B80E94340D14B88091B0
:1057D0005E0190915F01019628C080915E019091D9
:1057E0005F010B97C8F060915E0170915F01929E1E
:1057F000C001939E900D11240E9413376C157D05F6
:1058000058F4B4B80E942A0D14B880915E019091AA
:105810005F018C599F4F09C0B4B80E942F0D14B876
:1058200080915E0190915F010A9690935F01809351
:105830005E0115B80E94360DA8958C2F0E94770D39
:105840009C01201B310B80915E0190915F018B3197
:10585000964020F0253231050CF474C02D3281E0E1
:1058600038070CF490CF05C02D3281E038070CF4D6
:1058700069C080915E0190915F01019729F4253103
:1058800045E034070CF05EC000915E0110915F01AD
:10589000000F111FA80160E070E040938801509351
:1058A000890160938A0170938B01C90168E270E0FD
:1058B0000E942737C901860F971F0E947E1F9C01F7
:1058C000D8010E94E5366093880170938901809326
:1058D0008A0190938B016093800170938101809382
:1058E0008201909383010E94441C60918001709119
:1058F000810180918201909183012AE030E040E0B3
:1059000050E00E943A372093800130938101409308
:1059100082015093830187E08093200120938401CA
:1059200030938501409386015093870180919201C5
:105930008093930110928F0110928E01D093900169
:10594000C093910188E087B988B914B815B8CDB76C
:10595000DEB7EBE00C94F937A8E1B0E0E2EBFCE253
:105960000C94DC378FE094E0A4DE0E940B0889E001
:1059700094E00E94020ADE015196CE010996AE0122
:105980004F5F5F4F9E01275E3F4FF42EE52E1D9225
:105990001D92FC0111921192CF01FA011192119204
:1059A000AF01A217B30799F785E185B984B900E083
:1059B00010E0812C48E0D42E59E0C52E6AE0B62EC6
:1059C0007CE0A72ED8B8C7B80E943E0D86B181FBF7
:1059D000992490F882FF02C09394939401151105C5
:1059E00089F0981469F0EF2DFE2DE90DF11DE90DF8
:1059F000F11D80859185019691878087982C02C042
:105A000034E0932EB7B80E943E0D96B1892F817075
:105A100092FD8E5FF4E09F120BC0EF2DFE2DE80F7C
:105A2000F11DE80FF11D808991890196918B808B82
:105A3000A7B80E943E0D96B1892F817091FD8E5FAF
:105A400094E099120BC0EF2DFE2DE80FF11DE80F29
:105A5000F11D80819181019691838083A8950E9498
:105A6000300D4F9905C015B814B888E087B9C5C086
:105A700049895A894531510508F16B897C8965311D
:105A80007105E0F02D893E8925313105B8F08F8907
:105A9000988D8531910590F0260F371F11E024175E
:105AA000350708F010E0FF24F3942817390708F0B1
:105AB000F12CCC24C39422E0E22E4CC049855A85B7
:105AC0004531510510F16B857C8565317105E8F034
:105AD0002D853E8525313105C0F08F85988985312A
:105AE000910598F0260F371F11E02417350708F0AD
:105AF00010E0FF24F3942817390708F0F12CC12C8B
:105B000092E0E92EDD24D39430C049815A81453199
:105B1000510510F16B817C8165317105E8F02D81B3
:105B20003E8125313105C0F08F8198858531910501
:105B300098F0260F371F11E02417350708F010E002
:105B4000FF24F3942817390708F0F12C82E0C82EBF
:105B5000EE24E394D12C09C00F5F1F4F0931E6EF0B
:105B60001E0709F44AC0892C2DCF0E94F20900E0DB
:105B70000E940B088D2D0E94D8098DE20E94960983
:105B800000FD02C08DE201C08FE20E9496098DE205
:105B90000E9496098C2D0E94D8098DE20E949609D8
:105BA00001FD02C08DE201C08FE20E9496098DE2E4
:105BB0000E9496098E2D0E94D8090E94DA09802F32
:105BC000837021F4112361F083E405C0833041F434
:105BD000FF2031F08FE60E94960980ED97E004C027
:105BE0000E94DA0980E991E00E94D50D81113BCF36
:105BF0000F5F083709F0BCCF36CF6896ECE00C9405
:105C0000F8370F930E94710880E392E00E94020A25
:105C10000E940B088CEE91E00E94020A83E090E063
:105C20000E946C38682F70E080E090E003E020E292
:105C30004EEF0E94110B84E090E00E946C38682FB8
:105C400070E080E090E020E24EEF0E94110B82E0D5
:105C500090E00E946C38682F70E080E090E024E0D3
:105C60004EEF0E94110B0E94160885EE91E00E94F3
:105C7000020A609135017091360180E090E024E0E5
:105C80004FEF0E94110B0E9421088EED91E00E94BF
:105C9000020A609146017091470180E090E024E0A3
:105CA0004FEF0E94110B88E99AE30E94D50D0E94E4
:105CB00071088AED91E00E94020A8AE090E00E9459
:105CC0006C38682F70E080E090E020E240E00E94B5
:105CD000110B8BE090E00E946C38682F70E080E040
:105CE00090E020E240E00E94110B87E090E00E94EB
:105CF0006C38682F70E080E090E026E444EF0E946A
:105D0000110B0E940B0883E00E94DC0986E090E002
:105D10000E946C38682F70E080E090E020E240E064
:105D20000E94110B89E090E00E946C38682F70E0AF
:105D300080E090E020E240E00E94110B85E090E0DE
:105D40000E946C38682F70E080E090E026E444EF19
:105D50000E94110B0E94160886E491E00E94020A3C
:105D60008CE090E00E9474380E94330A0E9421085F
:105D70008FE391E00E94020A8EE090E00E946C386E
:105D8000992787FD90950E94330A88E99AE30E943B
:105D9000D50D0E94090C0F9108958F7021F40E9477
:105DA00021080C94651308950F93CF9387EB91E02E
:105DB00080DC6EE080E00E942C0882EB91E00E9483
:105DC000020AC0E00E94AE0E60E082E00E94B319B9
:105DD00062E080E00E94B3190E940B0880917C0170
:105DE000882349F10E94772081E00E94A30A8091D4
:105DF00002018823F1F08AE693E00E94020A609192
:105E00000C0170910D0180910E0190910F0103E042
:105E100028E4409102010E94110B65E080E00E949D
:105E20002C088EE392E00E94020A82E00E94D809C8
:105E300012C08CE004C08FE30E94960983E10E94A7
:105E4000DC0965E080E00E942C0882E00E94D8090D
:105E500084E00E94DC098C2FA0DF88EE93E00E9492
:105E6000D50D811109C080913901813009F4C0E05C
:105E7000CF5FCA3F08F4A6CF0E947108CF910F915F
:105E800008950F93CF93DF938BEA91E012DC6FE0DC
:105E900080E00E942C0887EA91E00E94020AC0E09C
:105EA000D7E00E94AE0E10928F0110928E0160E03A
:105EB00082E00E94841C0E940B088091920187FF5F
:105EC0006FC088E00E94DC090E940B08609180018D
:105ED00070918101809182019091830104E026E418
:105EE000409192010E94110BD093200160E082E06A
:105EF0000E94AB2290938D0180938C0168E08A3FD1
:105F00009F4F08F582E00E942C0886E793E00E94EC
:105F1000020A60918C0170918D0180E090E002E0B6
:105F200024E04EEF0E94110B82E00E94DC0964E045
:105F300080E00E942C0883E492E00E94020A82E042
:105F40000E94D80910C082E00E942C088AE00E94BA
:105F5000DC0964E080E00E942C0882E00E94D809FD
:105F600085E00E94DC090E9486240E941608809128
:105F70008E0190918F01892BD9F08EE693E00E94DB
:105F8000020A60918E0170918F0180E090E002E042
:105F900025E24FEF0E94110B84E00E94DC090AC049
:105FA0008FE30E94960982E10E94DC090E94160894
:105FB0000E94ED098C2FF1DE88EE93E00E94D50D52
:105FC000811109C080913901813009F4C0E0CF5FAF
:105FD000CA3F08F466CF0E947108DF91CF910F91FC
:105FE00008951F93CF93DF9381E090E00E946C3877
:105FF000182F843131F5C0E0D0E0CE018B5F9F4F88
:106000000E946C38CC23A1F0C33099F4811789F039
:10601000282F30E0412F50E0BA016F5F7F4F2617E5
:10602000370739F04E5F5F4F2417350711F009C06D
:10603000182F8A50853B28F42196C730D105E9F600
:1060400042C00E94020885E40E94960985E40E94ED
:10605000960963E08EE090E00E9479386CE070E091
:106060008CE090E00E94873869E379E385E090E076
:106070000E9487386BE387E090E00E9479386BE3F9
:1060800088E090E00E9479386BE389E090E00E941C
:10609000793869E379E38AE090E00E94873864E127
:1060A00074E181E090E00E94873864E174E183E06C
:1060B00090E00E94873868E280E090E00E947938A2
:1060C00088EC0E94410DDF91CF911F910895A4E0CB
:1060D000B0E0ECE6F0E36AC780E48AB98BB986E801
:1060E00080937A001092C10014B784B7877F84BF71
:1060F00088E10FB6F89480936000109260000FBEA4
:1061000086E88093640088E380937E001092B0005C
:1061100087E08093B10078940E948B0813FD44C6F9
:1061200080E185BF5EDF10E04F9906C082E00E94EB
:10613000410D1F5F1C33C1F78FE59DE69093190158
:10614000809318011F3130F080E69DE6909319018D
:1061500080931801109230010E94AD1F1C3308F08B
:1061600030DA08E1C02ED12C8CE4A82E81E0B82EC4
:1061700096E6E92E91E0F92E8FEA0E94620884EA01
:106180000E9462080E94710828E027B90E94AE0EA2
:106190000E94AD1F0E945E080E9402080E946513C3
:1061A0003FE00FB6F894A895C09260000FBE309300
:1061B000600080914801882381F00E940B088BE7E2
:1061C00093E00E94020A63E08091330190913401D0
:1061D0000E94D00B88EC0E94410D0E940B080E9487
:1061E000B71B80912001883041F50E94710880E83A
:1061F00093E00E94020A0E940B0863E0809106016E
:10620000909107010E94D00B0E94DA0963E080910F
:106210000801909109010E94D00B0E94DA0963E005
:1062200080910A0190910B010E94D00B8AEC0E9490
:10623000410D81E10E94260F37C588E090E04CD7E0
:10624000082F85E090E048D7081B0093450180E0C7
:106250000E94260F0E940B0882EF94E00E94020A1F
:1062600042E061E080E00E94B01342E060E081E043
:106270000E94B01341E062E080E00E94B01341E070
:1062800060E082E00E94B01340E062E081E00E94A2
:10629000B01340E061E082E00E94B01380912001E1
:1062A000811111C083E40E9496090E94B71B60E02F
:1062B00082E00E94841C61E082E00E94841C60E015
:1062C00081E00E94841C0E947108B0924A01A09251
:1062D000490180912001853071F485E30E945009C5
:1062E00060E188EF0E94EA0B67E080E00E942C08E2
:1062F00089EC94E00FC08630F9F484E30E945009E1
:1063000060E188EF0E94EA0B67E080E00E942C08C1
:1063100082ED94E00E94020A67E082E00E942C086D
:1063200084E993E00E94020A62E08091500190911A
:1063300051010E94D00BB8C4873009F06BC0809126
:1063400090010E94D80986E893E00E94020A809199
:1063500091010E94D8090E94862480918E0190911B
:106360008F01892B89F00E9416088EE693E00E9427
:10637000020A60918E0170918F0180E090E002E04E
:1063800025E24FEF0E94110B0E940B0860918401DF
:1063900070918501809186019091870104E026E447
:1063A000409193010E94110B6091900180919101A5
:1063B0000E94AB2290938D0180938C018A3F9F4F66
:1063C000E8F485E793E00E94020A60918C017091E5
:1063D0008D0180E090E002E024E04EEF0E94110B7E
:1063E00064E080E00E942C0883E492E00E94020AAC
:1063F000809191010E94D8090E94DA0920919001B0
:106400008091910190E0820F911D029709F04CC498
:1064100038DDB2CE823009F0E6C080911E018130B5
:1064200009F043C09091960180919C01981750F417
:10643000892F0E94D80981E592E00E94020A80918A
:106440009C0108C00E94D8098DE492E00E94020AD3
:10645000809196010E94D8096091960180919C01DB
:106460000E94121380E70E94D80A609196018091E1
:106470009C010E94841C809192018D3F0CF033C3DB
:106480000E94160888EB93E00E94020A6091800146
:1064900070918101809182019091830103E026E453
:1064A000409192010E94110B1EC3823009F048C036
:1064B00082E30E94960988E492E00E94020A809199
:1064C000960120919701821313C080919C010E9434
:1064D000D8098DE492E00E94020A809196010E9400
:1064E000D80981E592E00E94020A80919D0116C0C0
:1064F00030919C0190919D01391316C00E94D809DA
:1065000081E592E00E94020A80919C010E94D809D4
:106510008DE492E00E94020A809197010E94D809BE
:1065200081E00E94D80ADFC2321304C081E0809368
:10653000130140C0981341C0F0E1F09313013AC039
:106540008330D9F583E38093130180919C0190916E
:106550009701891303C021E0209313014091960114
:1065600030919D01431303C020E12093130120913A
:106570009801821303C082E08093130180919E01F1
:10658000481303C040E240931301321303C022E1D9
:1065900020931301981303C081E28093130180912B
:1065A0001301823250F483E30E94960988E492E05A
:1065B0000E94020A0E94EE0A96C288ED94E00E94B0
:1065C000020A80EC94E00E94020A0E940B0884EA0E
:1065D00094E00E94020A80911E01805D0E9496094B
:1065E00081E592E059C3833009F04CC18091750177
:1065F000882399F180915B01882379F1609158019A
:1066000080915A010E94841C409080015090810129
:1066100060908201709083011091920160917401E9
:10662000809172010E94841C8091920118130EC007
:106630008091800190918101A0918201B0918301AC
:10664000481659066A067B0618F004C0181714F499
:106650008DE001C08CE080931F018091750188233B
:1066600061F080915B01882341F04F9906C08091D1
:106670001F0191E0892780931F0167E080E00E945D
:106680002C0880E30E94500980911F018C3051F446
:1066900080EB93E00E94020A809175018823A9F0A3
:1066A00080E711C0F0924A01E092490185EC90E048
:1066B0000E94940988EA93E00E94020A80915B019B
:1066C000882319F08EE60E94960920911E014091C0
:1066D000490150914A01ACE9B1E066E971E0162F39
:1066E00086E991E0181B1217C0F4FB018191BF01EC
:1066F000FA019485891719F03C91391302C011965B
:10670000EECFFA019585981302C060E001C062E007
:1067100080E990E00E947C0901C014E160E189EF0A
:106720000E94EA0B87E00E9437088FEB93E00E94FB
:10673000020AE0914901F0914A01608171818281F0
:10674000938103E020E040E00E94110B88E00E946A
:10675000370889E40E949609E0914901F0914A01C5
:10676000868197818031974270F085E60E94960974
:10677000E0914901F0914A018681978180519742C9
:106780009783868303C083E60E9496090E94F509D9
:10679000E0914901F0914A016681778180E090E0C3
:1067A00002E021E44AEF0E94110B87E00E943708C3
:1067B00088E993E00E94020AE0914901F0914A01C0
:1067C00063E0848195810E94D00B81E080934B012E
:1067D000E0914901F0914A0180859185892B99F0DA
:1067E00086E00E944D088AE292E00E94020AE0914F
:1067F0004901F0914A016085718580E090E021E4D3
:106800004AEF0E94110BE0914901F0914A01828503
:106810009385892BA1F086E00E944D0884E292E0E6
:106820000E94020AE0914901F0914A016285738554
:1068300080E090E002E021E44AEF0E94110B153065
:10684000F0F480E00E944D08812E912C94012A568C
:106850003E4F4901F90186810E94D8098DE492E0FA
:106860000E94020AF40180810E94D8090E94DA097C
:1068700084E993E00E94020A812F0E94CA0A43E43D
:1068800062E429C1843009F039C167E080E00E94E8
:106890002C0880911F0184FF09C080E50E949609A1
:1068A000F0924A01E092490101E004C08EE40E94A6
:1068B000960900E08DE20E94960980911F01182F31
:1068C0001F70143061F48AEC93E00E94020A83E3A3
:1068D0000E9450090023E1F18EEC90E037C085FF63
:1068E00005C084E40E9496090E5F03C085E40E94FF
:1068F00096091330B1F484EC93E00E94020A81E31C
:106900000E945009013019F487E291E01FC0023063
:1069100019F48BE191E01AC00330D1F487EF90E0D5
:1069200015C08FEC93E00E94020A82E30E94500996
:10693000013019F48DEE90E009C0023019F487EEB1
:1069400090E004C0033021F485ED90E00E949409AA
:1069500080911E01813029F580911F0184FF08C0BC
:106960009091730180917401981740F080E007C006
:106970009091590180915A018917C0F781E0982EB2
:10698000E0914901F0914A01958580919601981313
:1069900002C060E001C062E080E990E00E947C09F2
:1069A00001C0912C60E189EF0E94EA0B87E00E9410
:1069B000370880911F0185FD2FC080E993E00E9478
:1069C000020AE0914901F0914A0162E082859385D3
:1069D0000E94D00BE0914901F0914A0166858485BF
:1069E0000E94841C87E00E9437080E941B0A86E0F0
:1069F0000E94370882EA91E00E94020AE091490170
:106A0000F0914A016481758180E090E002E024E029
:106A10004FEF0E94110B32C08F70843051F0E09123
:106A20004901F0914A01668584850E94841C0E9478
:106A30001B0A80E00E94370889E40E94960984E6D8
:106A40000E9496090E94F509E0914901F0914A01DE
:106A50006681778180E090E002E021E44AEF0E94C5
:106A6000110B8AE893E00E94020AE0914901F0913B
:106A70004A0162E0828593850E94D00B80911E01BD
:106A8000813029F580E00E944D08992059F08091CD
:106A900096010E94D80981E592E00E94020A809145
:106AA0009C010AC080919C010E94D8098DE492E06B
:106AB0000E94020A809196010E94D8090E94DA0978
:106AC00084E993E00E94020A80E00E94CA0A13301F
:106AD00021F443E467E485E403C044E467E483E528
:106AE0000E946C0AE1C080917C01882309F4DCC01B
:106AF00038E137B988E087B90E94160800917C0117
:106B0000002309F4BDC0013039F4809163010E9473
:106B1000990A092F392E59C01091630130916401EF
:106B2000F4E03F9FD0011124A255BE4F24E0129FF4
:106B3000F0011124E255FE4F4D915D916D917C91D4
:106B400080819181A281B38184179507A607B70739
:106B500010F0212F01C0232F023021F4310F13E058
:106B6000131B1CC01091650134E0139FD001112448
:106B7000A255BE4F84E0289FF0011124E255FE4F3C
:106B80004D915D916D917C9180819181A281B381C4
:106B900084179507A607B70708F0122F113029F0C0
:106BA000123039F001E022E002C002E021E080E092
:106BB00003C002E020E081E02C830E94D80983E436
:106BC00092E00E94020A2C81822F0E94D80983E45D
:106BD00092E00E94020A802F0E94D8098091200131
:106BE000823019F40E94210802C00E940B08809193
:106BF0007C01813089F50E947720809163010E9499
:106C0000A30A809102018823E9F08AE693E00E94BA
:106C1000020A60910C0170910D0180910E0190911A
:106C20000F0103E028E4409102010E94110B65E08E
:106C300080E00E942C088EE392E00E94020A832DDD
:106C40000E94D80980916301813071F580911E0105
:106C500081112AC0A9D890CA111102C081E003C0D5
:106C6000113029F480E00E94A30A82E006C01230AD
:106C7000D9F480E00E94A30A81E00E94A30A14C014
:106C800080EB94E00E94020A0E940B088DED94E0D4
:106C90000E94020A88ED94E00E94020A86E00E94A7
:106CA000500980E49FE104C080911801909119017E
:106CB000E8E1E7B94F9BFECF0E94D50D182F823334
:106CC00018F00E94E12A58CA811156CA80914501E4
:106CD000882309F461C0B4E04B2E1B821A8280E045
:106CE00090E000E12A813B812B5A3D4F4901F4019C
:106CF000E80FF91F2490F0E22F1201C0082F01962F
:106D000081319105A1F7442031F0142D137059F40D
:106D10000E94710808C080E197E20E94D50D882387
:106D2000A1F311E135C060E0812F880F0E942C088B
:106D30004394242D2370422E612C712C162D601645
:106D400098F4F401E60DF71D2490222009F13FEF9D
:106D5000231203C00E94DA0903C0822D0E94960903
:106D60008FEF681A780AEACF222091F02A813B81BE
:106D7000200F311D3B832A83F901EB5AFD4FE4912B
:106D8000E03209F0ACCF2F5F3F4F3B832A83A7CF80
:106D900080E197E20E94D50D0E946D085E9880E028
:106DA00090E00E94D50DE8C90E9402088BE994E0AA
:106DB0000E94020A8BEC0E94410D0E946D085E98B1
:106DC00080E090E02496E2E10DC1A29FB001B39F64
:106DD000C001A39F700D811D1124911DB29F700DE4
:106DE000811D1124911D0895F0DFB7FF0895821BC6
:106DF000930B0895EADFA59F900DB49F900DA49F7B
:106E0000800D911D11240895DB018F939F93F2DF74
:106E1000BF91AF91A29F800D911DA39F900DB29F36
:106E2000900D11240895AA1BBB1B51E107C0AA1F96
:106E3000BB1FA617B70710F0A61BB70B881F991F1B
:106E40005A95A9F780959095BC01CD01089597FBBF
:106E5000072E16F4009406D077FD08D0E4DF07FC77
:106E600005D03EF4909581959F4F0895709561955A
:106E70007F4F0895A1E21A2EAA1BBB1BFD010DC076
:106E8000AA1FBB1FEE1FFF1FA217B307E407F507DA
:106E900020F0A21BB30BE40BF50B661F771F881FB6
:106EA000991F1A9469F760957095809590959B014C
:106EB000AC01BD01CF010895052E97FB16F4009497
:106EC0006DD057FD05D0D6DF07FC02D046F466C072
:106ED00050954095309521953F4F4F4F5F4F089506
:106EE000689401C0E8948F929F92CF93DF9305D06E
:106EF000DF91CF919F908F90089588249924F40179
:106F0000E401B0E49F93AA279A158B049C04ED0535
:106F1000FE05CF05D007A10798F4AD2FDC2FCF2FAA
:106F2000FE2FE92D982C892E982F872F762F652FED
:106F3000542F432F322F2227B85031F7BF9127C04B
:106F40001B2EBF91BB27220F331F441F551F661FE7
:106F5000771F881F991F881C991CEE1FFF1FCC1FCD
:106F6000DD1FAA1FBB1F8A149B04EC05FD05CE057F
:106F7000DF05A007B10748F08A189B08EC09FD0956
:106F8000CE09DF09A00BB10B21601A94E1F62EF4B3
:106F90009401AF01BE01CD01000C0895909580953C
:106FA000709561957F4F8F4F9F4F08952F923F921D
:106FB0004F925F926F927F928F929F92AF92BF9209
:106FC000CF92DF92EF92FF920F931F93CF93DF93B5
:106FD000CDB7DEB7CA1BDB0B0FB6F894DEBF0FBE12
:106FE000CDBF09942A88398848885F846E847D845F
:106FF0008C849B84AA84B984C884DF80EE80FD8061
:107000000C811B81AA81B981CE0FD11D0FB6F894D6
:10701000DEBF0FBECDBFED010895EE0FFF1F05903F
:10702000F491E02D09940F93083090F0982F872F5A
:10703000762F652F542F432F322F22270850F4CF5D
:10704000220F331F441F551F661F771F881F991F6C
:107050000A95B2F70F9108952A193B094C095D0969
:107060006E097F09800B910B0895FA01CF93FF936E
:10707000EF932230C4F02532B4F4C22F2C2F3327E3
:1070800044275527FF93EF93F5DEEF91FF91605D65
:107090006A330CF0695D6193B901CA0160507040B8
:1070A0008040904059F710828F919F91CF9132C0CC
:1070B000FB019F0142306CF045325CF4642F77276E
:1070C000B2DE805D8A330CF0895D8193CB0100973D
:1070D000A9F71082C9011EC0F999FECF92BD81BDEA
:1070E000F89A992780B50895A8E1B0E042E050E011
:1070F00023C0262FF999FECF1FBA92BD81BD20BDB6
:107100000FB6F894FA9AF99A0FBE01960895F1DF36
:10711000272FF0CFDC01FC01672F71917723E1F776
:10712000329704C07C916D9370836291AE17BF0754
:10713000C8F30895DC01CB01FC01F999FECF06C02C
:10714000F2BDE1BDF89A319600B40D924150504025
:08715000B8F70895F894FFCF91
:00000001FF
