:100000000C9434080C9446080C9446080C9446084A
:100010000C9446080C944D280C9446080C94B80F88
:100020000C9446080C9446080C9468200C943F28C5
:100030000C9431280C9442200C9446080C944608E9
:100040000C940B280C9446080C9446080C94460813
:100050000C9446080C94B90F0C9446080C9446086E
:100060000C9446080C9446083F0A410A450A4F0A78
:100070004D0A490A490A4B0ABE00B700B0001008F1
:10008000407E01013E01013E01013E01017E4040F2
:1000900018000720080808F80000002060A03FA012
:1000A0006020020202FF0202021010101F00000076
:1000B000050842818989760508C2A19189860508CB
:1000C000000402FF0010100508F87838588809105D
:1000D00003081C3E7F0D080710FF818181F1E1C1FB
:1000E000FF4040404743410D080110FFFF11080346
:1000F00010F1E1C14743410E000820212112206088
:10010000E0E0E0FEFE0402010001037F7F21C2C4A3
:10011000C4C04094840007030102040E080210FECC
:10012000FE7F7F00000000110005202060E0E0E07D
:100130000201000103C2C4C4C0400703010204520B
:1001400045465F523D005245465F433D00203E31EB
:1001500030306E4600706E056D006B4D0104100965
:100160000A0C00111111131D101000000E11110ABC
:100170001B00041F111111111F04001E0203021E97
:100180000000000F0818080F00001113171F1713A5
:10019000110011191D1F1D1911001B1B1B1B1B1BFF
:1001A0001B005244533D005B435D0031080308339C
:1001B00020005B524C5D003108070608090A08332D
:1001C0002000432B455352405450313A330066408F
:1001D00054503200203530487A00433020005269B4
:1001E0005F4C6F3D0052695F48693D0052303D00F1
:1001F00052482F524C002B52482D2031322031339F
:10020000203233002B524C2D20313220313320321A
:10021000330052482B0052482D005248663D005290
:1002200065663D00494345733D00494345303D0007
:1002300056657273696F6E20312E31326B0008097A
:100240000A080008070608002A0120200008020802
:1002500000080108004E6F742063616C696272616E
:100260007465642120466F72FF63616C696272611C
:1002700074696F6E20636C616D70207468652033E3
:10028000FF70696E7320746F6765746865722061B2
:100290006E64207374617274207769746820746866
:1002A00065FF6B65792E2041636B6E6F776C6564BB
:1002B0006765207468652073656C662D746573745A
:1002C000207769746820746865206B657920776988
:1002D0007468696EFF32732E20446973636F6E6EAB
:1002E0006563742070696E73206166746572207432
:1002F0006865FF6D657373616765202269736F6C54
:10030000617465FF50726F626521222069732073EA
:10031000686F776E2E20536F667477617265206107
:100320006E6420646F63756D656E746174696F6E61
:100330002069732061742073766E3A2F2F206D69C7
:100340006B726F636F6E74726F6C6C65722E206E61
:1003500065742F7472616E736973746F7220746543
:1003600073746572200049723D004C3D0020566C4C
:100370006F73733D00204553523D005643433D008B
:1003800043656C6C2100080308004056673D00205F
:1003900056743D0055663D005562653D0020313282
:1003A000333D0050696E2000424A542D504E50009B
:1003B000424A542D4E504E00433D0043673D006875
:1003C00046453D002D49474254004A464554002DBC
:1003D0004D4F5300444320507772204D6F646500A9
:1003E0004F4B004261742E2000436F6E7472617334
:1003F000740073686F72742050726F6265732100AD
:1004000053656C6674657374007475726E21007246
:100410006F7461727920656E636F6465720031304C
:100420002D6269742050574D00662D47656E6572C8
:1004300061746F7200537769746368206F66660039
:1004400053686F77206461746100566F6C746167E4
:1004500065004672657175656E6379005472616EF0
:10046000736973746F720053656C656374696F6E42
:100470003A005465737420456E640069736F6C6153
:1004800074652050726F626573210053656C6674E9
:10049000657374206D6F64652E2E0054696D656FF1
:1004A000757421006F722064616D6167656420005E
:1004B0004E6F2C20756E6B6E6F776E2C206F7200F6
:1004C00020756E6B6E6F776E005468797269737405
:1004D0002E00547269616300706172740064616D12
:1004E000616765642000656D7074792100776561CE
:1004F0006B0054657374696E672E2E2E00BA0387E5
:100500000358032E030703E402C302A40288020077
:1005100000140029003E005300690080009700AEDF
:1005200000C600DF00F80012012D014901650182BB
:1005300001A001BE01DE01FF012102440268028E1A
:1005400002B502DE020903350364039403C803FE07
:100550000337047304B404F90443059305EA054919
:1005600006B3062907AE074808FF08DE09AF57B9EA
:1005700050C24A97451141133D87395A367E33E8B8
:10058000308E2E692C712AA128F5266925F923A21F
:1005900022622137201E1F161E1E1D341C571B856C
:1005A0001ABF1903195018A61704176A16D6154949
:1005B00015C2144114C5134E13DC126E1205129F9E
:1005C000113D11DF10841000000000000000000049
:1005D000000000000000001E2121211200807F0089
:1005E00000007E4A4A4A34000000000000FC40201F
:1005F00010080402010000000101010101010101D4
:1006000001010101017F0488D0E0F0F80000000042
:100610000000000000000000000000000000FC944A
:10062000948400000102FC000000000000000000B3
:100630000000001E21212112E0C0804020100F0088
:100640000000C020202040000000FC00009E9E040E
:100650000303030302000000202023242525232078
:1006600020203F00007B7B2142840480C0000000EA
:100670000000000000000000000000FC94948400D2
:10068000040607070708F000000000000000000053
:1006900000000000803F2121120C00000000FF003C
:1006A0000000F0084848C80000FE0000E781818192
:1006B000C1E1F18181810100202020212121202020
:1006C000203F0000F340404041434740407FC0008E
:1006D00000000000000000000000000000489494AA
:1006E000946400000000FF00000000000000000013
:1006F000000000000000003F2121120C0000FF005C
:100700000000F0084848D0000000000000FEFE0491
:100710000404040404040700080808090909080877
:100720007F3E1C08087F7F20202020202020E00022
:100730000000000000000000000000000000004871
:10074000949494640000FF0000000000000000008A
:100750000000FF003C0A090A3C002231292926003A
:100760000082868E9EBEFEFEBEDEEFF6FAFEFEFA2A
:10077000F2E2C28200000008080804027984A4A4FE
:100780006800FF0000000000000000000000000002
:1007900000000000000000000000FF0000F028241E
:1007A00028F0001008FC000000000000000000001D
:1007B00000003C0A090A3C00FF00000000000000A5
:1007C0000000000000000000000000040C1C3C7C45
:1007D000FF7C3C1C0C040000000000009EA1A9A9A5
:1007E0009A804323130B0703FF0303030303030050
:1007F00000000000000000000000788484844800AD
:10080000FF000000000000000000F00804E21109F1
:1008100009090909090909091121C2040810E000A0
:1008200000000102040407000000000080402010C6
:1008300088442310080403000000000000000000AA
:100840000000FE0100FC02010000000000000000AA
:100850000000000000000000000079494979000014
:100860000000000000000040F010101010F04000E8
:100870000101010101010040FCF8F0E040FC4000F2
:100880000703010000070040FC40E0F0F8FC4000D6
:100890000700000103070040FCFC0000FCFC4000D6
:1008A0000707000007070078848202828478000628
:1008B0000407000704060000FC000000F010001010
:1008C0000F020402070400080808080808F840029C
:1008D0000202020202030040F808080808080800A3
:1008E00003020202020202404040404040404000F9
:1008F00000000000000000C0000080000080000137
:100900000202010202010200800000800000C00219
:1009100001020201020201000000000000000000CC
:1009200000000000000000000000000000000000C7
:1009300000000000000000000000000000000000B7
:1009400000000000000000000000000000000000A7
:100950000000000000000000000000000000000097
:10096000000000000000000000F80402FE02000C7D
:1009700006050404070C0002FE020002FE02000449
:1009800007040404170C0002FE02F002FE02000439
:1009900007040704170C000000E01008F808000C1A
:1009A00006050404070C00804028F8284080000158
:1009B00002141F1402010008F8080008F8080004D7
:1009C00007040404170C0008F808C008F80800041D
:1009D00007040704170C00001018FCFC1810000096
:1009E00001010101010100001018FC1810000000B5
:1009F00000000100000000000000FC0000000000FA
:100A0000010101010100004040404050E040000071
:100A1000000000010000002070A82020202000001D
:100A200000000000000000E00000000000000001E5
:100A3000010101010101002070A82020A870200000
:100A40000000000000000000C0F0FCF0C00000004A
:100A5000000000000000000C3CFCFCFC3C0C000012
:100A60000000000000000000000000000000000086
:100A700000000000000000000000FE000000000078
:100A800000000D0000000000160E0000160E000011
:100A9000000000000000000010FC1010FC1000001E
:100AA00001070101070100001824FE44880000002E
:100AB00003040F040300000C12924C2010080002E3
:100AC000010006090906008C5222528C40C0000128
:100AD00002040404010200000000160E00000000E1
:100AE000000000000000000000F008040200000008
:100AF000000102040800000000020408F0000000E9
:100B0000000804020100004850E0FCE050480002E8
:100B100001000700010200404040F8404040000052
:100B200000000300000000000000000000000000C2
:100B30000000160E000000404040404040400000D1
:100B400000000000000000000000000000000000A5
:100B5000000006060000000000804020100800028F
:100B600001000000000000F80402020204F8000185
:100B700002040404020100000804FE020000000058
:100B8000040407040400000804028242241800043C
:100B90000605040404060006020202122AC6000129
:100BA00002040404020100C0A09E8080FC800000BA
:100BB000000000040704003E120A0A0A12E60001BF
:100BC00002040404020100F84422121224C00001AD
:100BD000020404040201000E02C262321A0E000076
:100BE00000070000000000885422222254880001DF
:100BF00002040404020100384482824224F8000006
:100C000002040404020100000000181800000000A3
:100C10000000060600000000000018180000000098
:100C20000000160E0000000040A0100804020000A2
:100C300000000102040800002020202020200000E5
:100C4000010101010101000002040810A0400000A0
:100C50000804020100000018040282422418000067
:100C600000000D00000000F804D252E204F8000178
:100C70000205050405040200F0080402FE02000457
:100C80000705010507040002FE2222225488000401
:100C900007040404020100F804020202048E0001A9
:100CA0000204040402010002FE02020204F800042D
:100CB0000704040402010002FE222272020E000454
:100CC0000704040404070002FE222272020E00043C
:100CD00007040400000000F80402C24244DE0001E0
:100CE0000204040201070002FE222022FE02000488
:100CF00007040004070400000202FE0202000000D4
:100D0000040407040400000000000202FE020000C8
:100D10000304040403000002FE62900804020004BD
:100D20000704000106040002FE02000000000004A7
:100D30000704040404070002FE38E038FE02000441
:100D40000704000407040002FE1A6082FE02000489
:100D500007040005070400F80402020204F8000179
:100D60000204040402010002FE424242241800046C
:100D700007040000000000F80402028204F80001E9
:100D80000204040405020402FE42C24224180004C4
:100D9000070400010604008814222222448E000168
:100DA000020404040201000E0202FE02020E000010
:100DB0000404070404000002FE020002FE02000018
:100DC0000304040403000002FE820082FE0200000D
:100DD0000003060300000002FE02F002FE02000013
:100DE0000107030701000002DE722072DE02000428
:100DF00007040004070400027EC280C27E020000D5
:100E0000000407040000000E824222120A060007B6
:100E10000404040404070000FE02020200000000B3
:100E200007040404000000081020408000000000B7
:100E3000000000000102000000020202FE000000AB
:100E40000004040407000010080402040810000055
:100E5000000000000000000000000000000000088A
:100E6000080808080808000000000E16000000002E
:100E700000000000000000904828284890E0000191
:100E80000204040402070002FE10080810E0000437
:100E900007020404020100E01008080810380001ED
:100EA00002040404020100E010080810FE02000120
:100EB00002040402070400E0504848485060000162
:100EC0000204040402010020F82422020C000004A1
:100ED00007040400000000E010080810F8080000F3
:100EE0000912120907000002FE100808F0000004B1
:100EF00007040004070400001016F60000000000BC
:100F0000040407040400000000101616F00000009E
:100F10000C1010100F000002FEC020100818000472
:100F20000704010204040000000202FE00000000A9
:100F30000004040704040008F808F008F0000004A6
:100F40000700070007040008F8201008F00000045C
:100F500007040004070400E01008080810E000017E
:100F60000204040402010008F810080810E0001050
:100F70001F120404020100E010080810F808000124
:100F8000020404121F100008F820100808300004A2
:100F9000070400000000001028484848903800016D
:100FA000020404040201000808FE08080000000012
:100FB0000003040404020008F8080008F808000010
:100FC0000304040207040008F8880088F8080000F9
:100FD0000003060300000008F808C008F808000035
:100FE0000306030603000008B8E040E0B808000468
:100FF0000700000007040008F8080008F8080000CF
:10100000091212110F000018088848281808000655
:101010000504040404060040B01C020200000000A5
:1010200001070808000000000000FE0000000000AA
:1010300000001F00000000000002021CB040000081
:10104000000808070100000C02020408080402005E
:1010500000000000000000C02010081020C00001A7
:10106000010101010101000011241FBECFEFD8E0F2
:10107000DEBFCDBF11E0A0E0B1E001C01D92A23CF7
:10108000B107E1F70E94D9310C94253A0C94000085
:101090005D98559A80FD599A80FF5998519A539AB4
:1010A0005A9867FD5B9A67FF5B985A9A5A9866FD53
:1010B0005B9A66FF5B985A9A5A9865FD5B9A65FF42
:1010C0005B985A9A5A9864FD5B9A64FF5B985A9AA7
:1010D0005A9863FD5B9A63FF5B985A9A5A9862FD2F
:1010E0005B9A62FF5B985A9A5A9861FD5B9A61FF1E
:1010F0005B985A9A5A9860FD5B9A60FF5B985A9A7F
:101100005D9A5A980895109211011092040110925C
:10111000050110921001089581E080931101109251
:10112000040182E08093050110921001089582E08D
:10113000809311011092040184E0809305011092C4
:101140001001089583E0809311011092040186E05C
:10115000809305011092100108956093040180931B
:101160000501660F660F660F609310010895909158
:1011700011019F5F90931101943038F093E09093A8
:10118000110191E09093520102C01092520190918E
:101190001101682F892F880FE0CFE9DF49C68091C0
:1011A000040180930101809111018093030108954E
:1011B0008091030160910101880FCFCF8DE0BED4F3
:1011C0008AE0BCC4CF93C82F682F80E061DFCF7B5B
:1011D000C03809F4F3DFCF9108958EEAF3DF85EA92
:1011E000F1CFCF93DF93C0E080E1ECDF80E0EADF76
:1011F0008C2F806BE7DFD4E860E081E049DFD150DD
:10120000D9F7CF5FC83081F7D9DF7DDF10921101A8
:10121000DF91CF91089558985A985B985D98509AAD
:10122000529A539A559ABBD45D9A559A5998519AA5
:1012300084E1BCD4589A86E0B9D48EEAC3DF82EE4A
:10124000C1DF82EABFDF80EABDDF80ECBBDF8FE277
:10125000B9DF84E2B7DF81E8B5DF80E090E00E948B
:10126000E7398F73AFDF80E4ADDF84EAABDF86EA76
:10127000A9DFB7DF8FEAA6DF109204011092050103
:101280001092100108950895582F28E030E090E85A
:1012900041E080E0642F652309F0892B440F969587
:1012A0002150310921153105A9F70895A0E0B0E0DA
:1012B000ECE5F9E00C945139EC016A3708F06EC0A6
:1012C000483308F06BC0342E369436943694F12CA3
:1012D000E40EF11C81E0E81AF10843E0F594E7948C
:1012E0004A95E1F7122F127021FF0BC0A701552775
:1012F00043195109049FC001059F900D1124C80F87
:10130000D91F87E08E1510F437E0E32EF62EF29405
:101310008FE0F8228F2D8061F82E97E0292E231878
:101320006F70562E2170422EA02EB12C450181E007
:10133000881A9108E31460F1822D806B43DF8F2DB2
:1013400041DF852D3FDFC12CD12C3E01680C791C7B
:10135000C016A0F4442021F0F301EC19FD0903C0EC
:10136000FE01EC0DFD1D8491111101C08DDF682F70
:1013700081E08EDE8FEFC81AD80AEACF112319F068
:10138000CA19DB0902C0CA0DDB1D33942A94D2CFDF
:1013900087E090910501891B806B14DFCDB7DEB724
:1013A000E2E10C946D39EF920F93282F8F7030E6A5
:1013B000839FC001112489539A4F322F307324FF29
:1013C00002C028E001C028E420931201303218F056
:1013D0001092000108C020E2209300012091120128
:1013E0002D5E2093120150E2E52E08E120E04091AD
:1013F0000001609112015ADF0F91EF900895EF9272
:101400000F93262FFC01649131964491FC01329692
:101410000491FC013396E49050910001450F5091E6
:101420001201650F049642DF0F91EF90089560E07E
:10143000E6CFEF920F93CF93C82F40910501440F51
:10144000440F440F20E1829FC001112460E1E62E89
:1014500008E020E0609110018959974F27DF8091C3
:101460001001885F809310014C2F50E0FA013197F2
:10147000E830F105D0F4EC5CFF4F0C9488398EE332
:1014800005C08CE75BD38CE311C08CE757D38CE7A6
:101490000DC082E50BC08DE209C085E707C08FE46F
:1014A0004DD388E64BD38DE601C08C2F47D3CF9127
:1014B0000F91EF9008958F5CBCCF80E2BACFA1E08E
:1014C000B0E0E5E6FAE00C946139882329F08983DD
:1014D000F4DF89818150F9CF2196E2E00C947D39C7
:1014E00084E1EDCF10DEFCDF0ECE16DEF9DF14CE88
:1014F0008DE39FCFCF93DF93EC018991882311F087
:1015000098DFFBCFDF91CF910895CF93DF93EC016C
:10151000FE018491982F9F7719F08BDF2196F8CFE9
:10152000DF91CF910895EF920F93FC0104913196D2
:10153000E4900296BBDE0F91EF9008950F938BEB32
:1015400093E0E3DF40919A014D3F64F4609188019C
:101550007091890180918A0190918B0103E026E4CA
:10156000F5D002C08FE365DF0F91089597FF09C0A2
:101570008F939F938DE25DDF9F918F9190958195E1
:101580009F4F6CE271E04AE050E00E94D339B2CF45
:101590000F931F93CF93DF93D82F162F042F8DE92E
:1015A00093E0B3DFC0E0E0915001F09151018685F6
:1015B000C81302C08D2F3DDFE0915001F091510121
:1015C0008485C81302C0812F34DFE0915001F0916F
:1015D00051018585C81302C0802F2BDFCF5FC33038
:1015E00011F7DF91CF911F910F9108950F931F93E2
:1015F000CF93DF93D82F162F042F80E0CEDD83EA20
:1016000093E083DFC0E08C2F56DF72DFE091500162
:10161000F09151018685C81302C08D2F0ADFE09139
:101620005001F09151018485C81302C0812F01DF60
:10163000E0915001F09151018585C81302C0802FBF
:10164000F8DE3BDFCF5FC330F1F6DF91CF911F9122
:101650000F910895882331F091E0823009F090E0F5
:1016600022E002C021E090E0892F90E0922B0895C3
:101670000F93082FE6EBF1E0880F880FE80FF11DBC
:101680006081718182819381643671058105910544
:1016900078F420910201222359F4802FDBDF692F97
:1016A0000E94B723BC0180E090E04EEF03E002C04F
:1016B0004FEF04E024E04AD000DF0F910895863018
:1016C00058F4EAEAF1E0E80FF11DE80FF11D80811E
:1016D000918163E0FAD0F1CE08951F93182F809185
:1016E0008301882319F0E9DE80E0A3DE15DD84E9BB
:1016F00093E00BDF812F82958F70E1DF812F8F7058
:10170000DEDF1F910895CF93DF93809113018295BF
:101710008F70CEE9D1E0C80FD11D8881CCDE81E584
:1017200092E0F3DE8E81C7DE81E592E0EEDECEE967
:10173000D1E0809113018370C80FD11D8E81BBDE73
:1017400080911301CADFDF91CF910895A0E0B0E04E
:10175000ECEAFBE00C945739142FC22F033009F444
:10176000A1C0043009F4A5C0053051F0063081F065
:101770000730B1F0B4E6CB2ED12CE12CF12C17C000
:10178000A0EACA2EA6E8DA2EEE24E394F12C0FC0CC
:10179000F0E4CF2EF2E4DF2EFFE0EF2EF12C07C0B5
:1017A000E0E8CE2EE6E9DE2EE8E9EE2EF12C5AE056
:1017B000852E912CA12CB12C6C157D058E059F05D5
:1017C00060F06B5F7F4F8F4F9F4FA50194010E9488
:1017D000B538CA01B9011F5FEFCF0CE0010F07FD5B
:1017E00004C0033118F002E101C000E01BEA019FD0
:1017F000112D11241695212F220F210F021B21F0EC
:101800001F5F23E0201B022F2AE030E041E451E07B
:101810000E94B039A1E4B1E00D900020E9F71197E2
:10182000A154B140BA2E9D013327802F90E0049639
:101830008217930714F41F5F0D5FE12FF0E0EB5A5E
:10184000FE4FA490DA2FD01B1D1634F08EE2F1DD8E
:10185000DD2311F080E3EDDD011101C0DFEF41E494
:10186000E42E41E0F42E8701CD2EDD24C7FCD09478
:10187000802F8E198B1568F4F80181918F01D9DDC5
:101880009801215431402C153D0591F78EE2D1DDB0
:10189000EFCFAA2011F08A2DCCDDCC2389F08C2F3C
:1018A000C8DD0EC038EEC32E33E0D32EE12CF12C70
:1018B0007ECF20E1C22E27E2D22EE12CF12C77CF71
:1018C000CDB7DEB7ECE00C9473390F93062FBC0153
:1018D00080E090E026E54DEF39DF0F910895E82F85
:1018E000F0E0EE0FFF1FE858FF4F85919491209193
:1018F0000001420F20911201620F20E014CECF931D
:10190000DF93C82FD62FE0915001F091510148E1AB
:101910006EE18685E4DFE0915001F09151014D2F99
:101920006C2F8485DCDFE0915001F091510140E0A3
:101930006EE18585D4DFDF91CF910895CF9351DC9F
:1019400080E331DD62E080E990E059DD80E22BDD6B
:1019500085EC90E06CDD60E085E0FFDB80EB93E000
:10196000D4DD68E085E0F9DB88EA93E0CEDD88E944
:101970009AE3F8D136DC83E116DD83E014DD8EECEA
:1019800090E055DD61E082E0E8DB8EE452DD8DE23F
:1019900050DD8AEC93E0B9DD69E082E0DEDB80E5D2
:1019A00048DD8DE246DD8AEC93E0AFDD88E99AE31D
:1019B000D9D117DC81E3F7DC81E2F5DC87E291E045
:1019C00036DD60E085E0C9DB8EE433DD8DE231DDBC
:1019D00085E42FDD84EC93E098DD68E086E0BDDBF4
:1019E00080E527DD8DE225DD85E423DD84EC93E0D1
:1019F0008CDD88E99AE3B6D1F4DB81E1D4DC8BE1BC
:101A000091E015DD81E0CFDC87EF90E010DD60E054
:101A100081E0A3DB8EE40DDD8DE20BDD84E409DDE6
:101A200084EC93E072DD68E082E097DB80E501DD25
:101A30008DE2FFDC84E4FDDC84EC93E066DD88E984
:101A40009AE390D1CEDB82E3AEDC82E2ACDC8DEEB9
:101A500090E0EDDC60E085E080DB8EE4EADC8DE2A6
:101A6000E8DC85E4E6DC8FEC93E04FDD68E086E0BF
:101A700074DB80E5DEDC8DE2DCDC85E4DADC8FEC37
:101A800093E043DD88E99AE36DD1ABDB82E18BDC47
:101A900087EE90E0CCDC82E086DC85ED90E0C7DC70
:101AA00061E081E05ADB8EE4C4DC8DE2C2DC84E4D8
:101AB000C0DC8FEC93E029DD69E082E04EDB80E55D
:101AC000B8DC8DE2B6DC84E4B4DC8FEC93E01DDDA1
:101AD00088E99AE347D185DB16DB83E492E015DDE4
:101AE0001BDB8EE392E011DD22DB86E893E00DDD67
:101AF00029DB81E592E009DDE0DC8DE492E005DDA3
:101B0000C0E08C2F8F7071F48C2F8F7321F488E9D3
:101B10009AE328D166DB60E08C2F869586958695C2
:101B200086701BDB80E28C0F84DCCF5FCF3549F7FA
:101B300088E99AE317D155DBCF9108958F932F93BE
:101B40002AE080953B9A089410F4439802C0439A87
:101B5000000020D027D086952A95B1F72F918F913C
:101B6000089503D002D001D000D000D003D002D01D
:101B700001D000D0A89500D003D002D001D000D071
:101B800000D003D002D001D000D000D003D002D0CA
:101B900001D000D000D003D002D001D000D000D0BE
:101BA00003D002D001D000D00000089590E0893C1D
:101BB00028F0885C48EC849FC0011124009709F448
:101BC000089520918100277019F0DBDF019716C07E
:101BD0008130910519F002973EE303C037E180E0C0
:101BE00090E02091B200230F2093B30042E0409395
:101BF000700027E023BF889526E023BFA895DECF9D
:101C00008F9384E0D3DF07C08F9382E0CFDF03C0E0
:101C10008F9381E0CBDF8F911F93182F1064109367
:101C20007C00E12FE07880913701E81759F0E093CC
:101C30003701B0DF8EE980937A0083E083BF889517
:101C400082E083BF20E030E0A901E0E01FC08EE920
:101C500080937A0083E083BF889582E083BF6091A0
:101C6000780070917900260F371F411D511DE43017
:101C700061F480913901803041F084E020303807F0
:101C800020F417FD02C01068CACFEF5F80913601C3
:101C9000E817E8F260913A0170913B0117FF04C028
:101CA000609138017091390180E090E00E947F38A6
:101CB0002FEF33E040E050E00E94B538B901CA018F
:101CC0002091360130E040E050E00E94B538C90173
:101CD0001F91089589B183FB882780F94999826013
:101CE00090911E01943050F09EE090931A018093E1
:101CF0001B0110921F0191E090931E01E0911E01C3
:101D0000AE2FB0E0A65EBE4F9C91981721F18111D5
:101D10001AC0A3E0AE0FA37020911F01923041F4CE
:101D2000B0E0A65EBE4F9C91933069F42F5F09C06E
:101D3000913049F4B0E0A65EBE4F9C91933019F407
:101D4000215020931F01EF5FE370E0931E01F0E04C
:101D5000E65EFE4F808380911F0187FD8195809311
:101D600020010895A0E0B0E0E8EBFEE00C945A39C1
:101D7000D82EC92E5398519808DF10921F01E09178
:101D80001E01F0E03196E370FF27E65EFE4F80EF24
:101D90008083C5E6D9E19EDF4F9905C0FADED150B8
:101DA000D1F7C150B9F7CD2DDC2DF12C05E510E0B0
:101DB000BB24B394D7FD36C082E3E82E8BDFE9DE87
:101DC000EA94E1F7000F4F9B0F5F0F730F3349F455
:101DD000111103C0CD2DDC2D14E01F5F163928F042
:101DE00021C0011102C011111DC0A8951C161D06AD
:101DF0002CF42A97209711F4CFEFDFEF8091200188
:101E0000882339F0F39480918401811102C0B0924B
:101E1000840184E18F1570F680911F01811102C049
:101E2000F12CC8CF812FCDB7DEB7E9E00C9476391D
:101E3000CF93B5D9C82F80915201882301F1813009
:101E400051F4C33041F46FE086E087D98BE2F1DAD8
:101E50006FE086E082D980E49FE184DF811104C0D5
:101E6000809120018111F7CFC33041F4809152015C
:101E7000813021F460E086E070D932DB99D9CF91CE
:101E800008958CE090E00E94E739382F8DE090E0D3
:101E90000E94E73920913E01230F30913F01381F06
:101EA000209323013093240183E0283E380720F05B
:101EB000C901885E934002C080E090E062E370E078
:101EC0000E948E38683008F067E0EDEFF4E0E60F2E
:101ED000F11DE60FF11D459155912591359162E374
:101EE000681B421B530B649FC001659F900D11241A
:101EF000499662E370E00E948E38620F731F709300
:101F00008701609386018EE090E00E94E73999276F
:101F100087FD909560913E0170913F01860F971F5C
:101F200090933901809338019093820180938101CD
:101F30000895CF93DF9324E130E0B9010E948E38F9
:101F4000DC01EFE0F5E0E60FF71FE60FF71FC591A4
:101F5000D591459155914C1B4A9FC0011124B9015F
:101F60000E948E386C0F7D1FCB01DF91CF910895B9
:101F700018951895109227011092250110927C0156
:101F8000109262011092260110924F01109283016B
:101F900010926701109268011092690110929801E5
:101FA000109299011092020110928C0110928D01F1
:101FB00010928E0110928F0184EF80939B010895FF
:101FC000A1E0B0E0E6EEFFE00C945F3998E097B94D
:101FD00098B9E82FF0E0E45AFE4F949195B9262F76
:101FE000281BE20FF11D27FDFA95E491E92BE4B9D6
:101FF000698312DE8C016981862F0EDE20913A0101
:1020000030913B0136952795A90143505109B801FC
:10201000625E7F4F4617570778F4255E3F4F0217E1
:10202000130750F4BC01625E7F4F4617570720F438
:1020300041E08217930708F040E014B8842F2196FE
:10204000E4E00C947B39CF9361E080E0B9DFC82FE6
:1020500062E080E0B5DFC80F62E081E0B1DF8C0FA5
:10206000CF910895A3E1B0E0E8E3F0E10C94513999
:10207000182F10922701807FA9F4E5DF833009F043
:10208000CAC3AFD88BE894E040DA46D88FE3D1D901
:1020900080ED97E067DE8B30C8F4A3D880E392E050
:1020A00034DAB9C3A6E9FA2E00E09BD882EF93E0B8
:1020B0002CDAC9DF833021F40F5F043010F006C042
:1020C00000E088E273DDFA9481F76CC025D88CEECD
:1020D00091E01BDA60E083E090E00E94F43960E078
:1020E00084E090E00E94F43960E082E090E00E9499
:1020F000F43960E082E00E94B7235C019A8389830F
:1021000061E082E00E94B7236C019C838B8360E0D6
:1021100081E00E94B7237C019E838D83B5018827CF
:1021200077FD8095982F03E020E24EEF0FDBB6019C
:10213000882777FD8095982F20E24EEF07DBB701C7
:10214000882777FD8095982F24E04EEFFFDA2AE567
:10215000A216B10424F084E190E09A838983698116
:1021600083E090E00E94F4398AE5C816D10424F097
:1021700084E190E09C838B836B8184E090E00E94FB
:10218000F4399AE5E916F10424F084E190E09E83A5
:102190008D836D8182E090E00E94F43982E080932B
:1021A000520146DE1F701F87113009F050C001E058
:1021B00010E058EB252E52ED352E57E4452E512CCC
:1021C00062E0962E78E0A72EECE06E2EF4ECCF2E97
:1021D000F6E3DF2EE12CF12C3CC0839423E028159C
:1021E00070F183D97FD984E524D9C801CAD965D9CA
:1021F000E1E0BE1233C00E94B9208FE192E085D9A0
:1022000064E080913E0190913F015FDB0E948C0869
:102210008AE192E07AD98091860190918701B1D9C3
:102220008EEB80933601A7B8A8B814B815B888EE1D
:1022300093E098DDF4E0BF1681F28B3070F288EE07
:1022400093E090DD0F5F1F4F0830110511F418E780
:102250001CC1812CB02EB0E27B2EC3CFF2E0BF12A6
:1022600041C020913A0130913B01A8E5BBE10E94B9
:102270006038A70196010E94D73881E085B985E0D2
:1022800084B980E0288B398B4A8B5B8BB9DC288939
:1022900039894A895B89821B930B9A83898381E1FF
:1022A00084B980E0288B398B4A8B5B8BA9DC288929
:1022B00039894A895B89821B930B9C838B8384E0D9
:1022C00085B984E184B981E0288B398B4A8B5B8B9B
:1022D00097DC28893989821B930B9E838D8384E048
:1022E00092E0B7C093E0B91229C095B8EAE0E4B92A
:1022F00080E086DC20913A0130913B0136952795AC
:1023000038872F83821B930B9A838983F2E2F4B977
:1023100080E076DC2F813885821B930B9C838B8336
:10232000A5B828E224B981E06BDC2F813885821BB7
:10233000930B9E838D8386EF91E08BC084E0B8126F
:1023400007C08BE794E0E1D87EDE811161C287C0CF
:1023500095E0B91213C015B894B880E051DC9A83A7
:102360008983A4B881E04CDC9C838B8374B882E0C1
:1023700047DC9E838D8386E192E06BC0E6E0BE126F
:1023800027C094B895B880E03BDC20913A013091A9
:102390003B01821B930B9A838983A4B8A5B881E083
:1023A0002FDC20913A0130913B01821B930B9C83DF
:1023B0008B8374B875B882E023DC20913A013091A8
:1023C0003B01821B930B9E838D8382E192E041C08F
:1023D000F7E0BF1240C020913A0130913B01A8E5DF
:1023E000BBE10E946038A20191010E94B53895B806
:1023F00083E084B980E0288B398B4A8B5B8B00DCCF
:10240000288939894A895B89821B930B9A8389833E
:10241000A5B864B881E0288B398B4A8B5B8BF0DBE5
:10242000288939894A895B89821B930B9C838B831A
:1024300075B890E394B982E0288B398B4A8B5B8B1B
:10244000DFDB28893989821B930B9E838D8380EF84
:1024500091E05BD804C0E1E0BE1609F4E4CE0E942E
:102460008C0889819A8182D828D88B819C817ED8DA
:1024700024D88D819E817AD8D6CE37D88BE794E048
:1024800044D884E693DB115019F0DDDD8111F5CFDE
:102490000E94F10885EE91E038D860913C0170917E
:1024A0003D0180E090E003E024E04FEF4FD90E942F
:1024B0008C088EED91E029D860914D0170914E010C
:1024C00080E090E024E04FEF41D982E08093520118
:1024D000AFDC109227010E94F1088AED91E015D837
:1024E00060E082E00E94901D0091900110919101A6
:1024F0001C870B8761E082E00E94901DC0909001D4
:10250000D0909101DE86CD8660E081E00E94901D32
:10251000E0909001F0909101FE82ED8262E080E017
:102520000E94901D80919001909191019C838B83DA
:1025300062E081E00E94901D809190019091910154
:102540009A87898761E080E00E94901D80919001C8
:10255000909191019A838983EF85E13021F0209158
:102560004C01223021F4029698878F8304C098870B
:102570008F8310924C01B801882777FD8095982FA2
:1025800003E020E240E0E2D8B601882777FD80959D
:10259000982F20E240E0DAD8B701882777FD8095B0
:1025A000982F26E444EFD2D86E01FFE0CF0ED11C65
:1025B000FE013196819191910A97853B9105F0F446
:1025C000EC15FD05B9F7A5E0EA2EA0E0FA2E8E0184
:1025D0000F5F1F4FF80160810E5F1F4F6E5EC701D6
:1025E0000E94F439FFEFEF1AFF0A0C151D0591F751
:1025F0000E948C0880EE93E00E94850A82E080931E
:10260000520116DC2F85213029F080914C01823057
:1026100009F0E8C0E0E4BE2E10E0FAE0CF2ED12CA5
:10262000E12CF12C0E94F10880E00E945B0A86E810
:1026300093E00E94850A82E00E945B0A8DE491E0AB
:102640000E94850A1092270160E082E00E94901D9E
:1026500000919A01609188017091890180918A01AD
:1026600090918B01073F44F4A70196010E94B53871
:102670000F5FB901CA01F6CF00939A0160938801F8
:102680007093890180938A0190938B01073F09F031
:1026900093C0DC01CB0180569109A109B1098039B1
:1026A0009545A105B10508F087C060919C01709126
:1026B0009D01CB018B569F4F8B32914008F07CC01F
:1026C0001F5F153008F479C08CE090E00E94023A58
:1026D0000E94F10886E491E00E94850A80919C01A5
:1026E00090919D010E94B60ACCDB88E088B989E010
:1026F00087B980E284B982E08FDA853D9340DCF7C8
:1027000014B8109239011092380182E085DA8C01F8
:1027100080918101909182019093390180933801D9
:1027200082E07ADA7C01EE0CFF1C109239011092E3
:10273000380182E071DAC0908101D0908201D0929C
:102740003901C0923801080F191F0E191F090E9484
:102750008C088FE391E00E94850A8EE090E00E9451
:10276000E73973E0B72EB80E9601D8010E946F3892
:102770009701442737FD4095542F0E94D738B20E59
:102780006B2D8EE090E00E94F4398B2D992787FD08
:1027900090950E94B60A75DB82E08093520148DB77
:1027A00010924C0185E090E00E94E739682F88E0A4
:1027B00090E00E94F43916C010E00E948C086091ED
:1027C00088017091890180918A0190918B0104E0C8
:1027D00026E440919A010E94A60B88E2E7D9BA94B8
:1027E00009F020CF89E1809336010E94F10880E34F
:1027F00092E00E94850A0E948C0882E794E00E9481
:10280000850A1092270182E08093520111DB03C0F8
:1028100052E0852E24CE6396E2E10C946D398091CE
:102820004C0181110DC085E090E00E94E73961E024
:10283000680F88E090E00E94F43981E080934C01B9
:102840000895CF92DF92FF920F931F93CF93DF9360
:102850001F92CDB7DEB7E82FF0E0E15AFE4FE491CA
:10286000E8B9E860E7B915B8E62FF0E0E45AFE4FA2
:10287000E491E4B908E813E1FE2EFF0C862F69838A
:10288000BFD96C01F4B869818017910710F48C01ED
:10289000F5CF009701F10E94A20886E693E00E941E
:1028A000850AD60120EA36E841E050E00E947538FA
:1028B00028E937EB40E050E00E94B538CA01B90181
:1028C0008827992702E021E447EF0E94A60B88E0C1
:1028D00087B988B914B80F90DF91CF911F910F91EC
:1028E000FF90DF90CF9008950F931F93CF93DF93C6
:1028F00085E092D985E08CD98C01EC012596CC0F2E
:10290000DD1F10924001C43883E0D80740F484ED05
:1029100093E00E94850A81E08093400122C083EE0B
:1029200093E00E94850A62E0CE010E94650C0E943D
:102930005D0A0C3D85E0180780F40837154050F417
:1029400086EE94E00E94850A8DEC30D91BB88AECA3
:102950002DD907C08DEE94E002C080EE93E00E9476
:10296000850ADF91CF911F910F910895AAE1B0E000
:10297000ECEBF4E10C945139B82EA62E842EA895D8
:10298000E62FF0E0E45AFE4F5490339624912E87C0
:10299000E42FF0E0E45AFE4F7490E82FF0E0E45AA0
:1029A000FE4F949033964490342D38603D872860D4
:1029B000622E75B8472D45294B8344B937B948B8BD
:1029C000862F26D998878F8354B88A2D21D91C0148
:1029D00014B8D7D815B85B8154B98A2D19D9AF81ED
:1029E000B8858A179B0728F5805E9E4FA817B90700
:1029F00008F4E6C467B888E088B995B8892D8729B6
:102A000084B9E0913A01F0913B01F887EF838B2D77
:102A1000FFD82F813885281B390B38872F8394B82E
:102A200020903A0130903B018B2DF2D8281A390AB8
:102A300008C02F813885205E3E4F8217930708F427
:102A4000BFC42091620180917C0190E0820F911DB2
:102A500002974CF0213009F0B3C490915F0180914E
:102A600079019813ADC4172D110F4F815885443744
:102A7000510508F4A4C0CA01880F991F449628166E
:102A8000390608F09CC05D8557B948B8812F852963
:102A900084B98A2DB9D87C01882DBED86C0115B9AE
:102AA0008A2DB2D89701295A3D4F1929281739077D
:102AB000D0F588E088B967B814B915B9882DA4D8BD
:102AC00088349F4028F084E08093270182E204C08C
:102AD00084E08093270184E280932601F0925801DC
:102AE000E0925701CE14DF0440F4C7018C199D0910
:102AF00090935E0180935D0104C010925E0110927C
:102B00005D019701A0E1B7E20E94603820912101A8
:102B10003091220140E050E00E94B53830935A01D4
:102B20002093590144C488E088B967B814B915B92D
:102B30008B2D6AD88C01882D6FD87C0195B88B2D90
:102B400063D8895A9D4F8017910708F039C448B857
:102B5000BD85B7B9882D58D8813D934028F484E0CD
:102B60008093270182E304C084E08093270184E3FB
:102B7000809326010E151F0538F4E01AF10AF09231
:102B80007801E092770104C01092780110927701E9
:102B900020913A0130913B01201B310BA0E1B7E2BB
:102BA0000E946038209128013091290140E050E0D6
:102BB0000E94B5383093740120937301BDC188E041
:102BC00088B967B895B8092D072904B98B2D20D885
:102BD0009A878987E0903A01F0903B01882D1CD8B4
:102BE0009E838D830A9790F514B881E00E94D60DDC
:102BF000812F892984B98B2D0BD89A8789872091B9
:102C00003A0130913B01281B390B3A832983882DE7
:102C100003D89E838D8380912801909129019C0186
:102C200040E050E060E677EB87E490E00E94B53842
:102C3000A981BA810E947538AD81BE819D0140E0B5
:102C400050E00E94B53869017A0112C0F701298568
:102C50003A85E21BF30BFA83E983CF014D815E8154
:102C6000841B950BBA010E948E386B01E12CF12C6C
:102C700014B815B848B85D8557B981E00E94D60DE3
:102C800089EB281687E0380608F09AC39B8194B92F
:102C90008A2D0E94080E8F359D4008F453C114B848
:102CA00081E00E94D60DBB81B4B981E00E94D60DAF
:102CB000E12FE529EA8BE4B98A2D0E94080E9A8F4C
:102CC000898F882D0E940C0E998B888B8B2D0E94EA
:102CD0000C0E9C878B8728893989213D374008F461
:102CE000B3C083E0809327018DE080932601898D16
:102CF0009A8D2816390620F48C010219130902C096
:102D0000098D1A8D4090210150902201612C712C67
:102D100060E677EB87E490E0A30192010E94B5386A
:102D2000D8010E947538A889B9898D0120E030E06A
:102D3000A90198010E94B53880917C01882369F02F
:102D400080916D0190916E01A0916F01B091700121
:102D500082179307A407B50710F520936D013093F0
:102D60006E0140936F0150937001298D3A8DA0E15F
:102D7000B7E20E946038A30192010E94B5383093F7
:102D80007401209373018B859C85E889F9898E1BDA
:102D90009F0B909372018093710121E001C020E0AC
:102DA00080916D0190916E01A0916F01B0917001C1
:102DB0008C159D05AE05BF0538F5C0926D01D0920A
:102DC0006E01E0926F01F092700189859A852D81E4
:102DD0003E81821B930B9093720180937101298134
:102DE0003A81A0E1B7E20E94603820912801309139
:102DF000290140E050E00E94B538205F384D309303
:102E000074012093730103C0222309F49BC3910131
:102E1000A0E1B7E20E946038A30192010E94B53898
:102E200030937601209375012F813885A0E1B7E2B8
:102E30000E946038A30192010E94B5383093780156
:102E40002093770121E07EC331E62316310408F098
:102E500079C0498D5A8D413D87E0580708F472C00A
:102E600084E08093270182E180932601CA01865085
:102E70009F4FAB85BC858A179B0720F483E1809325
:102E8000260120C0EB85FC85298D3A8D2E173F0742
:102E9000A8F4A0912101B09122019F01498D5A8D82
:102EA000241B350B0E9460389A0140E050E00E94DC
:102EB000B538309372012093710104C010927201F1
:102EC000109271015E855770D52E882D8064809395
:102ED0007C00FBE0CF2E01E010E0EE24EA94A3E0BA
:102EE000FA2EA89561E0872D36D58A8984B986B1F6
:102EF0008D21E9F354B880917A00806480937A0040
:102F000080917A0086FDFCCF8091780090917900C5
:102F1000D701A81BB90B0A0F1B1FCA9411F7C801D0
:102F2000880F991F880F991F69E070E00E948E3802
:102F3000709378016093770180917C018F5F80931B
:102F40007C0180CFBB81B4B975B88A2D0E94080E70
:102F50009A838983882D0E940C0E9E838D836091B5
:102F60003A0170913B01681B790B6A30710590F54D
:102F700014B881E00E94D60D812F852984B915B936
:102F80008A2D0E94080E9A838983882D0E940C0E38
:102F90009E838D8380912101909122019C0140E0CC
:102FA00050E060E677EB87E490E00E94B538A981B5
:102FB000BA810E94753820913A0130913B01ED8130
:102FC000FE812E1B3F0B40E050E00E94B5386901A6
:102FD0007A0109C089819A81861B970B0E948E38DD
:102FE0006B01E12CF12C67B888E088B904B905B908
:102FF0008B2D0E94080E9A878987882D0E940C0EBF
:103000009C838B838A2D0E940C0EAC0129853A8506
:103010002034364008F0D1C195B88B2D4E8B5F8B94
:103020000E94080EBC0194B88B2D6C8B7D8B0E9486
:10303000080E9C0115B881E0288F3B8B0E94D60DAD
:1030400095B88B2D0E94080E288D3B894E895F898B
:103050006C897D892034364008F05AC08133914113
:1030600008F456C089859A858A569F4F6817790754
:1030700008F04EC085E080932701809162018F5F48
:10308000809362018B819C81841B950B90935801E6
:103090008093570129853A85241B350B30935E01B7
:1030A00020935D0114B815B8EE85E8B981E00E945F
:1030B000D60D94B88B2D0E94080E853F910508F01F
:1030C0004FC204B9882D0E94080E813D934008F438
:1030D00047C28B2D0E940C0E8D3D924008F440C2D9
:1030E00094B88B2D0E94080E8D3D924008F438C292
:1030F00095B881E00E94D60D15B88B2D0E94080E60
:10310000853F910508F02CC286E08093270128C2F4
:1031100004B905B981E00E94D60D19291B8314B9A1
:103120004B8145B98B2D0E94080E8C0180913A018C
:1031300090913B01801B910B998B888B882D0E946D
:103140000C0E9F878E87A0913A01B0913B01A81B7E
:10315000B90BBA87A9878A2D0E940C0E9C878B8792
:10316000E985FA85EE3FF94008F4B2C083E0809328
:1031700027018CE080932601488959892416350659
:1031800020F48A010219130902C0088919894090A4
:10319000280150902901612C712C60E677EB87E4BF
:1031A00090E0A30192010E94B538D8010E947538C1
:1031B000A985BA859D0140E050E00E94B538809114
:1031C0006201882369F08091530190915401A0918C
:1031D0005501B091560182179307A407B50710F562
:1031E000209353013093540140935501509356015D
:1031F0008E859F85EB85FC858E1B9F0B90935801D8
:103200008093570128893989A0E1B7E20E9460388C
:10321000A30192010E94B53830935A0120935901BD
:1032200021E001C020E08091530190915401A091D0
:103230005501B09156018C159D05AE05BF0528F5C9
:10324000C0925301D0925401E0925501F092560180
:103250008D819E8129813A81821B930B9093580125
:1032600080935701A0E1B7E20E94603820912101CC
:103270003091220140E050E00E94B538205F384D87
:1032800030935A012093590103C0222309F469C1E4
:103290009101A0E1B7E20E946038209121013091B4
:1032A000220140E050E00E94B53830935C01209349
:1032B0005B012F813885A0E1B7E20E946038A3014D
:1032C00092010E94B53830935E0120935D0148C1A0
:1032D00031E62316310408F070C048895989493411
:1032E0005D4008F46AC084E08093270182E0809307
:1032F00026018B859C8586509F4F8017910720F46F
:1033000083E08093260120C0AB85BC85A017B10760
:10331000B8F4A0912801B09129019801EB85FC85B2
:103320002E1B3F0B0E946038A889B9899D0140E09F
:1033300050E00E94B538309358012093570104C0E3
:103340001092580110925701042D0770882D806447
:1033500080937C001BE0EE24E394F12CA89560E0C0
:10336000872DF9D2BB81B4B9B5B986B18023E9F70D
:1033700094B880917A00806480937A0080917A007A
:1033800086FDFCCF8091780090917900E80EF91EBF
:10339000115021F7C701880F991F880F991F69E005
:1033A00070E00E948E3870935E0160935D018091A1
:1033B00062018F5F80936201D3C088E087B988B9CA
:1033C00014B815B888E087B9E7EC2E16E1E03E06A0
:1033D00008F4ACC088B918EC0D85062907B981E05E
:1033E0000E94D60D67B88B2D0E940C0E429710F0EC
:1033F0001150A1F7352C330C292D220F24B925B9F2
:1034000061E0872D288FA7D28B2D0E94080E9A830A
:10341000898334B815B8FD85F7B948B860E0872DC1
:103420009AD2E0903A01F0903B018A2D0E94080E5A
:103430008C0154B88B2D0E94080E6C018A2D0E94BD
:103440000C0EC81AD90A88E088B967B894B895B83C
:1034500061E0872D80D28B2D0E94080E4C018A2DB1
:103460000E940C0E881A990A288DC814D90438F4C1
:1034700024B925B98B2D0E94080E640118C097014C
:10348000201B310B3A83298334B815B83D8537B9F1
:1034900048B860E0872D5FD200913A0110913B015E
:1034A0008A2D0E94080EA801481B590BCA019601DB
:1034B0002759310929383141C8F58C159D05B0F5DA
:1034C00089819A8153E0969587955A95E1F7893CD1
:1034D000910510F088EC90E029813A81820F931FCA
:1034E0008C159D0518F5C60144E0969587954A957B
:1034F000E1F782179307D0F480912701823018F406
:1035000082E08093270180912501E82FF0E0DF0120
:10351000A256BE4FBC921696AC92EE0FFF1FE65518
:10352000FE4FD182C0828F5F809325016A2D8B2D43
:1035300026D088E087B988B914B815B86A96E2E150
:103540000C946D3980917C018F5F80937C012223E4
:1035500081F380927901A0927A01B0927B01E9CF48
:1035600021E0809162018F5F80936201222309F341
:1035700080925F01B0926001A0926101DACFA0E079
:10358000B0E0E5ECFAE10C945339982E862EA8951C
:10359000E62FF0E0E45AFE4FB49033962491E82FE2
:1035A000F0E0E45AFE4FE4903396F49030917C01C1
:1035B0008091620190E0830F911D892B09F0C6C1B3
:1035C000A89580913A0190913B01880F991F880F2F
:1035D000991F90933B0180933A018091380190911B
:1035E0003901880F991F880F991F90933901809393
:1035F00038018EEB8093360188E088B9286027B9BE
:10360000E4B8E5B858E1D52EC0E0D0E0882D0E949E
:10361000080E582E492E892D0E940C0E8C018C1BF1
:103620009D0B97FF03C091958195910903972CF00D
:10363000A895DA94D1F1E801E9CFEE0C15B8E4B819
:10364000892D0E94080E8135910578F5E5B8892D00
:103650000E94080EEC018F2D886087B9F8B815B864
:10366000B4B888E1A82EC12CD12C892D0E94080E57
:10367000782E692E882D0E940C0E7C018C199D09D4
:1036800097FF03C0919581959109039734F5BB0C81
:10369000B4B8882D0E94080E5C01003C94E4190720
:1036A00008F5C53881E0D80708F180913A0190917A
:1036B0003B01969587959695879590933B018093CE
:1036C0003A01809181019091820190933901809318
:1036D000380189E18093360139C1A895AA9429F36C
:1036E0006701C3CFC03B9DE4D907F8F6C0903A010B
:1036F000D0903B0184EAE81682E0F80608F05FC04B
:1037000098E9A916B10488F29E01A8E9B7EB0E94D6
:10371000603896012C1B3D0B40E050E00E94B5380C
:1037200029013A0196012A193B09A8E9B7EB0E9441
:103730006038850120E030E0A90198010E94B53889
:10374000C837DF4070F4C301B201B2E0660F771FE3
:10375000881F991FBA95D1F7620F731F841F951F99
:1037600012C098E7A9169FE0B906A0F4CA01B901F2
:10377000A2E0660F771F881F991FAA95D1F7640DE5
:10378000751D861D971D25E030E040E050E00E9449
:10379000B53808C0240D351D461D571D5695479553
:1037A00037952795A4E6B0E00E9475386B017C013F
:1037B0008CEAC80E8DE0D81EE11CF11C70C0252DCE
:1037C000342D0217130708F49801C72DD62DCE15F6
:1037D000DF0508F4E70159012017310708F4580103
:1037E000A0912801B0912901C501821B930B9C0176
:1037F0000E94603896012A193B0940E050E00E947F
:10380000B53829013A018E01EC16FD0608F487014E
:10381000A0912101B09122019E01201B310B0E9439
:1038200060386801E12CF12CA70196010E94B5389F
:1038300098E7A9169FE0B90670F4C301B201E2E06F
:10384000660F771F881F991FEA95D1F7620F731FC4
:10385000841F951F11C008378FE01807B0F4CA0104
:10386000B90152E0660F771F881F991F5A95D1F74B
:10387000640D751D861D971D25E030E040E050E089
:103880000E94B53869017A010AC069017A01C40C45
:10389000D51CE61CF71CF694E794D794C7941091B6
:1038A0002701133008F001CF9A94980C892D90E0ED
:1038B000EC01C959DE4F2881880F991F880F991F85
:1038C000FC01EA54FE4F2223D1F1408051806280F6
:1038D0007380A7019601241935094609570957FF36
:1038E00007C050954095309521953F4F4F4F5F4F02
:1038F000AAE0B0E00E947538A30192012C593F4F15
:103900004F4F5F4F2C0D3D1D4E1D5F1D0E94B53862
:10391000232B242B252B09F0C8CE123019F081E07F
:103920008093270182E0888380918301E82FF0E073
:10393000E659FE4F90828F5F80938301B6CEC0829E
:10394000D182E282F38281E08883AFCECDB7DEB749
:10395000E0E10C946F39CF93C82FC09595B160FF0B
:1039600002C0982B01C09C2395B994B1982B94B9AF
:1039700082E00E94D60D84B18C2384B985B18C235A
:1039800085B9CF910895A0E0B0E0E9ECFCE10C949A
:103990005A398AE0C82E98E0D92E2FE3B22ED7B834
:1039A000D8B815B8B4B880E00E94080E8C0181E048
:1039B0000E940C0EEC0182E00E940C0E2091270167
:1039C000283081F428E027B914B810930701009338
:1039D0000601D0930901C093080190930B018093D5
:1039E0000A0159C031E0C430D10508F030E021E0CF
:1039F0000430110508F020E0232319F084309105EC
:103A000008F3083E134010F028E001C029E0C83E4A
:103A1000D34008F42260883E934008F4246027B91C
:103A2000C0E0D0E0A89580E00E94000E7C0181E01B
:103A30000E940C0E8C0182E00E940C0E24E1E21622
:103A400025E0F20608F4389A043135E0130708F44B
:103A5000399A843125E0920708F43A9A36E0E31661
:103A6000F10428F40630110510F4069738F0219679
:103A7000C43F81E0D807B1F6D092270100E010E002
:103A80000C171D0729F00E94C50D0F5F1F4FF8CFBF
:103A9000CA9409F084CFCDB7DEB7E9E00C9476394B
:103AA000CF92DF92EF92FF92CF93209188013091D5
:103AB000890140918A0150918B01C0919A018AE05D
:103AC000C82ED12CE12CF12C8C2FCF5F213A96E817
:103AD000390791E04907510538F0CA01B901A7013A
:103AE00096010E94B538F0CF80939A01A0913A01D7
:103AF000B0913B010E94753828E833E140E050E086
:103B00000E94B538209388013093890140938A013F
:103B100050938B01CF91FF90EF90DF90CF9008955D
:103B2000A0E0B0E0E6E9FDE10C945939C82FD62FAA
:103B30008FEF860F9C2F990F9C0F890F8093640144
:103B4000EC2FF0E0E45AFE4F1491862F90E0FC0138
:103B5000E45AFE4FF490FC01E15AFE4F049180912B
:103B60002701813009F489C28091250124EA31E0DE
:103B70006AEA71E0D9019A2F921B9817A0F49D91DF
:103B80009D130EC0AD0147505109FA0190819C135D
:103B900007C0FB01408151814C3D554008F46DC286
:103BA0006E5F7F4FE8CF08601092950110929401EC
:103BB000109288011092890110928A0110928B0153
:103BC00010929A01E0DE88E088B907B9F4B8F5B838
:103BD0008C2F0E940C0E6C018D2F0E940C0EC81AA7
:103BE000D90A14B81092660110926501E12CF12CEB
:103BF0002091650130916601243F314050F515B99F
:103C000014B90E94C00D14B815B80E94C60DA8952D
:103C10008C2F0E940C0E7C01EC18FD082091650190
:103C2000309166012E37310528F02BE4E216F104BD
:103C30000CF41EC28DE2E81681E0F80684F480914F
:103C400065019091660101969093660180936501EC
:103C5000CFCFEDE2EE16E1E0FE060CF409C22091B2
:103C6000650130916601232B21F0C70100E010E0CF
:103C700006C0F5E1EF16F5E0FF06BCF375C0209134
:103C80006501309166012017310758F00E94C10D7F
:103C90008C2F0E940C0E8C199D09A8950F5F1F4F49
:103CA000EECF8701081B190B1016110694F4093C7E
:103CB00011050CF0DDC128EE33E0D8010E946F3809
:103CC0009701442737FD4095542F0E94B53869016C
:103CD00002C0C12CD12CA0906501B09066012FEFDD
:103CE000A21AB20AC501A0E0B0E0809390019093BF
:103CF0009101A0939201B0939301C701800F911F8E
:103D000009D29C01D5010E946038609390017093A4
:103D10009101809392019093930160938801709335
:103D2000890180938A0190938B0187EF80939A0198
:103D3000B7DE209188013091890140918A0150912C
:103D40008B01A8EEB3E00E94753824E630E040E035
:103D500050E00E94B5382093880130938901409348
:103D60008A0150938B0142C10EDE15B88FE087B9EE
:103D700088E088B9F12EFF0CF4B880E480937B00D2
:103D800084E580BF8C2F806480937C0086E18093E3
:103D90007A000E94C90D109266011092650110927E
:103DA0008000109285001092840087E286BB81E239
:103DB00080936F0091E090938501F5B88091270181
:103DC00090938100843059F481E090E00C2E01C082
:103DD000880F0A94EAF780958F7087B901C007B9F8
:103DE000F89483B7817F83BF80918501882389F010
:103DF00083B7816083BF7894889583B78E7F83BFB4
:103E0000F894A89580916501909166018034964060
:103E100059F7789410928100E0908600F090870026
:103E200010926F0086E980937A0014B815B88C2F31
:103E30000E940C0E20913E0130913F01821B930B9A
:103E40000C9690939D0180939C01809165019091C7
:103E500066018032934008F00BC18091650190911A
:103E600066019093930180939201F0929101E09208
:103E7000900184EF80939A01809165019091660191
:103E800082349105C8F06091900170919101809108
:103E900092019091930124E630E040E050E00E94CE
:103EA000B538209390013093910140939201509343
:103EB000930186EF80939A01A0918601B0918701CA
:103EC0002091900130919101409192015091930184
:103ED0000E94753820E233E040E050E00E94B5389F
:103EE000209390013093910140939201509393015C
:103EF000209388013093890140938A0150938B016C
:103F0000CFDD80919A01843F09F060C0C0908801A4
:103F1000D0908901E0908A01F0908B0120EAC216CE
:103F20002FE0D206E104F104C0F4A70196012C545D
:103F30003F4F4F4F5F4F60EA7FE080E090E00E948C
:103F4000B5382C0D3D1D4E1D5F1D2093880130930B
:103F5000890140938A0150938B018091640190E024
:103F60008B5F9F4F0E94E739C0908801D0908901F4
:103F7000E0908A01F0908B01482F50E060E070E003
:103F80004C155D056E057F0568F4C41AD50AE60A6E
:103F9000F70AC0928801D0928901E0928A01F092DA
:103FA0008B0114C084E1C80ED11CE11CF11CC416A5
:103FB000D506E606F70610F40E940F141092880149
:103FC0001092890110928A0110928B0114B980918C
:103FD000880190918901A0918A01B0918B01499744
:103FE000A105B10508F444C0C12CD12C8091250154
:103FF000882321F0809127018430D1F587E08093D8
:10400000270120919A0180919B018217BCF028130F
:104010002FC0409188015091890160918A0170916F
:104020008B0180918C0190918D01A0918E01B091B6
:104030008F0184179507A607B707D0F480918801F0
:1040400090918901A0918A01B0918B0180938C019C
:1040500090938D01A0938E01B0938F0120939B01CB
:10406000D0929701C0929601D0939801C093990184
:1040700088E087B988B914B815B8CDB7DEB7EAE0DB
:104080000C9475391F920F920FB60F9211248F93D3
:104090009F93B59904C080918501811109C0B59B9A
:1040A00010C080918600909187008A3F910548F466
:1040B00080916501909166010196909366018093CD
:1040C00065019F918F910F900FBE0F901F901895D3
:1040D0001F920F920FB60F9211248F939F931092FD
:1040E0008501B09B10C080918600909187008A3F27
:1040F000910548F480916501909166010196909335
:104100006601809365019F918F910F900FBE0F9074
:104110001F9018950F9221E08C32920710F48CE2D8
:1041200091E08C52914069E170E00E948E3899E1F3
:104130006B3210F0982F6BE2981BEDE6F5E0E60F7E
:10414000F11DE60FF11D4591559125913591692F8E
:10415000421B530B649FC001659F900D11240C9668
:1041600069E170E00E948E38620F731FCB010F90DF
:104170000895A0E0B0E0EFEBF0E20C94573988E846
:1041800093E190933B0180933A018EEB809336014B
:10419000C8E0C8B988E187B90E94CE0DC7B984E0EC
:1041A0000E94080EAC018B5C9840833F9140A0F4C4
:1041B00081E080934F0120913A0130913B01AFEBB8
:1041C000B9E00E9460389A0140E050E00E94B538A2
:1041D00030933B0120933A018EE00E940C0E8EE05A
:1041E0000E94080E90933F0180933E010E94410F70
:1041F000D9E0D7B9C1E0C5B9C4B980E00E94080EC2
:104200007C010AE007B914E015B914B981E00E94F5
:10421000080EE80EF91E8CE0882E87B890E1992EE2
:1042200095B894B882E00E94080EE80EF91E15B801
:10423000D8B9D7B9C4B9C0913A01D0913B0180E057
:104240000E94080E5C0108B907B914B900913A013F
:1042500010913B0181E00E94080E6C0188B887B87C
:1042600094B880903A0190903B0182E00E94080E41
:10427000C00FD11FC80DD91DCA19DB09CC19DD0922
:10428000C81BD90B80913A0190913B014C01880CDD
:10429000991C880E991E8E189F088C1A9D0AA12CB5
:1042A000B12C9701A0E9BAE10E946038A501940100
:1042B0000E94B53869017A0130934E0120934D0177
:1042C0009E01A0E9BAE10E946038A50194010E9414
:1042D000B53830933D0120933C012057354E309343
:1042E00029012093280180E7C81A85EED80AD092C8
:1042F0002201C092210189E180933601CDB7DEB75A
:10430000ECE00C947339A3E1B0E0E9E8F1E20C943D
:1043100051391092020180912701813009F023C2A6
:1043200080918301813009F01EC220906A0124E04F
:10433000229EF0011124EA54FE4F80819181A281D6
:10434000B381893032E59307A105B10508F00BC2AE
:104350009B8B8A8B312C61E0822D631528F00E94A3
:104360002A0BB82EA92E03C00E942A0B5C01EA2D4D
:10437000F0E0E15AFE4F74908B2D90E0FC01E45A7E
:10438000FE4FE49115B828E028B92A893B89203FDF
:104390003105A8F430FC13C00091210110912201D5
:1043A00000591A4121E030E00B2C02C0220F331FCC
:1043B0000A94E2F7C9018860872987B908C0E4B97F
:1043C000872D886087B9009121011091220144E175
:1043D000642E8B2D0E94040E4C018A2D0E940C0E1F
:1043E00034E08316910410F4049710F06A9489F76E
:1043F00060E460937B0084E580BF8B2D80648093B4
:104400007C0086E180937A00E12CF12C10928000F0
:10441000109285001092840087E286BB0E94C90D2D
:10442000932D9170998B30FC05C081E880938100B9
:1044300078B808C078B80E94D20D80E286BB81E8C7
:104440008093810046B345FF13C028E028B910923D
:10445000810080E286BB80918600909187006C018C
:1044600020918400309185008217930768F013C073
:1044700040FFE8CF31E036BBA895C70101967C012B
:1044800080359105F9F6E1CF40FF05C061E066BBDC
:104490008FEFE81AF80A86E980937A0034E1732EE8
:1044A0008B2D0E94040E4C018A2D0E940C0E24E0DC
:1044B0008216910410F4049710F07A9489F7809092
:1044C0004D0190904E018A899B89880E991E800E1D
:1044D000911E209123013091240100399AE119079E
:1044E000B0F461EEC616D104E104F10438F4C6015B
:1044F00065E070E00E948E38645101C069E1285285
:104500003109261B310967FD339586E009C0C401D6
:1045100060EB76E30E948E3887E0860F285D3F4F80
:1045200090E0A0E0B0E08C159D05AE05BF0528F435
:10453000C81AD90AEA0AFB0A03C0C12CD12C760199
:104540008989882329F092E2C90ED11CE11CF11C53
:1045500060E5E616F10418F0C12CD12C76018BE051
:10456000C816D104E104F10428F091E0C91AD10879
:10457000E108F10840913A0150913B01A12CB12C86
:10458000A8EEB3E00E9460382B013C019801DA01EB
:104590000E946038A50194010E94B5384427552730
:1045A000C301B2010E94B538C9010E94990FFC01F4
:1045B000A5019401C701B6010E947F384B015C013F
:1045C000BF0180E090E023E0660F771F881F991FEE
:1045D0002A95D1F76B5F7F4F8F4F9F4F2AE030E0D6
:1045E00040E050E00E94B538C501B4010E94B538E2
:1045F000832D90E0E1E0F0E0EC0FFD1F64E0369EDB
:10460000E00DF11D11242083318342835383698996
:10461000611117C06CE0C616D104E104F10488F002
:10462000FC013196EE0FFF1FEE0FFF1F81E090E0BF
:104630008C0F9D1FE80FF91F208331834283538322
:104640003394A895339493E0931508F084CE88E0D2
:1046500088B984E00E94D60D21E04D815E816F8192
:10466000788589819A81AB81BC8184179507A607DB
:10467000B70708F020E04D855E856F8578898985CC
:104680009A85AB85BC8584179507A607B70710F0F8
:1046900032E001C033E0E22FF0E0EE0FFF1FEE0F3B
:1046A000FF1F81E090E08C0F9D1FE80FF91FDC01D8
:1046B00094E0399FA00DB11D11244D915D916D9134
:1046C0007C9180819181A281B381481759076A0743
:1046D0007B0708F0322FE1E0F0E0EC0FFD1F24E053
:1046E000329FE00DF11D112480819181A281B3815F
:1046F00080930C0190930D01A0930E01B0930F01D4
:1047000030FD09C02A893B89203F310520F48BEF19
:104710008093020117C02CEF20930201BC01CD0150
:104720006B5F7F4F8F4F9F4F2AE030E040E050E0BB
:104730000E94B53820930C0130930D0140930E0177
:1047400050930F0180910C0190910D01A0910E01E9
:10475000B0910F01892B8A2B8B2B11F4109202013F
:1047600088E087B914B86396E2E10C946D392F9212
:104770003F924F925F926F927F928F929F92AF92F1
:10478000BF92CF92DF92EF92FF920F931F93DF932E
:10479000CF93CDB7DEB76E970FB6F894DEBF0FBEDE
:1047A000CDBF662EB82E860F898320912701273032
:1047B00041F520918C0130918D0140918E015091F5
:1047C0008F0110919B0109C0CA01B9012AE0312D66
:1047D000412D512D0E94B5381F5F173FACF32A358C
:1047E00060E036074105510518F48FEF9FEF81C156
:1047F000173F39F480E028178DE738074105410558
:1048000010F020E03DE72C8B3D8B26EDA22E02C060
:1048100094EDA92EEFE5F1E0E60DF11D859188609C
:104820008E87EFE5F1E0EB0DF11D859188608F87B4
:10483000ECE5F1E0E60DF11D7590ECE5F1E0EB0D36
:10484000F11DC59090EC692AB92A81E0E82EF12C7F
:10485000012D112D8E831F82188619861A861B86BC
:104860001C861D86188E198E1B8E1A8E8CD888E099
:1048700088B960927C000E94CA0D3F8537B975B82F
:1048800074B80E94D10D14B815B8DD24B4ED9B2E78
:10489000A6ED8A2E3E8537B975B874B860927C0053
:1048A000A895A0927A0080917A0086FDFCCFA09214
:1048B0007A0080917A0086FDFCCF209078003090BD
:1048C0007900B0927C00A0927A0080917A0086FDF7
:1048D000FCCF80927A000E94CF0D0E94D10DC5B806
:1048E000C4B80E94D00D0E94D20DA895A895A89595
:1048F000A89514B815B880917A0086FDFCCF209158
:10490000780030917900288B398B3F8537B9C5B84D
:10491000C4B8A895B0927C00A0927A0080917A00E9
:1049200086FDFCCFA0927A0080917A0086FDFCCFB4
:10493000609178007091790060927C00A0927A007A
:1049400080917A0086FDFCCF80927A000E94CF0D84
:104950000E94D10D75B874B80E94D00D0E94D20D7E
:10496000A895A895A895A89514B815B880917A002F
:1049700086FDFCCF409178005091790014B8CB01AE
:10498000820D931DE80EF91E011D111DEA82FB82A6
:104990000C831D8388899989840F951F2E813F81FF
:1049A00068857985280F391F611D711D2E833F830E
:1049B0006887798722E32417150650F075B874B814
:1049C0000E94D40D14B815B8888D8395888F07C0C0
:1049D000483E73E0570718F08A8D83958A8F88893F
:1049E00099892817190660F03E8537B9C5B8C4B84B
:1049F0000E94D40D14B815B8898D8395898F07C08E
:104A0000883E73E0970718F08B8D83958B8FD39436
:104A10005D2D5F3F09F03ECF40904D0150904E011B
:104A2000440C551C9201E4E0240D351DEA95E1F794
:104A30002901570168016E807F80888499842091C4
:104A400027012730C1F46C897D89812D912D6C530C
:104A50007040804090409B01AC010E947F389B01D8
:104A6000AC016FEF71EC8EE390E00E94B538621AF2
:104A7000730A840A950AA614B704C804D90428F452
:104A80006A187B088C089D0803C0662477244301BC
:104A9000B20180E090E09301A4010E947F3895016B
:104AA000A6010E94B53881E090E07981870F911DC1
:104AB0000E94E73990E0682EC90160E170E00E9431
:104AC0008E38260F371FC9016816190618F4861983
:104AD00091090FC08C5E9F4F8615910540F48C891B
:104AE0009D89843981E1980710F00E940F14812D6F
:104AF000912D6E960FB6F894DEBF0FBECDBFCF914D
:104B0000DF911F910F91FF90EF90DF90CF90BF90BA
:104B1000AF909F908F907F906F905F904F903F905D
:104B20002F900895A0E0B0E0E8E9F5E20C94573941
:104B30008091960190919701892B09F09DC0E09199
:104B40009801F0E0E15AFE4FC491C860E0919901EC
:104B5000F0E0E45AFE4F14910E94C31C88E088B92B
:104B600015B8C7B914B9809199010E940C0EEC01D7
:104B700000919B01083F0CF07FC0045FC0908C0146
:104B8000D0908D01E0908E01F0908F018AE0882E08
:104B9000912CA12CB12C043070F4C701B6016B5FCD
:104BA0007F4F8F4F9F4FA50194010E94B5380F5F33
:104BB00069017A01F0CFD701C6010197A109B109B6
:104BC00088389341A105B10508F056C015B914B94C
:104BD000A12CB12CAC14BD0430F40E94D00D82E0A5
:104BE000A80EB11CF7CF14B815B8A89585E080932E
:104BF0003601809199010E940C0EC817D90720F444
:104C00005C01AC1ABD0A02C0A12CB12C812C912CE4
:104C10008C149D0430F40E94D00D2FEF821A920A5A
:104C2000F7CF809199010E940C0E29E12093360163
:104C3000A895C817D90718F48C1B9D0B02C080E0FB
:104C400090E08A159B0588F49501281B390B69F0C3
:104C5000A4EFB1E00E946038950140E050E00E946E
:104C6000B53830939701209396010E94C31C88E0C9
:104C700087B988B914B815B8CDB7DEB7ECE00C9495
:104C80007339A5E0B0E0E7E4F6E20C94513982E52F
:104C900094E063D620EF2A8354980E94C50D14BC7B
:104CA00016BC109214011092150110921601109268
:104CB000170131E035BB30936E001092800083E124
:104CC0009AE79093890080938800E1E0F0E0F09308
:104CD0008B00E0938A00109285001092840083B5C7
:104CE000816083BDF6E0F6BBF0936F00789424E01A
:104CF0002093810012E319820E94BF0DA8954F995D
:104D000002C031E0398385B581112CC015BC86B550
:104D1000809314010E9497080E94700A0E94A208C2
:104D20000E94700A0E94750A86E60E94190A0E9473
:104D3000780A60911401709115018091160190918B
:104D4000170107E028E440E00E94A60B8AE70E94D2
:104D5000190A549880918100882339F08FE30E94CA
:104D6000190A03C0115041F6D1CF10928100109260
:104D70006F0020911401309115014091160150915E
:104D80001701DA01C9010197A109B109893D9146CD
:104D9000A105B10508F029C1AAE0B0E00E9475386C
:104DA000685F7F4F8F4F9F4F23E09695879577954C
:104DB00067952A95D1F7660F771F70937E016093F0
:104DC0007D0154980E94C50D16BC109214011092DA
:104DD0001501109216011092170181E085BB809396
:104DE0006E001092800110927F0194E09BBB809135
:104DF0006800846080936800789480916D00806181
:104E000080936D001D820E94BF0DA8954F9902C02E
:104E1000E1E0E98380916D0084FF05C0FD81FF5FC3
:104E2000FD83FA3F81F715BC80916D008F7E8093E2
:104E30006D00809168008B7F8093680086B58093B9
:104E400014010E94970884E50E94190A0E94780ABA
:104E50008091140190911501A0911601B091170154
:104E600020917D0130917E013C832B831C012D011B
:104E70009C01A20160E070E080E090E003E00E940D
:104E80008E3951016201E12CF12C00E010E00E940A
:104E9000A73959016A017B01E82F192F03E00E940D
:104EA0008E390E2F0E94A73903E00E948E395101DE
:104EB0006201E12CF12C00E010E00E94A73902E031
:104EC0000E948E3900E00E94A73901E00E948E39CD
:104ED00000E00E94A73903E00E948E39EB81FC813B
:104EE0005F01C12CD12C00E00E94ED3839014A014C
:104EF0001B012C012B813C812038310530F007E06B
:104F000023E745EFB301C40116C084E6A82EB12CF7
:104F1000C12CD12CE12CF12C00E010E09301C20156
:104F20000E94ED38E22FF42F07E023E747EF6E2FC2
:104F3000732F8F2F952F0E94A60B3D813A3F21F4AE
:104F40008FE30E94190A51C09301A401B101C2016B
:104F50002C393E4C43405105610571058105910591
:104F600009F008F442C00E94A20886E60E94190ACD
:104F70000E94780A9301A401B101C20153016401A6
:104F80007101820121153A4C4A495B436105710563
:104F90008105910589F080F020E030E04AE85DE588
:104FA00068E775E483E691E00E94ED38E22FF42F84
:104FB00007E028E44AEF0FC020E030E846EC54EA6E
:104FC0006EE77DE883E090E00E94ED38E22FF42F59
:104FD00007E028E44CEF6E2F732F8F2F952F0E9440
:104FE000A60B8AE70E94190A549810926E0080ED71
:104FF00097E00E94B20E2981820F49F4809120012E
:10500000833028F43A8131503A83311145CE2596C8
:10501000E2E10C946D391F920F920FB60F9211249A
:105020008F939F93AF93BF93789480911401909145
:105030001501A0911601B09117019F5FAF4FBF4FAF
:105040008093140190931501A0931601B09317015A
:10505000BF91AF919F918F910F900FBE0F901F90B6
:1050600018951F920F920FB60F9211248F9386E01E
:1050700085BD8F910F900FBE0F901F9018951F92B6
:105080000F920FB60F921124A8951092810015BCB3
:105090000F900FBE0F901F9018951F920F920FB692
:1050A0000F9211242F933F938F939F9380917F01B1
:1050B00090918001892B11F481E085BD20917F01C1
:1050C0003091800180917D0190917E0128173907F0
:1050D00030F015BC80916D008F7E80936D008091C3
:1050E0007F019091800101969093800180937F01D0
:1050F0009F918F913F912F910F900FBE0F901F9016
:1051000018958C3008F08C50811103C08CE594E028
:1051100036C0813019F482E594E031C0823019F450
:1051200089E294E02CC0833019F48EE194E027C02A
:10513000843019F482EC91E022C0853019F487EBB9
:1051400091E01DC0863019F48BEA91E018C08730D9
:1051500019F48FE094E013C0883019F480E094E0F3
:105160000EC0893019F489EE93E009C08A3019F431
:1051700080E494E004C08B3021F485E394E00C9447
:10518000850A08950F93CF9382EC91E0E6D3C0E0B7
:105190001092270160E082E0FCD3809127018730E4
:1051A000C1F50E94720A83E40E94190A0E94780ADB
:1051B00060918C0170918D0180918E0190918F0191
:1051C00003E026E440919B010E94A60B60919801A8
:1051D00080919901CCDA90939501809394010E947B
:1051E000750A86E793E00E94850A609194017091A8
:1051F00095016A3F8FEF780740F480E090E002E08D
:1052000024E04EEF0E94A60B0CC08FE30E94190A07
:1052100008C00E94720A82EC91E00E94850A0E94F6
:10522000750A8C2F24D788EE93E00E94B20E81116C
:105230000DC080912001843048F48091400181307C
:1052400009F4C0E0CF5FCA3F08F4A2CFCF910F911D
:10525000089508950F93843108F08451833189F4BF
:1052600089E08093810081E090E0909389008093B1
:10527000880007E028E44DEF60E074E985E397E7F4
:1052800048C1823189F489E08093810083E090E015
:10529000909389008093880007E028E44DEF60E058
:1052A0007AEC8AE99BE335C1813169F489E0809326
:1052B000810087E090E0909389008093880007E068
:1052C00028E44DEF6CC0803169F489E0809381005F
:1052D0008FE090E0909389008093880007E028E4B5
:1052E0004DEF6FC08F3089F489E08093810089E1B0
:1052F00090E0909389008093880007E028E44DEFC8
:105300006AE871E88BE299E004C18E3069F489E0C3
:105310008093810087E290E09093890080938800D9
:1053200007E028E44DEF60C08D3069F489E0809398
:1053300081008FE490E0909389008093880007E0DB
:1053400028E44CEF2CC08C3069F489E08093810014
:105350008FE990E0909389008093880007E028E42B
:105360004CEF2FC08B3069F489E0809381008FE887
:1053700091E0909389008093880007E028E44CEF47
:1053800033C08A3089F489E0809381008FE193E013
:10539000909389008093880007E028E44BEF60E059
:1053A00075E68DEC9DE1B5C0893081F48093810074
:1053B0008FE396E0909389008093880007E028E4CB
:1053C0004BEF60E872EB86EE9EE0A3C0883089F474
:1053D00089E0809381008FE99FE09093890080931A
:1053E000880007E028E44BEF60E071EE85EF95E080
:1053F00090C0873089F489E08093810084E493E24F
:10540000909389008093880007E028E44BEF6FE7D2
:105410007DEF83EA92E07DC0863089F489E0809355
:10542000810089E593E2909389008093880007E0EA
:1054300028E44BEF6FEE7BE682EA92E06AC08530AB
:1054400089F489E08093810082E893E29093890057
:105450008093880007E028E44BEF68E471E68FE969
:1054600092E057C0843089F489E0809381008FE70F
:105470009EE3909389008093880007E028E44BEF37
:1054800060E478E78DE791E044C0833069F48BE015
:105490008093810080E792E0909389008093880058
:1054A00007E028E44AEFA0CF823071F481EE94E067
:1054B000909389008093880007E028E44AEF60E831
:1054C00070EF8AEF92E025C0813089F48BE0809301
:1054D000810089E698E1909389008093880007E035
:1054E00028E44AEF60E876E988E990E012C081118B
:1054F00012C08CE08093810088E09DE39093890046
:105500008093880007E028E44AEF60E472E48FE0CB
:1055100090E00E94A60B8AE70E94190A0F91089555
:10552000A0E0B0E0E6E9FAE20C945C3989E294E0AC
:1055300014D280E18093800010926F0081E090E0AF
:10554000909389008093880010928B0010928A00BB
:1055500083E086BB1092820088E08093810015B8BA
:1055600091E194B988B989E087B9229A8093810042
:1055700000E020E0D12C12E1CEE1D0E0802F90E0DD
:105580000A96BE010E94A238F62E621771F00E94A0
:10559000720A89E294E00E94850AE12CEF1430F44B
:1055A0008EE20E94190AE394F9CFF22ED11609F186
:1055B000143108F014510E94750A0E945D0A83E1BB
:1055C000810F48DE0E94A2080E94700A0E94A20871
:1055D0000E945D0A81E0810F3DDE0E9497080E94D3
:1055E000700A0E9497088EE30E94190A812F32DE0A
:1055F000D12E88EE93E00E94B20E9091200181118D
:1056000002C0992319F000E09B30A0F490911F0193
:1056100097FD9C5E190F853118F01F5F803550F49F
:1056200080914001813009F400E00F5F003F10F4E9
:105630002F2DA4CF109281001092800088E087B9AE
:1056400014B82298CDB7DEB7E7E00C947839A4E01F
:10565000B0E0EDE2FBE20C9455398EE194E07DD1AF
:1056600083E28093800010926F0081E090E090933D
:105670008900809388008FEF90E090938B00809357
:105680008A0083E086BB1092820015B881E184B95C
:1056900088E088B989E087B9229A80938100612CDB
:1056A00000E08AE0782E10E094E6C92ED12CE12C9F
:1056B000F12C88248A9423E0922EA12CB12C701610
:1056C000D1F183E6871510F4ECE97E0E272D30E04A
:1056D000AFEFB3E00E9460386E5C7F4F8F4F9F4FFB
:1056E000A70196010E94B53830938B0020938A0061
:1056F00029833A834B835C830E94750AA8EEB3E04A
:1057000029813A814B815C810E94753861507E4FBE
:105710008F4F9F4FA50194010E94B538CA01B9016E
:1057200005E025E24FEF0E94A60B193218F08CE33A
:105730000E94D60D072D80E496E00E94B20E182F2D
:105740008338E0F4909120019B30C0F480911F01D8
:1057500087FD8C59780E133318F0FAE07F0E03C0E2
:105760001123C1F07394612C80914001813009F4C0
:10577000612C63948FEE861508F0A1CF88E087B97D
:10578000109281001092800014B822982496EEE0C6
:105790000C9471399111E7CFE7CF0F93CF93DF933B
:1057A00089EE93E0DAD080E090E00E94E739C82FDC
:1057B000D0E081E80E94E2088C2F0E94E2080E945B
:1057C000750A8C2F90E0A0E0B0E004E020E240E019
:1057D000BC01CD010E94A60B80E496E00E94B20EAF
:1057E000811105C090912001911103C003C082383E
:1057F000D8F4D0E0909120019B30B0F490911F013B
:1058000097FD905C9C0F882329F0893210F09F5FF0
:1058100001C0915CC92FCF7380914001813009F4A0
:10582000D0E0DF5FD03F28F26C2F80E090E00E9454
:10583000F439DF91CF910F910895CF93DF93D0E0AA
:10584000C0E087E694E089D00E94750A0E945D0A54
:105850008BE08C0F56DC0E9497080E94700A0E9411
:1058600097088EE30E94190A8C2F4BDC0E94A20835
:105870000E94700A0E94A2080E945D0A81E08C0FBB
:1058800040DC80E49FE10E94B20E8111D0E0909153
:105890004001913009F4D0E0823340F490918401CA
:1058A000992309F43DC0882309F43AC0CC2309F4B4
:1058B00051C0C13019F480E0E4D92DC0C23011F4D8
:1058C0002FDE29C0C33011F4C2DE25C0C43011F46C
:1058D00059DC21C0C53011F4D1D31DC0C63011F43C
:1058E0003ED419C0C73011F48BD115C0C83021F493
:1058F00081E10E9432100FC0C93011F44EDF0BC09D
:10590000CA3011F4D2D207C0CB3029F45E9880E0BF
:1059100090E00E94B20E1092200110921F0180E0D0
:10592000909120019A30B0F490911F01992319F0C1
:1059300097FD03C0D0E0C90F03C0945FC90FD0E04A
:105940008111CF5FDF5FD83728F4CC3008F479CFEE
:10595000CC5077CFDF91CF910895A2E0B0E0E3EB98
:10596000FCE20C94603989839A830E94F108898152
:105970009A810E94850A14E682E00E94D60D4F9912
:1059800002C01150C9F70E948C082296E3E00C94E3
:105990007C39A0E0B0E0EFECFCE20C945839C82F61
:1059A000D62F8FEF860F9C2F990F9C0F890F809316
:1059B0006401862F90E0FC01E15AFE4F14911860BB
:1059C000EC2FF0E0E45AFE4FB490FC01E45AFE4F95
:1059D00004911092950110929401109288011092F6
:1059E000890110928A0110928B0187EF80939A01AE
:1059F0000E94C31C88E088B917B904B905B98C2F77
:105A00000E940C0E8C018D2F0E940C0E081B190B8E
:105A100014B8109266011092650120E030E09CE21B
:105A2000E92EFF24F3944AE0A42E54E6952E8091AB
:105A3000650190916601843D904308F069C0B5B856
:105A40008091650190916601892B89F06701C21AE6
:105A5000D30A6091650170916601A29EC001A39E68
:105A6000900D11240E948E38C616D70650F4B4B893
:105A70000E94C90D14B8809165019091660101964C
:105A800028C080916501909166010B97C8F06091E4
:105A9000650170916601929EC001939E900D112444
:105AA0000E948E386C157D0558F4B4B80E94BF0D65
:105AB00014B880916501909166018C599F4F09C07F
:105AC000B4B80E94C40D14B880916501909166012C
:105AD0000A96909366018093650115B80E94CB0DDC
:105AE000A8958C2F0E940C0E9C01201B310B8091DD
:105AF0006501909166018B31964020F02532310589
:105B00000CF474C02D3281E038070CF490CF05C03E
:105B10002D3281E038070CF469C0809165019091C5
:105B20006601019729F4253145E034070CF05EC089
:105B30000091650110916601000F111FA80160E03E
:105B400070E04093900150939101609392017093A3
:105B50009301C90168E270E00E94A238C901860F72
:105B6000971F0E948A209C01D8010E946038609390
:105B700090017093910180939201909393016093AF
:105B800088017093890180938A0190938B010E9410
:105B9000501D609188017091890180918A019091D6
:105BA0008B012AE030E040E050E00E94B5382093BD
:105BB00088013093890140938A0150938B0187E0DB
:105BC0008093270120938C0130938D0140938E01A7
:105BD00050938F0180919A0180939B0110929701BD
:105BE00010929601D0939801C093990188E087B9EB
:105BF00088B914B815B8CDB7DEB7EBE00C9474399A
:105C0000A8E1B0E0E6E0FEE20C9457398FE094E0C2
:105C1000A4DE0E948C0889E094E00E94850ADE01DF
:105C20005196CE010996AE014F5F5F4F9E01275EF0
:105C30003F4FF42EE52E1D921D92FC011192119200
:105C4000CF01FA0111921192AF01A217B30799F790
:105C500085E185B984B900E010E0812C48E0D42EBC
:105C600059E0C52E6AE0B62E7CE0A72ED8B8C7B89A
:105C70000E94D30D86B181FB992490F882FF02C067
:105C8000939493940115110589F0981469F0EF2D00
:105C9000FE2DE90DF11DE90DF11D8085918501961F
:105CA00091878087982C02C034E0932EB7B80E9469
:105CB000D30D96B1892F817092FD8E5FF4E09F1213
:105CC0000BC0EF2DFE2DE80FF11DE80FF11D8089AF
:105CD00091890196918B808BA7B80E94D30D96B1C4
:105CE000892F817091FD8E5F94E099120BC0EF2D8A
:105CF000FE2DE80FF11DE80FF11D808191810196C5
:105D000091838083A8950E94C50D4F9905C015B851
:105D100014B888E087B9C5C049895A894531510509
:105D200008F16B897C8965317105E0F02D893E8928
:105D300025313105B8F08F89988D8531910590F026
:105D4000260F371F11E02417350708F010E0FF2455
:105D5000F3942817390708F0F12CCC24C39422E0DF
:105D6000E22E4CC049855A854531510510F16B85AD
:105D70007C8565317105E8F02D853E85253131053D
:105D8000C0F08F8598898531910598F0260F371FCF
:105D900011E02417350708F010E0FF24F3942817CA
:105DA000390708F0F12CC12C92E0E92EDD24D394C0
:105DB00030C049815A814531510510F16B817C8198
:105DC00065317105E8F02D813E8125313105C0F046
:105DD0008F8198858531910598F0260F371F11E046
:105DE0002417350708F010E0FF24F394281739072B
:105DF00008F0F12C82E0C82EEE24E394D12C09C0E7
:105E00000F5F1F4F0931E6EF1E0709F44AC0892CC6
:105E10002DCF0E94750A00E00E948C088D2D0E94F3
:105E20005B0A8DE20E94190A00FD02C08DE201C0EA
:105E30008FE20E94190A8DE20E94190A8C2D0E949D
:105E40005B0A8DE20E94190A01FD02C08DE201C0C9
:105E50008FE20E94190A8DE20E94190A8E2D0E947B
:105E60005B0A0E945D0A802F837021F4112361F088
:105E700083E405C0833041F4FF2031F08FE60E94B7
:105E8000190A80ED97E004C00E945D0A80E991E064
:105E90000E94B20E81113BCF0F5F083709F0BCCFD3
:105EA00036CF6896ECE00C9473390F930E94F1089A
:105EB00080E392E00E94850A0E948C088CEE91E0BB
:105EC0000E94850A83E090E00E94E739682F70E025
:105ED00080E090E003E020E24EEF0E94A60B84E019
:105EE00090E00E94E739682F70E080E090E020E2C7
:105EF0004EEF0E94A60B82E090E00E94E739682FE7
:105F000070E080E090E024E04EEF0E94A60B0E943B
:105F1000970885EE91E00E94850A60913C0170919E
:105F20003D0180E090E024E04FEF0E94A60B0E942C
:105F3000A2088EED91E00E94850A60914D0170915A
:105F40004E0180E090E024E04FEF0E94A60B88E92C
:105F50009AE30E94B20E809120018B3008F085C038
:105F600080911F0187FDA2CF0E94F1088AED91E088
:105F70000E94850A8AE090E00E94E739682F70E06D
:105F800080E090E003E020E240E00E94A60B8BE07E
:105F900090E00E94E739682F70E080E090E020E216
:105FA00040E00E94A60B87E090E00E94E739682F4E
:105FB00070E080E090E026E444EF0E94A60B0E948F
:105FC0008C0883E00E945F0A86E090E00E94E73937
:105FD000682F70E080E090E020E240E00E94A60B95
:105FE00089E090E00E94E739682F70E080E090E05F
:105FF00020E240E00E94A60B85E090E00E94E73995
:10600000682F70E080E090E026E444EF0E94A60B49
:106010000E94970886E491E00E94850A8CE090E057
:106020000E94EF390E94B60A0E94A2088FE391E015
:106030000E94850A8EE090E00E94E739992787FD4B
:1060400090950E94B60A88E99AE30E94B20E809168
:1060500020018B3050F480911F018F3F0CF426CF2C
:106060008F3F09F481CF0E949E0C0F9108958F708D
:1060700021F40E94A2080C94741408950F93CF93F6
:1060800087EB91E06ADC6CE080E00E94AD0882EB77
:1060900091E00E94850AC0E00E94BA0F60E082E0B1
:1060A0000E94BF1A62E080E00E94BF1A0E948C0822
:1060B00080918301882349F10E94832181E00E941D
:1060C000380B809102018823F1F08AE693E00E9468
:1060D000850A60910C0170910D0180910E019091E3
:1060E0000F0103E028E4409102010E94A60B65E045
:1060F00080E00E94AD088EE392E00E94850A82E073
:106100000E945B0A12C08CE004C08FE30E94190A4F
:1061100083E10E945F0A65E080E00E94AD0882E0B2
:106120000E945B0A84E00E945F0A8C2FA0DF88EE49
:1061300093E00E94B20E81110DC080912001843045
:1061400048F480914001813009F4C0E0CF5FCA3F3C
:1061500008F4A2CF0E94F108CF910F9108950F93F8
:10616000CF93DF938BEA91E0F8DB6DE080E00E9453
:10617000AD0887EA91E00E94850AC0E0D7E00E945E
:10618000BA0F109297011092960160E082E00E948F
:10619000901D0E948C0880919A0187FF6FC088E053
:1061A0000E945F0A0E948C086091880170918901A9
:1061B00080918A0190918B0104E026E440919A013C
:1061C0000E94A60BD093270160E082E00E94B723D3
:1061D000909395018093940168E08A3F9F4F08F562
:1061E00082E00E94AD0886E793E00E94850A6091F4
:1061F00094017091950180E090E002E024E04EEF80
:106200000E94A60B82E00E945F0A64E080E00E9488
:10621000AD0883E492E00E94850A82E00E945B0A56
:1062200010C082E00E94AD088AE00E945F0A64E02C
:1062300080E00E94AD0882E00E945B0A85E00E9437
:106240005F0A0E9492250E94970880919601909182
:106250009701892BD9F08EE693E00E94850A609120
:1062600096017091970180E090E002E025E24FEF07
:106270000E94A60B84E00E945F0A0AC08FE30E947E
:10628000190A82E10E945F0A0E9497080E94700A20
:106290008C2FEDDE88EE93E00E94B20E81110DC0CE
:1062A00080912001843048F480914001813009F4CC
:1062B000C0E0CF5FCA3F08F462CF0E94F108DF91CF
:1062C000CF910F9108951F93CF93DF9381E090E0DA
:1062D0000E94E739182F843131F5C0E0D0E0CE01BB
:1062E0008B5F9F4F0E94E739CC23A1F0C33099F414
:1062F000811789F0282F30E0412F50E0BA016F5FFD
:106300007F4F2617370739F04E5F5F4F2417350749
:1063100011F009C0182F8A50853B28F42196C73008
:10632000D105E9F642C00E94830885E40E94190A5B
:1063300085E40E94190A63E08EE090E00E94F4393F
:106340006CE070E08CE090E00E94023A69E379E34F
:1063500085E090E00E94023A6BE387E090E00E94C3
:10636000F4396BE388E090E00E94F4396BE389E054
:1063700090E00E94F43969E379E38AE090E00E94BA
:10638000023A64E174E181E090E00E94023A64E143
:1063900074E183E090E00E94023A67E380E090E0DD
:1063A0000E94F43988EC0E94D60DDF91CF911F91A5
:1063B0000895A4E0B0E0EEEDF1E373C780E48AB99C
:1063C0008BB986E880937A001092C10014B784B725
:1063D000877F84BF88E10FB6F894809360001092A5
:1063E00060000FBE86E88093640088E380937E009F
:1063F0001092B00087E08093B10078940E940B095E
:1064000013FD4DC680E185BF5EDF84E080931E01F1
:1064100010E04F9906C082E00E94D60D1F5F1C332A
:10642000C1F78FE59DE690931901809318011F3104
:1064300030F080E69DE69093190180931801109248
:1064400037010E94B9201C3308F0F7D908E1C02EAB
:10645000D12C83E5A82E81E0B82E9DE6E92E91E0AF
:10646000F92E8FEA0E94E20884EA0E94E2080E9464
:10647000F10828E027B90E94BA0F0E94B9200E94B3
:10648000DE080E9483080E9474143FE00FB6F8945F
:10649000A895C09260000FBE3093600080914F01BC
:1064A000882381F00E948C088BE793E00E94850A84
:1064B00063E080913A0190913B010E94650C88EC69
:1064C0000E94D60D0E948C080E94C31C8091270157
:1064D000883041F50E94F10880E893E00E94850A27
:1064E0000E948C0863E080910601909107010E9450
:1064F000650C0E945D0A63E080910801909109019A
:106500000E94650C0E945D0A63E080910A019091EF
:106510000B010E94650C8AEC0E94D60D81E10E945D
:10652000321036C588E090E052D7082F85E090E021
:106530004ED7081B00934C0180E00E9432100E944D
:106540008C0882EF94E00E94850A42E061E080E0DE
:106550000E94B61442E060E081E00E94B61441E07F
:1065600062E080E00E94B61441E060E082E00E94B8
:10657000B61440E062E081E00E94B61440E061E0C1
:1065800082E00E94B61480912701811111C083E43A
:106590000E94190A0E94C31C60E082E00E94901DC4
:1065A00061E082E00E94901D60E081E00E94901D09
:1065B0000E94F108B0925101A092500180912701F0
:1065C000853071F485E30E94D30960E188EF0E9471
:1065D0007F0C66E080E00E94AD0889EC94E00FC07B
:1065E0008630F9F484E30E94D30960E188EF0E94C9
:1065F0007F0C66E080E00E94AD0882ED94E00E948E
:10660000850A66E082E00E94AD0884E993E00E947A
:10661000850A62E080915701909158010E94650CB3
:10662000B7C4873009F06BC0809198010E945B0A63
:1066300086E893E00E94850A809199010E945B0A96
:106640000E9492258091960190919701892B89F063
:106650000E9497088EE693E00E94850A6091960159
:106660007091970180E090E002E025E24FEF0E94F8
:10667000A60B0E948C0860918C0170918D01809115
:106680008E0190918F0104E026E440919B010E94CD
:10669000A60B60919801809199010E94B723909375
:1066A0009501809394018A3F9F4FE8F485E793E03A
:1066B0000E94850A609194017091950180E090E0BC
:1066C00002E024E04EEF0E94A60B64E080E00E940E
:1066D000AD0883E492E00E94850A809199010E94AE
:1066E0005B0A0E945D0A209198018091990190E0D7
:1066F000820F911D029709F04BC431DDB2CE82307A
:1067000009F0E6C080912501813009F043C09091E5
:106710009E018091A401981750F4892F0E945B0A72
:1067200081E592E00E94850A8091A40108C00E9440
:106730005B0A8DE492E00E94850A80919E010E948E
:106740005B0A60919E018091A4010E94211480E760
:106750000E946D0B60919E018091A4010E94901D8A
:1067600080919A018D3F0CF030C30E94970888EB0E
:1067700093E00E94850A609188017091890180915F
:106780008A0190918B0102E026E440919A010E94D7
:10679000A60B1BC3823009F048C082E30E94190A8D
:1067A00088E492E00E94850A80919E0120919F01D9
:1067B000821313C08091A4010E945B0A8DE492E0D1
:1067C0000E94850A80919E010E945B0A81E592E009
:1067D0000E94850A8091A50116C03091A401909174
:1067E000A501391316C00E945B0A81E592E00E9460
:1067F000850A8091A4010E945B0A8DE492E00E94C8
:10680000850A80919F010E945B0A81E00E946D0BC6
:10681000DCC2321304C081E08093130140C098139E
:1068200041C0F0E1F09313013AC08330D9F583E31E
:10683000809313018091A40190919F01891303C05B
:1068400021E02093130140919E013091A501431353
:1068500003C020E1209313012091A001821303C003
:1068600082E0809313018091A601481303C040E2A7
:1068700040931301321303C022E1209313019813B4
:1068800003C081E28093130180911301823250F49E
:1068900083E30E94190A88E492E00E94850A0E941C
:1068A000830B93C288ED94E00E94850A80EC94E00B
:1068B0000E94850A0E948C0884EA94E00E94850A5E
:1068C00080912501805D0E94190A81E592E056C3FE
:1068D000833009F04CC180917C01882399F180912B
:1068E0006201882379F160915F01809161010E94CA
:1068F000901D409088015090890160908A017090AD
:106900008B0110919A0160917B01809179010E9425
:10691000901D80919A0118130EC08091880190916A
:106920008901A0918A01B0918B01481659066A0627
:106930007B0618F004C0181714F48DE001C08CE039
:106940008093260180917C01882361F0809162010F
:10695000882341F04F9906C08091260191E0892754
:106960008093260166E080E00E94AD0880E30E94EB
:10697000D309809126018C3051F480EB93E00E9482
:10698000850A80917C018823A9F080E711C0F092EC
:106990005101E092500185EC90E00E94170A88EACC
:1069A00093E00E94850A80916201882319F08EE6A7
:1069B0000E94190A209125014091500150915101E6
:1069C000A4EAB1E06EE971E0162F8EE991E0181BA0
:1069D0001217C0F4FB018191BF01FA019485891758
:1069E00019F03C91391302C01196EECFFA0195854A
:1069F000981302C060E001C062E080E990E00E946C
:106A0000FF0901C014E160E189EF0E947F0C86E07C
:106A10000E94B7088FEB93E00E94850AE091500135
:106A2000F0915101608171818281938103E020E0C6
:106A300040E00E94A60B87E00E94B70889E40E940C
:106A4000190AE0915001F0915101868197818031BE
:106A5000974270F085E60E94190AE0915001F0918A
:106A6000510186819781805197429783868303C025
:106A700083E60E94190A0E94780AE0915001F09181
:106A800051016681778180E090E002E021E44AEFE5
:106A90000E94A60B86E00E94B70888E993E00E9456
:106AA000850AE0915001F091510163E08481958164
:106AB0000E94650C81E080935201E0915001F091B9
:106AC000510180859185892B99F085E00E94CD0840
:106AD0008AE292E00E94850AE0915001F091510112
:106AE0006085718580E090E021E44AEF0E94A60B6A
:106AF000E0915001F091510182859385892BA1F09D
:106B000085E00E94CD0884E292E00E94850AE0912F
:106B10005001F09151016285738580E090E002E0C0
:106B200021E44AEF0E94A60B1530F0F480E00E94A9
:106B3000CD08812E912C940122563E4F4901F90136
:106B400086810E945B0A8DE492E00E94850AF4012E
:106B500080810E945B0A0E945D0A84E993E00E94A2
:106B6000850A812F0E945F0B43E462E426C18430D2
:106B700009F036C166E080E00E94AD0880912601F0
:106B800084FF09C080E50E94190AF0925101E09249
:106B9000500101E004C08EE40E94190A00E08DE279
:106BA0000E94190A80912601182F1F70143061F479
:106BB0008AEC93E00E94850A83E30E94D3090023B4
:106BC000E1F18EEC90E037C085FF05C084E40E94BF
:106BD000190A0E5F03C085E40E94190A1330B1F44C
:106BE00084EC93E00E94850A81E30E94D30901307E
:106BF00019F487E291E01FC0023019F48BE191E0B3
:106C00001AC00330D1F487EF90E015C08FEC93E009
:106C10000E94850A82E30E94D309013019F48DEEA7
:106C200090E009C0023019F487EE90E004C0033010
:106C300021F485ED90E00E94170A809125018130B2
:106C400029F58091260184FF08C090917A018091F6
:106C50007B01981740F080E007C09091600180911F
:106C600061018917C0F781E0982EE0915001F09101
:106C70005101958580919E01981302C060E001C08A
:106C800062E080E990E00E94FF0901C0912C60E180
:106C900089EF0E947F0C86E00E94B7088091260150
:106CA00085FD2FC080E993E00E94850AE0915001A4
:106CB000F091510162E0828593850E94650CE0911C
:106CC0005001F0915101668584850E94901D86E0F7
:106CD0000E94B7080E949E0A85E00E94B70882EAD7
:106CE00091E00E94850AE0915001F0915101648188
:106CF000758180E090E002E024E04FEF0E94A60B57
:106D00002FC08F70843051F0E0915001F09151010B
:106D1000668584850E94901D0E949E0A80E00E94E4
:106D2000B70889E40E94190A0E94780AE09150018C
:106D3000F09151016681778180E090E002E021E4EA
:106D40004AEF0E94A60B8AE893E00E94850AE09130
:106D50005001F091510162E0828593850E94650C9B
:106D600080912501813029F580E00E94CD0899208D
:106D700059F080919E010E945B0A81E592E00E9499
:106D8000850A8091A4010AC08091A4010E945B0A37
:106D90008DE492E00E94850A80919E010E945B0A28
:106DA0000E945D0A84E993E00E94850A80E00E94C7
:106DB0005F0B133021F443E467E485E403C044E44B
:106DC00067E483E50E94F60AE3C08091830188238B
:106DD00009F4DEC038E137B988E087B90E94970826
:106DE00000918301002309F4BDC0013039F4809182
:106DF0006A010E942A0B092F392E59C010916A018D
:106E000030916B01F4E03F9FD0011124AA54BE4F92
:106E100024E0129FF0011124EA54FE4F4D915D9140
:106E20006D917C9180819181A281B38184179507B6
:106E3000A607B70710F0212F01C0232F023021F43D
:106E4000310F13E0131B1CC010916C0134E0139F31
:106E5000D0011124AA54BE4F84E0289FF0011124D0
:106E6000EA54FE4F4D915D916D917C9180819181AD
:106E7000A281B38184179507A607B70708F0122FE0
:106E8000113029F0123039F001E022E002C002E0B6
:106E900021E080E003C002E020E081E02C830E943A
:106EA0005B0A83E492E00E94850A2C81822F0E9473
:106EB0005B0A83E492E00E94850A802F0E945B0AAD
:106EC00080912701823019F40E94A20802C00E941A
:106ED0008C0880918301813089F50E948321809103
:106EE0006A010E94380B809102018823E9F08AE64A
:106EF00093E00E94850A60910C0170910D018091D0
:106F00000E0190910F0103E028E4409102010E94DC
:106F1000A60B65E080E00E94AD088EE392E00E943F
:106F2000850A832D0E945B0A80916A01813081F578
:106F30008091250181112CC0A1D893CA111102C0E2
:106F400081E003C0113029F480E00E94380B82E018
:106F500006C01230E9F480E00E94380B81E00E9404
:106F6000380B16C080EB94E00E94850A0E948C08C2
:106F70008DED94E00E94850A88ED94E00E94850AD8
:106F800086E00E94D30910E4812E1FE1912E04C0F7
:106F9000809018019090190198E197B94F9BFECF0E
:106FA000C4010E94B20E182F823318F00E941D2CCB
:106FB00058CA809120018330C8F7111152CA81113B
:106FC000EFCF80914C01882309F461C0B4E04B2ECF
:106FD0001B821A8280E090E000E12A813B812B5ADB
:106FE0003D4F4901F401E80FF91F2490E0E22E1211
:106FF00001C0082F019681319105A1F7442031F09D
:10700000142D137059F40E94F10808C080E197E232
:107010000E94B20E8823A1F311E135C060E0812FF8
:10702000880F0E94AD084394F42DF3704F2E612C0D
:10703000712C162D601698F4F401E60DF71D2490BE
:10704000222009F12FEF221203C00E945D0A03C023
:10705000822D0E94190A3FEF631A730AEACF222099
:1070600091F02A813B81200F311D3B832A83F90156
:10707000EB5AFD4FE491E03209F0ACCF2F5F3F4F68
:107080003B832A83A7CF80E197E20E94B20E0E9441
:10709000ED085E9880E090E00E94B20EE2C90E9486
:1070A00083088BE994E00E94850A8BEC0E94D60D40
:1070B0000E94ED085E9880E090E02496E2E10DC128
:1070C000A29FB001B39FC001A39F700D811D112429
:1070D000911DB29F700D811D1124911D0895F0DF47
:1070E000B7FF0895821B930B0895EADFA59F900DCB
:1070F000B49F900DA49F800D911D11240895DB0174
:107100008F939F93F2DFBF91AF91A29F800D911D4E
:10711000A39F900DB29F900D11240895AA1BBB1B35
:1071200051E107C0AA1FBB1FA617B70710F0A61B87
:10713000B70B881F991F5A95A9F780959095BC01A8
:10714000CD01089597FB072E16F4009406D077FD25
:1071500008D0E4DF07FC05D03EF4909581959F4F61
:107160000895709561957F4F0895A1E21A2EAA1B8C
:10717000BB1BFD010DC0AA1FBB1FEE1FFF1FA217E7
:10718000B307E407F50720F0A21BB30BE40BF50BE4
:10719000661F771F881F991F1A9469F7609570956D
:1071A000809590959B01AC01BD01CF010895052EFE
:1071B00097FB16F400946DD057FD05D0D6DF07FC81
:1071C00002D046F466C050954095309521953F4FCA
:1071D0004F4F5F4F0895689401C0E8948F929F923B
:1071E000CF93DF9305D0DF91CF919F908F9008953B
:1071F00088249924F401E401B0E49F93AA279A1506
:107200008B049C04ED05FE05CF05D007A10798F47B
:10721000AD2FDC2FCF2FFE2FE92D982C892E982F04
:10722000872F762F652F542F432F322F2227B850C8
:1072300031F7BF9127C01B2EBF91BB27220F331FF1
:10724000441F551F661F771F881F991F881C991C94
:10725000EE1FFF1FCC1FDD1FAA1FBB1F8A149B043C
:10726000EC05FD05CE05DF05A007B10748F08A183B
:107270009B08EC09FD09CE09DF09A00BB10B2160C9
:107280001A94E1F62EF49401AF01BE01CD01000C79
:10729000089590958095709561957F4F8F4F9F4F82
:1072A00008952F923F924F925F926F927F928F92AA
:1072B0009F92AF92BF92CF92DF92EF92FF920F9385
:1072C0001F93CF93DF93CDB7DEB7CA1BDB0B0FB68F
:1072D000F894DEBF0FBECDBF09942A88398848884C
:1072E0005F846E847D848C849B84AA84B984C884E2
:1072F000DF80EE80FD800C811B81AA81B981CE0FD9
:10730000D11D0FB6F894DEBF0FBECDBFED010895BD
:10731000EE0FFF1F0590F491E02D09940F930830B4
:1073200090F0982F872F762F652F542F432F322FD1
:1073300022270850F4CF220F331F441F551F661F0A
:10734000771F881F991F0A95B2F70F9108952A1980
:107350003B094C095D096E097F09800B910B08956B
:10736000FA01CF93FF93EF932230C4F02532B4F4A7
:10737000C22F2C2F332744275527FF93EF93F5DE99
:10738000EF91FF91605D6A330CF0695D6193B90123
:10739000CA01605070408040904059F710828F9130
:1073A0009F91CF9132C0FB019F0142306CF045327A
:1073B0005CF4642F7727B2DE805D8A330CF0895D40
:1073C0008193CB010097A9F71082C9011EC0F999DA
:1073D000FECF92BD81BDF89A992780B50895A8E1A6
:1073E000B0E042E050E023C0262FF999FECF1FBA4B
:1073F00092BD81BD20BD0FB6F894FA9AF99A0FBEDE
:1074000001960895F1DF272FF0CFDC01FC01672FF3
:1074100071917723E1F7329704C07C916D9370836B
:107420006291AE17BF07C8F30895DC01CB01FC01E0
:10743000F999FECF06C0F2BDE1BDF89A319600B4CD
:0E7440000D9241505040B8F70895F894FFCFD8
:00000001FF
