:1000000051C2000061C200005FC200005DC200007A
:100010005BC200000C94511F57C20000D5C60000FF
:1000200053C2000051C200000C9478170C94431F77
:100030000C94351F0C94521747C2000045C20000B3
:100040000C940F1F41C200003FC200003DC20000DF
:100050003BC20000BAC6000037C2000035C2000033
:1000600033C2000031C200005245465F523D00528B
:1000700045465F433D00203E3130306E4600706E95
:10008000E46D006B4D010410090A0C041F111111DD
:10009000111F04001E0203021E0000000F081808B2
:1000A0000F00001113171F1713110011191D1F1D29
:1000B0001911001B1B1B1B1B1B1B005244533D0033
:1000C0005B435D00312D032D3320005B524C5D00FE
:1000D000312D07062D77772D332000432B455352C2
:1000E000405450313A33006640545032002035308D
:1000F000487A004330200052695F4C6F3D005269DE
:100100005F48693D0052303D0052482F524C002B51
:1001100052482D203132203133203233002B524CC3
:100120002D2031322031332032330052482B0052FF
:10013000482D005248663D005265663D00494345E2
:10014000733D00494345303D0056657273696F6EDB
:1001500020312E31326B002D77772D002D07062DA3
:10016000002A012020002D022D002D012D00556EAA
:100170006B616C6962726965727421205A756DFFDA
:100180004B616C696272696572656E206B6C656D3E
:100190006D652033FF50696E6E65207A7573616DF1
:1001A0006D656E20756E6420737461727465206D68
:1001B0006974206465722054617374652E204265F1
:1001C00073746165746967652064656E2053656C3E
:1001D00062737474657374206D6974206465722031
:1001E000546173746520696E2032732E20547265D9
:1001F0006E6E65206469652050696E6E652E2053B1
:100200006F66747761726520756E6420446F6B75DC
:100210006D656E746174696F6E20697374206175A9
:10022000662073766E3A2F2F206D696B726F636F45
:100230006E74726F6C6C65722E206E65742F7472A2
:10024000616E736973746F72207465737465722064
:1002500000202049723D004C3D0020566C6F7373A6
:100260003D00204553523D005643433D0043656CDD
:100270006C21002D032D004056673D002056743D33
:100280000055663D005562653D00203132333D002A
:10029000504E50004E504E00433D00433D00423D05
:1002A000002D49474254004A464554002D4D4F53B6
:1002B00000444320507772204D6F6465004F4B001F
:1002C0004261742E200056657262696E646520502A
:1002D000696E73210053656C627374746573740086
:1002E00064726568656E2100496D70756C73647227
:1002F000656867656265720031302D6269742050EF
:10030000574D00662D47656E657261746F720053BC
:100310006368616C746520617573005A656967650F
:1003200020446174656E005370616E6E756E670077
:100330004672657175656E7A005472616E73697389
:10034000746F72004175737761686C3A005465731D
:100350007420456E6465005472656E6E6520506948
:100360006E73210053656C62737474657374202E10
:100370002E0054696D656F757421006F646572207D
:10038000646566656B7420004B65696E2C756E62E2
:10039000656B2E206F6465720020756E62656B2E32
:1003A00000546879726973742E0054726961630035
:1003B0004261757465696C00646566656B7465732C
:1003C00020006C6565722100676572696E67005474
:1003D000657374656E2E2E2E00BA03870358032EA4
:1003E000030703E402C302A40288020000140029E8
:1003F000003E005300690080009700AE00C600DF99
:1004000000F80012012D01490165018201A001BE21
:1004100001DE01FF012102440268028E02B502DE04
:10042000020903350364039403C803FE033704730E
:1004300004B404F90443059305EA054906B3062903
:1004400007AE074808FF08DE09AF57B950C24A9700
:10045000451141133D87395A367E33E8308E2E6977
:100460002C712AA128F5266925F923A222622137B9
:10047000201E1F161E1E1D341C571B851ABF190374
:10048000195018A61704176A16D6154915C2144133
:1004900014C5134E13DC126E1205129F113D11DFAD
:1004A0001084100011241FBECFEFD8E0DEBFCDBFF7
:1004B00011E0A0E0B1E001C01D92A63BB107E1F759
:1004C0000E94F8270C94E02F9BCD80FD5C9A80FF62
:1004D0005C98549A00005D9A559A589859985A9881
:1004E0005B9864FD589A509A65FD599A519A66FD39
:1004F0005A9A529A67FD5B9A539A00005D98F9D216
:1005000087FD10C05D9A589859985A985B9860FD7D
:10051000589A61FD599A62FD5A9A63FD5B9A0000F0
:100520005D98E7C208958091030180930001809156
:100530000E01809302010895CF93C82F682F81E0A8
:10054000C4DFCED2C83050F4C630C0F4C23071F02F
:10055000C33081F0C130E1F48EE30DC0C43E81F0C0
:10056000C43F81F0CD32A1F48DE213C08CE78BD271
:100570008CE30FC08CE787D28CE70BC082E509C003
:1005800085E707C08FE47FD288E67DD28DE601C083
:100590008C2F79D2CF9108958F5CCECF80E2CCCFD3
:1005A000A1E0B0E0E6EDF2E00C94222F882329F0E0
:1005B0008983F4DF89818150F9CF2196E2E00C94A0
:1005C0003E2F8DE3B9CF8DE05ED28AE05CC2CF933F
:1005D000C82F682F80E079DF83D2CF7BC03809F441
:1005E000F2DFCF91089510920E0180E8F0CF81E004
:1005F00080930E0180ECEBCF82E080930E0184E9C2
:10060000E6CF83E080930E0184EDE1CF6093030198
:10061000982F969580FF02C0945F01C0985F862F47
:1006200020E1929F800D1124D2CF90910E019F5F07
:1006300090930E01923030F091E090930E019093E0
:10064000470102C010924701682F80910E01DECF52
:10065000ECDF22C36091000180910201D7CF81E0DD
:10066000B6DF82E048D2AFDFBEDF10920E01089500
:10067000CF93DF93EC018991882311F05DDFFBCFED
:10068000DF91CF910895CF93DF93EC01FE01849128
:10069000982F9F7719F050DF2196F8CFDF91CF91F7
:1006A00008950F931F93CF93DF938C01085F1F4F23
:1006B000EC01FE01849140DF2196C017D107C9F7F4
:1006C000DF91CF911F910F91089586E014D260E3DE
:1006D00080E8FBDE81E00FD260E380E8F6DEFAD14D
:1006E00060E380E8F2DEF6D160E280E8EEDE82E0F0
:1006F00002D280E26CDF80E26ADF8AE268DF88E0B3
:1007000066DFADDF86E063DF82E061DF81E0F3D1A9
:100710008CE05DDF88E45BDF8BEA90E0C2DF80E5A0
:1007200056DF83EA90E0BDDF88E551DF83EB90E0A0
:10073000B8DF88E74CDF8BE990E0B3DF80E747DF85
:1007400083E990E0AEDF80E442DF8BE890E0A9CF60
:1007500084E126CF48DFFCDF46CF49DFF9DF47CF12
:1007600008950F938BE992E08EDF40918E014D3F0B
:1007700064F460917C0170917D0180917E01909183
:100780007F0103E026E4B6D002C08FE3D5DE0F91EF
:10079000089597FF09C08F939F938DE2CDDE9F91BF
:1007A0008F91909581959F4F61E271E04AE050E012
:1007B0000E948E2F5DCFEF92FF920F931F93182F01
:1007C000062FF42E8AE892E05EDFEE24E0914501E8
:1007D000F09146018685E81611F4812F09C08485C1
:1007E000E81611F4802F04C08585E81611F48F2DCA
:1007F000A3DEE3948E2D833049F71F910F91FF9074
:10080000EF900895682F80E092E0662309F491E06C
:10081000623009F481E008950F93082FEAEAF1E0CD
:10082000880F880FE80FF11D6081718182819381AB
:10083000643671058105910578F420910101222328
:1008400059F4802FDFDF692F0E94C71ABC0180E0B6
:1008500090E04EEF03E002C04FEF04E024EF4AD0F7
:100860009DDE0F910895863058F4EEE9F1E0E80F2F
:10087000F11DE80FF11D8081918163E0FAD08ECEE9
:1008800008951F93182F80917801882319F086DE30
:1008900080E052DEACDE81E892E0F5DE812F8295C9
:1008A0008F70E1DF812F8F70DEDF1F910895CF936E
:1008B000DF9380910F0182958F70C2E9D1E0C80F5C
:1008C000D11D888169DE8AE691E0DDDE8E8164DEFD
:1008D0008AE691E0D8DEC2E9D1E080910F01837011
:1008E000C80FD11D8E8158DE80910F01CADFDF91C4
:1008F000CF910895A0E0B0E0E0E8F4E00C94182F68
:10090000142FC22F033009F4A1C0043009F4A5C08C
:10091000053051F0063081F00730B1F0B4E6CB2E4F
:10092000D12CE12CF12C17C0A0EACA2EA6E8DA2EB1
:10093000EE24E394F12C0FC0F0E4CF2EF2E4DF2E8E
:10094000FFE0EF2EF12C07C0E0E8CE2EE6E9DE2E28
:10095000E8E9EE2EF12C5AE0852E912CA12CB12C39
:100960006C157D058E059F0560F06B5F7F4F8F4F87
:100970009F4FA50194010E94762ECA01B9011F5F05
:10098000EFCF0CE0010F07FD04C0033118F002E1C6
:1009900001C000E01BEA019F112D11241695212FA3
:1009A000220F210F021B21F01F5F23E0201B022FCB
:1009B0002AE030E046E351E00E946B2FA6E3B1E06D
:1009C0000D900020E9F71197A653B140BA2E9D0172
:1009D0003327802F90E004968217930714F41F5F4B
:1009E0000D5FE12FF0E0E258FF4FA490DA2FD01B0B
:1009F0001D1634F08EE2A0DDDD2311F080E39CDDD6
:100A0000011101C0DFEF46E3E42E41E0F42E87013F
:100A1000CD2EDD24C7FCD094802F8E198B1568F461
:100A2000F80181918F0188DD9801265331402C1502
:100A30003D0591F78EE280DDEFCFAA2011F08A2DDF
:100A40007BDDCC2389F08C2F77DD0EC038EEC32EF2
:100A500033E0D32EE12CF12C7ECF20E1C22E27E211
:100A6000D22EE12CF12C77CFCDB7DEB7ECE00C9491
:100A7000342F0F93062FBC0180E090E026E54DEF68
:100A800039DF0F9108958F932F932AE080953B9A39
:100A9000089410F4439802C0439A000020D027D055
:100AA00086952A95B1F72F918F91089503D002D0A2
:100AB00001D000D000D003D002D001D000D0A89542
:100AC00000D003D002D001D000D000D003D002D09B
:100AD00001D000D000D003D002D001D000D000D08F
:100AE00003D002D001D000D000D003D002D001D07A
:100AF00000D00000089590E0893C28F0885C48EC24
:100B0000849FC0011124009709F408952091810069
:100B1000277019F0DBDF019716C08130910519F0BD
:100B200002973EE303C037E180E090E02091B200FD
:100B3000230F2093B30042E04093700027E023BFCF
:100B4000889526E023BFA895DECF8F9384E0D3DF7E
:100B500007C08F9382E0CFDF03C08F9381E0CBDFAC
:100B60008F911F93182F106410937C00E12FE07871
:100B700080912C01E81759F0E0932C01B0DF8EE949
:100B800080937A0083E083BF889582E083BF20E072
:100B900030E0A901E0E01FC08EE980937A0083E095
:100BA00083BF889582E083BF60917800709179005F
:100BB000260F371F411D511DE43061F480912E0135
:100BC000803041F084E02030380720F417FD02C067
:100BD0001068CACFEF5F80912B01E817E8F26091AF
:100BE0002F017091300117FF04C060912D017091A9
:100BF0002E0180E090E00E94402E2FEF33E040E095
:100C000050E00E94762EB901CA0120912B0130E0FC
:100C100040E050E00E94762EC9011F910895EF92A6
:100C2000FF920F931F93CF93DF93F82EE92EC5E623
:100C30004F9B05C0CF2DDE2D05E510E019C081E0EA
:100C40005ADFC150A9F7F6CF82E055DF000F4F9B66
:100C50000F5F0F730F3379F4111103C0CF2DDE2D09
:100C600014E01F5F163990F4A8951C161D0644F079
:100C7000D7FFEACF0BC00111F7CF1123A9F306C0AC
:100C80002A972097A9F7CFEFDFEFF2CF812FCDB7CB
:100C9000DEB7E6E00C943A2FCF9345DCC82F809165
:100CA00047018823C1F0813049F4C13039F46FE045
:100CB000ADDC8BE241DC6FE081E0A8DC80E49FE109
:100CC000AEDFC13039F480914701813019F460E022
:100CD0009DDC3EDDBFDCCF9108958BE090E00E946B
:100CE000A22F382F8CE090E00E94A22F2091330198
:100CF000230F30913401381F2093180130931901CC
:100D000083E0283E380720F0C901885E934002C086
:100D100080E090E062E370E00E944F2E683008F0BF
:100D200067E0E9EDF3E0E60FF11DE60FF11D4591F7
:100D300055912591359162E3681B421B530B649FCB
:100D4000C001659F900D1124499662E370E00E94F6
:100D50004F2E620F731F70937B0160937A018DE0B9
:100D600090E00E94A22F992787FD90956091330112
:100D700070913401860F971F90932E0180932D015F
:100D800090937701809376010895CF93DF9324E1C8
:100D900030E0B9010E944F2EDC01EBEEF3E0E60FEC
:100DA000F71FE60FF71FC591D591459155914C1B43
:100DB0004A9FC0011124B9010E944F2E6C0F7D1F64
:100DC000CB01DF91CF9108951895189510921C01D1
:100DD00010921A01109271011092570110921B018A
:100DE000109244011092780110925C0110925D0102
:100DF00010925E0110928C0110928D0110920101EF
:100E00001092800110928101109282011092830150
:100E100084EF80938F010895A1E0B0E0E2E1F7E074
:100E20000C94202F98E097B998B9E82FF0E0EB5791
:100E3000FF4F949195B9262F281BE20FF11D27FD36
:100E4000FA95E491E92BE4B969838BDE8C01698121
:100E5000862F87DE20912F0130913001369527951E
:100E6000A90143505109B801625E7F4F46175707E9
:100E700078F4255E3F4F0217130750F4BC01625E01
:100E80007F4F4617570720F441E08217930708F079
:100E900040E014B8842F2196E4E00C943C2FCF93CB
:100EA00061E080E0B9DFC82F62E080E0B5DFC80F05
:100EB00062E081E0B1DF8C0FCF910895A3E1B0E053
:100EC000E4E6F7E00C94122F182F10921C01807F9B
:100ED000A9F4E5DF833009F0B9C3C1DB84E693E010
:100EE000D2DB85DB8FE328DB80ED97E098DE8B306B
:100EF000C8F4B5DB89E491E0C6DBA8C3A6E9FA2E05
:100F000000E0ADDB86EC92E0BEDBC9DF833021F48C
:100F10000F5F043010F006C000E088E2ECDDFA94C8
:100F200081F76CC064DB85E091E0ADDB60E082E0DE
:100F300090E00E94AF2F60E083E090E00E94AF2F2E
:100F400060E081E090E00E94AF2F60E082E00E94CC
:100F5000C71A5C019A83898361E082E00E94C71A04
:100F60006C019C838B8360E081E00E94C71A7C0146
:100F70009E838D83B501882777FD8095982F03E0A8
:100F800020E24EEFB7DCB601882777FD8095982FD9
:100F900020E24EEFAFDCB701882777FD8095982FD0
:100FA00024EF4EEFA7DC2AE5A216B10424F084E179
:100FB00090E09A838983698182E090E00E94AF2F5C
:100FC0008AE5C816D10424F084E190E09C838B83E9
:100FD0006B8183E090E00E94AF2F9AE5E916F1045F
:100FE00024F084E190E09E838D836D8181E090E028
:100FF0000E94AF2F82E0809347014EDE1F701F8753
:10100000113009F04FC001E010E058EB252E52EDF1
:10101000352E57E4452E512C62E0962E78E0A72E0F
:10102000ECE06E2EF4ECCF2EF6E3DF2EE12CF12C6B
:101030003BC0839423E0281568F18FDB8BDB84E5CC
:101040007BDAC801B1DBAADAE1E0BE1232C00E944D
:10105000C91788E391E017DB64E080913301909138
:10106000340107DDC4DA83E391E00DDB80917A017E
:1010700090917B0199DB8EEB80932B01A7B8A8B8E8
:1010800014B815B888EE93E0CADDF4E0BF1689F213
:101090008B3078F288EE93E0C2DD0F5F1F4F08308F
:1010A000110511F418E71BC1812CB02EB0E27B2E84
:1010B000C4CFF2E0BF1241C020912F013091300126
:1010C000A8E5BBE10E94212EA70196010E94982E5F
:1010D00081E085B985E084B980E0288B398B4A8B23
:1010E0005B8B33DD288939894A895B89821B930BA5
:1010F0009A83898381E184B980E0288B398B4A8B7C
:101100005B8B23DD288939894A895B89821B930B94
:101110009C838B8384E085B984E184B981E0288B4A
:10112000398B4A8B5B8B11DD28893989821B930BA4
:101130009E838D838DE191E0B7C093E0B91229C001
:1011400095B8EAE0E4B980E000DD20912F0130910C
:1011500030013695279538872F83821B930B9A830E
:101160008983F2E2F4B980E0F0DC2F813885821BBC
:10117000930B9C838B83A5B828E224B981E0E5DC3E
:101180002F813885821B930B9E838D838FE091E0A6
:101190008BC084E0B81207C087E593E074DA7FDE85
:1011A000811151C287C095E0B91213C015B894B827
:1011B00080E0CBDC9A838983A4B881E0C6DC9C8381
:1011C0008B8374B882E0C1DC9E838D838FE291E0D3
:1011D0006BC0E6E0BE1227C094B895B880E0B5DCDD
:1011E00020912F0130913001821B930B9A838983C8
:1011F000A4B8A5B881E0A9DC20912F01309130017D
:10120000821B930B9C838B8374B875B882E09DDC42
:1012100020912F0130913001821B930B9E838D838F
:101220008BE291E041C0F7E0BF1240C020912F0156
:1012300030913001A8E5BBE10E94212EA20191016D
:101240000E94762E95B883E084B980E0288B398B94
:101250004A8B5B8B7ADC288939894A895B89821BB6
:10126000930B9A838983A5B864B881E0288B398B66
:101270004A8B5B8B6ADC288939894A895B89821BA6
:10128000930B9C838B8375B890E394B982E0288B91
:10129000398B4A8B5B8B59DC28893989821B930BEC
:1012A0009E838D8389E091E0EED904C0E1E0BE1613
:1012B00009F4E4CE9CD989819A816BDA6FD98B814C
:1012C0009C8167DA6BD98D819E8163DAD7CE45DA4E
:1012D00087E593E0D8D984E60EDC115019F0DFDD04
:1012E0008111F5CFBCD98EEF90E0CDD9609131015D
:1012F0007091320180E090E003E024EF4FEFFADAE2
:1013000076D987EF90E0BFD9609142017091430197
:1013100080E090E024EF4FEFEDDA82E08093470128
:10132000BBDC10921C019BD983EF90E0ACD960E04C
:1013300082E00E94A01400918401109185011C8715
:101340000B8761E082E00E94A014C0908401D090DD
:101350008501DE86CD8660E081E00E94A014E090E9
:101360008401F0908501FE82ED8262E080E00E94BF
:10137000A01480918401909185019C838B8362E00D
:1013800081E00E94A01480918401909185019A8748
:10139000898761E080E00E94A0148091840190918F
:1013A00085019A838983EF85E13021F02091410105
:1013B000223021F4029698878F8306C098878F8306
:1013C000109241018CE003D9B801882777FD809500
:1013D000982F03E020E240E08DDAB601882777FD00
:1013E0008095982F20E240E085DAB701882777FDC5
:1013F0008095982F26E444EF7DDA6E01FFE0CF0E52
:10140000D11CFE013196819191910A97853B9105FE
:10141000E0F4EC15FD05B9F7A4E0EA2EA0E0FA2E01
:101420008E010F5F1F4FF80160810E5F1F4F6E5ED0
:10143000C7010E94AF2FFFEFEF1AFF0A0C151D0521
:1014400091F7D5D88DEB92E01ED982E080934701C9
:1014500023DC2F85213029F080914101823009F071
:10146000DFC0E0E4BE2E10E0FAE0CF2ED12CE12C5C
:10147000F12CF5D880E090D883E792E004D982E09F
:101480008BD886E790E0FFD810921C0160E082E0E4
:101490000E94A01400918E0160917C0170917D01E9
:1014A00080917E0190917F01073F44F4A70196014E
:1014B0000E94762E0F5FB901CA01F6CF00938E010C
:1014C00060937C0170937D0180937E0190937F01F6
:1014D000073F09F090C0DC01CB0180569109A109BA
:1014E000B10980399545A105B10508F084C0609126
:1014F000900170919101CB018B569F4F8B3291409F
:1015000008F079C01F5F153008F476C08BE090E0DA
:101510000E94BD2FA4D88FE690E0B5D880919001AD
:101520009091910136D9D9DB88E088B989E087B9F3
:1015300080E284B982E015DB853D9340DCF714B886
:1015400010922E0110922D0182E00BDB8C01809114
:1015500076019091770190932E0180932D0182E086
:1015600000DB7C01EE0CFF1C10922E0110922D016D
:1015700082E0F7DAC0907601D0907701D0922E0108
:10158000C0922D01080F191F0E191F0930D888E6C7
:1015900090E079D88DE090E00E94A22F73E0B72E02
:1015A000B80E9601D8010E94302E9701442737FDCE
:1015B0004095542F0E94982EB20E6B2D8DE090E036
:1015C0000E94AF2F8B2D992787FD9095E2D885DB60
:1015D00082E08093470160DB109241018CE00E9421
:1015E000E70284E090E00E94A22F682F87E090E05D
:1015F0000E94AF2F15C010E00E94F70260917C019D
:1016000070917D0180917E0190917F0104E026E43C
:1016100040918E016FD988E26EDABA9409F029CF31
:1016200089E180932B011BD889E491E02CD80E949A
:10163000F7028DE493E027D810921C0182E080939A
:1016400047012ADB03C052E0852E34CE6396E2E1E7
:101650000C942E2F8091410181110DC084E090E007
:101660000E94A22F61E0680F87E090E00E94AF2FF8
:1016700081E0809341010895CF92DF92FF920F9312
:101680001F93CF93DF931F92CDB7DEB7E82FF0E023
:10169000E857FF4FE491E8B9E860E7B915B8E62FDD
:1016A000F0E0EB57FF4FE491E4B908E813E1FE2EB8
:1016B000FF0C862F698349DA6C01F4B869818017C1
:1016C000910710F48C01F5CF0097E9F081E592E0E5
:1016D0000E944303D60120EA36E841E050E00E9430
:1016E000362E28E937EB40E050E00E94762ECA0102
:1016F000B9018827992702E021E447EFFBD888E069
:1017000087B988B914B80F90DF91CF911F910F91CD
:10171000FF90DF90CF9008950F931F93CF93DF93A7
:1017200085E01FDA85E019DAEC018C01000F111F4A
:10173000000F111F10923501043883E0180740F4A0
:1017400081EB92E00E94430381E08093350121C048
:1017500080EC92E00E94430362E0C8018AD90E94B3
:10176000CE02C63983E0D80780F4C233D34050F4A8
:1017700082EC93E00E9443038DECBDD91BB88AEC48
:10178000BAD907C088EC93E002C08DEB92E00E94CA
:101790004303DF91CF911F910F910895AAE1B0E02B
:1017A000E4EDFBE00C94122FB82EA62E842EA89503
:1017B000E62FF0E0EB57FF4F5490339624912E879D
:1017C000E42FF0E0EB57FF4F7490E82FF0E0EB5779
:1017D000FF4F949033964490342D38603D872860B5
:1017E000622E75B8472D45294B8344B937B948B89F
:1017F000862FB3D998878F8354B88A2DAED91C0110
:1018000014B864D915B85B8154B98A2DA6D9AF81B3
:10181000B8858A179B0728F5805E9E4FA817B907E1
:1018200008F4DEC467B888E088B995B8892D87299F
:1018300084B9E0912F01F0913001F887EF838B2D6F
:101840008CD92F813885281B390B38872F8394B882
:1018500020902F01309030018B2D7FD9281A390A22
:1018600008C02F813885205E3E4F8217930708F409
:10187000B7C4209157018091710190E0820F911DB2
:1018800002974CF0213009F0ABC490915401809143
:101890006E019813A5C4172D110F4F815885443739
:1018A000510508F4A4C0CA01880F991F4496281650
:1018B000390608F09CC05D8557B948B8812F852945
:1018C00084B98A2D46D97C01882D4BD96C0115B974
:1018D0008A2D3FD99701295A3D4F192928173907D1
:1018E000D0F588E088B967B814B915B9882D31D911
:1018F00088349F4028F084E080931C0182E204C079
:1019000084E080931C0184E280931B01F0924D01DE
:10191000E0924C01CE14DF0440F4C7018C199D09FC
:10192000909353018093520104C01092530110927E
:1019300052019701A0E1B7E20E94212E20911601E9
:101940003091170140E050E00E94762E30934F0115
:1019500020934E013CC488E088B967B814B915B922
:101960008B2DF7D88C01882DFCD87C0195B88B2D58
:10197000F0D8895A9D4F8017910708F031C448B8B4
:10198000BD85B7B9882DE5D8813D934028F484E022
:1019900080931C0182E304C084E080931C0184E3F3
:1019A00080931B010E151F0538F4E01AF10AF0921E
:1019B0006D01E0926C0104C010926D0110926C01F7
:1019C00020912F0130913001201B310BA0E1B7E2B3
:1019D0000E94212E20911D0130911E0140E050E017
:1019E0000E94762E3093690120936801B5C188E08A
:1019F00088B967B895B8092D072904B98B2DADD8DA
:101A00009A878987E0902F01F0903001882DA9D81E
:101A10009E838D830A9788F514B881E06CD8812F56
:101A2000892984B98B2D99D89A87898720912F018C
:101A300030913001281B390B3A832983882D91D8A6
:101A40009E838D8380911D0190911E019C0140E039
:101A500050E060E677EB87E490E00E94762EA98163
:101A6000BA810E94362EAD81BE819D0140E050E0DA
:101A70000E94762E69017A0112C0F70129853A8504
:101A8000E21BF30BFA83E983CF014D815E81841B56
:101A9000950BBA010E944F2E6B01E12CF12C14B86A
:101AA00015B848B85D8557B981E025D889EB281667
:101AB00087E0380608F094C39B8194B98A2D4DD8ED
:101AC0008F359D4008F44EC114B881E014D8BB8115
:101AD000B4B981E010D8E12FE529EA8BE4B98A2D69
:101AE0003CD89A8F898F882D3CD8998B888B8B2DE9
:101AF00038D89C878B8728893989213D374008F45D
:101B0000B3C083E080931C018DE080931B01898D1D
:101B10009A8D2816390620F48C010219130902C087
:101B2000098D1A8D4090160150901701612C712C6F
:101B300060E677EB87E490E0A30192010E94762EA5
:101B4000D8010E94362EA889B9898D0120E030E0A5
:101B5000A90198010E94762E80917101882369F075
:101B60008091620190916301A0916401B09165013F
:101B700082179307A407B50710F5209362013093ED
:101B800063014093640150936501298D3A8DA0E172
:101B9000B7E20E94212EA30192010E94762E30937B
:101BA0006901209368018B859C85E889F9898E1BE2
:101BB0009F0B909367018093660121E001C020E0B4
:101BC0008091620190916301A0916401B0916501DF
:101BD0008C159D05AE05BF0538F5C0926201D09207
:101BE0006301E0926401F092650189859A852D81F7
:101BF0003E81821B930B909367018093660129813C
:101C00003A81A0E1B7E20E94212E20911D0130917E
:101C10001E0140E050E00E94762E205F384D309348
:101C200069012093680103C0222309F49BC3910139
:101C3000A0E1B7E20E94212EA30192010E94762E1C
:101C400030936B0120936A012F813885A0E1B7E2C0
:101C50000E94212EA30192010E94762E30936D01E5
:101C600020936C0121E07EC331E62316310408F095
:101C700079C0498D5A8D413D87E0580708F472C0FC
:101C800084E080931C0182E180931B01CA0186508D
:101C90009F4FAB85BC858A179B0720F483E1809317
:101CA0001B0120C0EB85FC85298D3A8D2E173F073F
:101CB000A8F4A0911601B09117019F01498D5A8D8A
:101CC000241B350B0E94212E9A0140E050E00E9417
:101CD000762E309367012093660104C0109267014D
:101CE000109266015E855770D52E882D8064809392
:101CF0007C00FBE0CF2E01E010E0EE24EA94A3E0AC
:101D0000FA2EA89561E0872D36D58A8984B986B1E7
:101D10008D21E9F354B880917A00806480937A0031
:101D200080917A0086FDFCCF8091780090917900B7
:101D3000D701A81BB90B0A0F1B1FCA9411F7C801C2
:101D4000880F991F880F991F69E070E00E944F2E3D
:101D500070936D0160936C01809171018F5F80932E
:101D6000710180CFBB81B4B975B88A2D0E94AD05D1
:101D70009A838983882D0E94B1059E838D8360910B
:101D80002F0170913001681B790B6A30710590F555
:101D900014B881E00E947B05812F852984B915B98B
:101DA0008A2D0E94AD059A838983882D0E94B105F2
:101DB0009E838D8380911601909117019C0140E0D4
:101DC00050E060E677EB87E490E00E94762EA981F0
:101DD000BA810E94362E20912F0130913001ED8181
:101DE000FE812E1B3F0B40E050E00E94762E6901E1
:101DF0007A0109C089819A81861B970B0E944F2E18
:101E00006B01E12CF12C67B888E088B904B905B9F9
:101E10008B2D0E94AD059A878987882D0E94B10578
:101E20009C838B838A2D0E94B105AC0129853A855C
:101E30002034364008F0D1C195B88B2D4E8B5F8B86
:101E40000E94AD05BC0194B88B2D6C8B7D8B0E94DC
:101E5000AD059C0115B881E0288F3B8B0E947B0566
:101E600095B88B2D0E94AD05288D3B894E895F89E1
:101E70006C897D892034364008F05AC08133914105
:101E800008F456C089859A858A569F4F6817790746
:101E900008F04EC085E080931C01809157018F5F50
:101EA000809357018B819C81841B950B90934D01EE
:101EB00080934C0129853A85241B350B30935301BF
:101EC0002093520114B815B8EE85E8B981E00E945C
:101ED0007B0594B88B2D0E94AD05853F910508F0D8
:101EE0004FC204B9882D0E94AD05813D934008F48E
:101EF00047C28B2D0E94B1058D3D924008F440C22F
:101F000094B88B2D0E94AD058D3D924008F438C2E7
:101F100095B881E00E947B0515B88B2D0E94AD0518
:101F2000853F910508F02CC286E080931C0128C2F1
:101F300004B905B981E00E947B0519291B8314B9F6
:101F40004B8145B98B2D0E94AD058C0180912F01ED
:101F500090913001801B910B998B888B882D0E946A
:101F6000B1059F878E87A0912F01B0913001A81BEA
:101F7000B90BBA87A9878A2D0E94B1059C878B87E8
:101F8000E985FA85EE3FF94008F4B2C083E080931A
:101F90001C018CE080931B01488959892416350661
:101FA00020F48A010219130902C008891989409096
:101FB0001D0150901E01612C712C60E677EB87E4C7
:101FC00090E0A30192010E94762ED8010E94362E45
:101FD000A985BA859D0140E050E00E94762E80914F
:101FE0005701882369F08091480190914901A0919F
:101FF0004A01B0914B0182179307A407B50710F56A
:10200000209348013093490140934A0150934B017A
:102010008E859F85EB85FC858E1B9F0B90934D01D4
:1020200080934C0128893989A0E1B7E20E94212ED2
:10203000A30192010E94762E30934F0120934E010E
:1020400021E001C020E08091480190914901A091D8
:102050004A01B0914B018C159D05AE05BF0528F5D1
:10206000C0924801D0924901E0924A01F0924B019E
:102070008D819E8129813A81821B930B90934D0122
:1020800080934C01A0E1B7E20E94212E209116011D
:102090003091170140E050E00E94762E205F384DCD
:1020A00030934F0120934E0103C0222309F469C1EC
:1020B0009101A0E1B7E20E94212E209116013091FA
:1020C000170140E050E00E94762E3093510120939A
:1020D00050012F813885A0E1B7E20E94212EA30193
:1020E00092010E94762E309353012093520148C1F1
:1020F00031E62316310408F070C048895989493403
:102100005D4008F46AC084E080931C0182E0809303
:102110001B018B859C8586509F4F8017910720F46B
:1021200083E080931B0120C0AB85BC85A017B1075D
:10213000B8F4A0911D01B0911E019801EB85FC85BA
:102140002E1B3F0B0E94212EA889B9899D0140E0DA
:1021500050E00E94762E30934D0120934C0104C034
:1021600010924D0110924C01042D0770882D80644F
:1021700080937C001BE0EE24E394F12CA89560E0B2
:10218000872DF9D2BB81B4B9B5B986B18023E9F7FF
:1021900094B880917A00806480937A0080917A006C
:1021A00086FDFCCF8091780090917900E80EF91EB1
:1021B000115021F7C701880F991F880F991F69E0F7
:1021C00070E00E944F2E70935301609352018091F2
:1021D00057018F5F80935701D3C088E087B988B9D2
:1021E00014B815B888E087B9E7EC2E16E1E03E0692
:1021F00008F4ACC088B918EC0D85062907B981E050
:102200000E947B0567B88B2D0E94B105429710F0A4
:102210001150A1F7352C330C292D220F24B925B9E3
:1022200061E0872D288FA7D28B2D0E94AD059A8360
:10223000898334B815B8FD85F7B948B860E0872DB3
:102240009AD2E0902F01F09030018A2D0E94AD05C6
:102250008C0154B88B2D0E94AD056C018A2D0E9413
:10226000B105C81AD90A88E088B967B894B895B892
:1022700061E0872D80D28B2D0E94AD054C018A2D07
:102280000E94B105881A990A288DC814D90438F417
:1022900024B925B98B2D0E94AD05640118C09701A2
:1022A000201B310B3A83298334B815B83D8537B9E3
:1022B00048B860E0872D5FD200912F011091300166
:1022C0008A2D0E94AD05A801481B590BCA01960131
:1022D0002759310929383141C8F58C159D05B0F5CC
:1022E00089819A8153E0969587955A95E1F7893CC3
:1022F000910510F088EC90E029813A81820F931FBC
:102300008C159D0518F5C60144E0969587954A956C
:10231000E1F782179307D0F480911C01823018F402
:1023200082E080931C0180911A01E82FF0E0DF0128
:10233000AE56BE4FBC921696AC92EE0FFF1FE25601
:10234000FE4FD182C0828F5F80931A016A2D8B2D40
:1023500026D088E087B988B914B815B86A96E2E142
:102360000C942E2F809171018F5F80937101222335
:1023700081F380926E01A0926F01B0927001E9CF5B
:1023800021E0809157018F5F80935701222309F349
:1023900080925401B0925501A0925601DACFA0E08C
:1023A000B0E0E5EDF1E10C94142F982E862EA8955F
:1023B000E62FF0E0EB57FF4FB49033962491E82FCF
:1023C000F0E0EB57FF4FE4903396F49030917101B9
:1023D0008091570190E0830F911D892B09F0C6C1B0
:1023E000A89580912F0190913001880F991F880F37
:1023F000991F9093300180932F0180912D0190912E
:102400002E01880F991F880F991F90932E0180939A
:102410002D018EEB80932B0188E088B9286027B9C5
:10242000E4B8E5B858E1D52EC0E0D0E0882D0E9490
:10243000AD05582E492E892D0E94B1058C018C1BAB
:102440009D0B97FF03C091958195910903972CF0FF
:10245000A895DA94D1F1E801E9CFEE0C15B8E4B80B
:10246000892D0E94AD058135910578F5E5B8892D56
:102470000E94AD05EC018F2D886087B9F8B815B8BA
:10248000B4B888E1A82EC12CD12C892D0E94AD05AD
:10249000782E692E882D0E94B1057C018C199D092A
:1024A00097FF03C0919581959109039734F5BB0C73
:1024B000B4B8882D0E94AD055C01003C94E4190776
:1024C00008F5C53881E0D80708F180912F01909177
:1024D00030019695879596958795909330018093D6
:1024E0002F01809176019091770190932E01809336
:1024F0002D0189E180932B0139C1A895AA9429F374
:102500006701C3CFC03B9DE4D907F8F6C0902F0107
:10251000D090300184EAE81682E0F80608F05FC047
:1025200098E9A916B10488F29E01A8E9B7EB0E94C8
:10253000212E96012C1B3D0B40E050E00E94762E90
:1025400029013A0196012A193B09A8E9B7EB0E9433
:10255000212E850120E030E0A90198010E94762E0D
:10256000C837DF4070F4C301B201B2E0660F771FD5
:10257000881F991FBA95D1F7620F731F841F951F8B
:1025800012C098E7A9169FE0B906A0F4CA01B901E4
:10259000A2E0660F771F881F991FAA95D1F7640DD7
:1025A000751D861D971D25E030E040E050E00E943B
:1025B000762E08C0240D351D461D571D569547958E
:1025C00037952795A4E6B0E00E94362E6B017C017A
:1025D0008CEAC80E8DE0D81EE11CF11C70C0252DC0
:1025E000342D0217130708F49801C72DD62DCE15E8
:1025F000DF0508F4E70159012017310708F45801F5
:10260000A0911D01B0911E01C501821B930B9C017D
:102610000E94212E96012A193B0940E050E00E94B9
:10262000762E29013A018E01EC16FD0608F4870189
:10263000A0911601B09117019E01201B310B0E9441
:10264000212E6801E12CF12CA70196010E94762E23
:1026500098E7A9169FE0B90670F4C301B201E2E061
:10266000660F771F881F991FEA95D1F7620F731FB6
:10267000841F951F11C008378FE01807B0F4CA01F6
:10268000B90152E0660F771F881F991F5A95D1F73D
:10269000640D751D861D971D25E030E040E050E07B
:1026A0000E94762E69017A010AC069017A01C40C80
:1026B000D51CE61CF71CF694E794D794C7941091A8
:1026C0001C01133008F001CF9A94980C892D90E0EA
:1026D000EC01C45ADE4F2881880F991F880F991F7B
:1026E000FC01E655FE4F2223D1F1408051806280EB
:1026F0007380A7019601241935094609570957FF28
:1027000007C050954095309521953F4F4F4F5F4FF3
:10271000AAE0B0E00E94362EA30192012C593F4F4F
:102720004F4F5F4F2C0D3D1D4E1D5F1D0E94762E9D
:10273000232B242B252B09F0C8CE123019F081E071
:1027400080931C0182E0888380917801E82FF0E07B
:10275000E15AFE4F90828F5F80937801B6CEC0829F
:10276000D182E282F38281E08883AFCECDB7DEB73B
:10277000E0E10C94302FCF93C82FC09595B160FF46
:1027800002C0982B01C09C2395B994B1982B94B9A1
:1027900082E00E947B0584B18C2384B985B18C23AF
:1027A00085B9CF910895A0E0B0E0E9EDF3E10C9494
:1027B0001B2F8AE0C82E98E0D92E2FE3B22ED7B86F
:1027C000D8B815B8B4B880E00E94AD058C0181E09E
:1027D0000E94B105EC0182E00E94B10520911C012C
:1027E000283081F428E027B914B81093050100932C
:1027F0000401D0930701C0930601909309018093CF
:10280000080159C031E0C430D10508F030E021E0C2
:102810000430110508F020E0232319F084309105DD
:1028200008F3083E134010F028E001C029E0C83E3C
:10283000D34008F42260883E934008F4246027B90E
:10284000C0E0D0E0A89580E00E94A5057C0181E071
:102850000E94B1058C0182E00E94B10524E1E216DC
:1028600025E0F20608F4389A043135E0130708F43D
:10287000399A843125E0920708F43A9A36E0E31653
:10288000F10428F40630110510F4069738F021966B
:10289000C43F81E0D807B1F6D0921C0100E010E0FF
:1028A0000C171D0729F00E946A050F5F1F4FF8CF14
:1028B000CA9409F084CFCDB7DEB7E9E00C94372F86
:1028C000CF92DF92EF92FF92CF9320917C013091D3
:1028D0007D0140917E0150917F01C0918E018AE07F
:1028E000C82ED12CE12CF12C8C2FCF5F213A96E809
:1028F000390791E04907510538F0CA01B901A7012C
:1029000096010E94762EF0CF80938E01A0912F0128
:10291000B09130010E94362E28E833E140E050E0CB
:102920000E94762E20937C0130937D0140937E019E
:1029300050937F01CF91FF90EF90DF90CF9008955B
:10294000A0E0B0E0E6EAF4E10C941A2FC82FD62FED
:102950008FEF860F9C2F990F9C0F890F8093590141
:10296000EC2FF0E0EB57FF4F1491862F90E0FC0125
:10297000EB57FF4FF490FC01E857FF4F0491809113
:102980001C01813009F489C280911A0128E931E0E3
:102990006EE971E0D9019A2F921B9817A0F49D91CE
:1029A0009D130EC0AD0147505109FA0190819C134F
:1029B00007C0FB01408151814C3D554008F46DC278
:1029C0006E5F7F4FE8CF08601092890110928801F6
:1029D00010927C0110927D0110927E0110927F0175
:1029E00010928E01E0DE88E088B907B9F4B8F5B836
:1029F0008C2F0E94B1056C018D2F0E94B105C81A61
:102A0000D90A14B810925B0110925A01E12CF12CF2
:102A100020915A0130915B01243F314050F515B9A6
:102A200014B90E94650514B815B80E946B05A895E5
:102A30008C2F0E94B1057C01EC18FD0820915A01F1
:102A400030915B012E37310528F02BE4E216F104BA
:102A50000CF41EC28DE2E81681E0F80684F4809141
:102A60005A0190915B01019690935B0180935A010A
:102A7000CFCFEDE2EE16E1E0FE060CF409C22091A4
:102A80005A0130915B01232B21F0C70100E010E0D7
:102A900006C0F5E1EF16F5E0FF06BCF375C0209126
:102AA0005A0130915B012017310758F00E946605EA
:102AB0008C2F0E94B1058C199D09A8950F5F1F4F9F
:102AC000EECF8701081B190B1016110694F4093C70
:102AD00011050CF0DDC128EE33E0D8010E94302E44
:102AE0009701442737FD4095542F0E94762E6901A7
:102AF00002C0C12CD12CA0905A01B0905B012FEFE5
:102B0000A21AB20AC501A0E0B0E0809384019093BC
:102B10008501A0938601B0938701C701800F911FA3
:102B200009D29C01D5010E94212E609384017093EB
:102B30008501809386019093870160937C01709357
:102B40007D0180937E0190937F0187EF80938E01BA
:102B5000B7DE20917C0130917D0140917E01509142
:102B60007F01A8EEB3E00E94362E24E630E040E07C
:102B700050E00E94762E20937C0130937D0140939B
:102B80007E0150937F0142C10EDE15B88FE087B9F8
:102B900088E088B9F12EFF0CF4B880E480937B00C4
:102BA00084E580BF8C2F806480937C0086E18093D5
:102BB0007A000E946E0510925B0110925A011092E9
:102BC0008000109285001092840087E286BB81E22B
:102BD00080936F0091E090937901F5B880911C018A
:102BE00090938100843059F481E090E00C2E01C074
:102BF000880F0A94EAF780958F7087B901C007B9EA
:102C0000F89483B7817F83BF80917901882389F00D
:102C100083B7816083BF7894889583B78E7F83BFA5
:102C2000F894A89580915A0190915B018034964068
:102C300059F7789410928100E0908600F090870018
:102C400010926F0086E980937A0014B815B88C2F23
:102C50000E94B1052091330130913401821B930B06
:102C60000C96909391018093900180915A019091DC
:102C70005B018032934008F00BC180915A01909122
:102C80005B019093870180938601F0928501E09229
:102C9000840184EF80938E0180915A0190915B01B1
:102CA00082349105C8F06091840170918501809112
:102CB00086019091870124E630E040E050E00E94D8
:102CC000762E2093840130938501409386015093A2
:102CD000870186EF80938E01A0917A01B0917B01EC
:102CE00020918401309185014091860150918701A6
:102CF0000E94362E20E233E040E050E00E94762E23
:102D0000209384013093850140938601509387017D
:102D100020937C0130937D0140937E0150937F018D
:102D2000CFDD80918E01843F09F060C0C0907C01AE
:102D3000D0907D01E0907E01F0907F0120EAC216E4
:102D40002FE0D206E104F104C0F4A70196012C544F
:102D50003F4F4F4F5F4F60EA7FE080E090E00E947E
:102D6000762E2C0D3D1D4E1D5F1D20937C01309352
:102D70007D0140937E0150937F018091590190E045
:102D80008C5F9F4F0E94A22FC0907C01D0907D014C
:102D9000E0907E01F0907F01482F50E060E070E00D
:102DA0004C155D056E057F0568F4C41AD50AE60A60
:102DB000F70AC0927C01D0927D01E0927E01F092F0
:102DC0007F0114C084E1C80ED11CE11CF11CC416A3
:102DD000D506E606F70610F40E942A0B10927C0135
:102DE00010927D0110927E0110927F0114B98091A2
:102DF0007C0190917D01A0917E01B0917F01499766
:102E0000A105B10508F444C0C12CD12C80911A0150
:102E1000882321F080911C018430D1F587E08093D4
:102E20001C0120918E0180918F018217BCF0281324
:102E30002FC040917C0150917D0160917E01709185
:102E40007F018091800190918101A0918201B091D8
:102E5000830184179507A607B707D0F480917C01FA
:102E600090917D01A0917E01B0917F0180938001BE
:102E700090938101A0938201B093830120938F01ED
:102E8000D0928B01C0928A01D0938C01C0938D01A6
:102E900088E087B988B914B815B8CDB7DEB7EAE0CD
:102EA0000C94362F1F920F920FB60F9211248F930E
:102EB0009F93B59904C080917901811109C0B59B98
:102EC00010C080918600909187008A3F910548F458
:102ED00080915A0190915B01019690935B018093E0
:102EE0005A019F918F910F900FBE0F901F901895D0
:102EF0001F920F920FB60F9211248F939F931092EF
:102F00007901B09B10C080918600909187008A3F24
:102F1000910548F480915A0190915B01019690933C
:102F20005B0180935A019F918F910F900FBE0F907C
:102F30001F9018950F9221E08C32920710F48CE2CA
:102F400091E08C52914069E170E00E944F2E99E12E
:102F50006B3210F0982F6BE2981BE9E4F4E0E60F77
:102F6000F11DE60FF11D4591559125913591692F80
:102F7000421B530B649FC001659F900D11240C965A
:102F800069E170E00E944F2E620F731FCB010F901A
:102F90000895A0E0B0E0EFECF7E10C94182F88E87A
:102FA00093E19093300180932F018EEB80932B015E
:102FB000C8E0C8B988E187B90E947305C7B984E041
:102FC0000E94AD05AC018B5C9840833F9140A0F41A
:102FD00081E08093440120912F0130913001AFEBCB
:102FE000B9E00E94212E9A0140E050E00E94762E26
:102FF0003093300120932F018EE00E94B1058EE0C6
:103000000E94AD0590933401809333010E946D06B8
:10301000D9E0D7B9C1E0C5B9C4B980E00E94AD0517
:103020007C010AE007B914E015B914B981E00E94E7
:10303000AD05E80EF91E8CE0882E87B890E1992E38
:1030400095B894B882E00E94AD05E80EF91E15B857
:10305000D8B9D7B9C4B9C0912F01D091300180E05F
:103060000E94AD055C0108B907B914B900912F01A0
:103070001091300181E00E94AD056C0188B887B8DD
:1030800094B880902F019090300182E00E94AD05AD
:10309000C00FD11FC80DD91DCA19DB09CC19DD0914
:1030A000C81BD90B80912F01909130014C01880CE5
:1030B000991C880E991E8E189F088C1A9D0AA12CA7
:1030C000B12C9701A0E9BAE10E94212EA50194013B
:1030D0000E94762E69017A013093430120934201C8
:1030E0009E01A0E9BAE10E94212EA50194010E944F
:1030F000762E30933201209331012057354E309394
:103100001E0120931D0180E7C81A85EED80AD092CF
:103110001701C092160189E180932B01CDB7DEB76C
:10312000ECE00C94342FA3E1B0E0E9E9F8E10C9471
:10313000122F1092010180911C01813009F023C2ED
:1031400080917801813009F01EC220905F0124E057
:10315000229EF0011124E655FE4F80819181A281CB
:10316000B381893032E59307A105B10508F00BC2A0
:103170009B8B8A8B312C61E0822D631528F00E9495
:103180000204B82EA92E03C00E9402045C01EA2D9D
:10319000F0E0E857FF4F74908B2D90E0FC01EB5767
:1031A000FF4FE49115B828E028B92A893B89203FD0
:1031B0003105A8F430FC13C00091160110911701DD
:1031C00000591A4121E030E00B2C02C0220F331FBE
:1031D0000A94E2F7C9018860872987B908C0E4B971
:1031E000872D886087B9009116011091170144E17D
:1031F000642E8B2D0E94A9054C018A2D0E94B105D9
:1032000034E08316910410F4049710F06A9489F75F
:1032100060E460937B0084E580BF8B2D80648093A5
:103220007C0086E180937A00E12CF12C10928000E2
:10323000109285001092840087E286BB0E946E0582
:10324000932D9170998B30FC05C081E880938100AB
:1032500078B808C078B80E94770580E286BB81E81C
:103260008093810046B345FF13C028E028B910922F
:10327000810080E286BB80918600909187006C017E
:1032800020918400309185008217930768F013C065
:1032900040FFE8CF31E036BBA895C70101967C011D
:1032A00080359105F9F6E1CF40FF05C061E066BBCE
:1032B0008FEFE81AF80A86E980937A0034E1732EDA
:1032C0008B2D0E94A9054C018A2D0E94B10524E096
:1032D0008216910410F4049710F07A9489F7809084
:1032E0004201909043018A899B89880E991E800E25
:1032F000911E209118013091190100399AE11907A6
:10330000B0F461EEC616D104E104F10438F4C6014C
:1033100065E070E00E944F2E645101C069E12852BF
:103320003109261B310967FD339586E009C0C401C8
:1033300060EB76E30E944F2E87E0860F285D3F4FBB
:1033400090E0A0E0B0E08C159D05AE05BF0528F427
:10335000C81AD90AEA0AFB0A03C0C12CD12C76018B
:103360008989882329F092E2C90ED11CE11CF11C45
:1033700060E5E616F10418F0C12CD12C76018BE043
:10338000C816D104E104F10428F091E0C91AD1086B
:10339000E108F10840912F0150913001A12CB12C8E
:1033A000A8EEB3E00E94212E2B013C019801DA0126
:1033B0000E94212EA50194010E94762E44275527B4
:1033C000C301B2010E94762EC9010E94C506FC010C
:1033D000A5019401C701B6010E94402E4B015C017A
:1033E000BF0180E090E023E0660F771F881F991FE0
:1033F0002A95D1F76B5F7F4F8F4F9F4F2AE030E0C8
:1034000040E050E00E94762EC501B4010E94762E65
:10341000832D90E0E1E0F0E0EC0FFD1F64E0369ECC
:10342000E00DF11D11242083318342835383698988
:10343000611117C06CE0C616D104E104F10488F0F4
:10344000FC013196EE0FFF1FEE0FFF1F81E090E0B1
:103450008C0F9D1FE80FF91F208331834283538314
:103460003394A895339493E0931508F084CE88E0C4
:1034700088B984E00E947B0521E04D815E816F81E7
:10348000788589819A81AB81BC8184179507A607CD
:10349000B70708F020E04D855E856F8578898985BE
:1034A0009A85AB85BC8584179507A607B70710F0EA
:1034B00032E001C033E0E22FF0E0EE0FFF1FEE0F2D
:1034C000FF1F81E090E08C0F9D1FE80FF91FDC01CA
:1034D00094E0399FA00DB11D11244D915D916D9126
:1034E0007C9180819181A281B381481759076A0735
:1034F0007B0708F0322FE1E0F0E0EC0FFD1F24E045
:10350000329FE00DF11D112480819181A281B38150
:1035100080930A0190930B01A0930C01B0930D01CD
:1035200030FD09C02A893B89203F310520F48BEF0B
:103530008093010117C02CEF20930101BC01CD0144
:103540006B5F7F4F8F4F9F4F2AE030E040E050E0AD
:103550000E94762E20930A0130930B0140930C01B8
:1035600050930D0180910A0190910B01A0910C01E3
:10357000B0910D01892B8A2B8B2B11F41092010134
:1035800088E087B914B86396E2E10C942E2F2F924D
:103590003F924F925F926F927F928F929F92AF92E3
:1035A000BF92CF92DF92EF92FF920F931F93DF9320
:1035B000CF93CDB7DEB76E970FB6F894DEBF0FBED0
:1035C000CDBF662EB82E860F898320911C0127302F
:1035D00041F520918001309181014091820150910B
:1035E000830110918F0109C0CA01B9012AE0312D70
:1035F000412D512D0E94762E1F5F173FACF32A35C7
:1036000060E036074105510518F48FEF9FEF81C147
:10361000173F39F480E028178DE738074105410549
:1036200010F020E03DE72C8B3D8B26EDA22E02C052
:1036300094EDA92EE8E8F0E0E60DF11D8591886093
:103640008E87E8E8F0E0EB0DF11D859188608F87AB
:10365000E5E8F0E0E60DF11D7590E5E8F0E0EB0D32
:10366000F11DC59090EC692AB92A81E0E82EF12C71
:10367000012D112D8E831F82188619861A861B86AE
:103680001C861D86188E198E1B8E1A8E8CD888E08B
:1036900088B960927C000E946F053F8537B975B884
:1036A00074B80E94760514B815B8DD24B4ED9B2ECD
:1036B000A6ED8A2E3E8537B975B874B860927C0045
:1036C000A895A0927A0080917A0086FDFCCFA09206
:1036D0007A0080917A0086FDFCCF209078003090AF
:1036E0007900B0927C00A0927A0080917A0086FDE9
:1036F000FCCF80927A000E9474050E947605C5B8BE
:10370000C4B80E9475050E947705A895A895A8954C
:10371000A89514B815B880917A0086FDFCCF209149
:10372000780030917900288B398B3F8537B9C5B83F
:10373000C4B8A895B0927C00A0927A0080917A00DB
:1037400086FDFCCFA0927A0080917A0086FDFCCFA6
:10375000609178007091790060927C00A0927A006C
:1037600080917A0086FDFCCF80927A000E947405D9
:103770000E94760575B874B80E9475050E94770599
:10378000A895A895A895A89514B815B880917A0021
:1037900086FDFCCF409178005091790014B8CB01A0
:1037A000820D931DE80EF91E011D111DEA82FB8298
:1037B0000C831D8388899989840F951F2E813F81F1
:1037C00068857985280F391F611D711D2E833F8300
:1037D0006887798722E32417150650F075B874B806
:1037E0000E94790514B815B8888D8395888F07C015
:1037F000483E73E0570718F08A8D83958A8F888931
:1038000099892817190660F03E8537B9C5B8C4B83C
:103810000E94790514B815B8898D8395898F07C0E2
:10382000883E73E0970718F08B8D83958B8FD39428
:103830005D2D5F3F09F03ECF409042015090430123
:10384000440C551C9201E4E0240D351DEA95E1F786
:103850002901570168016E807F80888499842091B6
:103860001C012730C1F46C897D89812D912D6C5309
:103870007040804090409B01AC010E94402E9B0113
:10388000AC016FEF71EC8EE390E00E94762E621A2D
:10389000730A840A950AA614B704C804D90428F444
:1038A0006A187B088C089D0803C0662477244301AE
:1038B000B20180E090E09301A4010E94402E9501A6
:1038C000A6010E94762E80E090E07981870F911DFD
:1038D0000E94A22F90E0682EC90160E170E00E9472
:1038E0004F2E260F371FC9016816190618F48619BE
:1038F00091090FC08C5E9F4F8615910540F48C890D
:103900009D89843981E1980710F00E942A0B812D4E
:10391000912D6E960FB6F894DEBF0FBECDBFCF913E
:10392000DF911F910F91FF90EF90DF90CF90BF90AC
:10393000AF909F908F907F906F905F904F903F904F
:103940002F900895A0E0B0E0E8EAFCE10C94182F75
:1039500080918A0190918B01892B09F09DC0E091A3
:103960008C01F0E0E857FF4FC491C860E0918D01F1
:10397000F0E0EB57FF4F14910E94D31388E088B911
:1039800015B8C7B914B980918D010E94B105EC0139
:1039900000918F01083F0CF07FC0045FC090800150
:1039A000D0908101E0908201F09083018AE0882E1E
:1039B000912CA12CB12C043070F4C701B6016B5FBF
:1039C0007F4F8F4F9F4FA50194010E94762E0F5F6E
:1039D00069017A01F0CFD701C6010197A109B109A8
:1039E00088389341A105B10508F056C015B914B93E
:1039F000A12CB12CAC14BD0430F40E94750582E0FA
:103A0000A80EB11CF7CF14B815B8A89585E080931F
:103A10002B0180918D010E94B105C817D90720F4B0
:103A20005C01AC1ABD0A02C0A12CB12C812C912CD6
:103A30008C149D0430F40E9475052FEF821A920AAF
:103A4000F7CF80918D010E94B10529E120932B01D0
:103A5000A895C817D90718F48C1B9D0B02C080E0ED
:103A600090E08A159B0588F49501281B390B69F0B5
:103A7000A4EFB1E00E94212E950140E050E00E94A9
:103A8000762E30938B0120938A010E94D31388E015
:103A900087B988B914B815B8CDB7DEB7ECE00C9487
:103AA000342FA5E0B0E0E7E5FDE10C94122F80E3B0
:103AB00093E095D520EF2A8354980E946A0514BCA0
:103AC00016BC109210011092110110921201109266
:103AD000130131E035BB30936E001092800083E11A
:103AE0009AE79093890080938800E1E0F0E0F093FA
:103AF0008B00E0938A00109285001092840083B5B9
:103B0000816083BDF6E0F6BBF0936F00789424E00B
:103B10002093810012E319820E946405A8954F99B1
:103B200002C031E0398385B5811124C015BC86B54A
:103B3000809310010E942F0386E60E949C020E943F
:103B4000E102609110017091110180911201909138
:103B5000130107E028E440E00E947A048AE70E940B
:103B60009C02549880918100882339F08FE30E9451
:103B70009C0203C0115081F6D9CF1092810010929F
:103B80006F0020911001309111014091120150916C
:103B90001301DA01C9010197A109B109893D9146D3
:103BA000A105B10508F029C1AAE0B0E00E94362EB7
:103BB000685F7F4F8F4F9F4F23E09695879577954E
:103BC00067952A95D1F7660F771F709373016093FD
:103BD000720154980E946A0516BC1092100110924E
:103BE0001101109212011092130181E085BB8093A4
:103BF0006E00109275011092740194E09BBB80914D
:103C00006800846080936800789480916D00806182
:103C100080936D001D820E946405A8954F9902C093
:103C2000E1E0E98380916D0084FF05C0FD81FF5FC5
:103C3000FD83FA3F81F715BC80916D008F7E8093E4
:103C40006D00809168008B7F8093680086B58093BB
:103C500010010E94F70284E50E949C020E94E1028A
:103C60008091100190911101A0911201B091130166
:103C700020917201309173013C832B831C012D0133
:103C80009C01A20160E070E080E090E003E00E940F
:103C9000492F51016201E12CF12C00E010E00E945B
:103CA000622F59016A017B01E82F192F03E00E945E
:103CB000492F0E2F0E94622F03E00E94492F5101CD
:103CC0006201E12CF12C00E010E00E94622F02E082
:103CD0000E94492F00E00E94622F01E00E94492FBC
:103CE00000E00E94622F03E00E94492FEB81FC81DB
:103CF0005F01C12CD12C00E00E94AE2E39014A0197
:103D00001B012C012B813C812038310530F007E06C
:103D100023E745EFB301C40116C084E6A82EB12CF9
:103D2000C12CD12CE12CF12C00E010E09301C20158
:103D30000E94AE2EE22FF42F07E023E747EF6E2F0D
:103D4000732F8F2F952F0E947A043D813A3F21F4E3
:103D50008FE30E949C0251C09301A401B101C201F2
:103D60002C393E4C43405105610571058105910593
:103D700009F008F442C00E94F30286E60E949C0209
:103D80000E94E1029301A401B101C2015301640147
:103D90007101820121153A4C4A495B436105710565
:103DA0008105910589F080F020E030E04AE85DE58A
:103DB00068E775E483E691E00E94AE2EE22FF42FCF
:103DC00007E028E44AEF0FC020E030E846EC54EA70
:103DD0006EE77DE883E090E00E94AE2EE22FF42FA4
:103DE00007E028E44CEF6E2F732F8F2F952F0E9442
:103DF0007A048AE70E949C02549810926E0080ED2B
:103E000097E00E940F062981820F29F43A813150F0
:103E10003A83311151CE2596E2E10C942E2F1F9258
:103E20000F920FB60F9211248F939F93AF93BF936E
:103E300078948091100190911101A0911201B0919C
:103E400013019F5FAF4FBF4F8093100190931101FB
:103E5000A0931201B0931301BF91AF919F918F91E5
:103E60000F900FBE0F901F9018951F920F920FB6D4
:103E70000F9211248F9386E085BD8F910F900FBE16
:103E80000F901F9018951F920F920FB60F9211244A
:103E9000A8951092810015BC0F900FBE0F901F9037
:103EA00018951F920F920FB60F9211242F933F93E4
:103EB0008F939F938091740190917501892B11F4D8
:103EC00081E085BD2091740130917501809172016E
:103ED000909173012817390730F015BC80916D005F
:103EE0008F7E80936D008091740190917501019691
:103EF00090937501809374019F918F913F912F91C1
:103F00000F900FBE0F901F9018958B3008F08B50BC
:103F1000811103C089E393E031C0813019F480E35B
:103F200093E02CC0823019F483E093E027C0833003
:103F300019F488EF92E022C0843019F48BED90E000
:103F40001DC0853019F480ED90E018C0863019F45A
:103F500084EC90E013C0873019F488EE92E00EC034
:103F6000883019F485ED92E009C0893019F48BE1AD
:103F700093E004C08A3021F48FE093E00C94430373
:103F800008950F93CF938BED90E029D3C0E010926A
:103F90001C0160E082E03FD380911C018730C1F5B5
:103FA0000E94AA0383E40E949C020E94E1026091A5
:103FB000800170918101809182019091830103E0E1
:103FC00026E440918F010E947A0460918C018091D7
:103FD0008D01DDDA90938901809388010E94AD0301
:103FE00083E692E00E944303609188017091890109
:103FF0006A3F8FEF780740F480E090E002E024EF22
:104000004EEF0E947A040CC08FE30E949C0208C00D
:104010000E94AA038BED90E00E9443030E94AD032F
:104020008C2F57D688EE93E00E940F06811109C0AD
:1040300080913501813009F4C0E0CF5FCA3F08F4B8
:10404000A6CFCF910F91089508950F93843108F072
:104050008451833189F489E08093810081E090E08C
:10406000909389008093880007E028E44DEF60E09A
:1040700074E985E397E748C1823189F489E0809348
:10408000810083E090E0909389008093880007E0AE
:1040900028E44DEF60E07AEC8AE99BE335C1813199
:1040A00069F489E08093810087E090E09093890033
:1040B0008093880007E028E44DEF6CC0803169F4FC
:1040C00089E0809381008FE090E090938900809355
:1040D000880007E028E44DEF6FC08F3089F489E055
:1040E0008093810089E190E090938900809388001B
:1040F00007E028E44DEF6AE871E88BE299E004C13B
:104100008E3069F489E08093810087E290E090939B
:1041100089008093880007E028E44DEF60C08D306F
:1041200069F489E0809381008FE490E090938900A6
:104130008093880007E028E44CEF2CC08C3069F4B1
:1041400089E0809381008FE990E0909389008093CB
:10415000880007E028E44CEF2FC08B3069F489E039
:10416000809381008FE891E090938900809388008C
:1041700007E028E44CEF33C08A3089F489E080936B
:1041800081008FE193E0909389008093880007E09D
:1041900028E44BEF60E075E68DEC9DE1B5C0893019
:1041A00081F4809381008FE396E09093890080935F
:1041B000880007E028E44BEF60E872EB86EE9EE0B3
:1041C000A3C0883089F489E0809381008FE99FE063
:1041D000909389008093880007E028E44BEF60E02B
:1041E00071EE85EF95E090C0873089F489E0809387
:1041F000810084E493E2909389008093880007E033
:1042000028E44BEF6FE77DEF83EA92E07DC08630D4
:1042100089F489E08093810089E593E29093890095
:104220008093880007E028E44BEF6FEE7BE682EA9C
:1042300092E06AC0853089F489E08093810082E849
:1042400093E2909389008093880007E028E44BEF85
:1042500068E471E68FE992E057C0843089F489E020
:10426000809381008FE79EE390938900809388007C
:1042700007E028E44BEF60E478E78DE791E044C085
:10428000833069F48BE08093810080E792E0909323
:1042900089008093880007E028E44AEFA0CF8230AD
:1042A00071F481EE94E0909389008093880007E098
:1042B00028E44AEF60E870EF8AEF92E025C0813091
:1042C00089F48BE08093810089E698E190938900DE
:1042D0008093880007E028E44AEF60E876E988E9FF
:1042E00090E012C0811112C08CE08093810088E0C0
:1042F0009DE3909389008093880007E028E44AEFCB
:1043000060E472E48FE090E00E947A048AE70E9401
:104310009C020F910895A0E0B0E0E1E9F1E20C9475
:104320001D2F83E093E05BD180E1809380001092A9
:104330006F0081E090E09093890080938800109254
:104340008B0010928A0083E086BB1092820088E086
:104350008093810015B891E194B988B989E087B953
:10436000229A8093810000E020E0D12C12E1CEE17E
:10437000D0E0802F90E00A96BE010E94632EF62EB8
:10438000621771F00E94AA0383E093E00E94430346
:10439000E12CEF1430F48EE20E949C02E394F9CFFA
:1043A000F22ED11641F0143108F014510E94AD03E1
:1043B000812F4BDED12E88EE93E00E940F068823DA
:1043C00031F0853118F01F5F803558F400E080919E
:1043D0003501813009F400E00F5F003F10F42F2D0C
:1043E000C8CF109281001092800088E087B914B87D
:1043F0002298CDB7DEB7E7E00C94392FA4E0B0E007
:10440000E4E0F2E20C94162F88EF92E0E8D083E229
:104410008093800010926F0081E090E0909389007B
:10442000809388008FEF90E090938B0080938A00B8
:1044300083E086BB1092820015B881E184B988E0E0
:1044400088B989E087B9229A80938100612C00E0C5
:104450008AE0782E10E094E6C92ED12CE12CF12CC4
:1044600088248A9423E0922EA12CB12C7016D1F1CD
:1044700083E6871510F4ECE97E0E272D30E0AFEFD0
:10448000B3E00E94212E6E5C7F4F8F4F9F4FA7019C
:1044900096010E94762E30938B0020938A00298308
:1044A0003A834B835C830E94AD03A8EEB3E029817D
:1044B0003A814B815C810E94362E61507E4F8F4F36
:1044C0009F4FA50194010E94762ECA01B90105E013
:1044D00025E24FEF0E947A04193218F08CE30E9413
:1044E0007B05072D80E496E00E940F06182F833885
:1044F00098F4833318F0FAE07F0E03C0882311F09C
:104500007394612C80913501813009F4612C63949E
:104510008FEE861508F0AACF88E087B91092810047
:104520001092800014B822982496EEE00C94322F5A
:10453000CF93DF93D0E0C0E084E493E050D00E94BA
:10454000AD038C2FE2DC80E49FE10E940F06811115
:10455000D0E090913501913009F4D0E0823390F1B0
:10456000CC2309F439C0C13019F480E09ADA2CC0A8
:10457000C23011F4D0DE28C0C33011F43FDF24C0B4
:10458000C43011F4FEDC20C0C53011F4AFD31CC020
:10459000C63011F418D418C0C73011F473D114C048
:1045A000C83021F481E10E945E070EC0C93011F4C9
:1045B000BED20AC0CA3041F45E9880E090E00E940A
:1045C0000F0602C08111CF5FDF5FDE3628F4CB30EB
:1045D00008F4B2CFCB50B0CFDF91CF910895A2E0D5
:1045E000B0E0E5EFF2E20C94212F89839A830E94D8
:1045F0002F0389819A810E94430314E682E00E947E
:104600007B054F9902C01150C9F70E94F70222960C
:10461000E3E00C943D2FA0E0B0E0E1E1F3E20C9484
:10462000192FC82FD62F8FEF860F9C2F990F9C0F15
:10463000890F80935901862F90E0FC01E857FF4FC6
:1046400014911860EC2FF0E0EB57FF4FB490FC0191
:10465000EB57FF4F0491109289011092880110923C
:104660007C0110927D0110927E0110927F0187EFF4
:1046700080938E010E94D31388E088B917B904B9DA
:1046800005B98C2F0E94B1058C018D2F0E94B105B8
:10469000081B190B14B810925B0110925A0120E00C
:1046A00030E09CE2E92EFF24F3944AE0A42E54E685
:1046B000952E80915A0190915B01843D904308F0C2
:1046C00069C0B5B880915A0190915B01892B89F03E
:1046D0006701C21AD30A60915A0170915B01A29ED0
:1046E000C001A39E900D11240E944F2EC616D7061E
:1046F00050F4B4B80E946E0514B880915A0190919C
:104700005B01019628C080915A0190915B010B9743
:10471000C8F060915A0170915B01929EC001939E16
:10472000900D11240E944F2E6C157D0558F4B4B8DD
:104730000E94640514B880915A0190915B018C59D4
:104740009F4F09C0B4B80E94690514B880915A01FE
:1047500090915B010A9690935B0180935A0115B882
:104760000E947005A8958C2F0E94B1059C01201B0A
:10477000310B80915A0190915B018B31964020F072
:10478000253231050CF474C02D3281E038070CF469
:1047900090CF05C02D3281E038070CF469C08091BC
:1047A0005A0190915B01019729F4253145E03407C6
:1047B0000CF05EC000915A0110915B01000F111FB7
:1047C000A80160E070E040938401509385016093FC
:1047D000860170938701C90168E270E00E94632E30
:1047E000C901860F971F0E949A179C01D8010E9449
:1047F000212E6093840170938501809386019093AC
:10480000870160937C0170937D0180937E0190937A
:104810007F010E94601460917C0170917D01809104
:104820007E0190917F012AE030E040E050E00E945C
:10483000762E20937C0130937D0140937E0150932E
:104840007F0187E080931C012093800130938101D8
:10485000409382015093830180918E0180938F0158
:1048600010928B0110928A01D0938C01C0938D011C
:1048700088E087B988B914B815B8CDB7DEB7EBE0D2
:104880000C94352FA8E1B0E0E8E4F4E20C94182F82
:1048900088EE92E0A4DE0E94F70280EE92E00E9491
:1048A0004303DE015196CE010996AE014F5F5F4F83
:1048B0009E01275E3F4FF42EE52E1D921D92FC01B6
:1048C00011921192CF01FA0111921192AF01A21728
:1048D000B30799F785E185B984B900E010E0812C30
:1048E00048E0D42E59E0C52E6AE0B62E7CE0A72E13
:1048F000D8B8C7B80E94780586B181FB992490F892
:1049000082FF02C0939493940115110589F09814C5
:1049100069F0EF2DFE2DE90DF11DE90DF11D8085EA
:104920009185019691878087982C02C034E0932E60
:10493000B7B80E94780596B1892F817092FD8E5F7D
:10494000F4E09F120BC0EF2DFE2DE80FF11DE80FD4
:10495000F11D808991890196918B808BA7B80E9467
:10496000780596B1892F817091FD8E5F94E0991240
:104970000BC0EF2DFE2DE80FF11DE80FF11D80811A
:104980009181019691838083A8950E946A054F9931
:1049900005C015B814B888E087B9C5C049895A89D7
:1049A0004531510508F16B897C8965317105E0F06D
:1049B0002D893E8925313105B8F08F89988D853153
:1049C000910590F0260F371F11E02417350708F0E6
:1049D00010E0FF24F3942817390708F0F12CCC24B9
:1049E000C39422E0E22E4CC049855A8545315105D9
:1049F00010F16B857C8565317105E8F02D853E856C
:104A000025313105C0F08F8598898531910598F061
:104A1000260F371F11E02417350708F010E0FF2498
:104A2000F3942817390708F0F12CC12C92E0E92EF5
:104A3000DD24D39430C049815A814531510510F1AC
:104A40006B817C8165317105E8F02D813E812531D6
:104A50003105C0F08F8198858531910598F0260F3A
:104A6000371F11E02417350708F010E0FF24F394F6
:104A70002817390708F0F12C82E0C82EEE24E394C1
:104A8000D12C09C00F5F1F4F0931E6EF1E0709F453
:104A90004AC0892C2DCF0E94AD0300E00E94F7028E
:104AA0008D2D0E94CC028DE20E949C0200FD02C06E
:104AB0008DE201C08FE20E949C028DE20E949C0266
:104AC0008C2D0E94CC028DE20E949C0201FD02C04E
:104AD0008DE201C08FE20E949C028DE20E949C0246
:104AE0008E2D0E94CC020E94CE02802F837021F472
:104AF000112361F083E405C0833041F4FF2031F0DD
:104B00008FE60E949C0280ED97E004C00E94CE02D6
:104B100080E991E00E940F0681113BCF0F5F0837BB
:104B200009F0BCCF36CF6896ECE00C94342F0F938D
:104B30000E942F0389E491E00E9443030E94F70240
:104B400085E091E00E94430382E090E00E94A22F62
:104B5000682F70E080E090E003E020E24EEF0E94DA
:104B60007A0483E090E00E94A22F682F70E080E03A
:104B700090E020E24EEF0E947A0481E090E00E94F3
:104B8000A22F682F70E080E090E024EF4EEF0E94AB
:104B90007A0488E99AE30E940F060E942F038EEFA1
:104BA00090E00E944303609131017091320180E0F6
:104BB00090E024EF4FEF0E947A040E94F70287EF03
:104BC00090E00E944303609142017091430180E0B4
:104BD00090E024EF4FEF0E947A0488E99AE30E9464
:104BE0000F060E942F0383EF90E00E94430389E0A9
:104BF00090E00E94A22F682F70E080E090E020E219
:104C000040E00E947A048AE090E00E94A22F682F80
:104C100070E080E090E020E240E00E947A0486E0CC
:104C200090E00E94A22F682F70E080E090E026E4E0
:104C300044EF0E947A040E94F70283E00E94D002AF
:104C400085E090E00E94A22F682F70E080E090E065
:104C500020E240E00E947A0488E090E00E94A22FC7
:104C6000682F70E080E090E020E240E00E947A044B
:104C700084E090E00E94A22F682F70E080E090E036
:104C800026E444EF0E947A0488E99AE30E940F0622
:104C90000E942F038FE690E00E9443038BE090E098
:104CA0000E94AA2F0E94C9030E94F70288E690E0A2
:104CB0000E9443038DE090E00E94A22F992787FD78
:104CC00090950E94C90388E99AE30E940F060F910C
:104CD00008958F7051F488EC0E947B050E94AD030B
:104CE0000E948C0B8AEC0C947B0508950F93CF9354
:104CF00080ED90E074DC6CE080E00E9406038BECB9
:104D000090E00E944303C0E00E94E60660E082E07B
:104D10000E94CF1162E080E00E94CF110E94F70252
:104D200080917801882349F10E94931881E00E94C4
:104D30000C04809101018823F1F087E592E00E9444
:104D4000430360910A0170910B0180910C019091D5
:104D50000D0103E028E4409101010E947A0465E01E
:104D600080E00E94060387E591E00E94430382E011
:104D70000E94CC0212C08CE004C08FE30E949C020F
:104D800083E10E94D00265E080E00E94060382E099
:104D90000E94CC0284E00E94D0028C2F9ADF88EE21
:104DA00093E00E940F06811109C080913501813086
:104DB00009F4C0E0CF5FCA3F08F4A6CF0E942F03DA
:104DC000CF910F9108950F93CF93DF9384EC90E0F0
:104DD00006DC6DE080E00E94060380EC90E00E941B
:104DE0004303C0E0D7E00E94E60610928B011092C8
:104DF0008A0160E082E00E94A0140E94F702809184
:104E00008E0187FF70C088E00E94D0020E94F702E6
:104E100060917C0170917D0180917E0190917F0174
:104E200004E026E440918E010E947A04D0931C0194
:104E300060E082E00E94C71A909389018093880104
:104E400068E08A3F9F4F08F581E00E94060383E6F1
:104E500092E00E944303609188017091890180E093
:104E600090E002E024EF4EEF0E947A0482E00E947C
:104E7000D00264E080E00E9406038CE591E00E948D
:104E8000430382E00E94CC0210C081E00E9406032E
:104E90008AE00E94D00264E080E00E94060382E083
:104EA0000E94CC0285E00E94D0020E94A21C809148
:104EB0008A0190918B01892BE1F080ED97E00E94AF
:104EC0000F060E94AD038BE592E00E9443036091C0
:104ED0008A0170918B0180E090E002E025E24FEFC3
:104EE0000E947A0406C08FE30E949C0282E10E9425
:104EF000D0028C2FEEDE80ED97E00E940F0681112C
:104F000009C080913501813009F4C0E0CF5FCA3F0C
:104F100008F469CF0E942F03DF91CF910F9108957C
:104F20001F93CF93DF9380E090E00E94A22F182F71
:104F3000843131F5C0E0D0E0CE018C5F9F4F0E94FC
:104F4000A22FCC23A1F0C33099F4811789F0282F28
:104F500030E0412F50E0BA016F5F7F4F26173707CF
:104F600039F04E5F5F4F2417350711F009C0182F35
:104F70008A50853B28F42196C730D105E9F634C024
:104F80000E94F30285E40E949C0285E40E949C0238
:104F900063E08DE090E0E3D76CE070E08BE090E0C0
:104FA000ECD769E379E384E090E0E7D76BE386E050
:104FB00090E0D5D76BE387E090E0D1D76BE388E052
:104FC00090E0CDD769E379E389E090E0D6D764E15A
:104FD00074E180E090E0D1D764E174E182E090E098
:104FE000CCD788EC0E947B05DF91CF911F9108956B
:104FF000A4E0B0E0EDEFF7E215C780E48AB98BB921
:1050000086E880937A001092C10014B784B7877F36
:1050100084BF88E10FB6F89480936000109260001E
:105020000FBE86E88093640088E380937E00109230
:10503000B00087E08093B10078940E94650313FD6F
:10504000F1C580E185BF6CDF10E04F9906C082E0BA
:105050000E947B051F5F1C33C1F78FE59DE690938F
:105060001501809314011F3130F080E69DE6909386
:1050700015018093140110922C010E94C9171C3352
:1050800008F056DA08E1C02ED12C88E4A82E81E081
:10509000B82E92E6E92E91E0F92E0E942F0328E027
:1050A00027B90E94E6060E94C9170E94E3020E94E7
:1050B000F3020E948C0B3FE00FB6F894A895C092C3
:1050C00060000FBE3093600080914401882381F01E
:1050D0000E94F70288E692E00E94430363E0809119
:1050E0002F01909130010E94390588EC0E947B05C8
:1050F0000E94F7020E94D31380911C01883041F571
:105100000E942F038DE692E00E9443030E94F70263
:1051100063E080910401909105010E9439050E948D
:10512000CE0263E080910601909107010E9439054B
:105130000E94CE0263E080910801909109010E94D3
:1051400039058AEC0E947B0581E10E945E07E8C474
:105150008CE00E94E70287E090E0F4D6082F84E01C
:1051600090E0F0D6081B00934101002319F08EE077
:105170000E94E70280E00E945E070E94F7028FEC27
:1051800093E00E94430342E061E080E00E94CE0B86
:1051900042E060E081E00E94CE0B41E062E080E00E
:1051A0000E94CE0B41E060E082E00E94CE0B40E026
:1051B00062E081E00E94CE0B40E061E082E00E946C
:1051C000CE0B80911C01811111C083E40E949C02CE
:1051D0000E94D31360E082E00E94A01461E082E0AC
:1051E0000E94A01460E081E00E94A0140E942F039E
:1051F000B0924601A092450180911C01853041F496
:1052000081EA93E00E94430341E467E48BE409C030
:105210008630B9F48AEA93E00E94430342E367E4EC
:1052200081E30E94DB030E94F70281E892E00E9482
:10523000430362E080914C0190914D010E94390539
:105240006FC4873009F05BC080918C010E94CC0252
:1052500083E792E00E94430380918D010E94CC027B
:105260000E94A21C80918A0190918B01892B79F078
:105270008AE592E00E94430360918A0170918B015C
:1052800080E090E002E025E24FEF0E947A040E9465
:10529000F70260918001709181018091820190916B
:1052A000830104E026E440918F010E947A0460911A
:1052B0008C0180918D010E94C71A9093890180937F
:1052C00088018A3F9F4F78F482E692E00E94430370
:1052D000609188017091890180E090E002E024EF04
:1052E0004EEF0E947A0420918C0180918D0190E014
:1052F000820F911D029709F013C465DDCECE823076
:1053000009F0E4C080911A01813009F041C0909108
:10531000920180919801981750F4892F0E94CC0235
:105320008AE691E00E9443038091980108C00E94A0
:10533000CC0286E691E00E944303809192010E9494
:10534000CC0260919201809198010E943C0B80E711
:105350000E94410460919201809198010E94A014E2
:1053600080918E018D3F0CF0F5C288E992E00E9499
:10537000430360917C0170917D0180917E01909149
:105380007F0102E026E440918E010E947A04E2C28D
:10539000823009F048C082E30E949C0281E691E0DD
:1053A0000E9443038091920120919301821313C0C4
:1053B000809198010E94CC0286E691E00E9443030E
:1053C000809192010E94CC028AE691E00E94430300
:1053D0008091990116C030919801909199013913EB
:1053E00016C00E94CC028AE691E00E94430380919D
:1053F00098010E94CC0286E691E00E9443038091CE
:1054000093010E94CC0281E00E944104A3C23213A6
:1054100004C081E080930F0140C0981341C0F0E1C7
:10542000F0930F013AC08330D9F583E380930F01E5
:105430008091980190919301891303C021E02093FA
:105440000F014091920130919901431303C020E173
:1054500020930F0120919401821303C082E0809376
:105460000F0180919A01481303C040E240930F015D
:10547000321303C022E120930F01981303C081E28D
:1054800080930F0180910F01823250F483E30E94D8
:105490009C0281E691E00E9443030E9457045AC295
:1054A00080EB93E00E94430389E993E00E94430369
:1054B0000E94F7028BE793E00E94430380911A0158
:1054C000805D0E949C028AE691E025C3833009F04A
:1054D00064C180917101882399F1809157018823DB
:1054E00079F160915401809156010E94A01440907E
:1054F0007C0150907D0160907E0170907F01109141
:105500008E016091700180916E010E94A0148091C3
:105510008E0118130EC080917C0190917D01A091A5
:105520007E01B0917F01481659066A067B0618F085
:1055300004C0181714F48DE001C08CE080931B01A7
:1055400080917101882361F080915701882341F097
:105550004F9906C080911B0191E0892780931B0120
:1055600080911B018C3051F484E992E00E94430346
:1055700080917101882389F080E70DC0F092460187
:10558000E092450180E992E00E9443038091570137
:10559000882319F08EE60E949C020E94CE02909110
:1055A0001A014091450150914601A8E9B1E062E934
:1055B00071E0162F22E931E0121B191770F5FB017B
:1055C0002191BF01FA018485281719F02C91281325
:1055D00002C01196EECF80911B018C3041F4909166
:1055E000550180915601891740F080E007C09091E5
:1055F0006F01809170019817C0F781E0982E882381
:1056000039F08AE691E00E9443039924939407C0FD
:1056100086E691E00E94430302C014E1912C43E42A
:1056200062E485E40E94DB030E94F7028EE992E0C7
:105630000E944303E0914501F09146016081718130
:105640008281938103E020E040E00E947A040E947E
:10565000CE0289E40E949C02E0914501F09146014E
:10566000868197818031974270F085E60E949C0286
:10567000E0914501F09146018681978180519742E2
:105680009783868303C083E60E949C020E94E10206
:10569000E0914501F09146016681778180E090E0DC
:1056A00002E021E44AEF0E947A0480E00E9428038D
:1056B00085E892E00E944303E0914501F0914601A4
:1056C00063E0848195810E943905E0914501F09164
:1056D000460180859185892BA1F080E00E942803F6
:1056E00083E491E00E944303E0914501F09146017B
:1056F0006085718580E090E003E021E44AEF0E943C
:105700007A04E0914501F091460182859385892BC9
:10571000A1F080E00E9428038DE391E00E94430302
:10572000E0914501F09146016285738580E090E04B
:1057300003E021E44AEF0E947A04153008F0F0C13A
:1057400080E00E942803812F90E0992071F0FC01F5
:10575000EE56FE4F4F0180810E94CC028AE691E016
:105760000E944303F40186810EC09C012E563E4FD9
:105770004901F90186810E94CC0286E691E00E94EF
:105780004303F40180810E94CC020E94CE0281E892
:1057900092E00E944303812FDAC0843009F0F4C004
:1057A00080911B0184FF08C080E50E949C02F0925A
:1057B0004601E092450103C08EE40E949C028DE206
:1057C0000E949C0280911B01182F1F70143019F445
:1057D00087EA92E013C085FF02C084E401C085E43B
:1057E0000E949C02133041F481EA92E00E9443033C
:1057F00043E467E485E407C08CEA92E00E94430337
:1058000044E467E483E50E94DB0390911A018091F0
:105810001B01913089F484FF07C020916F019091A2
:105820007001291738F008C0209155019091560158
:10583000921710F411E001C010E085FD2EC00E9407
:10584000F702E0914501F0914601668584850E944A
:10585000A0140E94B1038CE792E00E944303E09100
:105860004501F091460162E0828593850E943905E9
:1058700080E00E9428038BEB90E00E944303E091BC
:105880004501F09146016481758180E090E002E07D
:1058900024EF4FEF0E947A0432C08F70843069F099
:1058A00080E00E941503E0914501F0914601668574
:1058B00084850E94A0140E94B10380E00E94280306
:1058C00089E40E949C020E94E102E0914501F0916E
:1058D00046016681778180E090E002E021E44AEFB2
:1058E0000E947A0487E792E00E944303E091450119
:1058F000F091460162E0828593850E94390580918E
:105900001A01813009F00CC180E00E9428031123A4
:1059100059F0809192010E94CC028AE691E00E94A7
:105920004303809198010AC0809198010E94CC02A3
:1059300086E691E00E944303809192010E94CC028E
:105940000E94CE0281E892E00E94430380E00E9420
:105950003304E6C080917801882309F4E1C038E17E
:1059600037B980911401909115010E940F0688E0CB
:1059700087B90E942F0380911A01805D0E949C02CA
:1059800081E691E00E94430300917801002309F42D
:10599000B6C0013039F480915F010E940204092FE2
:1059A000392E59C010915F0130916001F4E03F9FA2
:1059B000D0011124A655BE4F24E0129FF0011124FE
:1059C000E655FE4F4D915D916D917C918081918165
:1059D000A281B38184179507A607B70710F0212F7E
:1059E00001C0232F023021F4310F13E0131B1CC020
:1059F0001091610134E0139FD0011124A655BE4FD0
:105A000084E0289FF0011124E655FE4F4D915D91F1
:105A10006D917C9180819181A281B38184179507DA
:105A2000A607B70708F0122F113029F0123039F00D
:105A300001E022E002C002E021E080E003C002E0D9
:105A400020E081E02A830E94CC028CE591E00E9454
:105A500043032A81822F0E94CC028CE591E00E94B0
:105A60004303802F0E94CC020E94F70280917801AC
:105A7000813089F50E94931880915F010E940C0487
:105A8000809101018823E9F087E592E00E944303B9
:105A900060910A0170910B0180910C0190910D01B0
:105AA00003E028E4409101010E947A0465E080E06F
:105AB0000E94060387E591E00E944303832D0E9424
:105AC000CC0280915F01813059F580911A018111DA
:105AD00027C00CD9E2CA111102C081E003C0113005
:105AE00029F480E00E940C0482E006C01230C1F468
:105AF00080E00E940C0481E00E940C0411C088E840
:105B000093E00E9443030E94F70288EB93E00E9417
:105B1000430380EB93E00E94430380E49FE104C0D1
:105B20008091140190911501E8E1E7B94F9BFECFF8
:105B30000E940F06182F823318F00E949822ADCAD7
:105B40008111ABCA8CE00E94E70280914101882359
:105B500009F462C0B2E04B2E1C821B8280E090E010
:105B600000E12B813C8122593E4F4901F401E80FAD
:105B7000F91F2490F0E22F1201C0082F0196813105
:105B80009105A1F7442049F0842D817040FC0DC09F
:105B90008A830E942F038A8108C080E197E20E94D5
:105BA0000F06882389F311E133C060E00E940603E9
:105BB0004394242D2170422E612C712C162D6016D9
:105BC00098F4F401E60DF71D2490222009F13FEF2F
:105BD000231203C00E94CE0203C0822D0E949C02A9
:105BE0008FEF681A780AEACF222091F02B813C814E
:105BF000200F311D3C832B83F901E259FE4FE491C4
:105C0000E03209F0ABCF2F5F3F4F3C832B83A6CF11
:105C100080E197E20E940F065E9880E090E00E948B
:105C20000F063BCA0E94F30282E793E00E944303FF
:105C30008BEC0E947B055E9880E090E02496E2E188
:105C40000DC1A29FB001B39FC001A39F700D811D24
:105C50001124911DB29F700D811D1124911D089575
:105C6000F0DFB7FF0895821B930B0895EADFA59F2D
:105C7000900DB49F900DA49F800D911D1124089547
:105C8000DB018F939F93F2DFBF91AF91A29F800DB5
:105C9000911DA39F900DB29F900D11240895AA1BF2
:105CA000BB1B51E107C0AA1FBB1FA617B70710F007
:105CB000A61BB70B881F991F5A95A9F78095909539
:105CC000BC01CD01089597FB072E16F4009406D071
:105CD00077FD08D0E4DF07FC05D03EF49095819570
:105CE0009F4F0895709561957F4F0895A1E21A2EF8
:105CF000AA1BBB1BFD010DC0AA1FBB1FEE1FFF1F70
:105D0000A217B307E407F50720F0A21BB30BE40BBF
:105D1000F50B661F771F881F991F1A9469F7609506
:105D20007095809590959B01AC01BD01CF010895C0
:105D3000052E97FB16F400946DD057FD05D0D6DFE5
:105D400007FC02D046F466C05095409530952195E9
:105D50003F4F4F4F5F4F0895689401C0E8948F9272
:105D60009F92CF93DF9305D0DF91CF919F908F903B
:105D7000089588249924F401E401B0E49F93AA27AC
:105D80009A158B049C04ED05FE05CF05D007A107ED
:105D900098F4AD2FDC2FCF2FFE2FE92D982C892ED4
:105DA000982F872F762F652F542F432F322F22279E
:105DB000B85031F7BF9127C01B2EBF91BB27220FD0
:105DC000331F441F551F661F771F881F991F881C8C
:105DD000991CEE1FFF1FCC1FDD1FAA1FBB1F8A14BB
:105DE0009B04EC05FD05CE05DF05A007B10748F0D3
:105DF0008A189B08EC09FD09CE09DF09A00BB10B3D
:105E000021601A94E1F62EF49401AF01BE01CD0198
:105E1000000C089590958095709561957F4F8F4FF8
:105E20009F4F08952F923F924F925F926F927F9271
:105E30008F929F92AF92BF92CF92DF92EF92FF929A
:105E40000F931F93CF93DF93CDB7DEB7CA1BDB0B46
:105E50000FB6F894DEBF0FBECDBF09942A883988EB
:105E600048885F846E847D848C849B84AA84B984F2
:105E7000C884DF80EE80FD800C811B81AA81B981FE
:105E8000CE0FD11D0FB6F894DEBF0FBECDBFED0112
:105E900008950F93083090F0982F872F762F652F55
:105EA000542F432F322F22270850F4CF220F331FB5
:105EB000441F551F661F771F881F991F0A95B2F749
:105EC0000F9108952A193B094C095D096E097F0954
:105ED000800B910B0895FA01CF93FF93EF9322303B
:105EE000C4F02532B4F4C22F2C2F33274427552772
:105EF000FF93EF93FBDEEF91FF91605D6A330CF04F
:105F0000695D6193B901CA01605070408040904062
:105F100059F710828F919F91CF9132C0FB019F0161
:105F200042306CF045325CF4642F7727B8DE805D38
:105F30008A330CF0895D8193CB010097A9F7108219
:105F4000C9011EC0F999FECF92BD81BDF89A99276B
:105F500080B50895A8E1B0E042E050E023C0262FCC
:105F6000F999FECF1FBA92BD81BD20BD0FB6F8943E
:105F7000FA9AF99A0FBE01960895F1DF272FF0CF14
:105F8000DC01FC01672F71917723E1F7329704C0A0
:105F90007C916D9370836291AE17BF07C8F308952B
:105FA000DC01CB01FC01F999FECF06C0F2BDE1BDD9
:105FB000F89A319600B40D9241505040B8F70895C8
:045FC000F894FFCF83
:00000001FF
