:100000000C94EA090C94FC090C94FC090C94FC096E
:100010000C94FC090C94E5290C94FC090C944D11EA
:100020000C94FC090C94FC090C9400220C94D72924
:100030000C94C9290C94DA210C94FC090C94FC0949
:100040000C94A3290C94FC090C94FC090C94FC0955
:100050000C94FC090C944E110C94FC090C94FC09B2
:100060000C94FC090C94FC09CE0BD00BD40BDE0BCA
:10007000DC0BD80BD80BDA0BC200B900B0001008AB
:10008000407E01013E01013E01013E01017E4040F2
:1000900018000720080808F80000002060A03FA012
:1000A0006020020202FF0202021010101F00000076
:1000B0000708FFDBBDB5B5CBFF0708FFBB9DADADA6
:1000C000B3FF0708FFFFF7FB81FFFF10100508F8DB
:1000D00078385888091003081C3E7F0D080710FF68
:1000E000818181F1E1C1FF4040404743410D08015A
:1000F00010FFFF11080310F1E1C14743410E000852
:10010000202121122060E0E0E0FEFE040201000157
:10011000037F7F21C2C4C4C040948400070301024E
:10012000040E080210FEFE7F7F0000000011000593
:10013000202060E0E0E00201000103C2C4C4C0402E
:1001400007030102045245465F523D005245465F97
:10015000433D00203E3130306E4600706E056D002C
:100160006B4D010410090A0C00111111131D101020
:1001700000000E11110A1B00041F111111111F04A0
:10018000001E0203021E0000000F0818080F0000E6
:100190001113171F1713110011191D1F1D1911001D
:1001A0001B1B1B1B1B1B1B005244533D005B435D71
:1001B00000310803083320005B524C5D0031080712
:1001C0000608090A08332000432B45535240545077
:1001D000313A3300664054503200203530487A00BE
:1001E0004330200052695F4C6F3D0052695F48699F
:1001F0003D0052303D0052482F524C002B52482DAA
:10020000203132203133203233002B524C2D20311B
:10021000322031332032330052482B0052482D0017
:100220005248663D005265663D00494345733D00B6
:10023000494345303D0056657273696F6E20312E1B
:1002400031326B0008090A080008070608002A0175
:1002500020200008020800080108004E6F74206387
:10026000616C696272617465642120466F72FF631C
:10027000616C6962726174696F6E20636C616D702C
:10028000207468652033FF70696E7320746F676532
:100290007468657220616E64207374617274207773
:1002A00069746820746865FF6B65792E2041636B03
:1002B0006E6F776C65646765207468652073656C24
:1002C000662D74657374207769746820746865207E
:1002D0006B65792077697468696EFF32732E2044EC
:1002E0006973636F6E6E6563742070696E732061ED
:1002F0006674657220746865FF6D65737361676508
:10030000202269736F6C617465FF50726F626521A2
:10031000222069732073686F776E2E20536F667486
:100320007761726520616E6420646F63756D656EC0
:10033000746174696F6E2069732061742073766EC6
:100340003A2F2F206D696B726F636F6E74726F6CD2
:100350006C65722E206E65742F7472616E73697392
:10036000746F7220746573746572200049723D0069
:100370004C3D0020566C6F73733D00204553523D39
:10038000005643433D0043656C6C210008030800A0
:100390004056673D002056743D0055663D0055624D
:1003A000653D00203132333D0050696E2000424AE5
:1003B000542D504E5000424A542D4E504E00433D55
:1003C0000043673D006846453D002D4947425400C3
:1003D0004A464554002D4D4F5300444320507772F8
:1003E000204D6F6465004F4B004261742E200073F6
:1003F000686F72742050726F626573210053656C70
:100400006674657374007475726E2100726F746126
:10041000727920656E636F6465720031302D626998
:10042000742050574D00662D47656E657261746F7C
:100430007200537769746368206F66660053686F53
:1004400077206461746100566F6C74616765004663
:1004500072657175656E6379005472616E7369734C
:10046000746F720053656C656374696F6E3A005403
:1004700065737420456E640069736F6C61746520E8
:1004800050726F626573210053656C667465737496
:10049000206D6F64652E2E0054696D656F75742133
:1004A000006F722064616D6167656420004E6F2C7F
:1004B00020756E6B6E6F776E2C206F720020756EDC
:1004C0006B6E6F776E00546879726973742E005486
:1004D0007269616300706172740064616D61676567
:1004E000642000656D70747921007765616B00543C
:1004F000657374696E672E2E2E00BA038703580346
:100500002E030703E402C302A402880200001400C1
:1005100029003E005300690080009700AE00C6002D
:10052000DF00F80012012D01490165018201A001DF
:10053000BE01DE01FF012102440268028E02B50203
:10054000DE020903350364039403C803FE03370482
:100550007304B404F90443059305EA054906B30698
:100560002907AE074808FF08DE09AF57B950C24A4D
:1005700097451141133D87395A367E33E8308E2E28
:10058000692C712AA128F5266925F923A222622166
:1005900037201E1F161E1E1D341C571B851ABF191F
:1005A00003195018A61704176A16D6154915C21450
:1005B0004114C5134E13DC126E1205129F113D112A
:1005C000DF108410000000000000000000000000A8
:1005D000000000001E2121211200807F0000007E0B
:1005E0004A4A4A34000000000000FC402010080481
:1005F00002010000000101010101010101010101ED
:1006000001017F0488D0E0F0F80000000000000045
:100610000000000000000000000000FC9494840032
:10062000000102FC000000000000000000000000CB
:100630001E21212112E0C0804020100F000000C0C8
:1006400020202040000000FC00009E9E04030303C5
:100650000302000000202023242525232020203F02
:1006600000007B7B2142840480C000000000000069
:100670000000000000000000FC94948400040607C1
:10068000070708F000000000000000000000000064
:1006900000803F2121120C00000000FF000000F04C
:1006A000084848C80000FE0000E7818181C1E1F1EF
:1006B00081818101002020202121212020203F0054
:1006C00000F340404041434740407FC000000000ED
:1006D00000000000000000000000489494946400B2
:1006E000000000FF0000000000000000000000000B
:1006F000000000003F2121120C0000FF000000F06C
:10070000084848D0000000000000FEFE0404040475
:10071000040404070008080809090908087F3E1CAA
:1007200008087F7F20202020202020E000000000FB
:1007300000000000000000000000000048949494B5
:10074000640000FF0000000000000000000000FF47
:10075000003C0A090A3C0022312929260000828631
:100760008E9EBEFEFEBEDEEFF6FAFEFEFAF2E2C29C
:100770008200000008080804027984A4A46800FF2D
:100780000000000000000000000000000000000069
:1007900000000000000000FF0000F0282428F00006
:1007A0001008FC0000000000000000000000003CF9
:1007B0000A090A3C00FF00000000000000000000E1
:1007C0000000000000000000040C1C3C7CFF7C3C8E
:1007D0001C0C040000000000009EA1A9A99A8043FF
:1007E00023130B0703FF03030303030300000000AD
:1007F00000000000000000788484844800FF0000AE
:1008000000000000000000F00804E21109090909D5
:1008100009090909091121C2040810E000000001BA
:1008200002040407000000000080402010884423D8
:10083000100804030000000000000000000000FE9B
:100840000100FC02010000000000000000000000A8
:100850000000000000000079494979000000000014
:100860000000000040F010101010F04000010101E5
:100870000101010040FCF8F0E040FC4000070301EA
:100880000000070040FC40E0F0F8FC4000070000DA
:100890000103070040FCFC0000FCFC4000070700CF
:1008A000000707007884820282847800060407002B
:1008B0000704060000FC000000F01000100F020406
:1008C00002070400080808080808F84002020202AB
:1008D0000202030040F808080808080800030202A2
:1008E0000202020240404040404040400000000000
:1008F00000000000C0000080000080000102020132
:100900000202010200800000800000C00201020219
:1009100001020201000000000000000000000000D1
:1009200000000000000000000000000000000000C7
:1009300000000000000000000000000000000000B7
:1009400000000000000000000000000000000000A7
:100950000000000000000000000000000000000097
:10096000000000000000F80402FE02000C0605046E
:1009700004070C0002FE020002FE02000407040449
:1009800004170C0002FE02F002FE02000407040736
:1009900004170C000000E01008F808000C0605041D
:1009A00004070C00804028F8284080000102141F32
:1009B0001402010008F8080008F8080004070404FD
:1009C00004170C0008F808C008F80800040704071A
:1009D00004170C00001018FCFC18100000010101A5
:1009E00001010100001018FC1810000000000001B7
:1009F00000000000000000FC0000000000010101F8
:100A0000010100004040404050E040000000000074
:100A1000010000002070A82020202000000000001D
:100A200000000000E00000000000000001010101E2
:100A3000010101002070A82020A870200000000003
:100A40000000000000C0F0FCF0C00000000000004A
:100A5000000000000C3CFCFCFC3C0C000000000012
:100A60000000000000000000000000000000000086
:100A700000000000000000FE000000000000000D6B
:100A80000000000000160E0000160E00000000001E
:100A9000000000000010FC1010FC10000001070115
:100AA00001070100001824FE448800000003040F21
:100AB000040300000C12924C2010080002010006F2
:100AC000090906008C5222528C40C0000102040425
:100AD00004010200000000160E00000000000000EB
:100AE000000000000000F008040200000000010205
:100AF000040800000000020408F0000000000804E0
:100B0000020100004850E0FCE050480002010007EC
:100B100000010200404040F8404040000000000357
:100B200000000000000000000000000000000016AF
:100B30000E000000404040404040400000000000E7
:100B4000000000000000000000000000000000069F
:100B50000600000000008040201008000201000094
:100B600000000000F80402020204F800010204047C
:100B700004020100000804FE020000000004040753
:100B8000040400000804028242241800040605043C
:100B90000404060006020202122AC600010204042E
:100BA00004020100C0A09E8080FC800000000000C4
:100BB000040704003E120A0A0A12E60001020404B5
:100BC00004020100F84422121224C00001020404AD
:100BD000040201000E02C262321A0E000000070079
:100BE00000000000885422222254880001020404DC
:100BF00004020100384482824224F8000002040406
:100C000004020100000000181800000000000006A7
:100C10000600000000000018180000000000001688
:100C20000E0000000040A0100804020000000001B7
:100C300002040800002020202020200000010101E3
:100C4000010101000002040810A040000008040295
:100C50000100000018040282422418000000000D68
:100C600000000000F804D252E204F8000102050579
:100C70000405040200F0080402FE02000407050156
:100C80000507040002FE22222254880004070404FF
:100C900004020100F804020202048E0001020404AE
:100CA0000402010002FE02020204F8000407040428
:100CB0000402010002FE222272020E000407040454
:100CC0000404070002FE222272020E00040704043C
:100CD00000000000F80402C24244DE0001020404E5
:100CE0000201070002FE222022FE02000407040087
:100CF00004070400000202FE0202000000040407D0
:100D0000040400000000000202FE020000030404CC
:100D10000403000002FE62900804020004070400BD
:100D20000106040002FE02000000000004070404A3
:100D30000404070002FE38E038FE02000407040045
:100D40000407040002FE1A6082FE02000407040089
:100D500005070400F80402020204F800010204047A
:100D60000402010002FE424242241800040704006B
:100D700000000000F80402028204F80001020404EA
:100D80000405020402FE42C24224180004070400C3
:100D9000010604008814222222448E000102040469
:100DA000040201000E0202FE02020E00000404070B
:100DB0000404000002FE020002FE0200000304041C
:100DC0000403000002FE820082FE0200000003060F
:100DD0000300000002FE02F002FE02000001070311
:100DE0000701000002DE722072DE02000407040028
:100DF00004070400027EC280C27E020000000407D5
:100E0000040000000E824222120A060007040404B5
:100E10000404070000FE02020200000000070404B0
:100E200004000000081020408000000000000000C6
:100E3000000102000000020202FE000000000404A3
:100E4000040700001008040204081000000000005D
:100E50000000000000000000000000000808080872
:100E6000080808000000000E160000000000000046
:100E700000000000904828284890E0000102040487
:100E80000402070002FE10080810E0000407020434
:100E900004020100E01008080810380001020404F0
:100EA00004020100E010080810FE02000102040420
:100EB00002070400E0504848485060000102040462
:100EC0000402010020F82422020C0000040704049C
:100ED00000000000E010080810F8080000091212D5
:100EE0000907000002FE100808F0000004070400D3
:100EF00004070400001016F60000000000040407B8
:100F0000040400000000101616F00000000C101081
:100F1000100F000002FEC020100818000407040192
:100F20000204040000000202FE00000000000404AD
:100F30000704040008F808F008F0000004070007A0
:100F40000007040008F8201008F00000040704005F
:100F500004070400E01008080810E000010204047F
:100F60000402010008F810080810E000101F120425
:100F700004020100E010080810F80800010204044F
:100F8000121F100008F820100808300004070400A1
:100F9000000000001028484848903800010204046E
:100FA000040201000808FE08080000000000030415
:100FB0000404020008F8080008F80800000304040C
:100FC0000207040008F8880088F8080000000306FB
:100FD0000300000008F808C008F808000003060332
:100FE0000603000008B8E040E0B80800040700006D
:100FF0000007040008F8080008F8080000091212A9
:10100000110F000018088848281808000605040475
:101010000404060040B01C020200000000010708A2
:1010200008000000000000FE000000000000001F9B
:1010300000000000000002021CB040000000080890
:10104000070100000C02020408080402000000006E
:1010500000000000C02010081020C00001010101A4
:101060000101010002FE222222428600040704043C
:101070000402010002FE020202020E000407040044
:10108000000000000AFA48E80A1A000004070404F5
:101090000404070002DE60FE60DE020004070007B1
:1010A000000704008E040202225488000102040496
:1010B0000402010002FEC0701CFE020004070500CD
:1010C0000407040004FCC26432FC040004070400AA
:1010D0000407040000F0080402FE020004070000F8
:1010E0000407040002FE020202FE020004070400DC
:1010F00004070400027E828042FE02000002040413
:101100000403000070888AFE8A88700000000407CB
:1011100004000000027E828042FE02000000000007
:101120000407040002FE02F002FE020004070407A6
:10113000040704000E02FE120808F000040407046D
:101140000402010002FE1208F000FE00040704047D
:10115000030007008E0402722224F8000102040436
:101160000402010002FE20FC0202FC00040700034E
:1011700004040300182442C242FE020004060100D7
:1011800004070400F04824242242800001020404E1
:101190000402010008F848484850A000040704046D
:1011A0000402010008F808080838000004070400D9
:1011B00000000000E0524A484A5260000102040464
:1011C0000402010008B8C0F8C0B80800040700070E
:1011D000000704003810084848A810000102040461
:1011E0000402010008F880C060F808000407050048
:1011F0000407040008F882C462F808000407050028
:101200000407040008F840A01008180004070000B4
:101210000106040000C0201008F8080004070000C0
:101220000407040008F860C060F80800040704011F
:101230000407040008F8484048F8080004070400C0
:101240000407040008F8080808F808000407040068
:1012500004070400380808F80808380000000407EC
:101260000400000008F8080088F8080000000101E8
:101270000407040008F808C008F808000407040779
:10128000040704003808F8482020C00000040704C0
:101290000402010008F84820C000F8000407040414
:1012A0000300070008F848202040800004070404D9
:1012B00004020100381008E84850E000010204046C
:1012C0000402010008F840F00808F00004070003D9
:1012D000040403006090080808F8080000040503EF
:1012E00005070400000000000000000000000000EE
:1012F00000000000000000000000000000000000EE
:1013000000000000000000000000000000000000DD
:1013100000000000000000000000000000000000CD
:1013200000000000000000000000000000000000BD
:1013300000000000000000000000000000000000AD
:10134000000000000000000000000000000000009D
:10135000000000000000000000000000000000008D
:10136000000000000000000000000000000000007D
:10137000000000000000000000000000000000006D
:10138000000000000000000000000000000000005D
:10139000000000000000000000000000000000004D
:1013A000000000000000000000000000000000003D
:1013B000000000000000000000000000000000002D
:1013C000000000000000000000000000000000001D
:1013D0000000000011241FBECFEFD8E0DEBFCDBF5C
:1013E00011E0A0E0B1E001C01D92A23CB107E1F71D
:1013F0000E9412330C94543B0C9400005A98529A59
:101400005898509A5D98559A5C98549A67FD5C9AE2
:1014100020D066FD5C9A1DD065FD5C9A1AD064FDF3
:101420005C9A17D063FD5C9A14D062FD5C9A11D06F
:1014300061FD5C9A0ED060FD5C9A0BD0589A58986A
:101440005C98549A80FD5C9A44D55D9A42D55D982B
:101450003BC55A9A5A9A5A985C98089580FD5B98B1
:1014600080FF5B9A81FD599881FF599A539A519A4E
:10147000089510921101109204011092050110922A
:101480001001089581E0809311011092040182E01F
:101490008093050110921001089582E0809311015C
:1014A0001092040184E080930501109210010895C8
:1014B00083E0809311011092040186E0809305017E
:1014C0001092100108956093040180930501660F46
:1014D000660F660F609310010895909111019F5F50
:1014E00090931101943038F093E09093110191E0C2
:1014F0009093520102C01092520190911101682FF5
:10150000892F880FE0CFE9DF28C6809104018093FE
:1015100001018091110180930301089580910301DD
:1015200060910101880FCFCF8DE09DD48AE09BC4EC
:10153000CF93C82F682F80E061DFCF7BC03809F4DC
:10154000F3DFCF9108958EE3F3CFCF93DF9383E062
:1015500085DFC0E080E4ECDF8C2F886BE9DFD0E42E
:1015600060E081E04BDFD150D9F7CF5FC83091F711
:10157000DBDF7FDF10921101DF91CF9108958AE0C8
:10158000AAD483E06BDF80ECD3DFDFDF8FE3D0DF33
:101590008AE0A1C40895582F28E030E090E841E0A7
:1015A00080E0642F652309F0892B440F9695215024
:1015B000310921153105A9F70895A0E0B0E0E3EE67
:1015C000FAE00C94813AEC01F62E39E7361708F46C
:1015D00074C0483308F071C0142F169516951695EF
:1015E0008E2D90E0840F911D019733E0959587959E
:1015F0003A95E1F7322F3270432E21FF0BC0AC0138
:101600005527411B5109049FB001059F700D1124FE
:10161000C60FD71FE82E87E08E1510F487E0E82E5E
:101620003F2D3F733064532E2170322EA02EB12CEB
:10163000450181E0881A9108E11608F439C083E079
:101640000DDF812F886B74DF3FE33F1510F081E0E1
:1016500001C082E003DF852D6BDFC12CD12C3E0160
:10166000680C791CC016D8F48F2D8C0D803421F4B1
:1016700082E0F4DE80E45CDF332021F0F301EC193A
:10168000FD0903C0FE01EC0DFD1D8491411083DFB7
:10169000682F81E0B3DE8FEFC81AD80AE3CF442069
:1016A00019F0CA19DB0902C0CA0DDB1D1F5FC4CFC8
:1016B000809105018770886B3BDFCDB7DEB7E1E134
:1016C0000C949D3AEF920F93282F8F7030E6839FF2
:1016D000C00111248C539A4F322F307324FF02C063
:1016E00028E001C028E420931201303218F0109253
:1016F000000108C020E220930001209112012D5E1C
:101700002093120140E2E42E08E120E04091000124
:101710006091120152DF0F91EF900895EF920F93B5
:10172000262FFC01649131964491FC01329604917C
:10173000FC013396E49050910001450F5091120145
:10174000650F04963ADF0F91EF90089560E0E6CFC1
:10175000EF920F93CF93C82F40910501440F440F90
:10176000440F20E1829FC001112450E1E52E08E0E2
:1017700020E0609110018C59974F1FDF809110017C
:10178000885F809310014C2F50E0FA013197E830C8
:10179000F105D0F4EC5CFF4F0C94B73A8EE305C032
:1017A0008CE761D38CE311C08CE75DD38CE70DC06F
:1017B00082E50BC08DE209C085E707C08FE453D3F3
:1017C00088E651D38DE601C08C2F4DD3CF910F9178
:1017D000EF9008958F5CBCCF80E2BACFA1E0B0E07B
:1017E000E4EFFBE00C94903A882329F08983F4DF3E
:1017F00089818150F9CF2196E2E00C94AC3A84E1E2
:10180000EDCF37DEFCDF35CE3DDEF9DF3BCE8DE3BD
:101810009FCFCF93DF93EC018991882311F098DF5C
:10182000FBCFDF91CF910895CF93DF93EC01FE01C1
:101830008491982F9F7719F08BDF2196F8CFDF9155
:10184000CF910895EF920F93FC0104913196E490AB
:101850000296B3DE0F91EF9008950F9381EC93E021
:10186000E3DF40919A014D3F64F4609188017091EB
:10187000890180918A0190918B0103E026E4E3D0F5
:1018800002C08FE365DF0F91089597FF09C08F9322
:101890009F938DE25DDF9F918F91909581959F4FF2
:1018A0006CE271E04AE050E00E94023BB2CFEF925E
:1018B000FF920F931F93182F062FF42E83EA93E0C5
:1018C000B3DFEE24E0915001F09151018685E816D6
:1018D00011F4812F09C08485E81611F4802F04C00B
:1018E0008585E81611F48F2D33DFE3948E2D833038
:1018F00049F71F910F91FF90EF900895EF92FF929B
:101900000F931F93182F062FF42E80E0FCDD89EA39
:1019100093E08ADFEE248E2D5DDF79DFE0915001C8
:10192000F09151018685E81611F4812F09C0848554
:10193000E81611F4802F04C08585E81611F48F2D68
:1019400007DF4ADFE3948E2D833029F71F910F9133
:10195000FF90EF900895682F80E092E0662309F4ED
:1019600091E0623009F481E008950F93082FE6EBCF
:10197000F1E0880F880FE80FF11D6081718182818D
:101980009381643671058105910578F420910201F7
:10199000222359F4802FDFDF692F0E944F25BC01DD
:1019A00080E090E04EEF03E002C04FEF04E024E05F
:1019B0004AD012DF0F910895863058F4EAEAF1E038
:1019C000E80FF11DE80FF11D8081918163E0FAD0ED
:1019D00003CF08951F93182F80918301882319F056
:1019E000FBDE80E0B5DE4EDD8AE993E01DDF812F6E
:1019F00082958F70E1DF812F8F70DEDF1F91089558
:101A0000CF93DF938091130182958F70CEE9D1E05F
:101A1000C80FD11D8881DEDE87E592E005DF8E816B
:101A2000D9DE87E592E000DFCEE9D1E080911301B5
:101A30008370C80FD11D8E81CDDE80911301CADF66
:101A4000DF91CF910895A0E0B0E0E9E2FDE00C94D1
:101A5000863A142FC22F033009F4A1C0043009F4D0
:101A6000A5C0053051F0063081F00730B1F0B4E682
:101A7000CB2ED12CE12CF12C17C0A0EACA2EA6E85F
:101A8000DA2EEE24E394F12C0FC0F0E4CF2EF2E432
:101A9000DF2EFFE0EF2EF12C07C0E0E8CE2EE6E9C6
:101AA000DE2EE8E9EE2EF12C5AE0852E912CA12CA9
:101AB000B12C6C157D058E059F0560F06B5F7F4F27
:101AC0008F4F9F4FA50194010E94E439CA01B901CB
:101AD0001F5FEFCF0CE0010F07FD04C0033118F0CA
:101AE00002E101C000E01BEA019F112D11241695AF
:101AF000212F220F210F021B21F01F5F23E0201B4B
:101B0000022F2AE030E041E451E00E94DF3AA1E4F4
:101B1000B1E00D900020E9F71197A154B140BA2E21
:101B20009D013327802F90E004968217930714F4C9
:101B30001F5F0D5FE12FF0E0E55AFE4FA490DA2F12
:101B4000D01B1D1634F08EE203DEDD2311F080E39E
:101B5000FFDD011101C0DFEF41E4E42E41E0F42E8E
:101B60008701CD2EDD24C7FCD094802F8E198B15D4
:101B700068F4F80181918F01EBDD98012154314027
:101B80002C153D0591F78EE2E3DDEFCFAA2011F091
:101B90008A2DDEDDCC2389F08C2FDADD0EC038EE05
:101BA000C32E33E0D32EE12CF12C7ECF20E1C22EC8
:101BB00027E2D22EE12CF12C77CFCDB7DEB7ECE0C7
:101BC0000C94A23A0F93062FBC0180E090E026E52A
:101BD0004DEF39DF0F910895E82FF0E0EE0FFF1F72
:101BE000E858FF4F8591949120910001420F209178
:101BF0001201620F20E026CECF93DF93C82FD62F9D
:101C0000E0915001F091510148E16EE18685E4DFF9
:101C1000E0915001F09151014D2F6C2F8485DCDF54
:101C2000E0915001F091510140E06EE18585D4DFF3
:101C3000DF91CF910895CF9388DC80E343DD62E0AC
:101C400080E990E06BDD80E23DDD8BEC90E07EDDB5
:101C500060E085E038DC86EB93E0E6DD68E085E077
:101C600032DC8EEA93E0E0DD88E99AE310D26DDCA5
:101C700083E128DD83E026DD84ED90E067DD61E02F
:101C800082E021DC8EE464DD8DE262DD80ED93E0B4
:101C9000CBDD69E082E017DC80E55ADD8DE258DDBE
:101CA00080ED93E0C1DD88E99AE3F1D14EDC81E378
:101CB00009DD81E207DD8DE291E048DD60E085E04D
:101CC00002DC8EE445DD8DE243DD85E441DD8AEC16
:101CD00093E0AADD68E086E0F6DB80E539DD8DE2A1
:101CE00037DD85E435DD8AEC93E09EDD88E99AE313
:101CF000CED12BDC81E1E6DC81E291E027DD81E0E1
:101D0000E1DC8DEF90E022DD60E081E0DCDB8EE461
:101D10001FDD8DE21DDD84E41BDD8AEC93E084DDB4
:101D200068E082E0D0DB80E513DD8DE211DD84E444
:101D30000FDD8AEC93E078DD88E99AE3A8D105DC31
:101D400082E3C0DC82E2BEDC83EF90E0FFDC60E097
:101D500085E0B9DB8EE4FCDC8DE2FADC85E4F8DCBE
:101D600085ED93E061DD68E086E0ADDB80E5F0DCE9
:101D70008DE2EEDC85E4ECDC85ED93E055DD88E971
:101D80009AE385D1E2DB82E19DDC8DEE90E0DEDC42
:101D900082E098DC8BED90E0D9DC61E081E093DBC0
:101DA0008EE4D6DC8DE2D4DC84E4D2DC85ED93E0F5
:101DB0003BDD69E082E087DB80E5CADC8DE2C8DCE0
:101DC00084E4C6DC85ED93E02FDD88E99AE35FD1FA
:101DD000BCDB4FDB89E492E027DD54DB84E492E056
:101DE00023DD5BDB8CE893E01FDD62DB87E592E0BF
:101DF0001BDDF2DC83E592E017DDC0E08C2F8F70F5
:101E000071F48C2F8F7321F488E99AE340D19DDB24
:101E100060E08C2F869586958695867054DB80E2EF
:101E20008C0F96DCCF5FCF3549F788E99AE32FD145
:101E30008CDBC0E08C2F8F7031F460E08C2F8295AA
:101E40008F70880F40DBC83210F480E801C088EE44
:101E50008C0F7EDCCF5FCF3269F788E99AE317D128
:101E600074DBCF9108958F932F932AE080953B9A4E
:101E7000089410F4439802C0439A000020D027D061
:101E800086952A95B1F72F918F91089503D002D0AE
:101E900001D000D000D003D002D001D000D0A8954E
:101EA00000D003D002D001D000D000D003D002D0A7
:101EB00001D000D000D003D002D001D000D000D09B
:101EC00003D002D001D000D000D003D002D001D086
:101ED00000D00000089590E0893C28F0885C48EC30
:101EE000849FC0011124009709F408952091810076
:101EF000277019F0DBDF019716C08130910519F0CA
:101F000002973EE303C037E180E090E02091B20009
:101F1000230F2093B30042E04093700027E023BFDB
:101F2000889526E023BFA895DECF8F9384E0D3DF8A
:101F300007C08F9382E0CFDF03C08F9381E0CBDFB8
:101F40008F911F93182F106410937C00E12FE0787D
:101F500080913701E81759F0E0933701B0DF8EE93F
:101F600080937A0083E083BF889582E083BF20E07E
:101F700030E0A901E0E01FC08EE980937A0083E0A1
:101F800083BF889582E083BF60917800709179006B
:101F9000260F371F411D511DE43061F48091390136
:101FA000803041F084E02030380720F417FD02C073
:101FB0001068CACFEF5F80913601E817E8F26091B0
:101FC0003A0170913B0117FF04C060913801709194
:101FD000390180E090E00E94AE392FEF33E040E01D
:101FE00050E00E94E439B901CA012091360130E085
:101FF00040E050E00E94E439C9011F91089589B181
:1020000083FB882780F94999826090911E01943062
:1020100050F09EE090931A0180931B0110921F01D3
:1020200091E090931E01E0911E01AE2FB0E0A65EFC
:10203000BE4F9C91981721F181111AC0A3E0AE0FF9
:10204000A37020911F01923041F4B0E0A65EBE4F14
:102050009C91933069F42F5F09C0913049F4B0E04E
:10206000A65EBE4F9C91933019F4215020931F011E
:10207000EF5FE370E0931E01F0E0E65EFE4F8083C9
:1020800080911F0187FD8195809320010895A0E034
:10209000B0E0EDE4F0E10C94893AD82EC92E5398C3
:1020A000519808DF10921F01E0911E01F0E0319677
:1020B000E370FF27E65EFE4F80EF8083C5E6D9E13F
:1020C0009EDF4F9905C0FADED150D1F7C150B9F764
:1020D000CD2DDC2DF12C05E510E0BB24B394D7FD0C
:1020E00036C082E3E82E8BDFE9DEEA94E1F7000FE9
:1020F0004F9B0F5F0F730F3349F4111103C0CD2DA8
:10210000DC2D14E01F5F163928F021C0011102C038
:1021100011111DC0A8951C161D062CF42A97209796
:1021200011F4CFEFDFEF80912001882339F0F39491
:1021300080918401811102C0B092840184E18F15E5
:1021400070F680911F01811102C0F12CC8CF812F40
:10215000CDB7DEB7E9E00C94A53ACF93D6D9C82F16
:1021600080915201882301F1813051F4C33041F450
:102170006FE086E0A8D98BE2EBDA6FE086E0A3D9C6
:1021800080E49FE184DF811104C0809120018111EE
:10219000F7CFC33041F480915201813021F460E0E7
:1021A00086E091D92CDBBAD9CF9108958BE090E0ED
:1021B0000E94163B382F8CE090E00E94163B209145
:1021C0003E01230F30913F01381F209323013093AC
:1021D000240183E0283E380720F0C901885E93403F
:1021E00002C080E090E062E370E00E94BD39683098
:1021F00008F067E0EAEFF4E0E60FF11DE60FF11DED
:10220000459155912591359162E3681B421B530B13
:10221000649FC001659F900D1124499662E370E0B0
:102220000E94BD39620F731F70938701609386010E
:102230008DE090E00E94163B992787FD9095609174
:102240003E0170913F01860F971F90933901809353
:10225000380190938201809381010895CF93DF9399
:1022600024E130E0B9010E94BD39DC01ECE0F5E089
:10227000E60FF71FE60FF71FC591D59145915591D0
:102280004C1B4A9FC0011124B9010E94BD396C0F3B
:102290007D1FCB01DF91CF9108951895189510926D
:1022A00027011092250110927C0110926201109278
:1022B000260110924F011092830110926701109233
:1022C0006801109269011092980110929901109280
:1022D000020110928C0110928D0110928E011092C9
:1022E0008F0184EF80939B010895A1E0B0E0EBE7BC
:1022F000F1E10C948E3A98E097B998B9E82FF0E0A4
:10230000EE59FE4F949195B9262F281BE20FF11D2F
:1023100027FDFA95E491E92BE4B9698312DE8C017B
:102320006981862F0EDE20913A0130913B0136956E
:102330002795A90143505109B801625E7F4F4617A6
:10234000570778F4255E3F4F0217130750F4BC017E
:10235000625E7F4F4617570720F441E082179307CC
:1023600008F040E014B8842F2196E4E00C94AA3AD7
:10237000CF9361E080E0B9DFC82F62E080E0B5DF95
:10238000C80F62E081E0B1DF8C0FCF910895A3E127
:10239000B0E0EDECF1E10C94803A182F1092270197
:1023A000807FA9F4E5DF833009F0CAC3CED888E87E
:1023B00094E03ADA67D88FE3CBD980ED97E067DE17
:1023C0008B30C8F4C2D886E392E02EDAB9C3A6E90E
:1023D000FA2E00E0BAD88FEE93E026DAC9DF833018
:1023E00021F40F5F043010F006C000E088E273DDD6
:1023F000FA9481F76CC046D882EF91E015DA60E07C
:1024000082E090E00E94233B60E083E090E00E9445
:10241000233B60E081E090E00E94233B60E082E0AB
:102420000E944F255C019A83898361E082E00E94CB
:102430004F256C019C838B8360E081E00E944F25D7
:102440007C019E838D83B501882777FD8095982F29
:1024500003E020E24EEFF7DAB601882777FD80959A
:10246000982F20E24EEFEFDAB701882777FD8095AD
:10247000982F24E04EEFE7DA2AE5A216B10424F003
:1024800084E190E09A838983698182E090E00E94F0
:10249000233B8AE5C816D10424F084E190E09C83B4
:1024A0008B836B8183E090E00E94233B9AE5E916E1
:1024B000F10424F084E190E09E838D836D8181E0BE
:1024C00090E00E94233B82E08093520146DE1F7021
:1024D0001F87113009F050C001E010E058EB252EA5
:1024E00052ED352E57E4452E512C62E0962E78E0C1
:1024F000A72EECE06E2EF4ECCF2EF6E3DF2EE12CCF
:10250000F12C3CC0839423E0281570F17DD979D952
:1025100084E51ED9C801C4D95FD9E1E0BE1233C039
:102520000E94512285E292E07FD964E080913E01D1
:1025300090913F0147DB0E94420A80E292E074D909
:102540008091860190918701ABD98EEB8093360103
:10255000A7B8A8B814B815B888EE93E098DDF4E0F1
:10256000BF1681F28B3070F288EE93E090DD0F5F42
:102570001F4F0830110511F418E71CC1812CB02E33
:10258000B0E27B2EC3CFF2E0BF1241C020913A01EE
:1025900030913B01A8E5BBE10E948F39A70196016C
:1025A0000E94063A81E085B985E084B980E0288BF5
:1025B000398B4A8B5B8BB9DC288939894A895B89DD
:1025C000821B930B9A83898381E184B980E0288BF5
:1025D000398B4A8B5B8BA9DC288939894A895B89CD
:1025E000821B930B9C838B8384E085B984E184B93F
:1025F00081E0288B398B4A8B5B8B97DC2889398962
:10260000821B930B9E838D838AE092E0B7C093E098
:10261000B91229C095B8EAE0E4B980E086DC2091DF
:102620003A0130913B013695279538872F83821BDD
:10263000930B9A838983F2E2F4B980E076DC2F81F0
:102640003885821B930B9C838B83A5B828E224B921
:1026500081E06BDC2F813885821B930B9E838D83F9
:102660008CEF91E08BC084E0B81207C088E794E05B
:10267000DBD87EDE811161C287C095E0B91213C03C
:1026800015B894B880E051DC9A838983A4B881E0BE
:102690004CDC9C838B8374B882E047DC9E838D8303
:1026A0008CE192E06BC0E6E0BE1227C094B895B80A
:1026B00080E03BDC20913A0130913B01821B930B7F
:1026C0009A838983A4B8A5B881E02FDC20913A01D0
:1026D00030913B01821B930B9C838B8374B875B83C
:1026E00082E023DC20913A0130913B01821B930B65
:1026F0009E838D8388E192E041C0F7E0BF1240C025
:1027000020913A0130913B01A8E5BBE10E948F394D
:10271000A20191010E94E43995B883E084B980E078
:10272000288B398B4A8B5B8B00DC288939894A8955
:102730005B89821B930B9A838983A5B864B881E077
:10274000288B398B4A8B5B8BF0DB288939894A8946
:102750005B89821B930B9C838B8375B890E394B940
:1027600082E0288B398B4A8B5B8BDFDB28893989A8
:10277000821B930B9E838D8386EF91E055D804C016
:10278000E1E0BE1609F4E4CE0E94420A89819A81F2
:102790007CD822D88B819C8178D81ED88D819E814F
:1027A00074D8D6CE31D888E794E03ED884E693DB5F
:1027B000115019F0DDDD8111F5CF0E94A50A8BEED5
:1027C00091E032D860913C0170913D0180E090E051
:1027D00003E024E04FEF37D90E94420A84EE91E0F3
:1027E00023D860914D0170914E0180E090E024E08B
:1027F0004FEF29D982E080935201AFDC109227017C
:102800000E94A50A80EE91E00FD860E082E00E946D
:10281000281F00919001109191011C870B8761E0A6
:1028200082E00E94281FC0909001D0909101DE8626
:10283000CD8660E081E00E94281FE0909001F0903A
:102840009101FE82ED8262E080E00E94281F80916B
:102850009001909191019C838B8362E081E00E94C2
:10286000281F80919001909191019A87898761E05A
:1028700080E00E94281F80919001909191019A839D
:102880008983EF85E13021F020914C01223021F441
:10289000029698878F8304C098878F8310924C018B
:1028A000B801882777FD8095982F03E020E240E06B
:1028B000CAD8B601882777FD8095982F20E240E09E
:1028C000C2D8B701882777FD8095982F26E444EF7A
:1028D000BAD86E01FFE0CF0ED11CFE013196819176
:1028E00091910A97853B9105F0F4EC15FD05B9F738
:1028F000A4E0EA2EA0E0FA2E8E010F5F1F4FF80130
:1029000060810E5F1F4F6E5EC7010E94233BFFEF89
:10291000EF1AFF0A0C151D0591F70E94420A86EE78
:1029200093E00E94140C82E08093520116DC2F8504
:10293000213029F080914C01823009F0E8C0E0E4B8
:10294000BE2E10E0FAE0CF2ED12CE12CF12C0E940B
:10295000A50A80E00E94EA0B8CE893E00E94140C28
:1029600082E00E94EA0B83E591E00E94140C109231
:10297000270160E082E00E94281F00919A01609187
:1029800088017091890180918A0190918B01073FA4
:1029900044F4A70196010E94E4390F5FB901CA010E
:1029A000F6CF00939A016093880170938901809318
:1029B0008A0190938B01073F09F093C0DC01CB01A2
:1029C00080569109A109B10980399545A105B10544
:1029D00008F087C060919C0170919D01CB018B56DE
:1029E0009F4F8B32914008F07CC01F5F153008F478
:1029F00079C08BE090E00E94313B0E94A50A8CE4F4
:102A000091E00E94140C80919C0190919D010E9484
:102A1000450CCCDB88E088B989E087B980E284B9CD
:102A200082E08FDA853D9340DCF714B810923901CB
:102A30001092380182E085DA8C01809181019091B9
:102A40008201909339018093380182E07ADA7C0127
:102A5000EE0CFF1C109239011092380182E071DAFD
:102A6000C0908101D0908201D0923901C09238018A
:102A7000080F191F0E191F090E94420A85E491E0F0
:102A80000E94140C8DE090E00E94163B73E0B72E7C
:102A9000B80E9601D8010E949E399701442737FD50
:102AA0004095542F0E94063AB20E6B2D8DE090E0B7
:102AB0000E94233B8B2D992787FD90950E94450C02
:102AC00075DB82E08093520148DB10924C0184E078
:102AD00090E00E94163B682F87E090E00E94233B25
:102AE00016C010E00E94420A60918801709189012D
:102AF00080918A0190918B0104E026E440919A0133
:102B00000E94230D88E2E7D9BA9409F020CF89E129
:102B1000809336010E94A50A86E392E00E94140C7D
:102B20000E94420A8FE694E00E94140C1092270142
:102B300082E08093520111DB03C052E0852E24CE47
:102B40006396E2E10C949C3A80914C0181110DC096
:102B500084E090E00E94163B61E0680F87E090E01F
:102B60000E94233B81E080934C010895CF92DF9235
:102B7000FF920F931F93CF93DF931F92CDB7DEB7D2
:102B8000E82FF0E0EB59FE4FE491E8B9E860E7B9CF
:102B900015B8E62FF0E0EE59FE4FE491E4B908E8ED
:102BA00013E1FE2EFF0C862F6983BFD96C01F4B8A8
:102BB00069818017910710F48C01F5CF009701F11E
:102BC0000E94580A8CE693E00E94140CD60120EA79
:102BD00036E841E050E00E94A43928E937EB40E0B4
:102BE00050E00E94E439CA01B9018827992702E020
:102BF00021E447EF0E94230D88E087B988B914B813
:102C00000F90DF91CF911F910F91FF90DF90CF90A8
:102C100008950F931F93CF93DF9385E092D985E0BA
:102C20008CD9EC018C01000F111F000F111F0A56E7
:102C30001F4F10924001043883E0180740F48AEDDA
:102C400093E00E94140C81E08093400122C089EE41
:102C500093E00E94140C62E0C8010E94E20D0E9401
:102C6000EC0BCA3F86E0D80780F4C333D64050F45B
:102C700083EE94E00E94140C8DEC2DD91BB88AECE5
:102C80002AD907C08AEE94E002C086EE93E00E9443
:102C9000140CDF91CF911F910F910895AAE1B0E03C
:102CA000E4E5F6E10C94803AB82EA62E842EA89581
:102CB000E62FF0E0EE59FE4F5490339624912E8784
:102CC000E42FF0E0EE59FE4F7490E82FF0E0EE595B
:102CD000FE4F949033964490342D38603D872860A1
:102CE000622E75B8472D45294B8344B937B948B88A
:102CF000862F23D998878F8354B88A2D1ED91C011B
:102D000014B8D4D815B85B8154B98A2D16D9AF81BF
:102D1000B8858A179B0728F5805E9E4FA817B907CC
:102D200008F4E6C467B888E088B995B8892D872982
:102D300084B9E0913A01F0913B01F887EF838B2D44
:102D4000FCD82F813885281B390B38872F8394B8FE
:102D500020903A0130903B018B2DEFD8281A390A88
:102D600008C02F813885205E3E4F8217930708F4F4
:102D7000BFC42091620180917C0190E0820F911D7F
:102D800002974CF0213009F0B3C490915F0180911B
:102D900079019813ADC4172D110F4F815885443711
:102DA000510508F4A4C0CA01880F991F449628163B
:102DB000390608F09CC05D8557B948B8812F852930
:102DC00084B98A2DB6D87C01882DBBD86C0115B981
:102DD0008A2DAFD89701295A3D4F1929281739074D
:102DE000D0F588E088B967B814B915B9882DA1D88D
:102DF00088349F4028F084E08093270182E204C059
:102E000084E08093270184E280932601F0925801A8
:102E1000E0925701CE14DF0440F4C7018C199D09DC
:102E200090935E0180935D0104C010925E01109248
:102E30005D019701A0E1B7E20E948F392091210145
:102E40003091220140E050E00E94E43930935A0171
:102E50002093590144C488E088B967B814B915B9FA
:102E60008B2D67D88C01882D6CD87C0195B88B2D63
:102E700060D8895A9D4F8017910708F039C448B827
:102E8000BD85B7B9882D55D8813D934028F484E09D
:102E90008093270182E304C084E08093270184E3C8
:102EA000809326010E151F0538F4E01AF10AF092FE
:102EB0007801E092770104C01092780110927701B6
:102EC00020913A0130913B01201B310BA0E1B7E288
:102ED0000E948F39209128013091290140E050E073
:102EE0000E94E4393093740120937301BDC188E0DE
:102EF00088B967B895B8092D072904B98B2D1DD855
:102F00009A878987E0903A01F0903B01882D19D883
:102F10009E838D830A9790F514B881E00E946B0F11
:102F2000812F892984B98B2D08D89A878987209188
:102F30003A0130913B01281B390B3A832983882DB4
:102F400000D89E838D8380912801909129019C0156
:102F500040E050E060E677EB87E490E00E94E439DF
:102F6000A981BA810E94A439AD81BE819D0140E052
:102F700050E00E94E43969017A0112C0F701298505
:102F80003A85E21BF30BFA83E983CF014D815E8121
:102F9000841B950BBA010E94BD396B01E12CF12C09
:102FA00014B815B848B85D8557B981E00E946B0F19
:102FB00089EB281687E0380608F09AC39B8194B9FC
:102FC0008A2D0E949D0F8F359D4008F453C114B87F
:102FD00081E00E946B0FBB81B4B981E00E946B0F4E
:102FE000E12FE529EA8BE4B98A2D0E949D0F9A8F83
:102FF000898F882D0E94A10F998B888B8B2D0E9421
:10300000A10F9C878B8728893989213D374008F497
:10301000B3C083E0809327018DE080932601898DE2
:103020009A8D2816390620F48C010219130902C062
:10303000098D1A8D4090210150902201612C712C34
:1030400060E677EB87E490E0A30192010E94E43907
:10305000D8010E94A439A889B9898D0120E030E007
:10306000A90198010E94E43980917C01882369F0CC
:1030700080916D0190916E01A0916F01B0917001EE
:1030800082179307A407B50710F520936D013093BD
:103090006E0140936F0150937001298D3A8DA0E12C
:1030A000B7E20E948F39A30192010E94E439309364
:1030B0007401209373018B859C85E889F9898E1BA7
:1030C0009F0B909372018093710121E001C020E079
:1030D00080916D0190916E01A0916F01B09170018E
:1030E0008C159D05AE05BF0538F5C0926D01D092D7
:1030F0006E01E0926F01F092700189859A852D81B1
:103100003E81821B930B9093720180937101298100
:103110003A81A0E1B7E20E948F39209128013091D5
:10312000290140E050E00E94E439205F384D30939F
:1031300074012093730103C0222309F49BC39101FE
:10314000A0E1B7E20E948F39A30192010E94E43905
:1031500030937601209375012F813885A0E1B7E285
:103160000E948F39A30192010E94E43930937801C3
:103170002093770121E07EC331E62316310408F065
:1031800079C0498D5A8D413D87E0580708F472C0D7
:1031900084E08093270182E180932601CA01865052
:1031A0009F4FAB85BC858A179B0720F483E18093F2
:1031B000260120C0EB85FC85298D3A8D2E173F070F
:1031C000A8F4A0912101B09122019F01498D5A8D4F
:1031D000241B350B0E948F399A0140E050E00E9479
:1031E000E439309372012093710104C0109272018E
:1031F000109271015E855770D52E882D8064809362
:103200007C00FBE0CF2E01E010E0EE24EA94A3E086
:10321000FA2EA89561E0872D36D58A8984B986B1C2
:103220008D21E9F354B880917A00806480937A000C
:1032300080917A0086FDFCCF809178009091790092
:10324000D701A81BB90B0A0F1B1FCA9411F7C8019D
:10325000880F991F880F991F69E070E00E94BD399F
:10326000709378016093770180917C018F5F8093E8
:103270007C0180CFBB81B4B975B88A2D0E949D0FA7
:103280009A838983882D0E94A10F9E838D836091EC
:103290003A0170913B01681B790B6A30710590F51A
:1032A00014B881E00E946B0F812F852984B915B96C
:1032B0008A2D0E949D0F9A838983882D0E94A10FD9
:1032C0009E838D8380912101909122019C0140E099
:1032D00050E060E677EB87E490E00E94E439A98152
:1032E000BA810E94A43920913A0130913B01ED81CD
:1032F000FE812E1B3F0B40E050E00E94E439690143
:103300007A0109C089819A81861B970B0E94BD3979
:103310006B01E12CF12C67B888E088B904B905B9D4
:103320008B2D0E949D0F9A878987882D0E94A10F5F
:103330009C838B838A2D0E94A10FAC0129853A853D
:103340002034364008F0D1C195B88B2D4E8B5F8B61
:103350000E949D0FBC0194B88B2D6C8B7D8B0E94BD
:103360009D0F9C0115B881E0288F3B8B0E946B0F4D
:1033700095B88B2D0E949D0F288D3B894E895F89C2
:103380006C897D892034364008F05AC081339141E0
:1033900008F456C089859A858A569F4F6817790721
:1033A00008F04EC085E080932701809162018F5F15
:1033B000809362018B819C81841B950B90935801B3
:1033C0008093570129853A85241B350B30935E0184
:1033D00020935D0114B815B8EE85E8B981E00E942C
:1033E0006B0F94B88B2D0E949D0F853F910508F0BF
:1033F0004FC204B9882D0E949D0F813D934008F46F
:1034000047C28B2D0E94A10F8D3D924008F440C20F
:1034100094B88B2D0E949D0F8D3D924008F438C2C8
:1034200095B881E00E946B0F15B88B2D0E949D0FFF
:10343000853F910508F02CC286E08093270128C2C1
:1034400004B905B981E00E946B0F19291B8314B9D7
:103450004B8145B98B2D0E949D0F8C0180913A01C3
:1034600090913B01801B910B998B888B882D0E943A
:10347000A10F9F878E87A0913A01B0913B01A81BB5
:10348000B90BBA87A9878A2D0E94A10F9C878B87C9
:10349000E985FA85EE3FF94008F4B2C083E08093F5
:1034A00027018CE080932601488959892416350626
:1034B00020F48A010219130902C008891989409071
:1034C000280150902901612C712C60E677EB87E48C
:1034D00090E0A30192010E94E439D8010E94A4392E
:1034E000A985BA859D0140E050E00E94E4398091B1
:1034F0006201882369F08091530190915401A09159
:103500005501B091560182179307A407B50710F52E
:103510002093530130935401409355015093560129
:103520008E859F85EB85FC858E1B9F0B90935801A4
:103530008093570128893989A0E1B7E20E948F3929
:10354000A30192010E94E43930935A01209359015A
:1035500021E001C020E08091530190915401A0919D
:103560005501B09156018C159D05AE05BF0528F596
:10357000C0925301D0925401E0925501F09256014D
:103580008D819E8129813A81821B930B90935801F2
:1035900080935701A0E1B7E20E948F392091210169
:1035A0003091220140E050E00E94E439205F384D24
:1035B00030935A012093590103C0222309F469C1B1
:1035C0009101A0E1B7E20E948F3920912101309151
:1035D000220140E050E00E94E43930935C012093E6
:1035E0005B012F813885A0E1B7E20E948F39A301EA
:1035F00092010E94E43930935E0120935D0148C13D
:1036000031E62316310408F070C0488959894934DD
:103610005D4008F46AC084E08093270182E08093D3
:1036200026018B859C8586509F4F8017910720F43B
:1036300083E08093260120C0AB85BC85A017B1072D
:10364000B8F4A0912801B09129019801EB85FC857F
:103650002E1B3F0B0E948F39A889B9899D0140E03C
:1036600050E00E94E439309358012093570104C080
:103670001092580110925701042D0770882D806414
:1036800080937C001BE0EE24E394F12CA89560E08D
:10369000872DF9D2BB81B4B9B5B986B18023E9F7DA
:1036A00094B880917A00806480937A0080917A0047
:1036B00086FDFCCF8091780090917900E80EF91E8C
:1036C000115021F7C701880F991F880F991F69E0D2
:1036D00070E00E94BD3970935E0160935D0180913E
:1036E00062018F5F80936201D3C088E087B988B997
:1036F00014B815B888E087B9E7EC2E16E1E03E066D
:1037000008F4ACC088B918EC0D85062907B981E02A
:103710000E946B0F67B88B2D0E94A10F429710F08B
:103720001150A1F7352C330C292D220F24B925B9BE
:1037300061E0872D288FA7D28B2D0E949D0F9A8341
:10374000898334B815B8FD85F7B948B860E0872D8E
:103750009AD2E0903A01F0903B018A2D0E949D0F91
:103760008C0154B88B2D0E949D0F6C018A2D0E94F4
:10377000A10FC81AD90A88E088B967B894B895B873
:1037800061E0872D80D28B2D0E949D0F4C018A2DE8
:103790000E94A10F881A990A288DC814D90438F4F8
:1037A00024B925B98B2D0E949D0F640118C0970183
:1037B000201B310B3A83298334B815B83D8537B9BE
:1037C00048B860E0872D5FD200913A0110913B012B
:1037D0008A2D0E949D0FA801481B590BCA01960112
:1037E0002759310929383141C8F58C159D05B0F5A7
:1037F00089819A8153E0969587955A95E1F7893C9E
:10380000910510F088EC90E029813A81820F931F96
:103810008C159D0518F5C60144E0969587954A9547
:10382000E1F782179307D0F480912701823018F4D2
:1038300082E08093270180912501E82FF0E0DF01ED
:10384000A256BE4FBC921696AC92EE0FFF1FE655E5
:10385000FE4FD182C0828F5F809325016A2D8B2D10
:1038600026D088E087B988B914B815B86A96E2E11D
:103870000C949C3A80917C018F5F80937C01222381
:1038800081F380927901A0927A01B0927B01E9CF15
:1038900021E0809162018F5F80936201222309F30E
:1038A00080925F01B0926001A0926101DACFA0E046
:1038B000B0E0EDE5FCE10C94823A982E862EA895B6
:1038C000E62FF0E0EE59FE4FB49033962491E82FA6
:1038D000F0E0EE59FE4FE4903396F49030917C0185
:1038E0008091620190E0830F911D892B09F0C6C180
:1038F000A89580913A0190913B01880F991F880FFC
:10390000991F90933B0180933A01809138019091E7
:103910003901880F991F880F991F9093390180935F
:1039200038018EEB8093360188E088B9286027B98A
:10393000E4B8E5B858E1D52EC0E0D0E0882D0E946B
:103940009D0F582E492E892D0E94A10F8C018C1B92
:103950009D0B97FF03C091958195910903972CF0DA
:10396000A895DA94D1F1E801E9CFEE0C15B8E4B8E6
:10397000892D0E949D0F8135910578F5E5B8892D37
:103980000E949D0FEC018F2D886087B9F8B815B89B
:10399000B4B888E1A82EC12CD12C892D0E949D0F8E
:1039A000782E692E882D0E94A10F7C018C199D090B
:1039B00097FF03C0919581959109039734F5BB0C4E
:1039C000B4B8882D0E949D0F5C01003C94E4190757
:1039D00008F5C53881E0D80708F180913A01909147
:1039E0003B01969587959695879590933B0180939B
:1039F0003A018091810190918201909339018093E5
:103A0000380189E18093360139C1A895AA9429F338
:103A10006701C3CFC03B9DE4D907F8F6C0903A01D7
:103A2000D0903B0184EAE81682E0F80608F05FC017
:103A300098E9A916B10488F29E01A8E9B7EB0E94A3
:103A40008F3996012C1B3D0B40E050E00E94E43979
:103A500029013A0196012A193B09A8E9B7EB0E940E
:103A60008F39850120E030E0A90198010E94E439F6
:103A7000C837DF4070F4C301B201B2E0660F771FB0
:103A8000881F991FBA95D1F7620F731F841F951F66
:103A900012C098E7A9169FE0B906A0F4CA01B901BF
:103AA000A2E0660F771F881F991FAA95D1F7640DB2
:103AB000751D861D971D25E030E040E050E00E9416
:103AC000E43908C0240D351D461D571D56954795F0
:103AD00037952795A4E6B0E00E94A4396B017C01DC
:103AE0008CEAC80E8DE0D81EE11CF11C70C0252D9B
:103AF000342D0217130708F49801C72DD62DCE15C3
:103B0000DF0508F4E70159012017310708F45801CF
:103B1000A0912801B0912901C501821B930B9C0142
:103B20000E948F3996012A193B0940E050E00E941B
:103B3000E43929013A018E01EC16FD0608F48701EB
:103B4000A0912101B09122019E01201B310B0E9406
:103B50008F396801E12CF12CA70196010E94E4390C
:103B600098E7A9169FE0B90670F4C301B201E2E03C
:103B7000660F771F881F991FEA95D1F7620F731F91
:103B8000841F951F11C008378FE01807B0F4CA01D1
:103B9000B90152E0660F771F881F991F5A95D1F718
:103BA000640D751D861D971D25E030E040E050E056
:103BB0000E94E43969017A010AC069017A01C40CE2
:103BC000D51CE61CF71CF694E794D794C794109183
:103BD0002701133008F001CF9A94980C892D90E0BA
:103BE000EC01C959DE4F2881880F991F880F991F52
:103BF000FC01EA54FE4F2223D1F1408051806280C3
:103C00007380A7019601241935094609570957FF02
:103C100007C050954095309521953F4F4F4F5F4FCE
:103C2000AAE0B0E00E94A439A30192012C593F4FB1
:103C30004F4F5F4F2C0D3D1D4E1D5F1D0E94E439FF
:103C4000232B242B252B09F0C8CE123019F081E04C
:103C50008093270182E0888380918301E82FF0E040
:103C6000E659FE4F90828F5F80938301B6CEC0826B
:103C7000D182E282F38281E08883AFCECDB7DEB716
:103C8000E0E10C949E3ACF93C82FC09595B160FFA8
:103C900002C0982B01C09C2395B994B1982B94B97C
:103CA00082E00E946B0F84B18C2384B985B18C2390
:103CB00085B9CF910895A0E0B0E0E1E6FEE10C9473
:103CC000893A8AE0C82E98E0D92E2FE3B22ED7B8D1
:103CD000D8B815B8B4B880E00E949D0F8C0181E07F
:103CE0000E94A10FEC0182E00E94A10F2091270108
:103CF000283081F428E027B914B810930701009305
:103D00000601D0930901C093080190930B018093A1
:103D10000A0159C031E0C430D10508F030E021E09B
:103D20000430110508F020E0232319F084309105B8
:103D300008F3083E134010F028E001C029E0C83E17
:103D4000D34008F42260883E934008F4246027B9E9
:103D5000C0E0D0E0A89580E00E94950F7C0181E052
:103D60000E94A10F8C0182E00E94A10F24E1E216C3
:103D700025E0F20608F4389A043135E0130708F418
:103D8000399A843125E0920708F43A9A36E0E3162E
:103D9000F10428F40630110510F4069738F0219646
:103DA000C43F81E0D807B1F6D092270100E010E0CF
:103DB0000C171D0729F00E945A0F0F5F1F4FF8CFF5
:103DC000CA9409F084CFCDB7DEB7E9E00C94A53AE8
:103DD000CF92DF92EF92FF92CF93209188013091A2
:103DE000890140918A0150918B01C0919A018AE02A
:103DF000C82ED12CE12CF12C8C2FCF5F213A96E8E4
:103E0000390791E04907510538F0CA01B901A70106
:103E100096010E94E439F0CF80939A01A0913A0173
:103E2000B0913B010E94A43928E833E140E050E022
:103E30000E94E439209388013093890140938A01DC
:103E400050938B01CF91FF90EF90DF90CF9008952A
:103E5000A0E0B0E0EEE2FFE10C94883AC82FD62F44
:103E60008FEF860F9C2F990F9C0F890F8093640111
:103E7000EC2FF0E0EE59FE4F1491862F90E0FC01FC
:103E8000EE59FE4FF490FC01EB59FE4F04918091E6
:103E90002701813009F489C28091250124EA31E0AB
:103EA0006AEA71E0D9019A2F921B9817A0F49D91AC
:103EB0009D130EC0AD0147505109FA0190819C132A
:103EC00007C0FB01408151814C3D554008F46DC253
:103ED0006E5F7F4FE8CF08601092950110929401B9
:103EE000109288011092890110928A0110928B0120
:103EF00010929A01E0DE88E088B907B9F4B8F5B805
:103F00008C2F0E94A10F6C018D2F0E94A10FC81A47
:103F1000D90A14B81092660110926501E12CF12CB7
:103F20002091650130916601243F314050F515B96B
:103F300014B90E94550F14B815B80E945B0FA895CC
:103F40008C2F0E94A10F7C01EC18FD0820916501C7
:103F5000309166012E37310528F02BE4E216F1048A
:103F60000CF41EC28DE2E81681E0F80684F480911C
:103F700065019091660101969093660180936501B9
:103F8000CFCFEDE2EE16E1E0FE060CF409C220917F
:103F9000650130916601232B21F0C70100E010E09C
:103FA00006C0F5E1EF16F5E0FF06BCF375C0209101
:103FB0006501309166012017310758F00E94560FB5
:103FC0008C2F0E94A10F8C199D09A8950F5F1F4F80
:103FD000EECF8701081B190B1016110694F4093C4B
:103FE00011050CF0DDC128EE33E0D8010E949E39A6
:103FF0009701442737FD4095542F0E94E439690109
:1040000002C0C12CD12CA0906501B09066012FEFA9
:10401000A21AB20AC501A0E0B0E08093900190938B
:104020009101A0939201B0939301C701800F911F5A
:1040300009D29C01D5010E948F3960939001709341
:104040009101809392019093930160938801709302
:10405000890180938A0190938B0187EF80939A0165
:10406000B7DE209188013091890140918A015091F9
:104070008B01A8EEB3E00E94A43924E630E040E0D2
:1040800050E00E94E43920938801309389014093E5
:104090008A0150938B0142C10EDE15B88FE087B9BB
:1040A00088E088B9F12EFF0CF4B880E480937B009F
:1040B00084E580BF8C2F806480937C0086E18093B0
:1040C0007A000E945E0F10926601109265011092B4
:1040D0008000109285001092840087E286BB81E206
:1040E00080936F0091E090938501F5B8809127014E
:1040F00090938100843059F481E090E00C2E01C04F
:10410000880F0A94EAF780958F7087B901C007B9C4
:10411000F89483B7817F83BF80918501882389F0DC
:1041200083B7816083BF7894889583B78E7F83BF80
:10413000F894A8958091650190916601803496402D
:1041400059F7789410928100E0908600F0908700F3
:1041500010926F0086E980937A0014B815B88C2FFE
:104160000E94A10F20913E0130913F01821B930BD1
:104170000C9690939D0180939C0180916501909194
:1041800066018032934008F00BC1809165019091E7
:1041900066019093930180939201F0929101E092D5
:1041A000900184EF80939A0180916501909166015E
:1041B00082349105C8F060919001709191018091D5
:1041C00092019091930124E630E040E050E00E949B
:1041D000E4392093900130939101409392015093E0
:1041E000930186EF80939A01A0918601B091870197
:1041F0002091900130919101409192015091930151
:104200000E94A43920E233E040E050E00E94E4390B
:104210002093900130939101409392015093930128
:10422000209388013093890140938A0150938B0138
:10423000CFDD80919A01843F09F060C0C090880171
:10424000D0908901E0908A01F0908B0120EAC2169B
:104250002FE0D206E104F104C0F4A70196012C542A
:104260003F4F4F4F5F4F60EA7FE080E090E00E9459
:10427000E4392C0D3D1D4E1D5F1D209388013093A8
:10428000890140938A0150938B018091640190E0F1
:104290008C5F9F4F0E94163BC0908801D09089018F
:1042A000E0908A01F0908B01482F50E060E070E0D0
:1042B0004C155D056E057F0568F4C41AD50AE60A3B
:1042C000F70AC0928801D0928901E0928A01F092A7
:1042D0008B0114C084E1C80ED11CE11CF11CC41672
:1042E000D506E606F70610F40E94A4151092880180
:1042F0001092890110928A0110928B0114B9809159
:10430000880190918901A0918A01B0918B01499710
:10431000A105B10508F444C0C12CD12C8091250120
:10432000882321F0809127018430D1F587E08093A4
:10433000270120919A0180919B018217BCF02813DC
:104340002FC0409188015091890160918A0170913C
:104350008B0180918C0190918D01A0918E01B09183
:104360008F0184179507A607B707D0F480918801BD
:1043700090918901A0918A01B0918B0180938C0169
:1043800090938D01A0938E01B0938F0120939B0198
:10439000D0929701C0929601D0939801C093990151
:1043A00088E087B988B914B815B8CDB7DEB7EAE0A8
:1043B0000C94A43A1F920F920FB60F9211248F9370
:1043C0009F93B59904C080918501811109C0B59B67
:1043D00010C080918600909187008A3F910548F433
:1043E000809165019091660101969093660180939A
:1043F00065019F918F910F900FBE0F901F901895A0
:104400001F920F920FB60F9211248F939F931092C9
:104410008501B09B10C080918600909187008A3FF3
:10442000910548F480916501909166010196909301
:104430006601809365019F918F910F900FBE0F9041
:104440001F9018950F9221E08C32920710F48CE2A5
:1044500091E08C52914069E170E00E94BD3999E190
:104460006B3210F0982F6BE2981BEAE6F5E0E60F4E
:10447000F11DE60FF11D4591559125913591692F5B
:10448000421B530B649FC001659F900D11240C9635
:1044900069E170E00E94BD39620F731FCB010F907C
:1044A0000895A0E0B0E0E7E5F2E20C94863A88E8EF
:1044B00093E190933B0180933A018EEB8093360118
:1044C000C8E0C8B988E187B90E94630FC7B984E022
:1044D0000E949D0FAC018B5C9840833F9140A0F4FB
:1044E00081E080934F0120913A0130913B01AFEB85
:1044F000B9E00E948F399A0140E050E00E94E4390F
:1045000030933B0120933A018EE00E94A10F8EE090
:104510000E949D0F90933F0180933E010E94D61010
:10452000D9E0D7B9C1E0C5B9C4B980E00E949D0FF8
:104530007C010AE007B914E015B914B981E00E94C2
:104540009D0FE80EF91E8CE0882E87B890E1992E19
:1045500095B894B882E00E949D0FE80EF91E15B838
:10456000D8B9D7B9C4B9C0913A01D0913B0180E024
:104570000E949D0F5C0108B907B914B900913A0176
:1045800010913B0181E00E949D0F6C0188B887B8B3
:1045900094B880903A0190903B0182E00E949D0F78
:1045A000C00FD11FC80DD91DCA19DB09CC19DD09EF
:1045B000C81BD90B80913A0190913B014C01880CAA
:1045C000991C880E991E8E189F088C1A9D0AA12C82
:1045D000B12C9701A0E9BAE10E948F39A50194019D
:1045E0000E94E43969017A0130934E0120934D0114
:1045F0009E01A0E9BAE10E948F39A50194010E94B1
:10460000E43930933D0120933C012057354E3093DF
:1046100029012093280180E7C81A85EED80AD09294
:104620002201C092210189E180933601CDB7DEB726
:10463000ECE00C94A23AA3E1B0E0E1E2F3E20C94E6
:10464000803A1092020180912701813009F023C243
:1046500080918301813009F01EC220906A0124E01C
:10466000229EF0011124EA54FE4F80819181A281A3
:10467000B381893032E59307A105B10508F00BC27B
:104680009B8B8A8B312C61E0822D631528F00E9470
:10469000AB0CB82EA92E03C00E94AB0C5C01EA2D16
:1046A000F0E0EB59FE4F74908B2D90E0FC01EE5939
:1046B000FE4FE49115B828E028B92A893B89203FAC
:1046C0003105A8F430FC13C00091210110912201A2
:1046D00000591A4121E030E00B2C02C0220F331F99
:1046E0000A94E2F7C9018860872987B908C0E4B94C
:1046F000872D886087B9009121011091220144E142
:10470000642E8B2D0E94990F4C018A2D0E94A10FBF
:1047100034E08316910410F4049710F06A9489F73A
:1047200060E460937B0084E580BF8B2D8064809380
:104730007C0086E180937A00E12CF12C10928000BD
:10474000109285001092840087E286BB0E945E0F63
:10475000932D9170998B30FC05C081E88093810086
:1047600078B808C078B80E94670F80E286BB81E8FD
:104770008093810046B345FF13C028E028B910920A
:10478000810080E286BB80918600909187006C0159
:1047900020918400309185008217930768F013C040
:1047A00040FFE8CF31E036BBA895C70101967C01F8
:1047B00080359105F9F6E1CF40FF05C061E066BBA9
:1047C0008FEFE81AF80A86E980937A0034E1732EB5
:1047D0008B2D0E94990F4C018A2D0E94A10F24E07D
:1047E0008216910410F4049710F07A9489F780905F
:1047F0004D0190904E018A899B89880E991E800EEA
:10480000911E209123013091240100399AE119076A
:10481000B0F461EEC616D104E104F10438F4C60127
:1048200065E070E00E94BD39645101C069E1285221
:104830003109261B310967FD339586E009C0C401A3
:1048400060EB76E30E94BD3987E0860F285D3F4F1D
:1048500090E0A0E0B0E08C159D05AE05BF0528F402
:10486000C81AD90AEA0AFB0A03C0C12CD12C760166
:104870008989882329F092E2C90ED11CE11CF11C20
:1048800060E5E616F10418F0C12CD12C76018BE01E
:10489000C816D104E104F10428F091E0C91AD10846
:1048A000E108F10840913A0150913B01A12CB12C53
:1048B000A8EEB3E00E948F392B013C019801DA0188
:1048C0000E948F39A50194010E94E439442755279D
:1048D000C301B2010E94E439C9010E942E11FC01FA
:1048E000A5019401C701B6010E94AE394B015C01DC
:1048F000BF0180E090E023E0660F771F881F991FBB
:104900002A95D1F76B5F7F4F8F4F9F4F2AE030E0A2
:1049100040E050E00E94E439C501B4010E94E4394E
:10492000832D90E0E1E0F0E0EC0FFD1F64E0369EA7
:10493000E00DF11D11242083318342835383698963
:10494000611117C06CE0C616D104E104F10488F0CF
:10495000FC013196EE0FFF1FEE0FFF1F81E090E08C
:104960008C0F9D1FE80FF91F2083318342835383EF
:104970003394A895339493E0931508F084CE88E09F
:1049800088B984E00E946B0F21E04D815E816F81C8
:10499000788589819A81AB81BC8184179507A607A8
:1049A000B70708F020E04D855E856F857889898599
:1049B0009A85AB85BC8584179507A607B70710F0C5
:1049C00032E001C033E0E22FF0E0EE0FFF1FEE0F08
:1049D000FF1F81E090E08C0F9D1FE80FF91FDC01A5
:1049E00094E0399FA00DB11D11244D915D916D9101
:1049F0007C9180819181A281B381481759076A0710
:104A00007B0708F0322FE1E0F0E0EC0FFD1F24E01F
:104A1000329FE00DF11D112480819181A281B3812B
:104A200080930C0190930D01A0930E01B0930F01A0
:104A300030FD09C02A893B89203F310520F48BEFE6
:104A40008093020117C02CEF20930201BC01CD011D
:104A50006B5F7F4F8F4F9F4F2AE030E040E050E088
:104A60000E94E43920930C0130930D0140930E0114
:104A700050930F0180910C0190910D01A0910E01B6
:104A8000B0910F01892B8A2B8B2B11F4109202010C
:104A900088E087B914B86396E2E10C949C3A2F92AF
:104AA0003F924F925F926F927F928F929F92AF92BE
:104AB000BF92CF92DF92EF92FF920F931F93DF93FB
:104AC000CF93CDB7DEB76E970FB6F894DEBF0FBEAB
:104AD000CDBF662EB82E860F8983209127012730FF
:104AE00041F520918C0130918D0140918E015091C2
:104AF0008F0110919B0109C0CA01B9012AE0312D33
:104B0000412D512D0E94E4391F5F173FACF32A3528
:104B100060E036074105510518F48FEF9FEF81C122
:104B2000173F39F480E028178DE738074105410524
:104B300010F020E03DE72C8B3D8B26EDA22E02C02D
:104B400094EDA92EE5E6F1E0E60DF11D8591886072
:104B50008E87E5E6F1E0EB0DF11D859188608F878A
:104B6000E2E6F1E0E60DF11D7590E2E6F1E0EB0D15
:104B7000F11DC59090EC692AB92A81E0E82EF12C4C
:104B8000012D112D8E831F82188619861A861B8689
:104B90001C861D86188E198E1B8E1A8E8CD888E066
:104BA00088B960927C000E945F0F3F8537B975B865
:104BB00074B80E94660F14B815B8DD24B4ED9B2EAE
:104BC000A6ED8A2E3E8537B975B874B860927C0020
:104BD000A895A0927A0080917A0086FDFCCFA092E1
:104BE0007A0080917A0086FDFCCF2090780030908A
:104BF0007900B0927C00A0927A0080917A0086FDC4
:104C0000FCCF80927A000E94640F0E94660FC5B8A4
:104C1000C4B80E94650F0E94670FA895A895A89533
:104C2000A89514B815B880917A0086FDFCCF209124
:104C3000780030917900288B398B3F8537B9C5B81A
:104C4000C4B8A895B0927C00A0927A0080917A00B6
:104C500086FDFCCFA0927A0080917A0086FDFCCF81
:104C6000609178007091790060927C00A0927A0047
:104C700080917A0086FDFCCF80927A000E94640FBA
:104C80000E94660F75B874B80E94650F0E94670F86
:104C9000A895A895A895A89514B815B880917A00FC
:104CA00086FDFCCF409178005091790014B8CB017B
:104CB000820D931DE80EF91E011D111DEA82FB8273
:104CC0000C831D8388899989840F951F2E813F81CC
:104CD00068857985280F391F611D711D2E833F83DB
:104CE0006887798722E32417150650F075B874B8E1
:104CF0000E94690F14B815B8888D8395888F07C0F6
:104D0000483E73E0570718F08A8D83958A8F88890B
:104D100099892817190660F03E8537B9C5B8C4B817
:104D20000E94690F14B815B8898D8395898F07C0C3
:104D3000883E73E0970718F08B8D83958B8FD39403
:104D40005D2D5F3F09F03ECF40904D0150904E01E8
:104D5000440C551C9201E4E0240D351DEA95E1F761
:104D60002901570168016E807F8088849984209191
:104D700027012730C1F46C897D89812D912D6C53D9
:104D80007040804090409B01AC010E94AE399B0175
:104D9000AC016FEF71EC8EE390E00E94E439621A8F
:104DA000730A840A950AA614B704C804D90428F41F
:104DB0006A187B088C089D0803C066247724430189
:104DC000B20180E090E09301A4010E94AE39950108
:104DD000A6010E94E43980E090E07981870F911D5F
:104DE0000E94163B90E0682EC90160E170E00E94CD
:104DF000BD39260F371FC9016816190618F4861920
:104E000091090FC08C5E9F4F8615910540F48C89E7
:104E10009D89843981E1980710F00E94A415812DA5
:104E2000912D6E960FB6F894DEBF0FBECDBFCF9119
:104E3000DF911F910F91FF90EF90DF90CF90BF9087
:104E4000AF909F908F907F906F905F904F903F902A
:104E50002F900895A0E0B0E0E0E3F7E20C94863AEA
:104E60008091960190919701892B09F09DC0E09166
:104E70009801F0E0EB59FE4FC491C860E0919901B0
:104E8000F0E0EE59FE4F14910E945B1E88E088B955
:104E900015B8C7B914B9809199010E94A10FEC010E
:104EA00000919B01083F0CF07FC0045FC0908C0113
:104EB000D0908D01E0908E01F0908F018AE0882ED5
:104EC000912CA12CB12C043070F4C701B6016B5F9A
:104ED0007F4F8F4F9F4FA50194010E94E4390F5FD0
:104EE00069017A01F0CFD701C6010197A109B10983
:104EF00088389341A105B10508F056C015B914B919
:104F0000A12CB12CAC14BD0430F40E94650F82E0DA
:104F1000A80EB11CF7CF14B815B8A89585E08093FA
:104F20003601809199010E94A10FC817D90720F47A
:104F30005C01AC1ABD0A02C0A12CB12C812C912CB1
:104F40008C149D0430F40E94650F2FEF821A920A90
:104F5000F7CF809199010E94A10F29E1209336019A
:104F6000A895C817D90718F48C1B9D0B02C080E0C8
:104F700090E08A159B0588F49501281B390B69F090
:104F8000A4EFB1E00E948F39950140E050E00E940B
:104F9000E43930939701209396010E945B1E88E0CC
:104FA00087B988B914B815B8CDB7DEB7ECE00C9462
:104FB000A23AA5E0B0E0EFEDF7E20C94803A8FE47E
:104FC00094E009D620EF2A8354980E945A0F14BC0B
:104FD00016BC109214011092150110921601109235
:104FE000170131E035BB30936E001092800083E1F1
:104FF0009AE79093890080938800E1E0F0E0F093D5
:105000008B00E0938A00109285001092840083B593
:10501000816083BDF6E0F6BBF0936F00789424E0E6
:105020002093810012E319820E94540FA8954F9992
:1050300002C031E0398385B581112CC015BC86B51D
:10504000809314010E944D0A0E94FF0B0E94580A8F
:105050000E94FF0B0E94040C86E60E94A80B0E948F
:10506000070C6091140170911501809116019091C7
:10507000170107E028E440E00E94230D8AE70E9420
:10508000A80B549880918100882339F08FE30E9407
:10509000A80B03C0115041F6D1CF1092810010929D
:1050A0006F0020911401309115014091160150912B
:1050B0001701DA01C9010197A109B109893D91469A
:1050C000A105B10508F029C1AAE0B0E00E94A43909
:1050D000685F7F4F8F4F9F4F23E096958795779519
:1050E00067952A95D1F7660F771F70937E016093BD
:1050F0007D0154980E945A0F16BC10921401109210
:105100001501109216011092170181E085BB809362
:105110006E001092800110927F0194E09BBB809101
:105120006800846080936800789480916D0080614D
:1051300080936D001D820E94540FA8954F9902C064
:10514000E1E0E98380916D0084FF05C0FD81FF5F90
:10515000FD83FA3F81F715BC80916D008F7E8093AF
:105160006D00809168008B7F8093680086B5809386
:1051700014010E944D0A84E50E94A80B0E94070CAE
:105180008091140190911501A0911601B091170121
:1051900020917D0130917E013C832B831C012D01E8
:1051A0009C01A20160E070E080E090E003E00E94DA
:1051B000BD3A51016201E12CF12C00E010E00E94A7
:1051C000D63A59016A017B01E82F192F03E00E94AA
:1051D000BD3A0E2F0E94D63A03E00E94BD3A51011B
:1051E0006201E12CF12C00E010E00E94D63A02E0CE
:1051F0000E94BD3A00E00E94D63A01E00E94BD3A0A
:1052000000E00E94D63A03E00E94BD3AEB81FC81A7
:105210005F01C12CD12C00E00E941C3A39014A01E7
:105220001B012C012B813C812038310530F007E037
:1052300023E745EFB301C40116C084E6A82EB12CC4
:10524000C12CD12CE12CF12C00E010E09301C20123
:105250000E941C3AE22FF42F07E023E747EF6E2F5E
:10526000732F8F2F952F0E94230D3D813A3F21F4FC
:105270008FE30E94A80B51C09301A401B101C201A8
:105280002C393E4C4340510561057105810591055E
:1052900009F008F442C00E94580A86E60E94A80B52
:1052A0000E94070C9301A401B101C20153016401E2
:1052B0007101820121153A4C4A495B436105710530
:1052C0008105910589F080F020E030E04AE85DE555
:1052D00068E775E483E691E00E941C3AE22FF42F20
:1052E00007E028E44AEF0FC020E030E846EC54EA3B
:1052F0006EE77DE883E090E00E941C3AE22FF42FF5
:1053000007E028E44CEF6E2F732F8F2F952F0E940C
:10531000230D8AE70E94A80B549810926E0080ED2E
:1053200097E00E9447102981820F49F48091200163
:10533000833028F43A8131503A83311145CE259695
:10534000E2E10C949C3A1F920F920FB60F92112437
:105350008F939F93AF93BF93789480911401909112
:105360001501A0911601B09117019F5FAF4FBF4F7C
:105370008093140190931501A0931601B093170127
:10538000BF91AF919F918F910F900FBE0F901F9083
:1053900018951F920F920FB60F9211248F9386E0EB
:1053A00085BD8F910F900FBE0F901F9018951F9283
:1053B0000F920FB60F921124A8951092810015BC80
:1053C0000F900FBE0F901F9018951F920F920FB65F
:1053D0000F9211242F933F938F939F9380917F017E
:1053E00090918001892B11F481E085BD20917F018E
:1053F0003091800180917D0190917E0128173907BD
:1054000030F015BC80916D008F7E80936D0080918F
:105410007F019091800101969093800180937F019C
:105420009F918F913F912F910F900FBE0F901F90E2
:1054300018958B3008F08B50811103C089E594E0FA
:1054400031C0813019F48FE494E02CC0823019F41B
:1054500086E294E027C0833019F48BE194E022C007
:10546000843019F488EC91E01DC0853019F48DEB7F
:1054700091E018C0863019F481EB91E013C08730B9
:1054800019F48CE094E00EC0883019F48DEF93E0AD
:1054900009C0893019F48DE394E004C08A3021F406
:1054A00082E394E00C94140C08950F93CF9388EC4E
:1054B00091E091D3C0E01092270160E082E0A7D391
:1054C000809127018730C1F50E94010C83E40E947E
:1054D000A80B0E94070C60918C0170918D01809146
:1054E0008E0190918F0103E026E440919B010E9480
:1054F000230D6091980180919901D1DA90939501E3
:10550000809394010E94040C8CE793E00E94140C99
:1055100060919401709195016A3F8FEF780740F494
:1055200080E090E002E024E04EEF0E94230D0CC0EA
:105530008FE30E94A80B08C00E94010C88EC91E048
:105540000E94140C0E94040C8C2FCFD688EE93E09E
:105550000E94471081110DC080912001843048F4D1
:1055600080914001813009F4C0E0CF5FCA3F08F468
:10557000A2CFCF910F91089508950F93843108F031
:105580008451833189F489E08093810081E090E047
:10559000909389008093880007E028E44DEF60E055
:1055A00074E985E397E748C1823189F489E0809303
:1055B000810083E090E0909389008093880007E069
:1055C00028E44DEF60E07AEC8AE99BE335C1813154
:1055D00069F489E08093810087E090E090938900EE
:1055E0008093880007E028E44DEF6CC0803169F4B7
:1055F00089E0809381008FE090E090938900809310
:10560000880007E028E44DEF6FC08F3089F489E00F
:105610008093810089E190E09093890080938800D5
:1056200007E028E44DEF6AE871E88BE299E004C1F5
:105630008E3069F489E08093810087E290E0909356
:1056400089008093880007E028E44DEF60C08D302A
:1056500069F489E0809381008FE490E09093890061
:105660008093880007E028E44CEF2CC08C3069F46C
:1056700089E0809381008FE990E090938900809386
:10568000880007E028E44CEF2FC08B3069F489E0F4
:10569000809381008FE891E0909389008093880047
:1056A00007E028E44CEF33C08A3089F489E0809326
:1056B00081008FE193E0909389008093880007E058
:1056C00028E44BEF60E075E68DEC9DE1B5C08930D4
:1056D00081F4809381008FE396E09093890080931A
:1056E000880007E028E44BEF60E872EB86EE9EE06E
:1056F000A3C0883089F489E0809381008FE99FE01E
:10570000909389008093880007E028E44BEF60E0E5
:1057100071EE85EF95E090C0873089F489E0809341
:10572000810084E493E2909389008093880007E0ED
:1057300028E44BEF6FE77DEF83EA92E07DC086308F
:1057400089F489E08093810089E593E29093890050
:105750008093880007E028E44BEF6FEE7BE682EA57
:1057600092E06AC0853089F489E08093810082E804
:1057700093E2909389008093880007E028E44BEF40
:1057800068E471E68FE992E057C0843089F489E0DB
:10579000809381008FE79EE3909389008093880037
:1057A00007E028E44BEF60E478E78DE791E044C040
:1057B000833069F48BE08093810080E792E09093DE
:1057C00089008093880007E028E44AEFA0CF823068
:1057D00071F481EE94E0909389008093880007E053
:1057E00028E44AEF60E870EF8AEF92E025C081304C
:1057F00089F48BE08093810089E698E19093890099
:105800008093880007E028E44AEF60E876E988E9B9
:1058100090E012C0811112C08CE08093810088E07A
:105820009DE3909389008093880007E028E44AEF85
:1058300060E472E48FE090E00E94230D8AE70E940A
:10584000A80B0F910895A0E0B0E0E9E2FCE20C940F
:105850008B3A86E294E0BFD180E180938000109281
:105860006F0081E090E0909389008093880010920F
:105870008B0010928A0083E086BB1092820088E041
:105880008093810015B891E194B988B989E087B90E
:10589000229A8093810000E020E0D12C12E1CEE139
:1058A000D0E0802F90E00A96BE010E94D139F62EFA
:1058B000621771F00E94010C86E294E00E94140CC1
:1058C000E12CEF1430F48EE20E94A80BE394F9CFA0
:1058D000F22ED11609F1143108F014510E94040C73
:1058E0000E94EC0B83E1810F48DE0E94580A0E945F
:1058F000FF0B0E94580A0E94EC0B81E0810F3DDEF5
:105900000E944D0A0E94FF0B0E944D0A8EE30E94E6
:10591000A80B812F32DED12E88EE93E00E94471033
:1059200090912001811102C0992319F000E09B3071
:10593000A0F490911F0197FD9C5E190F853118F01E
:105940001F5F803550F480914001813009F400E000
:105950000F5F003F10F42F2DA4CF10928100109202
:10596000800088E087B914B82298CDB7DEB7E7E0A9
:105970000C94A73AA4E0B0E0E0ECFCE20C94843A8A
:105980008BE194E028D183E28093800010926F0035
:1059900081E090E090938900809388008FEF90E001
:1059A00090938B0080938A0083E086BB10928200E4
:1059B00015B881E184B988E088B989E087B9229A6D
:1059C00080938100612C00E08AE0782E10E094E65C
:1059D000C92ED12CE12CF12C88248A9423E0922E1C
:1059E000A12CB12C7016D1F183E6871510F4ECE9E7
:1059F0007E0E272D30E0AFEFB3E00E948F396E5C52
:105A00007F4F8F4F9F4FA70196010E94E43930933B
:105A10008B0020938A0029833A834B835C830E9406
:105A2000040CA8EEB3E029813A814B815C810E948D
:105A3000A43961507E4F8F4F9F4FA50194010E9462
:105A4000E439CA01B90105E025E24FEF0E94230DB8
:105A5000193218F08CE30E946B0F072D80E496E05A
:105A60000E944710182F8338E0F4909120019B305A
:105A7000C0F480911F0187FD8C59780E133318F004
:105A8000FAE07F0E03C01123C1F07394612C809162
:105A90004001813009F4612C63948FEE861508F083
:105AA000A1CF88E087B9109281001092800014B8CD
:105AB00022982496EEE00C94A03A9111E7CFE7CF1C
:105AC000CF93DF93D0E0C0E084E694E084D00E94DE
:105AD000040C0E94EC0B8AE08C0FABDC0E944D0A98
:105AE0000E94FF0B0E944D0A8EE30E94A80B8C2F90
:105AF000A0DC0E94580A0E94FF0B0E94580A0E94D4
:105B0000EC0B81E08C0F95DC80E49FE10E94471054
:105B10008111D0E090914001913009F4D0E08233BE
:105B200038F490918401992309F438C08823B1F1A5
:105B3000CC2309F44DC0C13019F480E03ADA29C011
:105B4000C23011F480DE25C0C33011F413DF21C050
:105B5000C43011F4AADC1DC0C53011F4CDD319C076
:105B6000C63011F43AD415C0C73011F487D111C032
:105B7000C83021F481E10E94C7110BC0C93011F473
:105B8000D2D207C0CA3029F45E9880E090E00E942B
:105B900047101092200110921F0180E09091200187
:105BA0009A30B0F490911F01992319F097FD03C02A
:105BB000D0E0C90F03C0955FC90FD0E08111CF5F5E
:105BC000DF5FDE3628F4CB3008F47ECFCB507CCFBD
:105BD000DF91CF910895A2E0B0E0E1EFFDE20C94F7
:105BE0008F3A89839A830E94A50A89819A810E94AB
:105BF000140C14E682E00E946B0F4F9902C0115002
:105C0000C9F70E94420A2296E3E00C94AB3AA0E066
:105C1000B0E0EDE0FEE20C94873AC82FD62F8FEF6C
:105C2000860F9C2F990F9C0F890F80936401862FFC
:105C300090E0FC01EB59FE4F14911860EC2FF0E05E
:105C4000EE59FE4FB490FC01EE59FE4F04911092B4
:105C5000950110929401109288011092890110927E
:105C60008A0110928B0187EF80939A010E945B1E3C
:105C700088E088B917B904B905B98C2F0E94A10F23
:105C80008C018D2F0E94A10F081B190B14B81092C4
:105C900066011092650120E030E09CE2E92EFF24CD
:105CA000F3944AE0A42E54E6952E809165019091DC
:105CB0006601843D904308F069C0B5B880916501E4
:105CC00090916601892B89F06701C21AD30A60910D
:105CD000650170916601A29EC001A39E900D1124E2
:105CE0000E94BD39C616D70650F4B4B80E945E0FA4
:105CF00014B88091650190916601019628C0809149
:105D00006501909166010B97C8F0609165017091F3
:105D10006601929EC001939E900D11240E94BD3990
:105D20006C157D0558F4B4B80E94540F14B88091D6
:105D30006501909166018C599F4F09C0B4B80E94CB
:105D4000590F14B880916501909166010A9690935D
:105D500066018093650115B80E94600FA8958C2F8D
:105D60000E94A10F9C01201B310B80916501909135
:105D700066018B31964020F0253231050CF474C059
:105D80002D3281E038070CF490CF05C02D3281E030
:105D900038070CF469C08091650190916601019704
:105DA00029F4253145E034070CF05EC0009165010F
:105DB00010916601000F111FA80160E070E0409390
:105DC0009001509391016093920170939301C901E6
:105DD00068E270E00E94D139C901860F971F0E94C6
:105DE00022229C01D8010E948F3960939001709308
:105DF0009101809392019093930160938801709335
:105E0000890180938A0190938B010E94E81E609122
:105E100088017091890180918A0190918B012AE01B
:105E200030E040E050E00E94E43920938801309354
:105E3000890140938A0150938B0187E08093270169
:105E400020938C0130938D0140938E0150938F01EC
:105E500080919A0180939B01109297011092960174
:105E6000D0939801C093990188E087B988B914B894
:105E700015B8CDB7DEB7EBE00C94A33AA8E1B0E0DB
:105E8000E4E4FFE20C94863A8CE094E0A4DE0E9405
:105E9000420A86E094E00E94140CDE015196CE0185
:105EA0000996AE014F5F5F4F9E01275E3F4FF42E74
:105EB000E52E1D921D92FC0111921192CF01FA0163
:105EC00011921192AF01A217B30799F785E185B935
:105ED00084B900E010E0812C48E0D42E59E0C52EB2
:105EE0006AE0B62E7CE0A72ED8B8C7B80E94680F2B
:105EF00086B181FB992490F882FF02C09394939419
:105F00000115110589F0981469F0EF2DFE2DE90DAA
:105F1000F11DE90DF11D808591850196918780879E
:105F2000982C02C034E0932EB7B80E94680F96B147
:105F3000892F817092FD8E5FF4E09F120BC0EF2DD0
:105F4000FE2DE80FF11DE80FF11D80899189019662
:105F5000918B808BA7B80E94680F96B1892F8170B2
:105F600091FD8E5F94E099120BC0EF2DFE2DE80F8E
:105F7000F11DE80FF11D808191810196918380834D
:105F8000A8950E945A0F4F9905C015B814B888E01B
:105F900087B9C5C049895A894531510508F16B89CE
:105FA0007C8965317105E0F02D893E892531310507
:105FB000B8F08F89988D8531910590F0260F371FA5
:105FC00011E02417350708F010E0FF24F394281798
:105FD000390708F0F12CCC24C39422E0E22E4CC007
:105FE00049855A854531510510F16B857C856531B0
:105FF0007105E8F02D853E8525313105C0F08F858E
:1060000098898531910598F0260F371F11E02417E4
:10601000350708F010E0FF24F3942817390708F03B
:10602000F12CC12C92E0E92EDD24D39430C04981BB
:106030005A814531510510F16B817C8165317105C3
:10604000E8F02D813E8125313105C0F08F819885A2
:106050008531910598F0260F371F11E02417350779
:1060600008F010E0FF24F3942817390708F0F12C0A
:1060700082E0C82EEE24E394D12C09C00F5F1F4F9D
:106080000931E6EF1E0709F44AC0892C2DCF0E9482
:10609000040C00E00E94420A8D2D0E94EA0B8DE262
:1060A0000E94A80B00FD02C08DE201C08FE20E9499
:1060B000A80B8DE20E94A80B8C2D0E94EA0B8DE2AA
:1060C0000E94A80B01FD02C08DE201C08FE20E9478
:1060D000A80B8DE20E94A80B8E2D0E94EA0B0E9455
:1060E000EC0B802F837021F4112361F083E405C051
:1060F000833041F4FF2031F08FE60E94A80B80ED41
:1061000097E004C00E94EC0B80E991E00E944710E8
:1061100081113BCF0F5F083709F0BCCF36CF6896AF
:10612000ECE00C94A23A0F930E94A50A86E392E059
:106130000E94140C0E94420A82EF91E00E94140C0B
:1061400082E090E00E94163B682F70E080E090E0D3
:1061500003E020E24EEF0E94230D83E090E00E94D6
:10616000163B682F70E080E090E020E24EEF0E9446
:10617000230D81E090E00E94163B682F70E080E0E4
:1061800090E024E04EEF0E94230D0E944D0A8BEE1A
:1061900091E00E94140C60913C0170913D0180E0FF
:1061A00090E024E04FEF0E94230D0E94580A84EEF5
:1061B00091E00E94140C60914D0170914E0180E0BD
:1061C00090E024E04FEF0E94230D88E99AE30E94BB
:1061D0004710809120018B3008F085C080911F010D
:1061E00087FDA2CF0E94A50A80EE91E00E94140CC8
:1061F00089E090E00E94163B682F70E080E090E01C
:1062000003E020E240E00E94230D8AE090E00E943B
:10621000163B682F70E080E090E020E240E00E94B2
:10622000230D86E090E00E94163B682F70E080E02E
:1062300090E026E444EF0E94230D0E94420A83E08E
:106240000E94EE0B85E090E00E94163B682F70E004
:1062500080E090E020E240E00E94230D88E090E0A2
:106260000E94163B682F70E080E090E020E240E062
:106270000E94230D84E090E00E94163B682F70E09E
:1062800080E090E026E444EF0E94230D0E944D0A36
:106290008CE491E00E94140C8BE090E00E941E3B85
:1062A0000E94450C0E94580A85E491E00E94140C5B
:1062B0008DE090E00E94163B992787FD90950E9403
:1062C000450C88E99AE30E944710809120018B30A9
:1062D00050F480911F018F3F0CF426CF8F3F09F4BB
:1062E00081CF0E941B0E0F9108958F7021F40E94A0
:1062F000580A0C94091608950F93CF938DEB91E0F3
:106300006ADC6CE080E00E94630A88EB91E00E9406
:10631000140CC0E00E944F1160E082E00E94571C04
:1063200062E080E00E94571C0E94420A8091830133
:10633000882349F10E941B2381E00E94B50C8091C3
:1063400002018823F1F080E793E00E94140C609131
:106350000C0170910D0180910E0190910F0103E0ED
:1063600028E4409102010E94230D65E080E00E9434
:10637000630A84E492E00E94140C82E00E94EA0B1B
:1063800012C08CE004C08FE30E94A80B83E10E943E
:10639000EE0B65E080E00E94630A82E00E94EA0B57
:1063A00084E00E94EE0B8C2FA0DF88EE93E00E9429
:1063B000471081110DC080912001843048F48091F4
:1063C0004001813009F4C0E0CF5FCA3F08F4A2CF9A
:1063D0000E94A50ACF910F9108950F93CF93DF9359
:1063E00081EB91E0F8DB6DE080E00E94630A8DEACA
:1063F00091E00E94140CC0E0D7E00E944F1110926F
:1064000097011092960160E082E00E94281F0E948E
:10641000420A80919A0187FF6FC088E00E94EE0BCC
:106420000E94420A609188017091890180918A01DD
:1064300090918B0104E026E440919A010E94230D83
:10644000D093270160E082E00E944F259093950150
:106450008093940168E08A3F9F4F08F582E00E9494
:10646000630A8CE793E00E94140C60919401709190
:10647000950180E090E002E024E04EEF0E94230DC1
:1064800082E00E94EE0B64E080E00E94630A89E4EF
:1064900092E00E94140C82E00E94EA0B10C082E09D
:1064A0000E94630A8AE00E94EE0B64E080E00E9492
:1064B000630A82E00E94EA0B85E00E94EE0B0E94D4
:1064C0002A270E944D0A8091960190919701892B6D
:1064D000D9F084E793E00E94140C609196017091CA
:1064E000970180E090E002E025E24FEF0E94230D4B
:1064F00084E00E94EE0B0AC08FE30E94A80B82E1A9
:106500000E94EE0B0E944D0A0E94FF0B8C2FEDDEC5
:1065100088EE93E00E94471081110DC08091200108
:10652000843048F480914001813009F4C0E0CF5FAD
:10653000CA3F08F462CF0E94A50ADF91CF910F9164
:1065400008951F93CF93DF9380E090E00E94163B65
:10655000182F843131F5C0E0D0E0CE018C5F9F4F21
:106560000E94163BCC23A1F0C33099F4811789F027
:10657000282F30E0412F50E0BA016F5F7F4F261780
:10658000370739F04E5F5F4F2417350711F009C008
:10659000182F8A50853B28F42196C730D105E9F69B
:1065A0003DC00E94390A85E40E94A80B85E40E9440
:1065B000A80B63E08DE090E00E94233B6CE070E06C
:1065C0008BE090E00E94313B69E379E384E090E066
:1065D0000E94313B6BE386E090E00E94233B6BE33B
:1065E00087E090E00E94233B6BE388E090E00E940C
:1065F000233B69E379E389E090E00E94313B64E169
:1066000074E180E090E00E94313B64E174E182E05B
:1066100090E00E94313B88EC0E946B0FDF91CF919C
:106620001F910895A4E0B0E0E7E1F3E369C780E4D7
:106630008AB98BB986E880937A001092C10014B7AA
:1066400084B7877F84BF88E10FB6F8948093600099
:10665000109260000FBE86E88093640088E3809308
:106660007E001092B00087E08093B10078940E9481
:10667000BF0A13FD45C680E185BF63DF84E08093D8
:106680001E0110E04F9906C082E00E946B0F1F5F51
:106690001C33C1F78FE59DE6909319018093180193
:1066A0001F3130F080E69DE6909319018093180128
:1066B000109237010E9451221C3308F001DA08E1E0
:1066C000C02ED12C83E5A82E81E0B82E9DE6E92EC0
:1066D00091E0F92E0E94A50A28E027B90E944F11E7
:1066E0000E9451220E94940A0E94390A0E940916AF
:1066F0003FE00FB6F894A895C09260000FBE3093AB
:10670000600080914F01882381F00E94420A81E855
:1067100093E00E94140C63E080913A0190913B0158
:106720000E94E20D88EC0E946B0F0E94420A0E94B8
:106730005B1E80912701883041F50E94A50A86E8FA
:1067400093E00E94140C0E94420A63E080910601CB
:10675000909107010E94E20D0E94EC0B63E0809192
:106760000801909109010E94E20D0E94EC0B63E088
:1067700080910A0190910B010E94E20D8AEC0E9427
:106780006B0F81E10E94C71136C587E090E04ED7BC
:10679000082F84E090E04AD7081B00934C0180E06A
:1067A0000E94C7110E94420A8FEE94E00E94140CCE
:1067B00042E061E080E00E944E1642E060E081E04D
:1067C0000E944E1641E062E080E00E944E1641E0D9
:1067D00060E082E00E944E1640E062E081E00E94AC
:1067E0004E1640E061E082E00E944E168091270143
:1067F000811111C083E40E94A80B0E945B1E60E01F
:1068000082E00E94281F61E082E00E94281F60E071
:1068100081E00E94281F0E94A50AB0925101A09217
:10682000500180912701853071F485E30E94620B4D
:1068300060E188EF0E94FC0D66E080E00E94630A40
:1068400086EC94E00FC08630F9F484E30E94620B7A
:1068500060E188EF0E94FC0D66E080E00E94630A20
:106860008FEC94E00E94140C66E082E00E94630AC0
:106870008AE993E00E94140C62E0809157019091A4
:1068800058010E94E20DB7C4873009F06BC08091B7
:1068900098010E94EA0B8CE893E00E94140C80910E
:1068A00099010E94EA0B0E942A27809196019091FB
:1068B0009701892B89F00E944D0A84E793E00E949A
:1068C000140C609196017091970180E090E002E0D5
:1068D00025E24FEF0E94230D0E94420A60918C0135
:1068E00070918D0180918E0190918F0104E026E4DA
:1068F00040919B010E94230D609198018091990124
:106900000E944F2590939501809394018A3F9F4F59
:10691000E8F48BE793E00E94140C6091940170916D
:10692000950180E090E002E024E04EEF0E94230D0C
:1069300064E080E00E94630A89E492E00E94140C03
:10694000809199010E94EA0B0E94EC0B2091980122
:106950008091990190E0820F911D029709F04BC43C
:106960003CDDB8CE823009F0E6C08091250181304F
:1069700009F043C090919E018091A401981750F4B2
:10698000892F0E94EA0B87E592E00E94140C809107
:10699000A40108C00E94EA0B83E592E00E94140C57
:1069A00080919E010E94EA0B60919E018091A4015A
:1069B0000E94B61580E70E94EA0C60919E018091CA
:1069C000A4010E94281F80919A018D3F0CF030C3D2
:1069D0000E944D0A8EEB93E00E94140C6091880196
:1069E0007091890180918A0190918B0102E026E4E7
:1069F00040919A010E94230D1BC3823009F048C0C8
:106A000082E30E94A80B8EE492E00E94140C809115
:106A10009E0120919F01821313C08091A4010E94C6
:106A2000EA0B83E592E00E94140C80919E010E9483
:106A3000EA0B87E592E00E94140C8091A50116C034
:106A40003091A4019091A501391316C00E94EA0B60
:106A500087E592E00E94140C8091A4010E94EA0B49
:106A600083E592E00E94140C80919F010E94EA0B42
:106A700081E00E94EA0CDCC2321304C081E0809302
:106A8000130140C0981341C0F0E1F09313013AC0E4
:106A90008330D9F583E3809313018091A401909111
:106AA0009F01891303C021E02093130140919E01AF
:106AB0003091A501431303C020E1209313012091DD
:106AC000A001821303C082E0809313018091A6018C
:106AD000481303C040E240931301321303C022E184
:106AE00020931301981303C081E2809313018091D6
:106AF0001301823250F483E30E94A80B8EE492E0EB
:106B00000E94140C0E94000D93C285ED94E00E9437
:106B1000140C8DEB94E00E94140C0E94420A81EA4E
:106B200094E00E94140C80912501805D0E94A80BC6
:106B300087E592E056C3833009F04CC180917C0117
:106B4000882399F180916201882379F160915F0136
:106B5000809161010E94281F409088015090890116
:106B600060908A0170908B0110919A0160917B0175
:106B7000809179010E94281F80919A0118130EC0FC
:106B80008091880190918901A0918A01B0918B0137
:106B9000481659066A067B0618F004C0181714F444
:106BA0008DE001C08CE08093260180917C018823D8
:106BB00061F080916201882341F04F9906C0809175
:106BC000260191E089278093260166E080E00E94FB
:106BD000630A80E30E94620B809126018C3051F49D
:106BE00086EB93E00E94140C80917C018823A9F02D
:106BF00080E711C0F0925101E09250018BEC90E0DF
:106C00000E94A60B8EEA93E00E94140C8091620110
:106C1000882319F08EE60E94A80B2091250140914F
:106C2000500150915101A4EAB1E06EE971E0162FD4
:106C30008EE991E0181B1217C0F4FB018191BF018E
:106C4000FA019485891719F03C91391302C0119605
:106C5000EECFFA019585981302C060E001C062E0B2
:106C600080E990E00E948E0B01C014E160E189EFA1
:106C70000E94FC0D86E00E946D0A85EC93E00E9464
:106C8000140CE0915001F091510160817181828179
:106C9000938103E020E040E00E94230D87E00E9402
:106CA0006D0A89E40E94A80BE0915001F091510116
:106CB000868197818031974270F085E60E94A80B0B
:106CC000E0915001F0915101868197818051974266
:106CD0009783868303C083E60E94A80B0E94070C5B
:106CE000E0915001F09151016681778180E090E060
:106CF00002E021E44AEF0E94230D86E00E946D0A23
:106D00008EE993E00E94140CE0915001F091510142
:106D100063E0848195810E94E20D81E080935201BD
:106D2000E0915001F091510180859185892B99F076
:106D300085E00E94830A80E392E00E94140CE091B7
:106D40005001F09151016085718580E090E021E46F
:106D50004AEF0E94230DE0915001F091510182858C
:106D60009385892BA1F085E00E94830A8AE292E054
:106D70000E94140CE0915001F091510162857385DD
:106D800080E090E002E021E44AEF0E94230D1530FC
:106D9000F0F480E00E94830A812E912C9401225607
:106DA0003E4F4901F90186810E94EA0B83E592E09A
:106DB0000E94140CF40180810E94EA0B0E94EC0BEB
:106DC0008AE993E00E94140C812F0E94DC0C43E4BA
:106DD00062E426C1843009F036C166E080E00E949A
:106DE000630A8091260184FF09C080E50E94A80BF8
:106DF000F0925101E092500101E004C08EE40E9443
:106E0000A80B00E08DE20E94A80B80912601182FAC
:106E10001F70143061F480ED93E00E94140C83E342
:106E20000E94620B0023E1F184ED90E037C085FF02
:106E300005C084E40E94A80B0E5F03C085E40E9495
:106E4000A80B1330B1F48AEC93E00E94140C81E398
:106E50000E94620B013019F48DE291E01FC00230F4
:106E600019F481E291E01AC00330D1F48DEF90E083
:106E700015C085ED93E00E94140C82E30E94620B22
:106E8000013019F483EF90E009C0023019F48DEE5F
:106E900090E004C0033021F48BED90E00E94A60B3B
:106EA00080912501813029F58091260184FF08C059
:106EB00090917A0180917B01981740F080E007C0A3
:106EC00090916001809161018917C0F781E0982E4F
:106ED000E0915001F0915101958580919E019813A8
:106EE00002C060E001C062E080E990E00E948E0B89
:106EF00001C0912C60E189EF0E94FC0D86E00E94A8
:106F00006D0A8091260185FD2FC086E993E00E94DD
:106F1000140CE0915001F091510162E0828593855B
:106F20000E94E20DE0915001F09151016685848547
:106F30000E94281F86E00E946D0A0E942D0C85E0A9
:106F40000E946D0A88EA91E00E94140CE0915001C1
:106F5000F09151016481758180E090E002E024E0CD
:106F60004FEF0E94230D2FC08F70843051F0E091BD
:106F70005001F0915101668584850E94281F0E946E
:106F80002D0C80E00E946D0A89E40E94A80B0E94EB
:106F9000070CE0915001F09151016681778180E00A
:106FA00090E002E021E44AEF0E94230D80E993E0A3
:106FB0000E94140CE0915001F091510162E0828531
:106FC00093850E94E20D80912501813029F580E0B2
:106FD0000E94830A992059F080919E010E94EA0B39
:106FE00087E592E00E94140C8091A4010AC0809170
:106FF000A4010E94EA0B83E592E00E94140C8091A8
:107000009E010E94EA0B0E94EC0B8AE993E00E9429
:10701000140C80E00E94DC0C133021F443E467E49C
:1070200085E403C044E467E483E50E947E0CE3C08A
:1070300080918301882309F4DEC038E137B988E004
:1070400087B90E944D0A00918301002309F4BDC055
:10705000013039F480916A010E94AB0C092F392E5E
:1070600059C010916A0130916B01F4E03F9FD0014B
:107070001124AA54BE4F24E0129FF0011124EA54B7
:10708000FE4F4D915D916D917C9180819181A281A6
:10709000B38184179507A607B70710F0212F01C009
:1070A000232F023021F4310F13E0131B1CC0109169
:1070B0006C0134E0139FD0011124AA54BE4F84E028
:1070C000289FF0011124EA54FE4F4D915D916D917E
:1070D0007C9180819181A281B38184179507A60755
:1070E000B70708F0122F113029F0123039F001E003
:1070F00022E002C002E021E080E003C002E020E0E4
:1071000081E02C830E94EA0B89E492E00E94140C37
:107110002C81822F0E94EA0B89E492E00E94140CD9
:10712000802F0E94EA0B80912701823019F40E947F
:10713000580A02C00E94420A80918301813089F579
:107140000E941B2380916A010E94B50C809102016C
:107150008823E9F080E793E00E94140C60910C0111
:1071600070910D0180910E0190910F0103E028E4D0
:10717000409102010E94230D65E080E00E94630AB5
:1071800084E492E00E94140C832D0E94EA0B80910B
:107190006A01813081F58091250181112CC0ACD824
:1071A00099CA111102C081E003C0113029F480E0B6
:1071B0000E94B50C82E006C01230E9F480E00E9423
:1071C000B50C81E00E94B50C16C08DEA94E00E94D7
:1071D000140C0E94420A8AED94E00E94140C85ED82
:1071E00094E00E94140C86E00E94620B10E4812E51
:1071F0001FE1912E04C0809018019090190198E130
:1072000097B94F9BFECFC4010E944710182F8233BD
:1072100018F00E94602D5ECA809120018330C8F76B
:10722000111158CA8111EFCF80914C01882309F4C4
:1072300061C0B4E04B2E1B821A8280E090E000E136
:107240002A813B81255A3D4F4901F401E80FF91F7E
:107250002490E0E22E1201C0082F019681319105A1
:10726000A1F7442031F0142D137059F40E94A50A9F
:1072700008C080E197E20E9447108823A1F311E142
:1072800035C060E0812F880F0E94630A4394F42D7B
:10729000F3704F2E612C712C162D601698F4F401AA
:1072A000E60DF71D2490222009F12FEF221203C0D2
:1072B0000E94EC0B03C0822D0E94A80B3FEF631AC3
:1072C000730AEACF222091F02A813B81200F311DE1
:1072D0003B832A83F901E55AFD4FE491E03209F03E
:1072E000ACCF2F5F3F4F3B832A83A7CF80E197E24C
:1072F0000E9447105E9880E090E00E944710EAC923
:107300000E94390A88E994E00E94140C8BEC0E94D8
:107310006B0F5E9880E090E02496E2E10DC1A29FA1
:10732000B001B39FC001A39F700D811D1124911D59
:10733000B29F700D811D1124911D0895F0DFB7FFDC
:107340000895821B930B0895EADFA59F900DB49FCB
:10735000900DA49F800D911D11240895DB018F9342
:107360009F93F2DFBF91AF91A29F800D911DA39FCC
:10737000900DB29F900D11240895AA1BBB1B51E1E3
:1073800007C0AA1FBB1FA617B70710F0A61BB70B95
:10739000881F991F5A95A9F780959095BC01CD013A
:1073A000089597FB072E16F4009406D077FD08D0B9
:1073B000E4DF07FC05D03EF4909581959F4F08953A
:1073C000709561957F4F0895A1E21A2EAA1BBB1BF1
:1073D000FD010DC0AA1FBB1FEE1FFF1FA217B307A1
:1073E000E407F50720F0A21BB30BE40BF50B661FB7
:1073F000771F881F991F1A9469F76095709580957B
:1074000090959B01AC01BD01CF010895052E97FB1E
:1074100016F400946DD057FD05D0D6DF07FC02D0DE
:1074200046F466C050954095309521953F4F4F4F9B
:107430005F4F0895689401C0E8948F929F92CF9314
:10744000DF9305D0DF91CF919F908F90089588248E
:107450009924F401E401B0E49F93AA279A158B04C0
:107460009C04ED05FE05CF05D007A10798F4AD2FCC
:10747000DC2FCF2FFE2FE92D982C892E982F872FC8
:10748000762F652F542F432F322F2227B85031F7F4
:10749000BF9127C01B2EBF91BB27220F331F441F54
:1074A000551F661F771F881F991F881C991CEE1F88
:1074B000FF1FCC1FDD1FAA1FBB1F8A149B04EC05F6
:1074C000FD05CE05DF05A007B10748F08A189B0827
:1074D000EC09FD09CE09DF09A00BB10B21601A945C
:1074E000E1F62EF49401AF01BE01CD01000C089528
:1074F00090958095709561957F4F8F4F9F4F089520
:107500002F923F924F925F926F927F928F929F92B3
:10751000AF92BF92CF92DF92EF92FF920F931F93A1
:10752000CF93DF93CDB7DEB7CA1BDB0B0FB6F89452
:10753000DEBF0FBECDBF09942A88398848885F8492
:107540006E847D848C849B84AA84B984C884DF8003
:10755000EE80FD800C811B81AA81B981CE0FD11DE7
:107560000FB6F894DEBF0FBECDBFED010895EE0F4C
:10757000FF1F0590F491E02D09940F93083090F0CF
:10758000982F872F762F652F542F432F322F2227A6
:107590000850F4CF220F331F441F551F661F771F5B
:1075A000881F991F0A95B2F70F9108952A193B0970
:1075B0004C095D096E097F09800B910B0895FA0152
:1075C000CF93FF93EF932230C4F02532B4F4C22F4F
:1075D0002C2F332744275527FF93EF93F5DEEF91A8
:1075E000FF91605D6A330CF0695D6193B901CA0176
:1075F000605070408040904059F710828F919F9169
:10760000CF9132C0FB019F0142306CF045325CF4F7
:10761000642F7727B2DE805D8A330CF0895D819319
:10762000CB010097A9F71082C9011EC0F999FECFBE
:1076300092BD81BDF89A992780B50895A8E1B0E080
:1076400042E050E023C0262FF999FECF1FBA92BD29
:1076500081BD20BD0FB6F894FA9AF99A0FBE019633
:107660000895F1DF272FF0CFDC01FC01672F719126
:107670007723E1F7329704C07C916D937083629118
:10768000AE17BF07C8F30895DC01CB01FC01F999DF
:10769000FECF06C0F2BDE1BDF89A319600B40D925E
:0C76A00041505040B8F70895F894FFCF17
:00000001FF
